:020000040800F2
:10000000C041012085020008050400080104000821
:100010000304000815030008710500080000000033
:10002000000000000000000000000000C501000802
:1000300099030008000000002102000829040008BC
:100040009F0200089F0200089F0200089F0200080C
:100050009F0200089F0200089D0300089F020008FD
:100060009F0200089F0200089F0200089F020008EC
:100070009F0200089F0200089F0200089F020008DC
:100080009F0200089F0200089F0200089F020008CC
:100090009F0200089F0200089F0200089F020008BC
:1000A0009F0200089F0200089F0200089F020008AC
:1000B0009F0200089F0200089F0200089F0200089C
:1000C0009F0200089F0200089F0200089F0200088C
:1000D0009F020008190500089F0200089F020008FF
:1000E0009F0200089F0200089F0200089F0200086C
:1000F0009F0200089F0200089F0200089F0200085C
:100100009F0200089F0200089F0200089F0200084B
:100110009F0200089F020008E90400089F020008EF
:100120009F0200089F020008710300089F02000858
:100130009F0200089F0200089F0200089F0200081B
:100140009F0200089F0200089F0200089F0200080B
:100150009F0200089F0200089F0200089F020008FB
:100160009F0200089F0200089F0200089F020008EB
:100170009F0200089F0200089F0200080000000084
:100180009F0200089F0200089F0200089F020008CB
:100190009F0200089F0200089F0200080000000064
:1001A0009F0200089F0200089F020008DFF810D09D
:1001B00000F09EF8004800472D0A0008AFF30080C9
:1001C000C04101202C4B19680868B0E8F04F80F35B
:1001D0000988BFF36F8F4FF0000080F311887047DC
:1001E0000000000008480068006880F308884FF0AD
:1001F000000080F3148862B661B6BFF34F8FBFF37F
:100200006F8F00DF00BF00BF08ED00E0DFF80C00DB
:10021000016841F470010160704700BF88ED00E0A3
:10022000EFF30980BFF36F8F134B1A681EF0100FA6
:1002300008BF20ED108A20E9F04F106009B44FF09C
:10024000500080F31188BFF34F8FBFF36F8F01F021
:1002500093FD4FF0000080F3118809BC196808680D
:10026000B0E8F04F1EF0100F08BFB0EC108A80F31A
:100270000988BFF36F8F70470C000020EFF30580F3
:10028000704700000648804706480047FEE7FEE743
:10029000FEE7FEE7FEE7FEE7FEE7FEE7FEE7FEE736
:1002A00055040008AD01000840EA01039B0703D094
:1002B00009E008C9121F08C0042AFAD203E011F8A5
:1002C000013B00F8013B521EF9D27047D2B201E067
:1002D00000F8012B491EFBD270470022F6E710B54B
:1002E00013460A4604461946FFF7F0FF204610BDA4
:1002F000064C074D06E0E06840F0010394E8070073
:1003000098471034AC42F6D3FFF754FFA4250008F9
:10031000C4250008FEE700007CB501F057FB00256E
:1003200002242B4632220BA10C48CDE9004501F0F6
:100330002DFF002332220AA10B48CDE9004501F030
:1003400025FF0A48006801F02DFCBDE87C4001F063
:100350005DBB00007461736B5F610000891500086C
:100360007461736B5F620000AD150008000000202F
:1003700010B5084C20220221204600F0D7F90128B0
:1003800006D120462022BDE81040022100F0B3B97A
:1003900010BD000000640240FEE7000010B501201F
:1003A00000F09AFA012815D101210B4800F0D9FA82
:1003B000012807D009A000F0DDF8BDE810400120B9
:1003C00000F084BA8021094800F0C9FA08A000F0C2
:1003D000D1F8F2E710BD0000000002406B65792003
:1003E00072656C65617365210D0A0000000C0240A6
:1003F0006B6579207072657373210D0A000000002F
:10040000FEE7FEE7FEE70907090E002806DA00F01E
:100410000F0000F1E02080F8141D704700F1E0208B
:1004200080F800147047000010B5502080F3118848
:10043000BFF34F8FBFF36F8F01F0F0FE18B1044987
:100440004FF080500860002080F3118810BD00003C
:1004500004ED00E018B42048016841F47001016027
:100460001E48016841F00101016001688907FCD55F
:100470001A4A0832116841F080011160002300938C
:1004800002E00099491C009100995029F9D31168A4
:1004900041F090011160009302E00099491C009125
:1004A00000995029F9D3116821F003011160016806
:1004B0000B4C21400160016821F480210160136030
:1004C000106806490748091D086004480C3003609D
:1004D00018BC01F031B8000088ED00E0003802409F
:1004E000FFFFF6FE1030002410B5094C0121204614
:1004F00001F06FF8012809D10121204601F066F8CA
:10050000BDE810408021034800F029BA10BD00006A
:1005100000100040000C024070B5114C0F492046FD
:1005200001F0C0F9012817D1204601F0B9F80D4DAE
:100530000221284600F0C4F90B4CC0F580506080C1
:100540000221284600F03EF800F05AF80749628878
:10055000002088540120207070BD000004030400B6
:100560000010014000640240040000208C000020C4
:10057000FEE70000014A024900F013B8ED08000848
:100580008800002002E008C8121F08C1002AFAD122
:1005900070477047002001E001C1121F002AFBD103
:1005A00070472DE9F04116460F460446002503E04A
:1005B0003946B047641C6D1C20780028F8D12846C5
:1005C000BDE8F08101EB410100EBC100016921F0C0
:1005D00001010161704701EB410100EBC1000169BC
:1005E00041F001010161704701EB410100EBC100E5
:1005F000016921F0606141EA4261016170470000D8
:1006000010B58AB040F6164000F00EFF194C0221DA
:10061000204600F035F8184801900122029217494F
:10062000039100210491059106920791801408908E
:100630004FF44030099001AA0221204600F0F8F85A
:10064000042202212046FFF7CFFF02212046FFF7B8
:10065000C2FF10220221204600F03EF801220221B2
:100660003A2000F003FA04484021001F01F090F8FE
:100670000AB010BD00640240041001408C0000204C
:1006800001EB410200EBC202136923F00103136185
:100690000023136153619361D36113622123536279
:1006A0003D2204290BD201EB41035B00C1F3400161
:1006B00003EB81018A4081680A4382607047091F09
:1006C00001EB41035B00C1F3400103EB81018A4070
:1006D000C1680A43C260704701EB410100EBC100F1
:1006E000802A03D00169114301617047416A41F0DA
:1006F00080014162704704290BD201EB41035B008A
:10070000C1F3400103EB81018A4081680A438260A2
:100710007047091F01EB41035B00C1F3400103EB8C
:1007200081018A40C1680A43C2607047F0B5002465
:10073000002301EB410500EBC505042938D201EB8C
:1007400041077F00C1F34001164607EB81018A4053
:10075000082E18D004DC012E07D0042E61D10BE046
:10076000102E17D0202E5CD11BE0006802EA000397
:10077000686A00F0800454E0006802EA0003286917
:1007800000F002044DE0006802EA0003286900F06E
:10079000040446E0006802EA0003286900F0080447
:1007A0003FE0006802EA0003286900F0100438E026
:1007B000091F01EB41077F00C1F34001164607EB1B
:1007C00081018A40082E18D004DC012E07D0042EA7
:1007D00027D10BE0102E17D0202E22D11BE040682D
:1007E00002EA0003686A00F080041AE0406802EA46
:1007F0000003286900F0020413E0406802EA0003E5
:10080000286900F004040CE0406802EA000328694B
:1008100000F0080405E0406802EA0003286900F0DF
:10082000100413B10CB10120F0BD0020F0BD000098
:1008300030B501EB410100EBC100416A21F0040138
:100840004162116881619168C161D1694161036947
:100850001A490B40146A116995690C4345EA8101F4
:100860000C4344EA030101615168002912D00129B7
:1008700015D0016941F400410161D168A1B101695C
:1008800021F480610161516999B1016921F480719C
:10089000016130BD016941F400710161EDE7016959
:1008A00021F400710161E8E7016941F480610161AF
:1008B000E9E7016941F48071016130BD3F87FCFFC8
:1008C00001EB410100EBC10040697047014908603C
:1008D00070470000143C014003490968014201D0FF
:1008E0000120704700207047143C014010B50446B9
:1008F000E0B200F0FFFF204610BD2DE9F043046A8E
:10090000456A002301274FF00F0C07FA03F6164241
:1009100008D09E000CFA06F824EA080401FA06F84A
:1009200048EA04045B1C9BB2082BEED3082307FAA9
:1009300003F818EA020F0AD0A3F10806B6000CFA71
:1009400006F825EA080501FA06F949EA05055B1CDF
:100950009BB2102BEBD304624562BDE8F083C16209
:1009600070470069084201D001207047002070479D
:100970002DE9F0470568C66800244FF001084FF0E4
:10098000030908FA04F71F420ED0670009FA07FCB2
:1009900025EA0C0501FA07FA4AEA050526EA0C06DB
:1009A00002FA07FC4CEA0606641CA4B2102CE8D339
:1009B0000560C660BDE8F0872DE9F04101291AD035
:1009C000416899434160846800214FF001084FF06D
:1009D000030C08FA01F71F4206D04D000CFA05F689
:1009E000B44302FA05F63443491C89B21029F0D306
:1009F0008460BDE8F081416819434160E3E700008D
:100A000010B540F6034000F00FFD074C8023002294
:100A100001212046FFF7ACFF204680230222BDE8DB
:100A200010400021FFF7C8BF000C02401CB500F0C9
:100A300085FDFFF7E5FF4FF4165000F0C5FE0648B0
:100A40000121CDE900100023802204A1064801F015
:100A50009DFB01F051F9FEE7000000204372617434
:100A6000655461736B0000001903000870B50546FA
:100A70000E460023002423480168C1F30221072900
:100A800032D00168C1F3022106292FD00168C1F3D9
:100A9000022105292DD00168C1F3022104292BD0A0
:100AA0000068C0F30220032829D04FF4A06000F0B2
:100AB0002BF802230224C3F104008640C4F1040190
:100AC0000F20C84010403043000105F1E02181F8BB
:100AD000000405F01F01012088406909890001F127
:100AE000E021C1F8000170BD0424E4E701230324E0
:100AF000E1E702230224DEE703230124DBE70423EA
:100B0000D9E700000CED00E0024908430249086003
:100B1000704700000000FA050CED00E02DE9F041FF
:100B200004460F461E4DEE682868001D00F008FFC1
:100B300038B9286890F82C10012088402969814331
:100B40002961601C15D1A7B1164948682A689060D0
:100B500082682B68DA602A688368121D5A602A68E6
:100B6000121D8260286841610868401C0860BDE869
:100B7000F081344428684460B44206D22968E86BA6
:100B8000091DBDE8F04100F0FCBE2968A86B091DF5
:100B900000F0F7FEA86A8442E9D2AC62E7E7000001
:100BA0000C0000208011002070B5044600F00EFFFC
:100BB000254DA868401CA860286810B1686938B144
:100BC0000CE02C60A868012808D100F053F905E07A
:100BD0002868E16AC06A884200D82C60686A401CB4
:100BE00068622064E06A01212A6981401143296119
:100BF000164A00EB800002EB80004068A06081682C
:100C0000E1608368211D59608160E06A00EB80002B
:100C100002EB8001616152F82010491C42F820105B
:100C200000F0F4FE686900280CD02868E16AC06A08
:100C3000884207D206494FF080500860BFF34F8FBB
:100C4000BFF36F8F70BD00000C000020CC1000209F
:100C500004ED00E010B500F0B9FE0E4C2068A0B91C
:100C60000D4800F080FE0C48143000F07CFE0A486D
:100C7000E0601430206100220C210A2001F026F9E6
:100C8000206010B105A100F01BFFBDE8104000F08E
:100C9000BDBE00004C00002094110020546D725124
:100CA0000000000070B50C4D0C4E11E000F08EFEFF
:100CB000F068C468201D00F043FEA868401EA860CC
:100CC0006868401E686000F0A1FE204600F01CF835
:100CD00068680028EAD170BD0C0000206C1100206B
:100CE00030B40B46026C002A0CD0C1681144C160BC
:100CF0008468A14201D30168C160C16830BC184654
:100D0000FFF7D2BA30BC704710B50446206B00F034
:100D100093FE2046BDE8104000F08EBE0749CA6829
:100D20001168002904D00021016019B1002070472A
:100D30000121F9E7D0680068704700004C000020EE
:100D40004FF496310E48420706D0C01D20F0070030
:100D50000B49411AC1F596310A4B186000225A60BE
:100D60000144083921F00701143B19604A600A6008
:100D70000A1A42600160406898605860704700003D
:100D8000BC11002074000020074E4FF08054074D26
:100D9000FFF788FF30680128FAD92C60BFF34F8F26
:100DA000BFF36F8FF4E70000CC10002004ED00E0EB
:100DB00070B51D46049C002909D02260E0632164BF
:100DC0000121204601F0AAF884F84C5070BD24603F
:100DD000F4E72DE9F0478146DDE908680A9C0D46F5
:100DE00017469A46B900A522206BFFF76FFA206BD1
:100DF0007F1E00EB870020F00707780707D0502000
:100E000080F31188BFF34F8FBFF36F8FFEE765B19B
:100E100000202218295C82F83410295C11B1401C92
:100E20000A28F6D3002084F83D00052E07D3502071
:100E300080F31188BFF34F8FBFF36F8FFEE7E66239
:100E4000A664201D00F09AFD04F1180000F096FD44
:100E50002461C6F10500A0616462524649463846E5
:100E600000F05EFA2060B8F1000F01D0C8F8004031
:100E7000BDE8F08770B50024124D04EB840005EB4B
:100E8000800000F070FD641C052CF6D30D48643022
:100E900000F069FD0B48783000F065FD09488C30A2
:100EA00000F061FD0748A03000F05DFD0548B4305A
:100EB00000F059FD03490448643181631431C16372
:100EC00070BD0000CC1000200C00002030B513498C
:100ED00000E011460A688242FBD34B685C188442EA
:100EE00003D140681844486008460D6844682318D8
:100EF000AB420DD1094B143B1B689A4206D0526895
:100F0000224442600A681268026002E0036000E066
:100F10000260814200D0086030BD000074000020F3
:100F200070B50024416000610C4D91420AD8D11A7D
:100F30008269914201D301240EE0011D286900F06D
:100F400020FD09E09A4203D2994201D3012403E033
:100F5000011DE86800F015FD204670BD4C00002022
:100F600010B5044600F032FDA06B20B1002400F063
:100F70004DFD204610BD0124F9E7000070B505467F
:100F80000E460D48C068C068C468201D00F0D8FC3B
:100F900094F82800410705D532462946204600F03E
:100FA000B5F803E000F0FE0084F828002046216A2E
:100FB000BDE87040084700004C0000207FB5374E68
:100FC00063E00198002860DB039C606910B1201D7C
:100FD00000F0B6FC684600F0BDF8054601980A2806
:100FE00053D2DFE800F0520505282E460505282ECD
:100FF00094F8280040F0010084F828000298A169C4
:10100000034601442A462046FFF78AFF40B394F87E
:101010002800410707D50298A1692A4601442046C5
:1010200000F074F803E000F0FE0084F82800216A64
:101030002046884729E014F8280F00F0FE002070B1
:1010400023E094F8280040F0010084F8280002987A
:10105000A06130B141192B462A462046FFF760FFB8
:1010600013E0502080F31188BFF34F8FBFF36F8FD1
:10107000FEE794F82800810703D4204600F0DCFC4A
:1010800003E000F0FE0084F82800002201A9306887
:1010900000F09EFF002894D17FBD00004C0000208E
:1010A000F8B506460D4600F05FFE684600F052F8BF
:1010B0000446009810B101F0B7F9F8BD45B9A64251
:1010C00006D801F0B1F921463046FFF757FFF8BDC9
:1010D0000C481DB10169096891B10025311B2A46F0
:1010E000006800F013FD01F09FF90028EFD10649D8
:1010F0004FF080500860BFF34F8FBFF36F8FF8BD84
:101100000125EBE74C00002004ED00E070B505463A
:101110000C46164604E0A8690444296A2846884714
:10112000A8692346011932462846FFF7F9FE002830
:10113000F1D170BD0648816B0968002904D0816B2C
:10114000C9680968816270474FF0FF31816270475A
:101150000C00002070B5054601F05AF80446074E11
:10116000B068844204D200F00BF80120286001E04E
:1011700000202860B460204670BD00004C000020B4
:1011800070B5094C4FF0FF3504E0C068006829468F
:10119000FFF7F4FEE0680268002AF6D1E0682169F2
:1011A000E160206170BD00004C00002009484068EB
:1011B000401C07D0502080F31188BFF34F8FBFF33E
:1011C0006F8FFEE7502080F31188BFF34F8FBFF37E
:1011D0006F8FFEE77C00002008B56846FFF79EFD94
:1011E0000099FFF75DFFFFF7E9FEF6E72DE9F04113
:1011F000044600F0EBFB94F9455004F1240609E0A5
:10120000606A48B1304601F0A1F808B100F02AFD4B
:101210006D1E6DB2002DF3DC4FF0FF3684F8456093
:1012200000F0F4FB00F0D2FB94F9445004F11007F5
:1012300009E0206948B1384601F088F808B100F0AB
:1012400011FD6D1E6DB2002DF3DC84F84460BDE825
:10125000F04100F0DBBB00002DE9F041054600261F
:1012600000F082FD2D4F386808B9FFF769FD4DB1D8
:1012700005F00700C0F11000C1438D4201D80544BC
:1012800000E00025002D39DD7868854236D82349F5
:1012900014310846046801E0214604466068A8420B
:1012A00002D220680028F7D13868844226D00E6820
:1012B0000836206808606068411B10290ED9601943
:1012C000420707D0502080F31188BFF34F8FBFF340
:1012D0006F8FFEE741606560FFF7F8FD6168786831
:1012E000401A7860BA68904200D2B86041F000407D
:1012F000606000202060F868401CF86001F094F8FD
:10130000700707D0502080F31188BFF34F8FBFF3D1
:101310006F8FFEE73046BDE8F081000060000020DE
:1013200024384FF08073036221F00101C161044948
:10133000816142606FF0020140F82019704700009F
:10134000AD110008F0B588B0024600202FA104AE10
:1013500091E83800C96838C607912DA10AC9CDE9BE
:1013600002132BA10AC9CDE900132C4C2168C1F34B
:1013700081012B4B002925D0DFF8A8C0012923D0FB
:10138000022923D019462368C3F3031304ADEB5C91
:1013900021FA03F32568C5F3822502AE755D23FAB1
:1013A00005F52468C4F342341DF8044023FA04F41C
:1013B00032B3012A26D0022A26D0032A00D12046A1
:1013C00008B0F0BD1946DEE76146DCE71349091FA6
:1013D0000D6805F03F050E68C6F388160F68C7F361
:1013E00001477F1C7F00096801F48001B1F5800F7F
:1013F00000D16346B3FBF5F17143B1FBF7F1C2E7EE
:101400000846DDE71846DBE72846D9E7000000007C
:101410000000000001020304060708090838024022
:101420000024F40040787D01064901EB9011D1F8C9
:10143000002800F01F03012098400243C1F8002853
:101440007047000000300240064901EB9011D1F8CE
:10145000002800F01F03012098408243C1F80028B3
:101460007047000000300240064901EB9011D1F8AE
:10147000002800F01F03012098400243C1F8002813
:10148000704700000030024010B50020274A116864
:1014900041F4803111604FF6FF73401C116801F474
:1014A000003109B99842F8D11068800302D410685D
:1014B0008003FCD51D484030016841F08051016037
:1014C0001B49086840F44040086018480830036829
:1014D0000360036843F400430360036843F4A053CC
:1014E0000360041F134B2360136843F08073136081
:1014F00013689B01FCD50A6842F480320A604A688E
:10150000D203FCD50A6842F400320A604A689203AA
:10151000FCD5016821F003010160016841F002017E
:10152000016001680907FCD510BD000000380240C9
:10153000007000401978400AFFF7A6BF70B5114847
:101540004FF47A710068B0FBF1F1491E4FF0FF359E
:10155000B1F1807F01D301210BE04FF0E024616104
:101560000F212846FEF74FFF0020A06107202061D1
:10157000002101B1FEE72846BDE870400021FEF7DA
:1015800042BF0000080000200026074C01254FF450
:101590009677C4F89C52384600F0DCFAC4F89C6296
:1015A000384600F0D7FAF4E7008041420026064CA6
:1015B0000125C4F89452C82000F0CCFAC4F8946213
:1015C000C82000F0C7FAF4E700004042C9430161B7
:1015D0007047C2680A400069084202D00AB101207F
:1015E000704700207047000070B504460D4600208B
:1015F000294AA11A131594422DD00BDC27496218F1
:1016000019D09A421BD0B2F5006F1CD0B2F5406FD2
:1016100028D11CE0994222D0B1F5184F03D0B1F582
:101620001C4F1FD103E00320FFF78CFE1AE00320BC
:10163000FFF788FE16E00220FFF784FE12E002208A
:10164000FFF780FE0EE00220FFF77CFE0AE002209A
:10165000FFF778FE06E00220FFF774FE02E00220AA
:10166000FFF770FEE1680A044FF6F0710AD54000FA
:1016700000EB5500B0FBF5F00140C0F3420211430E
:10168000A16070BD00EB5500B0FBF5F0014000F02B
:101690000F021143A16070BD0078004000BCFFBF85
:1016A0004068C0F308007047C1F30801416070470B
:1016B00010B5354A811A131590424FD014DC3349C6
:1016C00040182DD0984235D0B0F5006F3CD0B0F521
:1016D000406F57D140F614042046FFF7C5FE204660
:1016E000BDE81040FFF7B0BE994241D0B1F5184FA8
:1016F0000CD0B1F51C4F45D140F605142046FFF73C
:10170000B3FE2046BDE81040FFF79EBE40F604142D
:101710002046FFF7A9FE2046BDE81040FFF794BE23
:1017200040F611042046FFF79FFE2046BDE810401A
:10173000FFF78ABE40F612042046FFF795FE2046CA
:10174000BDE81040FFF780BE40F613042046FFF7C7
:101750008BFE2046BDE81040FFF776BE40F61E0423
:101760002046FFF781FE2046BDE81040FFF76CBE23
:1017700040F61F042046FFF777FE2046BDE81040E4
:10178000FFF762BE10BD00000078004000BCFFBF44
:10179000426922F040024261426901F040010A437D
:1017A00042617047C16841F40051C160704700EB6D
:1017B0009110006801F01F0201219140084201D000
:1017C00001207047002070472DE9F04107464FF493
:1017D00040642046FFF728FE2046FFF725FE41F231
:1017E0000410FFF721FE284E4FF400742246072113
:1017F0003046FFF782F865002A4607213046FFF79A
:101800007CF82346012202213046FFF7B1F82B462F
:10181000012202213046FFF7ABF8234602220021C5
:101820003046FFF7C9F82B46022200213046FFF769
:10183000C3F8164C2046FFF73BFF39462046FFF71A
:10184000D3FE0021204600F046F80021204600F09B
:101850006FF80021204600F05DF82046FFF7A2FF58
:101860000821204600F05EF80421204600F03BF8F5
:10187000022211462520FFF7F9F82046BDE8F04185
:101880004FF4417100F004B8000002400010014024
:1018900000EB9110026801F01F03012199400A43F7
:1018A0000260704730B5C1F38912825801F01F04FD
:1018B000012505FA04F31A4000EB91500068C1F3CA
:1018C000044105FA01F31840002802D00AB10120B2
:1018D00030BD002030BDC26822F4C062C260C26860
:1018E0000A43C2607047C26822F004020A43C26021
:1018F0007047000010B5064C01462046FFF7D4FEA5
:1019000007212046FFF753FF0028F9D010BD000043
:1019100000100140026922F44052026102690A4348
:1019200002617047C26822F008020A43C260704731
:10193000C26822F48052C260C2680A43C260704723
:101940000169D0E901329A60D0E901235A604A68FE
:10195000824201D182684A60002202610868401E0A
:1019600008600868704700F1080141604FF0FF32DD
:101970008260C16001610021016070470021016146
:10198000704730B50C68621C02D000F1080202E01A
:10199000026904E01A4653681D68A542FAD95368E3
:1019A0004B6099608A60516008610168491C016060
:1019B00030BD42684A6093688B609368596091605B
:1019C00008610168491C016070470000502080F3E5
:1019D0001188BFF34F8FBFF36F8F0A494868401CCF
:1019E000486001280CD10848006810F0FF0F07D0AC
:1019F000502080F31188BFF34F8FBFF36F8FFEE746
:101A0000704700007C00002004ED00E009494868B0
:101A1000002806D0401E4860002801D180F31188BC
:101A20007047502080F31188BFF34F8FBFF36F8F43
:101A3000FEE700007C00002070B500282AD008389E
:101A400004466068002807DB502080F31188BFF34C
:101A50004F8FBFF36F8FFEE7216839B1502080F3BD
:101A60001188BFF34F8FBFF36F8FFEE720F0004068
:101A7000606000F079F9084D606869680844686042
:101A80002046FFF723FA2869401C2861BDE8704012
:101A900000F0CABC70BD0000600000204FF0E020E4
:101AA00000210161816105494FF47A720968B1FB37
:101AB000F2F1491E416107210161704708000020D1
:101AC00070B5002300280AD0C9B100220E4D05EBE5
:101AD000C204666886420AD105EBC2030FE05020BB
:101AE00080F31188BFF34F8FBFF36F8FFEE71BB9F1
:101AF00055F8326006B92346521C082AE7D3002B5A
:101B000001D01960586070BD8C10002070B504467B
:101B10000D461646FFF75AFF94F944304FF0000087
:101B20005B1C01D184F8440094F94510491C01D193
:101B300084F84500FFF76AFFA06B28B932462946B2
:101B400004F1240000F0AEF82046BDE87040FFF735
:101B50004DBB000010B502460020002A12D00F48ED
:101B6000406B38B1502080F31188BFF34F8FBFF323
:101B70006F8FFEE700F0F8F800211046FEF7CEFF69
:101B800000F052FC002807D105494FF08050086052
:101B9000BFF34F8FBFF36F8F10BD00000C0000200C
:101BA00004ED00E070B50446FFF710FF264D04B9C0
:101BB0002C68201DFFF7C4FE58B9E06A234A00EBE9
:101BC000800152F8211021B9012181402869884300
:101BD0002861A06A18B104F11800FFF7B1FE686A25
:101BE000401C68622868844208D11848211DA03032
:101BF000FFF7DFFE6868401C686004E0A868401ECC
:101C0000A860FFF797FAFFF701FF2868844202D027
:101C10002046FFF779F86869002814D028688442C4
:101C200011D1686B38B1502080F31188BFF34F8F0A
:101C3000BFF36F8FFEE706494FF080500860BFF397
:101C40004F8FBFF36F8F70BD0C000020CC100020B1
:101C500004ED00E002490A6A0260C9684160704709
:101C60000C00002001490120C86170470C000020D1
:101C700010B50C4600280AD0094909681831FFF749
:101C800080FE2046BDE810400121FEF747BF5020EE
:101C900080F31188BFF34F8FBFF36F8FFEE7000013
:101CA0000C000020F0B40C4600281AD04168114BFB
:101CB0001D68E9618D681E6835621D688E6818357B
:101CC00075601D6818358D60196888620168491C47
:101CD00001600AB14FF0FF342046F0BC1146FEF718
:101CE0001DBF502080F31188BFF34F8FBFF36F8F5C
:101CF000FEE700000C0000207CB517480025CDE968
:101D000000502B46822215A1164800F03FFA012808
:101D100001D100F01FFC104C2C3C012802D0401CCB
:101D200011D00EE0502080F31188BFF34F8FBFF326
:101D30006F8F4FF0FF30A06201206061E56000F01E
:101D40004BF8206B7CBD502080F31188BFF34F8F80
:101D5000BFF36F8FFEE700003800002049444C4578
:101D600000000000890D00080248416B491C4163D6
:101D7000704700000C000020154A506B002802D06C
:101D80000120D06170470020D0611069B0FA80F066
:101D9000C0F11F000F4900EB800051F8203073B1F3
:101DA00001EB800041684968416000F108039942F5
:101DB00001D1496841604068C06810607047502098
:101DC00080F31188BFF34F8FBFF36F8FFEE70000E2
:101DD0000C000020CC1000201CB537480168374AA1
:101DE000914207D1502080F31188BFF34F8FBFF38A
:101DF0006F8FFEE700683149491E884207D15020A5
:101E000080F31188BFF34F8FBFF36F8FFEE72C492C
:101E100008780190FF200870087800909DF8000075
:101E20009DF8002000F0F000904207D0502080F391
:101E30001188BFF34F8FBFF36F8FFEE79DF800004F
:101E4000204C00F0500020700720A06006E0A06841
:101E5000401EA0609DF80000400000909DF800002A
:101E60000006F4D4A068032807D0502080F311881E
:101E7000BFF34F8FBFF36F8FFEE74FF44070A0604A
:101E8000019808700C482030016841F4700101602D
:101E9000016841F070410160FFF700FE00206060C2
:101EA000FEF7B4F90848016841F040410160FEF7CF
:101EB00099F900201CBD000000ED00E071C20F4147
:101EC00000E400E07C00002034EF00E0F8B50546B7
:101ED0000E461746002D19D04FF0FF30B0FBF5F03D
:101EE000B04213D305FB06F010F1510F0ED850305D
:101EF000FFF7B2F904463CB1224650323B46314628
:101F000028460094FEF754FF2046F8BD502080F389
:101F10001188BFF34F8FBFF36F8FFEE72DE9F041BC
:101F200004460F460125002C2AD0E06B80B3AE1E7C
:101F3000B6FBF0F1206C81423BD3FFF747FDD4E9BB
:101F40000F20216802FB0011A1600021A16321681C
:101F50006160E06B2268216C401E00FB0121E160A2
:101F600084F8446084F8456004F110008FB1FFF7F5
:101F7000FAFC04F12400FFF7F6FCFFF747FD19E037
:101F8000502080F31188BFF34F8FBFF36F8FFEE7B0
:101F90000FE021690029F0D000F0D8F90028ECD03A
:101FA0000A494FF080500860BFF34F8FBFF36F8F27
:101FB000E3E7002515B12846BDE8F081502080F305
:101FC0001188BFF34F8FBFF36F8FFEE704ED00E082
:101FD0002DE9F74783B004468A460026002C03D03B
:101FE000BAF1000F08D011E0502080F31188BFF340
:101FF0004F8FBFF36F8FFEE7206C38B1502080F316
:102000001188BFF34F8FBFF36F8FFEE700F0F2F838
:1020100048B9059838B1502080F31188BFF34F8F2D
:10202000BFF36F8FFEE700274FF08058DFF8D8909E
:10203000FFF7CCFCA56BC5B151462046FEF750FE1C
:102040006D1EA563206950B104F1100000F07EF907
:1020500028B1C9F80080BFF34F8FBFF36F8FFFF730
:10206000D5FC012006B0BDE8F087059808B126B17F
:1020700007E0FFF7CBFC0020F4E701A8FFF7EAFD3B
:102080000126FFF7C3FCFFF76FFEFFF79FFC94F9F3
:102090004400401C01D184F8447094F94500401C70
:1020A00001D184F84570FFF7B1FC05A901A800F043
:1020B0002DF858B12046FFF799F800F0B5F9204601
:1020C000FEF74EFF0028B3D00020CBE72046FEF7F6
:1020D00047FF90B104F124000599FFF7C9FD2046A0
:1020E000FFF784F800F0A0F90028A1D1C9F800801A
:1020F000BFF34F8FBFF36F8F9AE72046FFF776F855
:1021000000F092F994E7000004ED00E02DE9F041C1
:1021100005460C46002D14D0DCB1FFF757FC1A4ED3
:10212000F0686B68C11A2268571C1AD02F68D6F85D
:1021300020C00026674516D0834214D801252660AA
:102140001CE0502080F31188BFF34F8FBFF36F8FD7
:10215000FEE7502080F31188BFF34F8FBFF36F8FDE
:10216000FEE700250AE08A4206D9501A2060284678
:10217000FFF770FD002501E026600125FFF746FC12
:102180002846BDE8F08100000C0000202DE9FF5F2B
:102190008146DDE90E788A4616469B46B000FFF779
:1021A0005BF8054628000ED05820FFF755F8044686
:1021B0002CB158212046FEF790F8256304E028460C
:1021C000FFF73AFC00E000248CB10020CDE902408A
:1021D000CDE900785B46324651464846FEF7F9FDA8
:1021E0002046FEF7E1FC012004B0BDE8F09F4FF06F
:1021F000FF30F9E705484169002903D0406B18B169
:102200000020704701207047022070470C0000201A
:102210000148C068704700000C0000202DE9F04123
:102220000025484E706B002805D0B069401CB06195
:102230002846BDE8F081F468641CF4609CB9B06B7A
:10224000006838B1502080F31188BFF34F8FBFF37F
:102250006F8FFEE7B06BF16BB163F063306A401CC7
:102260003062FEF767FFB06A374F84420FD34FF0FA
:10227000000CB06B006838B1B06BC068C1684868CA
:10228000844212D2B06202E04FF0FF30B062306898
:10229000C06A00EB800057F82000012800D9012512
:1022A000F0690028C4D00125C2E74A69D1E90230AB
:1022B0009860D1E90203586050680B1D984201D123
:1022C000C8685060C1F814C01068401E10608A6A67
:1022D0009AB1D1E90780C8F80800D1E90708C8F821
:1022E0000400506801F11808404501D1086A5060A7
:1022F000C1F828C01068401E1060C86A0122D6F8D4
:102300001080824042EA0802326100EB800007EB55
:10231000800042688A609068C860906843609360FB
:10232000C86A00EB800007EB80024A6157F8202062
:10233000521C47F82020C86A3168C96A884298D977
:10234000012596E70C000020CC10002070B5C06875
:10235000C06800282AD0816AD0E907329A60D0E9A3
:1023600007235A604B6800F11802934201D1036AB7
:102370004B60002585620B685B1E0B60284B596B18
:102380000124D9B1274D6968C1618E6806628E68E3
:1023900072608A6085622968491C2960C06A196870
:1023A000C96A88423AD90120DC6170BD502080F3AF
:1023B0001188BFF34F8FBFF36F8FFEE74169D0E9FC
:1023C0000262B260D0E9022672604E68021D964237
:1023D00001D1C6684E6045610D686D1E0D60C16A11
:1023E0001E6904FA01F535431D610E4D01EB8101B3
:1023F0008C3D05EB8101496881608E68C6608E68FE
:1024000072608A60C16A01EB810105EB8102426161
:1024100055F82120521C45F82120BFE7002070BD4F
:102420000C000020581100202DE9F0410024A046A6
:10243000454D686B002807D0FFF7C8FA686B401E4F
:102440006863686B40B179E0502080F31188BFF376
:102450004F8FBFF36F8FFEE7A86800286ED000276C
:102460003A4A01264EE0D068C468A16AD4E9073030
:102470009860D4E9070358604B6804F11800834260
:1024800001D1206A4860A7620868401E086061693F
:10249000D4E902309860D4E9020358604B68201DEB
:1024A000834201D1E3684B6067610B685B1E0B6080
:1024B000E16AD5F810C006FA01F343EA0C032B6178
:1024C000224B01EB81018C3B03EB81014968A16048
:1024D000D1F808C0C4F80CC0D1F808C0CCF804008A
:1024E0008860E06A00EB800003EB8001616153F8D3
:1024F0002010491C43F82010E06A2968C96A884204
:1025000000D3EE6110680028ADD10CB1FEF712FEC9
:10251000AC693CB1FFF782FE00B1EE61641E002C95
:10252000F8D1AF61E86948B14FF0010808494FF0B0
:1025300080500860BFF34F8FBFF36F8FFFF766FACD
:102540004046BDE8F08100000C000020581100203A
:1025500004ED00E01CB50024FEF77CFB0D4800688C
:1025600060B10C480221001DCDE9001000234FF49A
:10257000827209A10A48FFF709FE04460CB1204601
:102580001CBD502080F31188BFF34F8FBFF36F8FB6
:10259000FEE700004C000020546D7220537663006B
:1025A000D9110008C4250008000000208C0000009C
:1025B00084050008502600088C00002034410100EA
:1025C000940500080000000000000000001C4E0EF2
:1025D00000000000000000000000000000000000FB
:1025E00000000000000000000000000000000000EB
:1025F00000000000000000000000000000000000DB
:1026000004000000000000000000000000000000C6
:1026100000000000000000000000000000000000BA
:1026200000000000000000000000000000000000AA
:10263000000000000000000000000000000000009A
:1026400000000000AAAAAAAA0000000000000000E2
:04000005080001AD41
:00000001FF
