:020000040800F2
:10000000D8440120C10100089505000895030008A7
:10001000C9030008190300086D090008000000006A
:10002000000000000000000000000000C106000801
:100030004503000800000000C1050008E5060008AF
:10004000DB010008DB010008DB010008DB01000820
:10005000DB010008DB01000849030008DB010008A0
:10006000DB010008DB010008DB010008DB01000800
:10007000DB010008DB010008DB010008DB010008F0
:10008000DB010008DB010008DB010008DB010008E0
:10009000DB010008DB010008DB010008DB010008D0
:1000A000DB010008DB010008DB010008DB010008C0
:1000B00069080008A9080008DB010008DB01000846
:1000C000DB010008DB010008DB010008DB010008A0
:1000D000DB010008FD080008DB010008DB01000867
:1000E000DB010008DB010008DB010008DB01000880
:1000F000DB010008DB010008DB010008DB01000870
:10010000DB010008DB010008DB010008DB0100085F
:10011000DB010008DB010008CD080008DB01000856
:10012000DB010008DB0100081D030008DB010008FB
:10013000DB010008DB010008DB010008DB0100082F
:10014000DB010008DB010008DB010008DB0100081F
:10015000DB010008DB010008DB010008DB0100080F
:10016000DB010008DB010008DB010008DB010008FF
:10017000DB010008DB010008DB01000800000000D3
:10018000DB010008DB010008DB010008DB010008DF
:10019000DB010008DB010008DB01000800000000B3
:1001A000DB010008DB010008DB010008DFF80CD0F0
:1001B00000F08AF800480047D90C0008D844012014
:1001C0000648804706480047FEE7FEE7FEE7FEE7F1
:1001D000FEE7FEE7FEE7FEE7FEE7FEE709070008A9
:1001E000AD01000810B5431A934209D2831888184C
:1001F00003E010F8011D03F8011D521EF9D210BDD5
:1002000040EA01039B0703D009E008C9121F08C098
:10021000042AFAD203E011F8013B00F8013B521E18
:10022000F9D210BDD2B201E000F8012B491EFBD279
:1002300070470022F6E710B513460A4604461946F1
:10024000FFF7F0FF204610BD2DE9F05F05460020C6
:1002500092469B4688460646814640241BE0284637
:1002600041464746224600F047F853465A46C01AD0
:10027000914110D311461846224600F016F82D1A67
:1002800067EB01084F4622460120002100F00DF8DF
:1002900017EB00094E41201EA4F10104DFDC4846A3
:1002A00031462A464346BDE8F09F202A04DB203A27
:1002B00000FA02F1002070479140C2F1200320FAB9
:1002C00003F31943904070471CB509480090094852
:1002D00001900546009C06E0E06840F0010394E8C8
:1002E000070098471034AC42F6D3FFF763FF0000D5
:1002F000943E0008B43E0008202A04DB203A21FA8C
:1003000002F00021704721FA02F3D040C2F120022E
:100310009140084319467047FEE7000010B546F2C9
:100320000044C4F2020420460221202200F06EFBA9
:10033000012818BF10BD204602212022BDE8104030
:1003400000F048BBFEE7000010B5012000F0FCFB08
:10035000012818BF10BD0024C4F202042046012168
:1003600000F04EFC012809D104F54060802100F026
:100370003FFC43F6DA50C0F6000003E043F6CC50F1
:10038000C0F6000003F00CFD0120BDE8104000F0B5
:10039000D5BB0000FEE7000040F60044C4F20204B2
:1003A00020468021012200F025FC4FF4FA7002F073
:1003B000C9FA20468021002200F01CFC4FF4FA709C
:1003C00002F0C0FAECE70000FEE700004FF08040CA
:1003D00001F0ACBD2DE9F04186B04FF4406001F072
:1003E0004DFA40F6014001F049FA40F6024001F0B2
:1003F00045FA40F6024001F041FA40F20044C4F2EE
:10040000000404F5FE352846022100224FF4004383
:100410004FF0000800F0FAFB04F5003738460221DF
:100420000022082300F0F2FB04F5013630460221D9
:100430000022402300F0EAFB304602210022802304
:1004400000F0E4FB284601214FF4004200F098FB45
:1004500038460121082200F093FB30460221402259
:1004600000F08EFB30460221802200F089FB4FF421
:10047000805001F003FA4FF0807001F02FFA4FF036
:10048000804001F057FD4FF4C67602A94FF080403E
:1004900004968DF81480CDE9028801F0F5FD4FF047
:1004A000804003210022002301F004FF6D4628460E
:1004B00001F0FEFB0A274FF0804000212A46ADF8EC
:1004C000067001F037FE4FF0804001212A4601F00E
:1004D00031FE1C200221022200F05AFD4FF0804024
:1004E000012101F0D3FE4FF08040012101F0D2FE46
:1004F0004FF08040002101F01BFD4FF0804001F0E3
:10050000D1FB4FF0804001F0B9FD41F2010001F054
:10051000B5F94FF0807001F0E1F9204601F00AFDD5
:1005200002A9204604968DF81480CDE9028801F0D6
:10053000ABFD204603210022002301F0BBFE6D46E7
:10054000284601F0B5FB204600212A46ADF806708A
:1005500001F0F0FD204601212A4601F0EBFD1D20AF
:100560000221022200F014FD2046012101F08EFE3E
:100570002046012101F08EFE2046002101F0D8FC2A
:10058000204601F08FFB204601F078FD06B0BDE863
:10059000F0810000FEE70000002180ED000AC0E9C4
:1005A0000111C0E9071180ED092AC0ED0A2A1030B7
:1005B000C0EC030A704700000000000000000000CB
:1005C000EFF30980BFF36F8F154B1A681EF0100F01
:1005D00008BF20ED108A20E9F04F10602DE90900D6
:1005E0004FF0500080F31188BFF34F8FBFF36F8F30
:1005F00002F062FB4FF0000080F31188BDE80900B3
:1006000019680868B0E8F04F1EF0100F08BFB0EC92
:10061000108A80F30988BFF36F8F704700BF00BF57
:100620007010002010B590ED002A90ED091A90EDA1
:10063000073A32EE400AB5EE401A044680ED010A50
:1006400030EE030AF1EE10FA80ED070A05D0F1EE64
:10065000410A00F08DF984ED070A94ED010A94ED4A
:10066000021A94ED042A94ED053A94ED074A94EDAC
:10067000065A22EE002A30EE410A94ED0A1A23EEC1
:10068000043A32EE032A25EE000AB5EE401A30EEA7
:10069000020AF1EE10FA84ED080A05D0F1EE410AE3
:1006A00000F066F984ED080A94ED080A6068A0601D
:1006B00010BD00000000000000000000000000006D
:1006C000074B19680868B0E8F04F80F30988BFF35A
:1006D0006F8F4FF0000080F31188704700BF00BF9C
:1006E0007010002080B502F0ABFE012807D141F266
:1006F000A030C2F2000001680131016080BDBDE898
:10070000804002F0DDBB000081B04EF68851CEF291
:1007100000010A6843F6080042F47002C4F20200C5
:100720000A6050F8081C41F0010140F8081C00BFA5
:1007300050F8081C8907FBD5016841F08001016071
:1007400000210091009A4F2A06D800BF009A01327A
:100750000092009A502AF9D3026842F09002026097
:10076000009100994F2905D8009901310091009915
:100770005029F9D301684FF6FF7221F0030101609F
:1007800050F8081CCFF6F662114040F8081C50F8EB
:10079000081C4FF0000C21F4802140F8081CC0F820
:1007A00000C0026843F21002C2F2004240F8042C7A
:1007B000C0F804C050F8082C42F4803240F8082CED
:1007C0004FF6FE7250F8081C013A4CF10003890301
:1007D00002D4002BF6D100BF50F8081C8903FBD5CA
:1007E000826B47F2000142F08052C4F20001826342
:1007F0000A6842F440420A6002680260026842F4F9
:1008000000420260026842F4A052026047F61902F8
:10081000C0F6402240F8042C50F8082C42F08072B8
:1008200040F8082C50F8082C9201FBD50A6842F4D5
:1008300080320A604A68D203FCD50A6842F400326A
:100840000A6000BF4A689203FCD5016821F00301E9
:100850000160016841F00201016000BF0168090701
:10086000FCD501B07047000010B54FF08040012169
:100870004FF0804401F012FD012818BF10BD206820
:1008800040F23C02C2F200021168C0064FF0FF3095
:1008900058BF012043184FF0804001211360BDE88C
:1008A000104001F0F7BC000010B540F20044C4F263
:1008B00000042046012101F0F1FC012818BF10BD01
:1008C00020460121BDE8104001F0E4BC10B541F222
:1008D0000004C4F200042046012101F0DFFC0128DD
:1008E00018BF10BD2046012101F0D4FC04F5FE30F4
:1008F0008021BDE8104000F07BB90000B0B582B0A7
:1009000041F2000440F20435C4F20104C0F20405CF
:1009100005F10111204601F065FE012809D12046AC
:1009200001F06EFD8DF807000DF10700012100F0C8
:100930008BFB2046294601F055FE012813D12046A5
:1009400001F05EFD41F25600C2F20000008840F264
:100950005401C2F2000100220A5441F25400C2F2D2
:1009600000000121017002B0B0BD0000FEE70000F0
:10097000B4EE410AF1EE10FAB4EE600AC8BFB0EE70
:10098000410AF1EE10FAB8BFB0EE600A70470000FD
:1009900010B50446042001F079F940F24C0140F210
:1009A0005000C2F200010122C2F200000A704EF2B1
:1009B00010010460CEF200010A684FF47A706043BF
:1009C00042F002020A604860086840F001000860D6
:1009D00010BD00000B1F38BF0B46D9B24FEA4101D2
:1009E00051FA83F103F002034FF00C0C4FEA43037A
:1009F00038BF4FF0080C03EB41015CF8003002FAFD
:100A000001F119434CF8001070470000F0B50329BC
:100A100021D8561E1F2E4FF0000300F28C804FF09D
:100A2000800C24248E460546DFE806F06C85851090
:100A30008585853A858585858585854185858585F5
:100A40008585858585858585858585484FF0020C5A
:100A50001024042228E0561E1F2E4FF0000300F23F
:100A60006A800FF20C0202EB86070A1FDFE806F02D
:100A70001063632B63636333636363636363633B29
:100A80006363636363636363636363636363634356
:100A9000051D5FFA82FE4FF0800C2424012231E014
:100AA0004FF0040C102408228E4605462AE04FF031
:100AB000080C10228E460546102423E01024202224
:100AC0008E4605461CE0051D5FFA82FE4FF0020CC3
:100AD0001024042216E0051D5FFA82FE4FF0040C7C
:100AE000102408220EE0051D5FFA82FE4FF0080C6C
:100AF0001022102406E0051D5FFA82FE1024202239
:100B00004FF0100C0EF002072B680EEB4E057F0025
:100B1000204401EB410107EB450750F83100BA4092
:100B200013EA020100EA0C0018BF0121002818BFD7
:100B3000012001EA00031846F0BD000043F614410D
:100B4000C4F201010860704743F61441C4F2010188
:100B50000968084018BF012070470000B0B541F295
:100B60000005C4F201050446C1B2284601F04CFC60
:100B70002846072101F0B6FC0028F9D02046B0BD78
:100B8000F0B5D0F820E0D0F824C000230F270025CE
:100B900005E000BF0135082D03F104030CD022FA53
:100BA00005F6F607F6D007FA03F62EEA060601FA6E
:100BB00003F446EA040EEDE7082300240F2504E0C1
:100BC0000133102B04F104040CD022FA03F6F607CB
:100BD000F6D005FA04F62CEA060701FA04F647EA0D
:100BE000060CEDE7C0F820E0C0F824C0F0BD00001E
:100BF000C16270471823002A08BF28231950704784
:100C00000069084018BF0120704700002DE9F0413D
:100C1000D0F800E0D0F80CC000244FF00308002604
:100C200005E000BF0136102E04F1020412D023FAB1
:100C300006F7FF07F6D008FA04F72EEA070E01FAC6
:100C400004F54EEA050E2CEA070702FA04F547EA16
:100C5000050CE7E7C0F800E0C0F80CC0BDE8F08183
:100C60000129416814BF994319434160B0B5D0F8D8
:100C700008C000214FF0030E002404E00134102CC2
:100C800001F102010CD023FA04F5ED07F6D00EFABB
:100C900001F52CEA050C02FA01F54CEA050CEDE72A
:100CA000C0F808C0B0BD000010B540F6034000F029
:100CB000E5FD40F60044C4F2020420460121002272
:100CC0008023FFF7A3FF2046002102228023BDE8F6
:100CD0001040FFF7C5BF000082B000F0C9FF41F22D
:100CE0009C3C41F6DD30C2F2000C4FF0010EC0F624
:100CF000000006A14FF496720023CDE900EC02F04B
:100D0000A3FA01F081FF00BFFEE700BF5354415238
:100D1000545F5441534B000040F29021C4F24121F2
:100D200028B101220A6042F210710A1A03E0002081
:100D300042F21072086040F60040C4F20000012147
:100D400001F0D2B800F07EF8FFF744FB00F0A6F9FE
:100D500040F210009FED340ADFED341A9FED342A83
:100D6000DFED342AC2F20000F2EE040AB6EE001AF9
:100D7000FFF712FC0020FFF7CFFF2FA003F010F8C1
:100D800040F2480A41F25C0740F2400540F2440458
:100D900041F2580641F2983840F20809C2F2000ABE
:100DA000C2F20007C2F20005C2F20004C2F200065D
:100DB0004FF4C67BC2F20008C2F2000900F0A0FDA9
:100DC000FFF704FB40F23C02C2F2000239681268ED
:100DD0003368CAF80000401AD11A01FB0B002260E8
:100DE000286000EE100A40F21000B8EEC00AC2F20D
:100DF0000000FFF717FCBDEEC00A10EE100AA8F8BD
:100E00000000FFF789FF2068DAF8001030603960D1
:100E1000022002212A46012300F090FED9F80000AA
:100E200001F090FDCAE700BF00007A44CDCC4C3FF2
:100E300000409C4500C0DA456D6F746F725F696E4B
:100E400069740D00F0B587B040F6024000F016FD61
:100E500040F6024000F012FD40F60044C4F20004E7
:100E600004F5FE3528460121002210230126002723
:100E7000FFF7CCFE2846012100222023FFF7C6FE03
:100E80002846002102221023FFF7EAFE284600210F
:100E900002222023FFF7E4FE4FF4406000F0EEFC56
:100EA0004FF4406000F0EAFC04F5FA3528460221D0
:100EB00000220223FFF7AAFE284602210022042373
:100EC000FFF7A4FE2846002102220223FFF7C8FEF6
:100ED0002846002102220423FFF7C2FE28460221F1
:100EE0000222FFF74DFE284602210422FFF748FEAA
:100EF00041F2030000F0C2FC4FF0807000F0EEFC05
:100F0000204601F017F81320CDE9030742F20F70D5
:100F1000059003A920468DF8187001F0B5F86D46CC
:100F2000204601212A46ADF80470ADF8006000F0BB
:100F3000C5FE204602212A4600F0C0FE20460121BF
:100F4000002200F0D1FF20460121602200F0B0FF16
:100F500020460121002200F0CDFF20460221002280
:100F600000F0C2FF20460221602200F0A1FF2046CF
:100F70000221002200F0BEFF204600F093FE204632
:100F800001F07CF807B0F0BD4FF4407000F052B8AB
:100F90004EF60C5CCEF2000CDCF8003003F4E0639B
:100FA000B3F5E06F01D1042328E0DCF8003003F44E
:100FB000E063B3F5C06F01D103231FE0DCF800301C
:100FC00003F4E063B3F5A06F17D0DCF8003003F44E
:100FD000E063B3F5806F01D101230FE0DCF800304E
:100FE00003F4E063B3F5407F01D1002306E040F253
:100FF0000053C0F2FA53CCF80030022301FA03FC8C
:10100000C3F104030F21D94011404EF2001241EA0E
:101010000C01CEF20002090140EA020383F800133A
:1010200000F01F01012303FA01F11C2303EAD000A1
:101030008150704740F080604EF60C5140F0FD70DA
:10104000CEF20001086070472DE9F04741F26008D8
:10105000C2F200080C46B8F80610D8F800500F1974
:10106000812F06460ED3C1F1800A1FFA8AF968184B
:1010700031464A46FFF7B6F816FA8AF1A4EB0902A0
:10108000284602E0681831462246FFF7ABF807F021
:101090007F00A8F80600BDE8F087000041F260017B
:1010A00041F20830C2F200010022C2F20000C1E9A0
:1010B000000200208A607047F0B581B00D4644F20E
:1010C000C80141F27006C2F20101C2F200060F68C7
:1010D00031680446081D01F0BBFA10B1601C0FD046
:1010E00027E0306843F6BC72C06AC2F201020121F7
:1010F000136801FA00F023EA00001060601C18D1A8
:10110000BDB144F2A000C2F20100416832689160B2
:101110008A683368DA6032688B6804325A603268F1
:1011200004328A603168486101680131016001B0B0
:10113000F0BD3068E41944600BD341F28000C2F284
:10114000000000683168043101B0BDE8F04001F0F2
:10115000A1BA41F27800C2F200000068316804319F
:1011600001F098FA44F21C00C2F2010001688C42BE
:1011700038BF046001B0F0BD70B501F0C1FA44F2AF
:10118000CC06C2F20106306818B1BDE8704001F02B
:10119000DDBA43F6C074C2F20104204601F06AFAD7
:1011A00043F6D475C2F20105284601F063FA41F214
:1011B0007400C2F20000046041F28400C2F2000038
:1011C00005600A200C21002201F092FE0028306008
:1011D000DBD003A101F05EFBBDE8704001F0B6BAC0
:1011E000546D72510000000043F6B07541F2880A58
:1011F0004EF6045844F2B40743F6AC76C2F2010549
:10120000C2F2000ACEF200084FF08059C2F2010784
:10121000C2F2010615E000BF01F072FAF868C46876
:10122000201D01F015FA3068013830602868013857
:10123000286001F08BFA206B01F0A4FA204601F03F
:10124000A1FA28680028E7D1DAF800000228F8D3CC
:10125000C8F80090BFF34F8FBFF36F8FF1E7000026
:1012600008480068006880F308884FF0000080F3A9
:10127000148862B661B6BFF34F8FBFF36F8F00DF84
:1012800000BF000008ED00E02DE9F04381B041F21D
:101290007408C2F20008D8F800200546D2680E464D
:1012A000D46804F10409484601F0D2F994F8240006
:1012B00041070CD400F0FE0084F824001CE000BFBD
:1012C000711B814210D3216A204688473D46A069A0
:1012D00024614719B7426760F2D9AE4201D2AF42EA
:1012E000F1D2D8F8000004E041F28400C2F200001C
:1012F0000068494601F0CEF9216A204601B0BDE8F8
:10130000F043084780B582B00020019040F20C0005
:10131000C2F20000006801300AD043F6E65043F6FE
:101320006961C0F60000C0F60001EA2202F0E6FAA8
:101330004FF0500080F31188BFF36F8FBFF34F8FD2
:1013400001980028FCD002B080BD000084B041F2BA
:10135000740441F26C0B41F2840844F2CC09C2F2ED
:101360000004C2F2000BC2F20008C2F201090DF142
:10137000040A00BF2068076817B1C068066800E06B
:10138000002601F091FC02F06FF8DBF80010054632
:10139000884209D22068016891B1C0684FF0FF31DE
:1013A0000068FFF771FFF5E7CBF8005097B1AE4248
:1013B00010D802F0ADF930462946FFF765FF29E065
:1013C000D8F80010C8F800002160CBF8005002F0F7
:1013D0009FF91FE00FB1002205E0D8F80000006877
:1013E000B0FA80F04209D9F80000711B01F086FACA
:1013F00002F08EF970B94EF60450CEF200004FF0B4
:1014000080510160BFF34F8FBFF36F8F02E0206800
:1014100001F040F9D9F800005146002201F0F0FD3A
:101420000028A7D001980028F4D4039F786910B150
:10143000381D01F00DF902F017F8DBF80010054631
:1014400088420ED22068016831B1C0684FF0FF3188
:101450000068FFF719FFF5E7D8F80010C8F800009A
:1014600021600198CBF8005001380828D2D8DFE875
:1014700000F005051A215705051A210097F82400E8
:10148000029AB96940F0010387F824308B183E4670
:1014900046F8043FAB423F6132D9954201D29342B4
:1014A00037D2206831E097F8240000F0FE0087F87A
:1014B0002400AFE797F82400029940F0010087F874
:1014C0002400B96159B943F6E65043F62B61C0F6E2
:1014D0000000C0F6000140F25E3202F00FFAB86977
:1014E0003946421941F8042FAA423F613FF68FAFB7
:1014F00000283FF48FAFD8F8000001F0CBF889E75F
:10150000AA1A8A4205D2D8F80000314601F0C2F882
:1015100080E742070CD400F0FE0087F8240032E098
:1015200097F824008107C0D4384601F02BF971E701
:101530000298D346CA46C146084406E0281A8842A3
:1015400015D3396A384688474046B9693F6101EB8F
:101550000008A845C7F80480F0D9854201D280452B
:10156000EFD22068314601F095F8C84605E0D9F879
:1015700000003146C84601F08DF8D146DA4641F206
:101580006C0BC2F2000B396A3846884742E700000C
:10159000F0B581B0044601F0B3F894F94560012E2E
:1015A0000FDB04F1240500BF286850B1284602F083
:1015B0003DF8002818BF01F0CBFA70B2013E0128B7
:1015C000F2DCFF2684F8456001F0C0F801F098F8DD
:1015D00094F94470012F0EDB04F11005286850B116
:1015E000284602F023F8002818BF01F0B1FA78B2BB
:1015F000013F0128F2DC84F8446001B0BDE8F0400E
:1016000001F0A4B82DE9F04381B0044601F04CFB91
:1016100041F27C06C2F20006306844F21008C2F2C1
:10162000010858B184B304F007001138A04226BF66
:1016300024F0070000F11005002526E041F2A43057
:10164000C2F20000C11D420700F5963218BF21F01A
:10165000070044F29801C2F201010023C1E900032E
:1016600022F00701A1F10802326041E90233111AA8
:101670003268C8F80010C0E9002144F21800C2F234
:1016800001000160002CCED10025012D4FF0000497
:1016900070DBD8F8000085426CD844F29800C2F2A2
:1016A000010007687968A94207D200BF3A6822B1F1
:1016B000516838461746A942F8D3326897422FD06E
:1016C000D0F800903A68491B1129026035D37C1983
:1016D00060070AD043F6E65043F64761C0F60000C3
:1016E000C0F60001DC2202F009F9786844F29801A2
:1016F000401BC2F2010160607D6000BF08460968BE
:10170000A142FBD342688318A34203D16368044615
:101710001A4442606368E2188A4203D00A4608E02D
:10172000002427E03268914203D0D1E90021194416
:101730006160A042226018BF046044F2180079681A
:10174000D8F80020C2F201000368511A9942C8F883
:10175000001038BF016044F224027868C2F201022E
:10176000136840F00040002109F10804C7E90010A7
:10177000581C106001F0CCFF60070BD043F6E65018
:1017800043F64761C0F60000C0F600014FF48E72C8
:1017900002F0B4F8204601B0BDE8F083034641F200
:1017A000053021F00101C0F600004FF0807C03E914
:1017B00003106FF00201A3F1440043E909127047DE
:1017C00010B543F60402C4F2020253680146C3F3A3
:1017D000810342F20040022BC0F2F40006D0012B3C
:1017E0001FD147F64000C0F27D101AE0D2F800C0C9
:1017F00013680CF03F0CC3F3881E13681468C3F31E
:101800000143640247F64004C0F27D1458BF044609
:10181000B4FBFCF4022000EB430004FB0EF3B3FB2B
:10182000F0F0536811A4C3F30313E35C546843F668
:10183000C45CC4F38224C0F6000C1CF804E05268B7
:10184000032907D820FA03F3DFE801F00F020609A5
:10185000184610BD002010BD23FA0EF010BDC2F3D3
:1018600042301CF8000023FA00F010BD0000000018
:1018700000000000010203040607080943F6000304
:1018800000F01F018009C4F202034FF0010CC2589E
:101890000CFA01F11143C1507047000043F60003F8
:1018A00000F01F018009C4F202034FF0010CC2587E
:1018B0000CFA01F122EA0101C150704743F600031E
:1018C00000F01F018009C4F202034FF0010CC2585E
:1018D0000CFA01F11143C1507047000043F68C0C23
:1018E000C4F2020CDCF800206FF0807142EA0003C1
:1018F000884208BF22F08073CCF8003070470000A7
:101900002DE9F04FA1B041F2600845F65329C2F22B
:101910000008C5F648194FF0000B07E0DDF80E008F
:1019200000EE100AB8EEC00A00F050F9B8F8044012
:10193000B8F806A0B8F808E0BAEB040738BF80375B
:10194000B8B2704538BF00271FFA87FCBCF1090FF9
:1019500002D2FF22D4E000BFB8F80A0028B3BEF1DB
:10196000000F12D1B8F80400D8F80010421D06305C
:1019700002F07F0200F07F008A5C085C42EA0020EF
:1019800081B28C45A8F80800E3D3B8F80850B8F83D
:1019900004A00AEB0500822841D3D8F800205FFAA2
:1019A0008AF180295BD1002168E0BCF1040F46D3A5
:1019B000D8F80060F81E85B2234600BF581C03F01B
:1019C0007F0700F07F02F15DB25C41EA02219A1CC0
:1019D00002F07F020333B25C03F07F03F35C41EA61
:1019E000024141EA0361494504D0013D0346E5D186
:1019F0004FF0FF37380426D40121B8B2A8F80A10F6
:101A0000AAEB0701A8F80470824538BF803188B27C
:101A100070454FF0FF0228BF092871D39FE76A1E67
:101A2000110638D0D8F8001051444B1E002100BFD9
:101A300013F8017F013A16063944F9D12CE04FF032
:101A4000FF373804D8D504EB0C00033800EB5061A5
:101A500021F07F01401AA8F80400FF2250E06FF047
:101A60007F01A1EB0A0302EB0A014F1E002100BF18
:101A700017F8016F013B1C063144F9D100F17F03D7
:101A80001F0609D0013A00BF12F8017F013B1E0674
:101A90003944F9D100E00021421E02EB5263D8F82C
:101AA000006023F07F03D21AB25CC9B2914213D115
:101AB000812806EB0A0112D3CAF18004A7B20DF106
:101AC000040B58463A46FEF78DFB1BFA84F04FF0A4
:101AD000000BEA1B314604E0FF22012508E001A8C3
:101AE0002A46FEF77FFB0AF1090000F07F00325C16
:101AF0000AEB050000F07F00A8F80400C8F808B061
:101B0000A2F112000428FFF411AF112A3FF406AF2E
:101B1000102A0ED1DDF80E00DDF81210DDF81620C7
:101B200000EE100A00EE901A01EE102A00F046F8BE
:101B3000FCE64FF0FF3021B0BDE8F08FF0B581B08A
:101B400041F2883445F65326C2F20004C5F6481621
:101B50009D0026600B26174600222B4656FA85F676
:101B600021712073601E10218DF80320A66000BF34
:101B700010F8016F01390C063244F9D128068DF8AE
:101B8000032007D0781E00BF10F8011F013B1E067E
:101B90000A44F9D141F28830C2F2000010218DF8D8
:101BA000032000F0AFFBE9B2384600F0ABFB0DF1CB
:101BB0000300012100F0A6FB01B0F0BD40F21000CF
:101BC000C2F20000103080EC030A704740F21000AF
:101BD000C2F2000080ED000A7047000010B582B02C
:101BE00000F08EFD40F2993000244FF0020CC0F658
:101BF000000013A196220023CDE900C401F024FBCC
:101C000040F645504FF0040CC0F600000FA196229C
:101C10000023CDE900C401F017FB01F093F8014661
:101C20000DA001F06BFE41F29C30C2F20000006892
:101C300000F0ECFE02B0BDE8104000F087BD00BF30
:101C40004C45445F5461736B000000006D6F746F0E
:101C5000725461736B0000004672656520686561AF
:101C6000703A2025642062797465730A00000000D0
:101C700080B5F020FEF78CFEFFF786F9FFF714F829
:101C80004FF41650BDE8804000F034BC4EF2100115
:101C9000CEF200010A68042822F0040208BF0432D0
:101CA0000A607047016841F08001016070470000E0
:101CB0004FF480310160002141607047032988BFE3
:101CC000704780B5DFE801F002AD4185016A21F07F
:101CD00001010162816921F0030181611188036AB8
:101CE00019430162016A002321F002010162B2F886
:101CF00004C0D0F820E020F48061C4F201039942CE
:101D00004EEA0C01016240F0D080016A21F004012A
:101D100001625188036A19430162016A21F00801D6
:101D20000162D188036A1943016250F8041F21F44B
:101D3000807101601189036819430160016821F411
:101D40000071016051890268ADE0016A21F480717F
:101D50000162C16921F00301C1611188036A43EA8C
:101D600001210162016A002321F400710162B2F8CD
:101D700004C0D0F820E020F48061C4F2010399424D
:101D80004EEA0C21016240F09080016A21F48061EA
:101D900001625188036A43EA01210162016A21F468
:101DA00000610162D188036A43EA0121016250F8AF
:101DB000041F21F4805101601189036843EA011175
:101DC0000160016821F4005101605289016812012B
:101DD00069E0016A21F480510162C16921F4407116
:101DE000C1611188036A43EA01310162016A00237B
:101DF00021F400510162B2F804C0D0F820E020F4D0
:101E00008061C4F2010399424EEA0C3101624CD167
:101E100050F8041F21F48041016012890168920189
:101E200041E0016A21F010010162816921F44071F1
:101E300081611188036A43EA01110162016A00238A
:101E400021F020010162B2F804C0D0F820E020F4B3
:101E50008061C4F2010399424EEA0C11016224D15F
:101E6000016A21F0400101625188036A43EA0111CD
:101E70000162016A21F080010162D188036A43EAAC
:101E80000111016250F8041F21F480610160118981
:101E9000036843EA81010160016821F40061016087
:101EA00052890168920011430160BDE8804070478B
:101EB000032988BF7047DFE801F0020D050A50F8DA
:101EC000181F01E050F81C1F21F0700107E050F8C6
:101ED0001C1F01E050F8181F21F4E04112020160BC
:101EE000016811430160704703299CBF00EB81002A
:101EF00042637047032988BF7047DFE801F0020D95
:101F0000050A50F8181F01E050F81C1F21F00801C5
:101F100007E050F81C1F01E050F8181F21F4006181
:101F2000120201600168114301607047406A704706
:101F30004162704710B541F6FF31C4F2000188429A
:101F40001BDC40F6FF31C4F20001884230DD41F273
:101F5000FF31C4F20001884250DC40F60041C4F277
:101F60000001884269D041F20001C4F200018842B8
:101F700040F0828040F6040476E040F2FF31C4F283
:101F80000101884226DD44F2FF31C4F2010188429A
:101F900043DC40F20041C4F20101884250D044F2D7
:101FA0000001C4F20101884266D14FF411645BE084
:101FB000B0F1804F47D040F20041C4F200018842A6
:101FC00044D040F60001C4F20001884254D140F6EA
:101FD000020449E041F60041C4F20001884238D0D1
:101FE00042F20001C4F20001884235D00021C4F25F
:101FF0000101884240D14FF4106435E041F20041C4
:10200000C4F2000188422AD041F60001C4F2000166
:10201000884231D140F6060426E044F20041C4F281
:10202000010188421ED044F60001C4F20101884239
:1020300018BF10BD40F6121416E040F6030413E07A
:1020400040F6011410E04FF400640DE040F6010486
:102050000AE040F6070407E040F6080404E040F612
:10206000050401E040F611142046FFF727FC204646
:10207000BDE81040FFF712BC10BD0000016841F040
:1020800001010160704700000A8840F2004C826242
:1020900040F6FF32C4F200029042C4F2010C0FDCA1
:1020A000B0F1804F19D040F20043C4F200039842CF
:1020B00013D040F60003C4F2000398420DD018E09C
:1020C00040F60043C4F20003984206D0604504D0B5
:1020D0000023C4F2010398420BD1036823F070037C
:1020E00003604B8802681A4302608A8803681A43B7
:1020F000026080B541F20002D1F808E020F480636C
:10210000C4F200029342C0F82CE007D0026822F427
:1021100040720260CA8803681A43026040F4806219
:10212000624504BF097B0163416941F001014161DE
:1021300080BD0000F0B5032900F28B80DFE801F0DC
:10214000021B355784465CF8203F4FF0010E23F008
:102150000103CCF80030DCF8003023F00A03CCF89F
:1021600000301388DCF800703B43CCF800300346A5
:1021700053F8187F32E084465CF8203F4FF0100E91
:1021800023F01003CCF80030DCF8003023F0A0037B
:10219000CCF800301388DCF8007047EA0313CCF861
:1021A0000030034653F8187F3AE084465CF8203F3D
:1021B0004FF4807E23F48073CCF80030DCF80030DC
:1021C00023F42063CCF800301388DCF8007047EA71
:1021D0000323CCF80030034653F81C7F27F0030795
:1021E0001F6054881D6804266FF0F00721E08446C4
:1021F0005CF8203F4FF4805E23F48053CCF800302D
:10220000DCF8003023F40053CCF800301388DCF8FD
:10221000007047EA0333CCF80030034653F81C7FC4
:1022200027F440771F6057881C683D020C266FF426
:1022300070472C431C601C683C401C60D4881D689F
:10224000B4402C431C60DCF8003043EA0E03CCF8A9
:102250000030032988BFF0BD9288DFE801F0020555
:10226000080D50F8181F04E050F8181F06E050F849
:102270001C1F21F00C0104E050F81C1F21F44061E8
:1022800012020160016811430160F0BDC268114390
:10229000C1607047C943016170470000C2680069AE
:1022A0000A40084018BF0120002A18BF0122104030
:1022B00070470000D0F808C042EA03122CF0070C67
:1022C000C0F808C0D0F808C041EA0C018160D0F81D
:1022D00018C040F203312CEA01018161D0F818C026
:1022E00040F2011141EA0C018161016A21F00A0109
:1022F0000162016A21F0A0010162016A11430162D9
:1023000070470000002908BF7047F0B581B041F266
:1023100000060C460546C4F201060027E95D30467A
:1023200000F072F83046072100F0DCF80028F9D000
:102330000137A742F2D101B0BDE8F040704700007C
:10234000B0B5044647F2FF70C4F200000D46844267
:102350004FF000000EDC44F6FF31C4F200018C4265
:1023600017DC44F20041C4F200018C421DD044F657
:10237000000116E040F6FF71C4F201018C422FDC2F
:1023800047F60001C4F200018C420ED047F600412E
:1023900007E044F60041C4F200018C4205D045F24A
:1023A0000001C4F200018C4203D102210846FFF76C
:1023B00007FAE168090406D400EB5500B0FBF5F01C
:1023C00080B2A060B0BD400000EB5500B0FBF5F05E
:1023D0004FF6F0710140C0F342000844A060B0BD68
:1023E00041F20001C4F201018C424FF00301DDD043
:1023F00041F20042C4F201029442D7D0D9E7000072
:1024000040686FF35F2070476FF35F214160704752
:1024100010B547F2FF71C4F20001884214DC44F6A3
:10242000FF31C4F20001884224DC44F20041C4F2CE
:10243000000188423CD044F60001C4F20001884209
:1024400049D140F612043EE040F6FF71C4F20101AA
:1024500088421EDC47F60001C4F2000188422AD0FF
:1024600047F60041C4F20001884218BF10BD40F693
:102470001F0428E044F60041C4F2000188421DD048
:1024800045F20001C4F20001884224D140F6140450
:1024900019E041F20001C4F20101884211D041F279
:1024A0000041C4F20101884215D140F605140AE04A
:1024B00040F6110407E040F61E0404E040F6130461
:1024C00001E040F604142046FFF7F8F92046BDE885
:1024D0001040FFF7E3B910BDC16841F40051C1607D
:1024E000704700008A09105801F01F01C84000F031
:1024F0000100704770B505464FF44060FFF7BEF924
:102500004FF44060FFF7BAF941F20410FFF7B6F953
:1025100041F20004C4F2010404F57046304607217C
:102520004FF40072FEF72CFB304607214FF4806217
:10253000FEF726FB3046022101224FF40073FEF71E
:1025400065FB3046022101224FF48063FEF75EFBFB
:102550003046002102224FF40073FEF781FB304623
:10256000002102224FF48063FEF77AFB2046FFF73A
:102570004FFF20462946FFF7E3FE2046002100F0EA
:1025800043F82046002100F05BF82046002100F0CF
:1025900049F82046FFF7A0FF2046082100F04AF83E
:1025A0002046042100F038F8252002210222FEF7FF
:1025B000EFFC204640F2053100F008F820464FF4C9
:1025C0004171BDE8704000F001B8000001F01F0249
:1025D00089094FF0010C0B580CFA02F21A430A5009
:1025E00070470000C1F3891252F800C08A0D1058DC
:1025F00001F01F03C1F30441C8402CFA03F1084065
:1026000000F0010070470000C26822F4C062C2609E
:10261000C2681143C1607047C26822F004021143CE
:10262000C1607047026922F440520261026911439D
:1026300001617047C26822F008021143C16070470F
:10264000C26822F48052C260C2681143C160704700
:10265000D0E9013201699A60D1F804C082688445EA
:10266000536008BF4A6000220261086801380860B0
:10267000086870474FF0FF31024642F8081F0021FA
:102680004260C0E90322016070470000002101613F
:102690007047000080B5D1F800C01CF1010207D0DE
:1026A00000F108039E465B681A686245FAD901E0AA
:1026B000D0F810E0DEF8042008614A609160C1F8AB
:1026C00008E0CEF8041001680131016080BD00000F
:1026D000D0F800C0436808619A684B608A609A68C5
:1026E000996051600CF1010101607047DFF80C0046
:1026F000016841F4700101607047000088ED00E05E
:102700004FF0500080F31188BFF36F8FBFF34F8FEE
:1027100040F20C00C2F2000001684A1C002902606D
:1027200018BF70474EF60450CEF200000068000655
:102730000BD043F6E65043F66961C0F60000C0F6E0
:10274000000140F2A91201F0D9B8704710B540F26B
:102750000C04C2F20004206858B943F6E65043F670
:102760006961C0F60000C0F600014FF4D87201F0B4
:10277000C5F820680138206018BF10BD002080F324
:10278000118810BDB0B528B3044650F8040CA4F16C
:10279000080500280BD443F6E65043F64761C0F61F
:1027A0000000C0F6000140F22F1201F0A7F82868DF
:1027B00058B143F6E65043F64761C0F60000C0F654
:1027C00000014FF4987201F099F854F8040CB0F13C
:1027D000FF3F00DDB0BD2968002918BFB0BD20F063
:1027E000004044F8040C00F05FFA44F21001C2F219
:1027F000010154F8040C0A681044086044F298017E
:10280000C2F2010108460968A942FBD34268831855
:10281000AB4204D154F8043C05461A4442606B684C
:10282000EA188A4201D00A460AE041F27C02C2F26A
:1028300000021268914203D0D1E900211944696075
:10284000A8422A6018BF056044F22800C2F20100C5
:10285000016801310160BDE8B04000F059BF0000DF
:102860004EF21000CEF2000000210160816040F2C3
:102870000401C2F20001096844F6D352C1F26202B7
:10288000A1FB02124FF0FF3101EB921141600721D1
:1028900001607047F0B581B004460F4658B943F661
:1028A000E65043F6F551C0F60000C0F6000140F6D0
:1028B000D82201F023F84FF00000B7B144F24401F0
:1028C000C2F201010023002503E000BF0833502BB2
:1028D0000ED0CA185668A64209D0002DF6D1166847
:1028E000002E18BF02461546F0E7002500E0154609
:1028F000002D18BFC5E9007401B0F0BD70B51546D4
:102900000E460446FFF7FCFE94F84400FF2804BF7F
:10291000002084F8440094F84500FF2804BF0020FC
:1029200084F84500FFF712FFA06B28B904F12400DA
:1029300031462A4600F034F92046BDE87040FEF7E3
:1029400027BE000070B5002854D043F6B475C2F21B
:1029500001050446286858B143F6E65043F6106175
:10296000C0F60000C0F6000140F21C5200F0C6FFA5
:1029700028680130286044F2C80041F27005C2F2B4
:102980000100C2F20005066828680430FFF760FE07
:1029900060B9286843F6BC72C06AC2F20102012124
:1029A000136801FA00F023EA000010602868A419F7
:1029B000446009D341F28000C2F200000068296837
:1029C0000431FFF767FE10E041F27800C2F2000028
:1029D000006829680431FFF75DFE44F21C00C2F272
:1029E000010001688C4238BF046000F091FE0028AD
:1029F00018BF70BD4EF60450CEF200004FF080516B
:102A00000160BFF34F8FBFF36F8F70BD70B5044689
:102A1000FFF776FE41F27006002CC2F2000608BFF6
:102A20003468251D2846FFF713FEA0B9E06A41F27D
:102A3000880200EB8001C2F2000252F8211051B965
:102A400043F6BC72C2F201020121136801FA00F0E0
:102A500023EA00001060A06A18B104F11800FFF723
:102A6000F7FD43F6B870C2F2010001680131016060
:102A70003068844216D043F6AC70C2F2010001689F
:102A80000139016041F27800C2F200000168096872
:102A9000B1B1006844F21C01C068C2F201010068D3
:102AA000086014E044F2B400C2F201002946FFF7C6
:102AB0000FFE43F6B070C2F201000168013105E07B
:102AC00044F21C00C2F201004FF0FF310160FFF739
:102AD0003DFE3068844205D0206BFFF753FE204650
:102AE000FFF750FE44F29400C2F20100006800B308
:102AF0003068844218BF70BD43F6B470C2F2010062
:102B0000006858B143F6E65043F61061C0F6000085
:102B1000C0F6000140F2AF4200F0F0FE4EF6045065
:102B2000CEF200004FF080510160BFF34F8FBFF332
:102B30006F8F70BD44F22001C2F20101096801608B
:102B400044F2C801C2F20101096841607047000007
:102B500044F2D400C2F2010001210160704700007C
:102B6000B0B505460C4658B943F6E65043F6106139
:102B7000C0F60000C0F6000140F60E4200F0BEFEB6
:102B800041F27000C2F20000006800F1180128460E
:102B9000FFF780FD20460121BDE8B040FEF78CBA6A
:102BA00070B5144605460E4658B943F6E65043F64E
:102BB0001061C0F60000C0F6000140F6444200F08B
:102BC0009DFE41F27001C2F2000168680A68002CA3
:102BD000D06182680B681A620A68836802F1180281
:102BE0005A600A6802F1180282600868214685620C
:102BF000286818BF4FF0FF36421C30462A60BDE8F7
:102C00007040FEF759BA000080B582B044F2140C4F
:102C100041F2E910C2F2010C4FF0000EC0F60000C4
:102C20001FA180220023CDE900EC00F00DFB01285C
:102C300008BF00F02FFE411C1FD0012829D14FF002
:102C4000500080F31188BFF36F8FBFF34F8F44F2B2
:102C50001C00C2F201004FF0FF31016044F2940009
:102C6000C2F201000121016044F2C800C2F2010079
:102C70000021016000F06CF80BE043F6E65043F6EB
:102C80001061C0F60000C0F6000140F6120200F02C
:102C900035FE43F69060C0F60000006802B080BDCB
:102CA00049444C450000000043F6B470C2F20100F4
:102CB000016801310160704743F6B470C2F201004F
:102CC000006830B144F2D400C2F201000121016079
:102CD0007047B0B544F2D400C2F201000021016097
:102CE00043F6BC70C2F201000068B0FA80F0C0B2D6
:102CF000C0F11F0041F2880500EB8004C2F200051C
:102D000055F8240058B943F6E65043F61061C0F672
:102D10000000C0F6000140F6F63200F0EFFD05EBD2
:102D2000840050F8041F4968021D9142016001D1DE
:102D300049680160006841F27001C068C2F2000198
:102D40000860B0BD44F21000C2F201000068704794
:102D5000B0B584B04EF20044CEF200044CF27025BF
:102D6000C4F20F15D4F80009691C88420BD143F650
:102D7000E65043F66961C0F60000C0F6000140F27B
:102D8000311200F0BBFDD4F80009A8420BD143F684
:102D9000E65043F66961C0F60000C0F600014FF44A
:102DA000997200F0ABFD207843F6A4710290FF20E9
:102DB00020702078C2F201018DF807009DF807000D
:102DC00043F6A87500F050000870C2F20105072014
:102DD00028609DF90700B0F1FF3F0CDC062000BF22
:102DE00028609DF80710013849008DF807109DF9FB
:102DF00007100029F4D4286803280BD043F6E650C6
:102E000043F66961C0F60000C0F6000140F25B12B3
:102E100000F074FD286803280BD043F6E65043F613
:102E20006961C0F60000C0F600014FF4B27200F014
:102E300065FD28684FF4E06101EA002028600298EF
:102E40002070D4F8200940F47000C4F82009D4F8A8
:102E5000200940F07040C4F82009FFF701FD40F25E
:102E60000C04C2F2000400252560FFF73FFC4EF67B
:102E70003470CEF20000016841F040410160FEF77D
:102E8000EFF9FFF719FF0395206801300AD043F6E8
:102E9000E65043F66961C0F60000C0F60001EA2280
:102EA00000F02CFD4FF0500080F31188BFF36F8FBE
:102EB000BFF34F8F03980028FCD0002004B0B0BDB2
:102EC00080B54FF0500080F31188BFF36F8FBFF3D0
:102ED0004F8F00F0CFFA30B14EF60450CEF2000022
:102EE0004FF080510160002080F3118880BD000008
:102EF00070B5D0B104460D46A0FB0101A9B905FB90
:102F000004F010F1490F10D84830FEF77BFBC0B138
:102F10000646002D18BF4830306030460121C6E912
:102F20000F4500F011F8304670BD43F6E65043F609
:102F3000F551C0F60000C0F600014FF4F27200F047
:102F4000DDFC002070BD000070B528B30546C06BE5
:102F500070B30E46296C0024A0FB010149BBFFF7AA
:102F6000CFFB2868D5E90F12AC6302FB01030139DE
:102F700001FB0201C5E90103FF20E96085F8440077
:102F800085F8450005F110001EB3FFF773FB05F14E
:102F90002400FFF76FFB2CE043F6E65043F6F551B3
:102FA000C0F60000C0F600014FF4977200F0A6FCD6
:102FB0000024012058B143F6E65043F6F551C0F61F
:102FC0000000C0F6000140F2631200F097FC2046BA
:102FD00070BD016869B100F029FB50B14EF6045094
:102FE000CEF200004FF080510160BFF34F8FBFF36E
:102FF0006F8FFFF7ABFB012400200028DBD1E6E751
:103000002DE9F04F85B00C460546049208B1DCB9B5
:103010000CE043F6E65043F6F551C0F60000C0F66A
:10302000000140F26B5200F069FC6CB9286C58B199
:1030300043F6E65043F6F551C0F60000C0F6000135
:1030400040F26F5200F05AFC019400F0F9F968B9AF
:10305000049858B143F6E65043F6F551C0F6000027
:10306000C0F6000140F2745200F048FC05F1100A6D
:1030700005F1240002AF0DF110094FF00008009097
:103080000DE000BF2846FEF783FA00F041FBFFF792
:1030900037FBAC6BFFF75AFB002C00F08480FFF786
:1030A0002FFBD5F838B0BBF1000F27D02A6C5AB1EE
:1030B000D5E902011144E960814224BF2868E86033
:1030C000E9680198FDF78EF8ABF10100A863286963
:1030D00070B1504600F0AAFA50B14EF60450CEF24C
:1030E00000004FF080510160BFF34F8FBFF36F8F2F
:1030F000FFF72CFB00200126A0B955E0049850B141
:10310000B8F1000F02D13846FFF714FD4FF0010867
:10311000012038B948E0FFF719FB002600200028FD
:1031200042D000BFFFF712FBFFF7BEFDFFF7E8FA42
:1031300095F84400FF2804BF002085F8440095F866
:103140004500FF2804BF002085F84500FFF7FEFA80
:103150003846494600F02CF800287FF493AFFFF77B
:10316000CFFAAC6BFFF7F2FA2CB12846FEF710FA53
:1031700000F0CEFA93E704990098FFF7F1FC284697
:10318000FEF706FA00F0C4FA00287FF488AF4EF686
:103190000450CEF200004FF080510160BFF34F8F1A
:1031A000BFF36F8F7BE70026304605B0BDE8F08F98
:1031B00070B504460D46B8B35DB943F6E65043F624
:1031C0001061C0F60000C0F600014FF44F6200F03D
:1031D00095FBFFF795FA44F2C80EC2F2010EDEF835
:1031E000003029684A1C16D044F2200CC2F2010CAF
:1031F000D4E90002DCF80060864201D093420CD290
:103200009A1A914209D9881A2860DCF800002060D7
:10321000DEF800006060002402E000200124286045
:10322000FFF794FA204670BD43F6E65043F610616E
:10323000C0F60000C0F6000140F6EF4200F05EFB71
:10324000002DC6D1B9E700002DE9F0478146900076
:10325000984616460D46FEF7D5F988B107464C202C
:10326000FEF7D0F948B14C210446FCF7E2FF276392
:103270004CB94FF0FF30BDE8F0873846FFF782FACF
:103280000024002CF5D0206B089F00EB860004384A
:1032900020F007066DB104F1340000216A5C42544D
:1032A0006A5C1AB10F2901F10101F7D1002084F8FD
:1032B0004300DDF824A0202F0BD343F6E65043F65D
:1032C0001061C0F60000C0F6000140F2923200F03A
:1032D00015FB251D28461F2F28BF1F27E762FFF774
:1032E000D5F904F11800FFF7D1F9C7F12000A0616A
:1032F00030464946424624616462FEF74FFABAF10D
:10330000000F206018BFCAF80040FFF7F9F943F634
:10331000AC70C2F20100016841F2700A0131016033
:10332000C2F2000ADAF8001044F2940941F2880768
:10333000C2F20109C2F2000761B1D9F80000002809
:1033400040D1DAF80000E16AC06A884298BFCAF842
:10335000004037E0CAF800400068012832D100265A
:10336000B819FFF787F91436B6F5207FF8D143F680
:10337000E878C2F201084046FFF77CF943F6FC7694
:10338000C2F201063046FFF775F944F23000C2F28E
:103390000100FFF76FF944F2B400C2F20100FFF739
:1033A00069F944F2A000C2F20100FFF763F941F2AB
:1033B0007800C2F20000C0F8008041F28000C2F242
:1033C0000000066043F6B870C2F2010001680126F1
:1033D0000131016043F6BC71E06AC2F201010A6882
:1033E00006FA00F31A4300EB80000A6007EB800145
:1033F0004A6861619368A260E360936895605D606C
:1034000057F82010013147F82010FFF79FF9D9F83D
:10341000000088B1DAF80000E16AC06A88420AD286
:103420004EF60450CEF200004FF080510160BFF321
:103430004F8FBFF36F8F01263046BDE8F087000045
:1034400044F29400C2F201000068002804BF012089
:10345000704743F6B470C2F201000068B0FA80F021
:10346000400940007047000044F2C800C2F2010069
:103470000068704743F6B470C2F20100006840B1C2
:1034800044F22C00C2F20100016801310160002009
:1034900070472DE9F04F81B044F2C800C2F201003C
:1034A000016844F21C0511F1010AC2F20105C0F8DD
:1034B00000A02BD341F27804C2F200042068006817
:1034C00058B143F6E65043F61061C0F60000C0F66E
:1034D000000140F6B72200F011FA41F28001C2F279
:1034E000000120680A682260086044F22000C2F2ED
:1034F00001000168013101602068006818B120688E
:10350000C068006801E04FF0FF302860286841F291
:10351000880E8245C2F2000E01D200206EE041F218
:10352000780BC2F2000BDBF800004FF000090068D6
:10353000002858D043F6BC7CC2F2010C002025E0E4
:10354000D16ADCF8003001248C402343CCF80030F1
:1035500001EB81030EEB830465685461AF689560ED
:10356000D760AF68AE607E605EF8232001324EF80F
:10357000232041F27002C2F200021268D26ADBF824
:103580000030914288BF0120196881B3DBF8002028
:10359000D268D268164656F8044FA24529D3D2E91C
:1035A000023554699D60D4F80480D568B0456B60DD
:1035B00008BF6560C2F814902368013B2360946AD9
:1035C000002CBDD0D2E9073561689D60156A02F113
:1035D0001807B9426B6008BF6560C2F8289021687F
:1035E00001392160ACE74FF0FF34002005E04FF0D7
:1035F000FF3444F21C05C2F201052C6041F2700157
:10360000C2F200010968C96A01EB81015EF821106C
:10361000012944F2D401C2F2010188BF01200968E6
:10362000002918BF012001B0BDE8F08F10B5C068B7
:10363000C4685CB943F6E65043F61061C0F600007A
:10364000C0F6000140F6744200F058F9D4E90732A0
:10365000A16A9A60486804F1180C226A60454FF02C
:103660000000536008BF4A60A06208680138086023
:1036700043F6B470C2F20100006848B144F2300170
:10368000C2F201014868A1628268E061226225E01D
:10369000D4E9023261699A604868E26804F1040C76
:1036A0006045536008BF4A60086843F6BC72013841
:1036B0000860E06AC2F201020121136881401943E7
:1036C000116041F2880100EB8000C2F2000101EBC1
:1036D0008001486861618268A060E2608268C0F829
:1036E00008C0C2F804C008680130086041F27001E7
:1036F000C2F20001E06A0968C96A884291BF0020ED
:1037000044F2D401C2F20101012088BF086010BD5B
:103710002DE9F04F81B043F6B474C2F20104206881
:1037200058B943F6E65043F61061C0F60000C0F603
:10373000000140F6850200F0E1F8FEF7E1FF2068A5
:1037400001382060206830B10024FEF7FFFF2046DA
:1037500001B0BDE8F08F43F6AC70C2F20100006822
:103760000028F1D044F2300AC2F2010ADAF800105F
:1037700044F2D4080029C2F2010868D043F6BC7BA9
:1037800041F2880441F2700E4FF0000C4FF0010935
:10379000C2F2010BC2F20004C2F2000EDAF80C1001
:1037A000CE68D6E90721B76A91607868316A06F178
:1037B0001805A8424A6008BF7960C6F828C0386872
:1037C00001383860D6E90202716982604A68F5689A
:1037D000371DBA42686008BF4D600868013808604C
:1037E000F06ADBF8001009FA00F21143CBF8001080
:1037F00000EB800104EB810255687261AB68B56033
:10380000F360AB68AF605F6054F82120013244F888
:103810002120DEF80010C96A884228BFC8F800904D
:10382000DAF800000028B9D18EB141F27800C2F276
:1038300000000168096819B10068C068006801E00B
:103840004FF0FF3044F21C01C2F20101086044F263
:103850002C04C2F20104256855B10126FFF70AFEC7
:10386000002818BFC8F80060013DF7D10020206093
:10387000D8F8000000283FF467AF4EF60450CEF2AF
:1038800000004FF080510160BFF34F8F0124BFF360
:103890006F8F5AE710B582B0FDF76EFC44F2CC0092
:1038A000C2F20100006808B344F2D00C41F24D307E
:1038B000C2F2010C1F24C0F600000EA14FF480726A
:1038C0000023CDE9004CFFF7BFFC04465CB943F68A
:1038D000E65043F62B61C0F60000C0F6000140F24E
:1038E000191200F00BF8204602B010BD0024002C85
:1038F000F9D1ECE7546D7220537663000FB4054B99
:1039000010B503A9044A029800F018F810BC5DF83D
:1039100014FB00005D0B00080000002002E008C856
:10392000121F08C1002AFAD170477047002001E039
:1039300001C1121F002AFBD1704700002DE9FF4F83
:103940008DB00F460546002606E025280BD0DDE9A0
:103950000F1290476D1C761C28780028F5D111B005
:103960003046BDE8F08F0024A246A1460122EC4972
:1039700000E0044315F8013F203B02FA03F008423F
:10398000F7D128782A2810D06FF02F022878A0F1DC
:103990003001092914D80AEB8A0102EB410144F0F5
:1039A000020400EB010A6D1CF0E701CF5FEA000A98
:1039B00003D544F40054CAF1000A44F002046D1C1B
:1039C00028782E2817D115F8010F44F004042A286E
:1039D0000ED06FF02F022878A0F1300109290AD803
:1039E00009EB890102EB410100EB01096D1CF2E7D3
:1039F00057F8049B6D1C28786C280FD006DC4C28E7
:103A000017D068280DD06A2814D104E0742810D08B
:103A10007A280FD10DE044F400140AE044F4801435
:103A200001E044F440146978814202D104F5801425
:103A30006D1C6D1C2A786E2A1FD00CDC632A31D0D5
:103A400004DC002A8BD0582A11D1A3E0642A68D064
:103A5000692A0CD165E0732A2ED004DC6F2A73D05A
:103A6000702A04D19BE0752A6FD0782A6ED0104658
:103A7000DDE90F129047761C50E1C4F30250022892
:103A800006D0032809D0042801CF09D0066045E1FB
:103A900001CFF117C0E9006140E101CF06803DE1AF
:103AA00006703BE117F8040B8DF8000000208DF83C
:103AB0000100EB46012003E057F804BB4FF0FF3054
:103AC00061074FF0000102D40DE008F101018846C2
:103AD00049450FDA8045F8DB1BF808100029F4D1BE
:103AE00008E008F1010188468142FADB1BF8081062
:103AF0000029F6D1DDE90F23AAEB08008146214613
:103B000000F036F9304400EB080604E0DDE90F125E
:103B10001BF8010B9047B8F10108F7D2214648463F
:103B2000F7E00A21C4F302534FF0000B0891022B77
:103B300004D001CFC117032B09D00AE0FF1D27F0E5
:103B40000707F7E8020108E032E01FE020E000B2DA
:103B5000C117042B01D140B2C117031E71F100033C
:103B600007DA4FF0000CD0EB0C006CEB01012D23B9
:103B700002E0230504D52B238DF82430012303E034
:103B8000E30701D02023F7E7984658E00A2110E028
:103B900010210EE010204FF0000B08900CE01021D7
:103BA0004FF0000B44F004044FF00809089103E0C3
:103BB00008214FF0000B0891C4F30253022B04D0EC
:103BC00001CF0021032B06D006E0FF1D27F00707D9
:103BD000F7E8020103E080B2042B00D1C0B24FF03D
:103BE000000823072BD5702A07D0DDF820C08CF001
:103BF000100C5CEA0B0C05D00EE040238DF824304D
:103C0000012308E050EA010306D030238DF8243068
:103C10008DF8252002239846DDF820C08CF0080C92
:103C20005CEA0B0C0BD150EA010301D1630706D506
:103C300030238DF824304FF00108A9F10109582AEA
:103C400004D038A20B9208AA0A920BE03AA2F9E734
:103C50005B46089AFCF7F8FA0B9B9B5C0A9A521E8B
:103C60000A92137050EA0102F2D10A98ADEB0000FB
:103C700000F1200B600702D524F4803401E04FF0FE
:103C80000109D94502DDA9EB0B0000E0002000EBA3
:103C90000B0141440890AAEB010AE00306D4DDE9D8
:103CA0000F232146504600F063F806444FF0000908
:103CB00008E009A911F80900DDE90F12904709F1A0
:103CC0000109761CC145F4DBE0030CD5DDE90F23C7
:103CD0002146504600F04CF8064404E0DDE90F129E
:103CE00030209047761C0899481E08900029F5DC82
:103CF00008E00A980A990078491C0A91DDE90F1238
:103D00009047761CBBF10001ABF1010BF1DC2146C1
:103D10005046DDE90F2300F019F806446D1C1BE640
:103D20000928010030313233343536373839616291
:103D30006364656600000000303132333435363755
:103D40003839414243444546000000002DE9F04126
:103D5000044600251E461746880404D405E039466B
:103D60002020B0476D1C641EF9D52846BDE8F081BF
:103D70002DE9F041044600251E469046C80301D5B2
:103D8000302700E02027880404D505E04146384666
:103D9000B0476D1C641EF9D52846BDE8F0810000CF
:103DA00010B5044601E0FCF7D9FE14F8010B0449F4
:103DB0000028F8D1BDE810400A20FCF7CFBE000073
:103DC0000000002000000000010203046B65792060
:103DD00072656C65617365210D006B657920707289
:103DE000657373210D004572726F723A25732C2032
:103DF00025640D0A002E2E2F4672656552544F53CE
:103E00002F536F757263652F71756575652E63002D
:103E10002E2E2F4672656552544F532F536F757275
:103E200063652F7461736B732E63002E2E2F4672A1
:103E3000656552544F532F536F757263652F7469C4
:103E40006D6572732E63002E2E2F46726565525477
:103E50004F532F506F72742F4D656D4D616E672FEC
:103E6000686561705F342E63002E2E2F4672656583
:103E700052544F532F506F72742F4743432F415268
:103E80004D5F434D34462F706F72742E63000000F7
:103E90001F000000B83E00080000002010000000D5
:103EA0001C390008C83E000810000020C84401006A
:103EB0002C3900080000000000000000001C4E0E1D
:083EC000E8030000AAAAAAAA67
:04000005080001AD41
:00000001FF
