:020000040800F2
:10000000F8430120C1010008B1030008790300088A
:10001000AD030008FD0200087106000800000000A2
:100020000000000000000000000000003104000893
:100030002903000800000000C1030008550400085F
:10004000DB010008DB010008DB010008DB01000820
:10005000DB010008DB0100082D030008DB010008BC
:10006000DB010008DB010008DB010008DB01000800
:10007000DB010008DB010008DB010008DB010008F0
:10008000DB010008DB010008DB010008DB010008E0
:10009000DB010008DB010008DB010008DB010008D0
:1000A000DB010008DB010008DB010008DB010008C0
:1000B000DB010008DB010008DB010008DB010008B0
:1000C000DB010008DB010008DB010008DB010008A0
:1000D000DB01000809060008DB010008DB0100085D
:1000E000DB010008DB010008DB010008DB01000880
:1000F000DB010008DB010008DB010008DB01000870
:10010000DB010008DB010008DB010008DB0100085F
:10011000DB010008DB010008D9050008DB0100084D
:10012000DB010008DB01000801030008DB01000817
:10013000DB010008DB010008DB010008DB0100082F
:10014000DB010008DB010008DB010008DB0100081F
:10015000DB010008DB010008DB010008DB0100080F
:10016000DB010008DB010008DB010008DB010008FF
:10017000DB010008DB010008DB01000800000000D3
:10018000DB010008DB010008DB010008DB010008DF
:10019000DB010008DB010008DB01000800000000B3
:1001A000DB010008DB010008DB010008DFF80CD0F0
:1001B00000F07CF800480047850B0008F843012058
:1001C0000648804706480047FEE7FEE7FEE7FEE7F1
:1001D000FEE7FEE7FEE7FEE7FEE7FEE7790400083C
:1001E000AD01000840EA01039B0703D009E008C9FC
:1001F000121F08C0042AFAD203E011F8013B00F8EC
:10020000013B521EF9D27047D2B201E000F8012B37
:10021000491EFBD270470022F6E710B513460A4686
:1002200004461946FFF7F0FF204610BD2DE9F05FA8
:100230000546002092469B46884606468146402455
:100240001BE0284641464746224600F047F8534601
:100250005A46C01A914110D311461846224600F062
:1002600016F82D1A67EB01084F462246012000219F
:1002700000F00DF817EB00094E41201EA4F1010417
:10028000DFDC484631462A464346BDE8F09F202A37
:1002900004DB203A00FA02F1002070479140C2F1DD
:1002A000200320FA03F31943904070471CB5094816
:1002B0000090094801900546009C06E0E06840F087
:1002C000010394E8070098471034AC42F6D3FFF7D7
:1002D00071FF0000FC3600081C370008202A04DBF0
:1002E000203A21FA02F00021704721FA02F3D040AF
:1002F000C2F120029140084319467047FEE7000012
:1003000010B546F20044C4F2020420460221202225
:1003100000F088FA012818BF10BD204602212022D3
:10032000BDE8104000F062BAFEE7000010B5012001
:1003300000F060FB012818BF10BD0024C4F20204C5
:100340002046012100F0B2FB012809D104F54060EC
:10035000802100F0A3FB43F24260C0F6000003E0FE
:1003600043F23460C0F6000003F04EF90120BDE80E
:10037000104000F039BB0000FEE7000040F60044EA
:10038000C4F2020420468021012200F089FB4FF4D0
:10039000FA7001F00BFF20468021002200F080FB64
:1003A0004FF4FA7001F002FFECE70000FEE70000F6
:1003B000FEE7000000000000000000000000000058
:1003C000EFF30980BFF36F8F154B1A681EF0100F03
:1003D00008BF20ED108A20E9F04F10602DE90900D8
:1003E0004FF0500080F31188BFF34F8FBFF36F8F32
:1003F00002F096F84FF0000080F31188BDE8090084
:1004000019680868B0E8F04F1EF0100F08BFB0EC94
:10041000108A80F30988BFF36F8F704700BF00BF59
:10042000201000200000000000000000000000007C
:10043000074B19680868B0E8F04F80F30988BFF3EC
:100440006F8F4FF0000080F31188704700BF00BF2E
:100450002010002080B502F027FC012807D141F2CE
:10046000BC20C2F2000001680131016080BDBDE81E
:10047000804002F059B9000081B04EF68851CEF2AA
:1004800000010A6843F6080042F47002C4F2020058
:100490000A6050F8081C41F0010140F8081C00BF38
:1004A00050F8081C8907FBD5016841F08001016004
:1004B00000210091009A4F2A06D800BF009A01320D
:1004C0000092009A502AF9D3026842F0900202602A
:1004D000009100994F2905D80099013100910099A8
:1004E0005029F9D301684FF6FF7221F00301016032
:1004F00050F8081CCFF6F662114040F8081C50F87E
:10050000081C4FF0000C21F4802140F8081CC0F8B2
:1005100000C0026843F21002C2F2004240F8042C0C
:10052000C0F804C050F8082C42F4803240F8082C7F
:100530004FF6FE7250F8081C013A4CF10003890393
:1005400002D4002BF6D100BF50F8081C8903FBD55C
:10055000826B47F2000142F08052C4F200018263D4
:100560000A6842F440420A6002680260026842F48B
:1005700000420260026842F4A052026047F619028B
:10058000C0F6402240F8042C50F8082C42F080724B
:1005900040F8082C50F8082C9201FBD50A6842F468
:1005A00080320A604A68D203FCD50A6842F40032FD
:1005B0000A6000BF4A689203FCD5016821F003017C
:1005C0000160016841F00201016000BF0168090794
:1005D000FCD501B07047000010B541F20004C4F230
:1005E00000042046012101F0CFFA012818BF10BDF8
:1005F0002046012101F0C4FA04F5FE308021BDE857
:10060000104000F04BBA0000B0B541F20004C4F253
:10061000010440F20431C0F20401204601F016FC4E
:10062000012818BFB0BD204601F01AFB04F5AA341A
:100630002046022100F0D2F941F21A05C0F580509F
:10064000C2F2000528802046022100F035F800F0B3
:1006500053F8288840F21801C2F2000100220A541F
:1006600041F21800C2F2000001210170B0BD00008B
:10067000FEE7000010B50446042001F037F840F210
:10068000100140F21400C2F200010122C2F2000087
:100690000A704EF210010460CEF200010A684FF4B5
:1006A0007A70604342F002020A604860086840F0D5
:1006B0000100086010BD000001EB410100EBC1002A
:1006C000016921F0010101617047000001EB410166
:1006D00000EBC100016941F00101016170470000B8
:1006E00001EB410100EBC100016921F0606141EAC9
:1006F000426101617047000010B58AB040F61640B3
:1007000000F05CFF46F20044C4F2020420460221DD
:1007100000F036F8A4F5A83040F21801A0F57F707B
:10072000C2F2000101900120039100210290CDE965
:1007300006014FF4805008904FF44030CDE9041189
:10074000099001AA2046022100F004F92046022166
:100750000422FFF7C5FF20460221FFF7B7FF20461E
:100760000221102200F034F83A200221012200F088
:10077000E7FAA4F5AA30402101F0DEFA0AB010BD74
:1007800001EB410200EBC20213694FF03D0C23F074
:10079000010313610023136153619361D3611362F9
:1007A000212353620A1F28BFD1B201EB410301F09C
:1007B00002014FF00C024FEA410138BF082201EB61
:1007C000430113580CFA01F119431150704700000E
:1007D000102301EB4101802A08BF2423184450F85C
:1007E00031301A4340F83120704700000B1F38BFEA
:1007F0000B46D9B24FEA410151FA83F103F00203EB
:100800004FF00C0C4FEA430338BF4FF0080C03EBDA
:1008100041015CF8003002FA01F119434CF8001074
:1008200070470000F0B5032921D8561E1F2E4FF047
:10083000000300F28C804FF0800C24248E46054685
:10084000DFE806F06C8585108585853A8585858588
:10085000858585418585858585858585858585858C
:10086000858585484FF0020C1024042228E0561E8E
:100870001F2E4FF0000300F26A800FF20C0202EB11
:1008800086070A1FDFE806F01063632B6363633398
:10089000636363636363633B636363636363636350
:1008A0006363636363636343051D5FFA82FE4FF016
:1008B000800C2424012231E04FF0040C1024082283
:1008C0008E4605462AE04FF0080C10228E4605465B
:1008D000102423E0102420228E4605461CE0051D2E
:1008E0005FFA82FE4FF0020C1024042216E0051D70
:1008F0005FFA82FE4FF0040C102408220EE0051D62
:100900005FFA82FE4FF0080C1022102406E0051D4D
:100910005FFA82FE102420224FF0100C0EF0020726
:100920002B680EEB4E057F00204401EB410107EBE5
:10093000450750F83100BA4013EA020100EA0C0002
:1009400018BF0121002818BF012001EA0003184642
:10095000F0BD000080B501EB410100EBC100416A30
:1009600048F23F7321F0040141621168CFF6FC7335
:1009700081619168C161D16941610169D2F818E072
:1009800001EA030C116A136941EA0C0141EA83018F
:1009900041EA0E01194301615168012907D000297C
:1009A000016914BF41F4004141F4007102E00169A2
:1009B00021F400710161D1680369002923F4806387
:1009C00008BF03F58063036151690269002922F4BD
:1009D000807208BF02F58072026180BD01EB4101A7
:1009E00000EBC1004069704743F61441C4F20101B5
:1009F0000860704743F61441C4F2010109680840D9
:100A000018BF012070470000B0B541F20005C4F2E4
:100A100001050446C1B2284601F026F928460721FF
:100A200001F09AF90028F9D02046B0BDF0B5D0F811
:100A300020E0D0F824C000230F27002505E000BFE8
:100A40000135082D03F104030CD022FA05F6F60750
:100A5000F6D007FA03F62EEA060601FA03F446EA90
:100A6000040EEDE7082300240F2504E00133102BCA
:100A700004F104040CD022FA03F6F607F6D005FAC6
:100A800004F62CEA060701FA04F647EA060CEDE73D
:100A9000C0F820E0C0F824C0F0BD0000C16270477B
:100AA0001823002A08BF28231950704700690840FE
:100AB00018BF0120704700002DE9F041D0F800E098
:100AC000D0F80CC000244FF00308002605E000BF5A
:100AD0000136102E04F1020412D023FA06F7FF07A4
:100AE000F6D008FA04F72EEA070E01FA04F54EEAEA
:100AF000050E2CEA070702FA04F547EA050CE7E7BA
:100B0000C0F800E0C0F80CC0BDE8F08101294168E0
:100B100014BF994319434160B0B5D0F808C0002113
:100B20004FF0030E002404E00134102C01F1020107
:100B30000CD023FA04F5ED07F6D00EFA01F52CEAF5
:100B4000050C02FA01F54CEA050CEDE7C0F808C007
:100B5000B0BD000010B540F6034000F02FFD40F698
:100B60000044C4F202042046012100228023FFF742
:100B7000A3FF2046002102228023BDE81040FFF79A
:100B8000C5BF000082B000F0A1FD41F2B82C41F2D7
:100B90004160C2F2000C4FF0010EC0F6000006A149
:100BA0004FF496720023CDE900EC01F081FF01F0D3
:100BB0005FFC00BFFEE700BF53544152545F5441F5
:100BC000534B0000024640F60040C4F200000121F1
:100BD00000F0B4BE40F29024C4F24124002500BFCE
:100BE00041F288302560FFF7EDFF322001F0DEFA98
:100BF000F6E70000F0B587B040F6024000F0DEFCFA
:100C000040F6024000F0DAFC40F60044C4F2000472
:100C100004F5FE3528460121002210230126002775
:100C2000FFF74AFF2846012100222023FFF744FF57
:100C30002846002102221023FFF768FF28460021E2
:100C400002222023FFF762FF4FF4406000F0B6FC61
:100C50004FF4406000F0B2FC04F5FA35284602215A
:100C600000220223FFF728FF284602210022042346
:100C7000FFF722FF2846002102220223FFF746FF4A
:100C80002846002102220423FFF740FF28460221C4
:100C90000222FFF7CBFE284602210422FFF7C6FE00
:100CA00041F2030000F08AFC4FF0807000F0B6FCC7
:100CB000204600F065FE1320CDE9030742F20F70D5
:100CC000059003A920468DF8187000F003FF6D46CB
:100CD000204601212A46ADF80470ADF8006000F00E
:100CE00017FD204602212A4600F012FD2046012170
:100CF000002200F023FE20460121602200F002FEC7
:100D000020460121002200F01FFE20460221002281
:100D100000F014FE20460221602200F0F3FD204680
:100D20000221002200F010FE204600F0EBFC2046DD
:100D300000F0CAFE07B0F0BD4FF4407000F052B8AA
:100D40004EF60C5CCEF2000CDCF8003003F4E063ED
:100D5000B3F5E06F01D1042328E0DCF8003003F4A0
:100D6000E063B3F5C06F01D103231FE0DCF800306E
:100D700003F4E063B3F5A06F17D0DCF8003003F4A0
:100D8000E063B3F5806F01D101230FE0DCF80030A0
:100D900003F4E063B3F5407F01D1002306E040F2A5
:100DA0000053C0F2FA53CCF80030022301FA03FCDE
:100DB000C3F104030F21D94011404EF2001241EA61
:100DC0000C01CEF20002090140EA020383F800138D
:100DD00000F01F01012303FA01F11C2303EAD000F4
:100DE0008150704740F080604EF60C5140F0FD702D
:100DF000CEF2000108607047F0B581B00D4643F6B1
:100E0000E47141F22006C2F20101C2F200060F684D
:100E100031680446081D01F04FF810B1601C0FD076
:100E200027E0306843F6D862C06AC2F201020121AD
:100E3000136801FA00F023EA00001060601C18D16A
:100E4000BDB143F6BC70C2F20100416832689160E6
:100E50008A683368DA6032688B6804325A603268B4
:100E600004328A603168486101680131016001B073
:100E7000F0BD3068E41944600BD341F23000C2F297
:100E8000000000683168043101B0BDE8F04001F0B5
:100E900035B841F22800C2F2000000683168043120
:100EA00001F02CF843F63870C2F2010001688C4260
:100EB00038BF046001B0F0BD70B501F055F843F6DD
:100EC000E876C2F20106306818B1BDE8704001F062
:100ED00071B843F6DC64C2F20104204600F0FEFF64
:100EE00043F6F065C2F20105284600F0F7FF41F233
:100EF0002400C2F20000046041F23400C2F200009B
:100F000005600A200C21002201F026FC0028306038
:100F1000DBD003A101F0F2F8BDE8704001F04AB85F
:100F2000546D72510000000043F6CC6541F2380A5E
:100F30004EF6045843F6D07743F6C866C2F2010570
:100F4000C2F2000ACEF200084FF08059C2F2010747
:100F5000C2F2010615E000BF01F006F8F868C468A7
:100F6000201D00F0A9FF3068013830602868013882
:100F7000286001F01FF8206B01F038F8204601F0DE
:100F800035F828680028E7D1DAF800000228F8D3FD
:100F9000C8F80090BFF34F8FBFF36F8FF1E70000E9
:100FA00008480068006880F308884FF0000080F36C
:100FB000148862B661B6BFF34F8FBFF36F8F00DF47
:100FC00000BF000008ED00E02DE9F04381B041F2E0
:100FD0002408C2F20008D8F800200546D2680E4660
:100FE000D46804F10409484600F066FF94F8240030
:100FF00041070CD400F0FE0084F824001CE000BF80
:10100000711B814210D3216A204688473D46A06962
:1010100024614719B7426760F2D9AE4201D2AF42AC
:10102000F1D2D8F8000004E041F23400C2F200002E
:101030000068494600F062FF216A204601B0BDE821
:10104000F043084780B582B00020019040F20800CC
:10105000C2F20000006801300AD043F24E6043F251
:10106000D161C0F60000C0F60001EA2202F07AF871
:101070004FF0500080F31188BFF36F8FBFF34F8F95
:1010800001980028FCD002B080BD000084B041F27D
:10109000240441F21C0B41F2340843F6E879C2F211
:1010A0000004C2F2000BC2F20008C2F201090DF105
:1010B000040A00BF2068076817B1C068066800E02E
:1010C000002601F025FA01F003FEDBF800100546CA
:1010D000884209D22068016891B1C0684FF0FF31A1
:1010E0000068FFF771FFF5E7CBF8005097B1AE420B
:1010F00010D801F041FF30462946FFF765FF29E08F
:10110000D8F80010C8F800002160CBF8005001F0BA
:1011100033FF1FE00FB1002205E0D8F8000000689F
:10112000B0FA80F04209D9F80000711B01F01AF8FA
:1011300001F022FF70B94EF60450CEF200004FF0DD
:1011400080510160BFF34F8FBFF36F8F02E02068C3
:1011500000F0D4FED9F800005146002201F084FBD3
:101160000028A7D001980028F4D4039F786910B113
:10117000381D00F0A1FE01F0ABFDDBF800100546C4
:1011800088420ED22068016831B1C0684FF0FF314B
:101190000068FFF719FFF5E7D8F80010C8F800005D
:1011A00021600198CBF8005001380828D2D8DFE838
:1011B00000F005051A215705051A210097F82400AB
:1011C000029AB96940F0010387F824308B183E4633
:1011D00046F8043FAB423F6132D9954201D2934277
:1011E00037D2206831E097F8240000F0FE0087F83D
:1011F0002400AFE797F82400029940F0010087F837
:101200002400B96159B943F24E6043F29361C0F6CC
:101210000000C0F6000140F25E3201F0A3FFB869A1
:101220003946421941F8042FAA423F613FF68FAF79
:1012300000283FF48FAFD8F8000000F05FFE89E788
:10124000AA1A8A4205D2D8F80000314600F056FEAC
:1012500080E742070CD400F0FE0087F8240032E05B
:1012600097F824008107C0D4384600F0BFFE71E72C
:101270000298D346CA46C146084406E0281A884266
:1012800015D3396A384688474046B9693F6101EB52
:101290000008A845C7F80480F0D9854201D28045EE
:1012A000EFD22068314600F029FEC84605E0D9F8A3
:1012B00000003146C84600F021FED146DA4641F230
:1012C0001C0BC2F2000B396A3846884742E700001F
:1012D000F0B581B0044600F047FE94F94560012E58
:1012E0000FDB04F1240500BF286850B1284601F047
:1012F000D1FD002818BF01F05FF870B2013E01284F
:10130000F2DCFF2684F8456000F054FE00F02CFE6D
:1013100094F94470012F0EDB04F11005286850B1D8
:10132000284601F0B7FD002818BF01F045F878B253
:10133000013F0128F2DC84F8446001B0BDE8F040D0
:1013400000F038BE2DE9F04381B0044601F0E0F82A
:1013500041F22C06C2F20006306843F62C78C2F245
:10136000010858B184B304F007001138A04226BF29
:1013700024F0070000F11005002526E041F2C0200E
:10138000C2F20000C11D420700F5963218BF21F0DD
:10139000070043F6B471C2F201010023C1E9000362
:1013A00022F00701A1F10802326041E90233111A6B
:1013B0003268C8F80010C0E9002143F63470C2F268
:1013C00001000160002CCED10025012D4FF000045A
:1013D00070DBD8F8000085426CD843F6B470C2F2D6
:1013E000010007687968A94207D200BF3A6822B1B4
:1013F000516838461746A942F8D3326897422FD031
:10140000D0F800903A68491B1129026035D37C1945
:1014100060070AD043F24E6043F2AF61C0F60000AD
:10142000C0F60001DC2201F09DFE786843F6B4713D
:10143000401BC2F2010160607D6000BF0846096880
:10144000A142FBD342688318A34203D163680446D8
:101450001A4442606368E2188A4203D00A4608E0F0
:10146000002427E03268914203D0D1E900211944D9
:101470006160A042226018BF046043F6347079684E
:10148000D8F80020C2F201000368511A9942C8F846
:10149000001038BF016043F640727868C2F2010262
:1014A000136840F00040002109F10804C7E900106A
:1014B000581C106001F060FD60070BD043F24E60D5
:1014C00043F2AF61C0F60000C0F600014FF48E7227
:1014D00001F048FE204601B0BDE8F083034641F22A
:1014E000450021F00101C0F600004FF0807C03E9C7
:1014F00003106FF00201A3F1440043E909127047A1
:1015000010B543F60402C4F2020253680146C3F365
:10151000810342F20040022BC0F2F40006D0012BFE
:101520001FD147F64000C0F27D101AE0D2F800C08B
:1015300013680CF03F0CC3F3881E13681468C3F3E0
:101540000143640247F64004C0F27D1458BF0446CC
:10155000B4FBFCF4022000EB430004FB0EF3B3FBEE
:10156000F0F0536811A4C3F30313E35C546843F22F
:101570002C6CC4F38224C0F6000C1CF804E0526802
:10158000032907D820FA03F3DFE801F00F02060968
:10159000184610BD002010BD23FA0EF010BDC2F396
:1015A00042301CF8000023FA00F010BD00000000DB
:1015B00000000000010203040607080943F60003C7
:1015C00000F01F018009C4F202034FF0010CC25861
:1015D0000CFA01F11143C1507047000043F60003BB
:1015E00000F01F018009C4F202034FF0010CC25841
:1015F0000CFA01F122EA0101C150704743F60003E1
:1016000000F01F018009C4F202034FF0010CC25820
:101610000CFA01F11143C1507047000043F68C0CE5
:10162000C4F2020CDCF800206FF0807142EA000383
:10163000884208BF22F08073CCF800307047000069
:10164000B0B582B000F090FC40F27D30002402255D
:10165000C0F6000011A196220023CDE9005401F04C
:1016600027FA40F6D530C0F600000FA196220023DD
:10167000CDE9005401F01CFA00F098FF01460DA0DE
:1016800001F070FD41F2B820C2F20000006800F0E5
:10169000F1FD02B0BDE8B04000F08CBC4C45445FA9
:1016A0005461736B000000006D6F746F725461734E
:1016B0006B0000004672656520686561703A202500
:1016C000642062797465730A0000000080B5F02020
:1016D000FEF7D0FFFFF730FBFFF73CFA4FF4165050
:1016E00000F042FBBDE88040FFF784BA4EF21001E3
:1016F000CEF200010A68042822F0040208BF043276
:101700000A607047016841F0800101607047000085
:10171000032988BF704780B5DFE801F002AD41853D
:10172000016A21F001010162816921F003018161F7
:101730001188036A19430162016A002321F0020142
:101740000162B2F804C0D0F820E020F48061C4F255
:10175000010399424EEA0C01016240F0D080016A17
:1017600021F0040101625188036A19430162016A90
:1017700021F008010162D188036A1943016250F81F
:10178000041F21F48071016011890368194301600D
:10179000016821F40071016051890268ADE0016ABD
:1017A00021F480710162C16921F00301C1611188D6
:1017B000036A43EA01210162016A002321F40071F6
:1017C0000162B2F804C0D0F820E020F48061C4F2D5
:1017D000010399424EEA0C21016240F09080016AB7
:1017E00021F4806101625188036A43EA01210162A8
:1017F000016A21F400610162D188036A43EA012190
:10180000016250F8041F21F48051016011890368BE
:1018100043EA01110160016821F40051016052891D
:101820000168120169E0016A21F480510162C16915
:1018300021F44071C1611188036A43EA01310162F8
:10184000016A002321F400510162B2F804C0D0F80B
:1018500020E020F48061C4F2010399424EEA0C3189
:1018600001624CD150F8041F21F4804101601289BB
:101870000168920141E0016A21F010010162816971
:1018800021F4407181611188036A43EA0111016208
:10189000016A002321F020010162B2F804C0D0F8EF
:1018A00020E020F48061C4F2010399424EEA0C1159
:1018B000016224D1016A21F0400101625188036A6A
:1018C00043EA01110162016A21F080010162D188BD
:1018D000036A43EA0111016250F8041F21F4806198
:1018E00001601189036843EA81010160016821F404
:1018F0000061016052890168920011430160BDE8F6
:1019000080407047032988BF7047DFE801F0020D6F
:10191000050A50F8181F01E050F81C1F21F0700153
:1019200007E050F81C1F01E050F8181F21F4E041B7
:1019300012020160016811430160704703299CBFD6
:1019400000EB810042637047032988BF7047DFE8DE
:1019500001F0020D050A50F8181F01E050F81C1F95
:1019600021F0080107E050F81C1F01E050F8181F93
:1019700021F40061120201600168114301607047A7
:1019800010B541F6FF31C4F2000188421BDC40F67D
:10199000FF31C4F20001884230DD41F2FF31C4F270
:1019A0000001884250DC40F60041C4F20001884248
:1019B00069D041F20001C4F20001884240F0828007
:1019C00040F6040476E040F2FF31C4F2010188429F
:1019D00026DD44F2FF31C4F20101884243DC40F2CB
:1019E0000041C4F20101884250D044F20001C4F227
:1019F0000101884266D14FF411645BE0B0F1804F81
:101A000047D040F20041C4F20001884244D040F681
:101A10000001C4F20001884254D140F6020449E0BA
:101A200041F60041C4F20001884238D042F2000180
:101A3000C4F20001884235D00021C4F2010188427D
:101A400040D14FF4106435E041F20041C4F200018E
:101A500088422AD041F60001C4F20001884231D107
:101A600040F6060426E044F20041C4F20101884237
:101A70001ED044F60001C4F20101884218BF10BD17
:101A800040F6121416E040F6030413E040F6011489
:101A900010E04FF400640DE040F601040AE040F667
:101AA000070407E040F6080404E040F6050401E0FE
:101AB00040F611142046FFF7A1FD2046BDE8104076
:101AC000FFF78CBD10BD0000016841F0010101600D
:101AD000704700000A8840F2004C826240F6FF32F4
:101AE000C4F200029042C4F2010C0FDCB0F1804F4E
:101AF00019D040F20043C4F20003984213D040F6DC
:101B00000003C4F2000398420DD018E040F60043F1
:101B1000C4F20003984206D0604504D00023C4F20A
:101B2000010398420BD1036823F0700303604B88D4
:101B300002681A4302608A8803681A43026080B50B
:101B400041F20002D1F808E020F48063C4F2000200
:101B50009342C0F82CE007D0026822F44072026081
:101B6000CA8803681A43026040F48062624504BF79
:101B7000097B0163416941F00101416180BD0000C1
:101B8000C943016170470000C26800690A4008400B
:101B900018BF0120002A18BF012210407047000022
:101BA000B0B5044647F2FF70C4F200000D4684420F
:101BB0004FF000000EDC44F6FF31C4F200018C420D
:101BC00017DC44F20041C4F200018C421DD044F6FF
:101BD000000116E040F6FF71C4F201018C422FDCD7
:101BE00047F60001C4F200018C420ED047F60041D6
:101BF00007E044F60041C4F200018C4205D045F2F2
:101C00000001C4F200018C4203D102210846FFF713
:101C100077FCE168090406D400EB5500B0FBF5F051
:101C200080B2A060B0BD400000EB5500B0FBF5F005
:101C30004FF6F0710140C0F342000844A060B0BD0F
:101C400041F20001C4F201018C424FF00301DDD0EA
:101C500041F20042C4F201029442D7D0D9E7000019
:101C600040686FF35F2070476FF35F2141607047FA
:101C700010B547F2FF71C4F20001884214DC44F64B
:101C8000FF31C4F20001884224DC44F20041C4F276
:101C9000000188423CD044F60001C4F200018842B1
:101CA00049D140F612043EE040F6FF71C4F2010152
:101CB00088421EDC47F60001C4F2000188422AD0A7
:101CC00047F60041C4F20001884218BF10BD40F63B
:101CD0001F0428E044F60041C4F2000188421DD0F0
:101CE00045F20001C4F20001884224D140F61404F8
:101CF00019E041F20001C4F20101884211D041F221
:101D00000041C4F20101884215D140F605140AE0F1
:101D100040F6110407E040F61E0404E040F6130408
:101D200001E040F604142046FFF768FC2046BDE8B9
:101D30001040FFF753BC10BD426901F0400122F092
:101D4000400242614269114341617047C16841F4F8
:101D50000051C160704700008A09105801F01F014E
:101D6000C84000F00100704770B505464FF4406070
:101D7000FFF724FC4FF44060FFF720FC41F2041011
:101D8000FFF71CFC41F20004C4F2010404F57046A4
:101D9000304607214FF40072FEF748FE3046072117
:101DA0004FF48062FEF742FE3046022101224FF4DA
:101DB0000073FEF781FE3046022101224FF480635A
:101DC000FEF77AFE3046002102224FF40073FEF740
:101DD0009DFE3046002102224FF48063FEF796FEFE
:101DE0002046FFF745FF20462946FFF7D9FE20464B
:101DF000002100F03DF82046002100F055F8204673
:101E0000002100F043F82046FFF7A0FF20460821FC
:101E100000F044F82046042100F032F82520022189
:101E20000222FEF78DFF20464FF44171BDE870405D
:101E3000AFF3008001F01F0289094FF0010C0B582D
:101E40000CFA02F21A430A5070470000C1F38912DB
:101E500052F800C08A0D105801F01F03C1F304416D
:101E6000C8402CFA03F1084000F001007047000060
:101E7000C26822F4C062C260C2681143C160704788
:101E8000C26822F004021143C1607047026922F463
:101E9000405202610269114301617047C26822F039
:101EA00008021143C1607047C26822F48052C260C8
:101EB000C2681143C1607047D0E9013201699A607C
:101EC000D1F804C082688445536008BF4A6000228C
:101ED0000261086801380860086870474FF0FF31F8
:101EE000024642F8081F00214260C0E90322016057
:101EF00070470000002101617047000080B5D1F8F3
:101F000000C01CF1010207D000F108039E465B6887
:101F10001A686245FAD901E0D0F810E0DEF8042032
:101F200008614A609160C1F808E0CEF804100168C9
:101F30000131016080BD0000D0F800C04368086135
:101F40009A684B608A609A68996051600CF101014F
:101F500001607047DFF80C00016841F47001016016
:101F60007047000088ED00E04FF0500080F31188CA
:101F7000BFF36F8FBFF34F8F40F20800C2F2000033
:101F800001684A1C0029026018BF70474EF60450D1
:101F9000CEF20000006800060BD043F24E6043F220
:101FA000D161C0F60000C0F6000140F2A91201F0B4
:101FB000D9B8704710B540F20804C2F20004206896
:101FC00058B943F24E6043F2D161C0F60000C0F64A
:101FD00000014FF4D87201F0C5F820680138206084
:101FE00018BF10BD002080F3118810BDB0B528B314
:101FF000044650F8040CA4F1080500280BD443F261
:102000004E6043F2AF61C0F60000C0F6000140F23E
:102010002F1201F0A7F8286858B143F24E6043F23E
:10202000AF61C0F60000C0F600014FF4987201F0F5
:1020300099F854F8040CB0F1FF3F00DDB0BD2968F9
:10204000002918BFB0BD20F0004044F8040C00F097
:102050005FFA43F62C71C2F2010154F8040C0A68CD
:102060001044086043F6B471C2F2010108460968E1
:10207000A942FBD342688318AB4204D154F8043C14
:1020800005461A4442606B68EA188A4201D00A4643
:102090000AE041F22C02C2F200021268914203D01F
:1020A000D1E9002119446960A8422A6018BF05607F
:1020B00043F64470C2F20100016801310160BDE8DD
:1020C000B04000F059BF00004EF21000CEF2000008
:1020D00000210160816040F20401C2F20001096840
:1020E00044F6D352C1F26202A1FB02124FF0FF315B
:1020F00001EB92114160072101607047F0B581B09A
:1021000004460F4658B943F24E6043F25D61C0F693
:102110000000C0F6000140F6D82201F023F84FF08D
:102120000000B7B143F66071C2F20101002300253F
:1021300003E000BF0833502B0ED0CA185668A642E1
:1021400009D0002DF6D11668002E18BF024615469C
:10215000F0E7002500E01546002D18BFC5E9007422
:1021600001B0F0BD70B515460E460446FFF7FCFE03
:1021700094F84400FF2804BF002084F8440094F839
:102180004500FF2804BF002084F84500FFF712FF38
:10219000A06B28B904F1240031462A4600F034F936
:1021A0002046BDE87040FFF793B8000070B50028E6
:1021B00054D043F6D065C2F201050446286858B1F0
:1021C00043F24E6043F27861C0F60000C0F60001B1
:1021D00040F21C5200F0C6FF28680130286043F628
:1021E000E47041F22005C2F20100C2F20005066867
:1021F00028680430FFF760FE60B9286843F6D862AB
:10220000C06AC2F201020121136801FA00F023EA58
:10221000000010602868A419446009D341F230001E
:10222000C2F20000006829680431FFF767FE10E081
:1022300041F22800C2F20000006829680431FFF76B
:102240005DFE43F63870C2F2010001688C4238BF6F
:10225000046000F091FE002818BF70BD4EF60450D7
:10226000CEF200004FF080510160BFF34F8FBFF3FB
:102270006F8F70BD70B50446FFF776FE41F2200601
:10228000002CC2F2000608BF3468251D2846FFF75F
:1022900013FEA0B9E06A41F2380200EB8001C2F2FD
:1022A000000252F8211051B943F6D862C2F201027D
:1022B0000121136801FA00F023EA00001060A06A0F
:1022C00018B104F11800FFF7F7FD43F6D460C2F22D
:1022D00001000168013101603068844216D043F684
:1022E000C860C2F2010001680139016041F22800B2
:1022F000C2F2000001680968B1B1006843F63871A4
:10230000C068C2F201010068086014E043F6D070B2
:10231000C2F201002946FFF70FFE43F6CC60C2F27D
:1023200001000168013105E043F63870C2F2010096
:102330004FF0FF310160FFF73DFE3068844205D069
:10234000206BFFF753FE2046FFF750FE43F6B070B8
:10235000C2F20100006800B33068844218BF70BD4B
:1023600043F6D060C2F20100006858B143F24E60FB
:1023700043F27861C0F60000C0F6000140F2AF42BF
:1023800000F0F0FE4EF60450CEF200004FF0805107
:102390000160BFF34F8FBFF36F8F70BD43F63C7189
:1023A000C2F201010968016043F6E471C2F2010161
:1023B000096841607047000043F6F070C2F2010006
:1023C0000121016070470000B0B505460C4658B9C0
:1023D00043F24E6043F27861C0F60000C0F600019F
:1023E00040F60E4200F0BEFE41F22000C2F20000B4
:1023F000006800F118012846FFF780FD2046012102
:10240000BDE8B040FEF7F8BC70B5144605460E4670
:1024100058B943F24E6043F27861C0F60000C0F64E
:10242000000140F6444200F09DFE41F22001C2F25C
:10243000000168680A68002CD06182680B681A6223
:102440000A68836802F118025A600A6802F11802E9
:102450008260086821468562286818BF4FF0FF3601
:10246000421C30462A60BDE87040FEF7C5BC000043
:1024700080B582B043F6307C40F62970C2F2010C80
:102480004FF0000EC0F600001FA180220023CDE90E
:1024900000EC00F00DFB012808BF00F02FFE411CEE
:1024A0001FD0012829D14FF0500080F31188BFF3CD
:1024B0006F8FBFF34F8F43F63870C2F201004FF0B9
:1024C000FF31016043F6B070C2F2010001210160EA
:1024D00043F6E470C2F201000021016000F06CF8E4
:1024E0000BE043F24E6043F27861C0F60000C0F6A4
:1024F000000140F6120200F035FE43F2F860C0F62B
:102500000000006802B080BD49444C450000000056
:1025100043F6D060C2F201000168013101607047EA
:1025200043F6D060C2F20100006830B143F6F070AB
:10253000C2F20100012101607047B0B543F6F070AE
:10254000C2F201000021016043F6D860C2F201002E
:102550000068B0FA80F0C0B2C0F11F0041F2380547
:1025600000EB8004C2F2000555F8240058B943F28C
:102570004E6043F27861C0F60000C0F6000140F6FC
:10258000F63200F0EFFD05EB840050F8041F4968B7
:10259000021D9142016001D149680160006841F269
:1025A0002001C068C2F200010860B0BD43F62C7083
:1025B000C2F2010000687047B0B584B04EF200442A
:1025C000CEF200044CF27025C4F20F15D4F80009C5
:1025D000691C88420BD143F24E6043F2D161C0F6D0
:1025E0000000C0F6000140F2311200F0BBFDD4F84B
:1025F0000009A8420BD143F24E6043F2D161C0F60C
:102600000000C0F600014FF4997200F0ABFD207895
:1026100043F6C0610290FF2020702078C2F20101D1
:102620008DF807009DF8070043F6C46500F05000E0
:102630000870C2F20105072028609DF90700B0F17B
:10264000FF3F0CDC062000BF28609DF80710013812
:1026500049008DF807109DF907100029F4D4286867
:1026600003280BD043F24E6043F2D161C0F6000064
:10267000C0F6000140F25B1200F074FD28680328E8
:102680000BD043F24E6043F2D161C0F60000C0F6B9
:1026900000014FF4B27200F065FD28684FF4E0616C
:1026A00001EA0020286002982070D4F8200940F444
:1026B0007000C4F82009D4F8200940F07040C4F834
:1026C0002009FFF701FD40F20804C2F200040025D2
:1026D0002560FFF73FFC4EF63470CEF20000016833
:1026E00041F040410160FEF75BFCFFF719FF0395E5
:1026F000206801300AD043F24E6043F2D161C0F647
:102700000000C0F60001EA2200F02CFD4FF050005E
:1027100080F31188BFF36F8FBFF34F8F03980028AA
:10272000FCD0002004B0B0BD80B54FF0500080F365
:102730001188BFF36F8FBFF34F8F00F0CFFA30B126
:102740004EF60450CEF200004FF0805101600020A0
:1027500080F3118880BD000070B5D0B104460D46ED
:10276000A0FB0101A9B905FB04F010F1490F10D835
:102770004830FEF7E7FDC0B10646002D18BF4830CF
:10278000306030460121C6E90F4500F011F83046AF
:1027900070BD43F24E6043F25D61C0F60000C0F6CA
:1027A00000014FF4F27200F0DDFC002070BD00006B
:1027B00070B528B30546C06B70B30E46296C002473
:1027C000A0FB010149BBFFF7CFFB2868D5E90F1239
:1027D000AC6302FB0103013901FB0201C5E90103FE
:1027E000FF20E96085F8440085F8450005F11000F8
:1027F0001EB3FFF773FB05F12400FFF76FFB2CE01E
:1028000043F24E6043F25D61C0F60000C0F6000185
:102810004FF4977200F0A6FC0024012058B143F257
:102820004E6043F25D61C0F60000C0F6000140F268
:10283000631200F097FC204670BD016869B100F09A
:1028400029FB50B14EF60450CEF200004FF08051FB
:102850000160BFF34F8FBFF36F8FFFF7ABFB012416
:1028600000200028DBD1E6E72DE9F04F85B00C46CB
:102870000546049208B1DCB90CE043F24E6043F225
:102880005D61C0F60000C0F6000140F26B5200F03E
:1028900069FC6CB9286C58B143F24E6043F25D613B
:1028A000C0F60000C0F6000140F26F5200F05AFC82
:1028B000019400F0F9F968B9049858B143F24E60F8
:1028C00043F25D61C0F60000C0F6000140F27452B0
:1028D00000F048FC05F1100A05F1240002AF0DF1EB
:1028E00010094FF0000800900DE000BF2846FEF7E9
:1028F000EFFC00F041FBFFF737FBAC6BFFF75AFB37
:10290000002C00F08480FFF72FFBD5F838B0BBF126
:10291000000F27D02A6C5AB1D5E902011144E960B1
:10292000814224BF2868E860E9680198FDF75AFCF5
:10293000ABF10100A863286970B1504600F0AAFA13
:1029400050B14EF60450CEF200004FF080510160BD
:10295000BFF34F8FBFF36F8FFFF72CFB00200126D3
:10296000A0B955E0049850B1B8F1000F02D1384633
:10297000FFF714FD4FF00108012038B948E0FFF7D8
:1029800019FB00260020002842D000BFFFF712FBF1
:10299000FFF7BEFDFFF7E8FA95F84400FF2804BFF3
:1029A000002085F8440095F84500FF2804BF00206A
:1029B00085F84500FFF7FEFA3846494600F02CF846
:1029C00000287FF493AFFFF7CFFAAC6BFFF7F2FA72
:1029D0002CB12846FEF77CFC00F0CEFA93E7049970
:1029E0000098FFF7F1FC2846FEF772FC00F0C4FAED
:1029F00000287FF488AF4EF60450CEF200004FF06E
:102A000080510160BFF34F8FBFF36F8F7BE70026CC
:102A1000304605B0BDE8F08F70B504460D46B8B33A
:102A20005DB943F24E6043F27861C0F60000C0F633
:102A300000014FF44F6200F095FBFFF795FA43F663
:102A4000E47EC2F2010EDEF8003029684A1C16D07E
:102A500043F63C7CC2F2010CD4E90002DCF80060D1
:102A6000864201D093420CD29A1A914209D9881A0F
:102A70002860DCF800002060DEF8000060600024C0
:102A800002E0002001242860FFF794FA204670BD80
:102A900043F24E6043F27861C0F60000C0F60001D8
:102AA00040F6EF4200F05EFB002DC6D1B9E7000012
:102AB0002DE9F04781469000984616460D46FEF7F0
:102AC00041FC88B107464C20FEF73CFC48B14C2144
:102AD0000446FDF7A0FB27634CB94FF0FF30BDE87B
:102AE000F0873846FFF782FA0024002CF5D0206BDF
:102AF000089F00EB8600043820F007066DB104F152
:102B0000340000216A5C42546A5C1AB10F2901F159
:102B10000101F7D1002084F84300DDF824A0202F24
:102B20000BD343F24E6043F27861C0F60000C0F66A
:102B3000000140F2923200F015FB251D28461F2FA0
:102B400028BF1F27E762FFF7D5F904F11800FFF748
:102B5000D1F9C7F12000A0613046494642462461C0
:102B60006462FEF7BBFCBAF1000F206018BFCAF820
:102B70000040FFF7F9F943F6C860C2F201000168AE
:102B800041F2200A01310160C2F2000ADAF80010B5
:102B900043F6B07941F23807C2F20109C2F20007E8
:102BA00061B1D9F80000002840D1DAF80000E16AEC
:102BB000C06A884298BFCAF8004037E0CAF80040AF
:102BC0000068012832D10026B819FFF787F91436BA
:102BD000B6F5207FF8D143F60478C2F201084046EA
:102BE000FFF77CF943F61876C2F201063046FFF78C
:102BF00075F943F64C70C2F20100FFF76FF943F626
:102C0000D070C2F20100FFF769F943F6BC70C2F25E
:102C10000100FFF763F941F22800C2F20000C0F89A
:102C2000008041F23000C2F20000066043F6D4603A
:102C3000C2F20100016801260131016043F6D8614A
:102C4000E06AC2F201010A6806FA00F31A4300EBD7
:102C500080000A6007EB80014A6861619368A260A6
:102C6000E360936895605D6057F82010013147F884
:102C70002010FFF79FF9D9F8000088B1DAF80000BA
:102C8000E16AC06A88420AD24EF60450CEF20000D1
:102C90004FF080510160BFF34F8FBFF36F8F01265C
:102CA0003046BDE8F087000043F6B070C2F2010084
:102CB0000068002804BF0120704743F6D060C2F2CC
:102CC00001000068B0FA80F0400940007047000041
:102CD00043F6E470C2F201000068704743F6D0602A
:102CE000C2F20100006840B143F64870C2F2010030
:102CF000016801310160002070472DE9F04F81B07B
:102D000043F6E470C2F20100016843F6387511F130
:102D1000010AC2F20105C0F800A02BD341F2280439
:102D2000C2F200042068006858B143F24E6043F2DA
:102D30007861C0F60000C0F6000140F6B72200F04E
:102D400011FA41F23001C2F2000120680A682260E3
:102D5000086043F63C70C2F2010001680131016075
:102D60002068006818B12068C068006801E04FF072
:102D7000FF302860286841F2380E8245C2F2000E0A
:102D800001D200206EE041F2280BC2F2000BDBF80A
:102D900000004FF000090068002858D043F6D86CB6
:102DA000C2F2010C002025E0D16ADCF800300124D9
:102DB0008C402343CCF8003001EB81030EEB8304FD
:102DC00065685461AF689560D760AF68AE607E603B
:102DD0005EF8232001324EF8232041F22002C2F295
:102DE00000021268D26ADBF80030914288BF0120ED
:102DF000196881B3DBF80020D268D268164656F80D
:102E0000044FA24529D3D2E9023554699D60D4F814
:102E10000480D568B0456B6008BF6560C2F8149047
:102E20002368013B2360946A002CBDD0D2E90735AA
:102E300061689D60156A02F11807B9426B6008BFAE
:102E40006560C2F82890216801392160ACE74FF035
:102E5000FF34002005E04FF0FF3443F63875C2F22E
:102E600001052C6041F22001C2F200010968C96A23
:102E700001EB81015EF82110012943F6F071C2F2E5
:102E8000010188BF01200968002918BF012001B095
:102E9000BDE8F08F10B5C068C4685CB943F24E60FD
:102EA00043F27861C0F60000C0F6000140F67442BB
:102EB00000F058F9D4E90732A16A9A60486804F131
:102EC000180C226A60454FF00000536008BF4A604A
:102ED000A06208680138086043F6D060C2F20100C1
:102EE000006848B143F64C71C2F201014868A16222
:102EF0008268E061226225E0D4E9023261699A6069
:102F00004868E26804F1040C6045536008BF4A60F9
:102F1000086843F6D86201380860E06AC2F201022C
:102F20000121136881401943116041F2380100EB1F
:102F30008000C2F2000101EB800148686161826893
:102F4000A060E2608268C0F808C0C2F804C00868E7
:102F50000130086041F22001C2F20001E06A096814
:102F6000C96A884291BF002043F6F071C2F20101A4
:102F7000012088BF086010BD2DE9F04F81B043F6F5
:102F8000D064C2F20104206858B943F24E6043F2A3
:102F90007861C0F60000C0F6000140F6850200F03E
:102FA000E1F8FEF7E1FF206801382060206830B1C9
:102FB0000024FEF7FFFF204601B0BDE8F08F43F686
:102FC000C860C2F2010000680028F1D043F64C7AD4
:102FD000C2F2010ADAF8001043F6F0780029C2F2D2
:102FE000010868D043F6D86B41F2380441F2200E54
:102FF0004FF0000C4FF00109C2F2010BC2F20004C5
:10300000C2F2000EDAF80C10CE68D6E90721B76AD2
:1030100091607868316A06F11805A8424A6008BFD5
:103020007960C6F828C0386801383860D6E90202ED
:10303000716982604A68F568371DBA42686008BFE6
:103040004D60086801380860F06ADBF8001009FA82
:1030500000F21143CBF8001000EB800104EB810279
:1030600055687261AB68B560F360AB68AF605F6074
:1030700054F82120013244F82120DEF80010C96AFA
:10308000884228BFC8F80090DAF800000028B9D1BB
:103090008EB141F22800C2F200000168096819B13E
:1030A0000068C068006801E04FF0FF3043F63871F7
:1030B000C2F20101086043F64874C2F201042568B7
:1030C00055B10126FFF70AFE002818BFC8F80060B6
:1030D000013DF7D100202060D8F8000000283FF41F
:1030E00067AF4EF60450CEF200004FF08051016001
:1030F000BFF34F8F0124BFF36F8F5AE710B582B033
:10310000FDF7DAFE43F6E870C2F20100006808B38A
:1031100043F6EC7C41F28D00C2F2010C1F24C0F694
:1031200000000EA14FF480720023CDE9004CFFF7A0
:10313000BFFC04465CB943F24E6043F29361C0F6B3
:103140000000C0F6000140F2191200F00BF8204612
:1031500002B010BD0024002CF9D1ECE7546D7220B0
:10316000537663000FB4054B10B503A9044A0298C7
:1031700000F018F810BC5DF814FB0000090A000804
:103180000000002002E008C8121F08C1002AFAD17E
:1031900070477047002001E001C1121F002AFBD1D7
:1031A000704700002DE9FF4F8DB00F460546002601
:1031B00006E025280BD0DDE90F1290476D1C761C28
:1031C00028780028F5D111B03046BDE8F08F0024F2
:1031D000A246A1460122EC4900E0044315F8013F54
:1031E000203B02FA03F00842F7D128782A2810D0B1
:1031F0006FF02F022878A0F13001092914D80AEBCA
:103200008A0102EB410144F0020400EB010A6D1C4B
:10321000F0E701CF5FEA000A03D544F40054CAF195
:10322000000A44F002046D1C28782E2817D115F8E6
:10323000010F44F004042A280ED06FF02F022878E2
:10324000A0F1300109290AD809EB890102EB4101FB
:1032500000EB01096D1CF2E757F8049B6D1C287800
:103260006C280FD006DC4C2817D068280DD06A28AF
:1032700014D104E0742810D07A280FD10DE044F462
:1032800000140AE044F4801401E044F44014697826
:10329000814202D104F580146D1C6D1C2A786E2ABF
:1032A0001FD00CDC632A31D004DC002A8BD0582AD2
:1032B00011D1A3E0642A68D0692A0CD165E0732A91
:1032C0002ED004DC6F2A73D0702A04D19BE0752ABB
:1032D0006FD0782A6ED01046DDE90F129047761C29
:1032E00050E1C4F30250022806D0032809D0042874
:1032F00001CF09D0066045E101CFF117C0E90061B7
:1033000040E101CF06803DE106703BE117F8040B78
:103310008DF8000000208DF80100EB46012003E04D
:1033200057F804BB4FF0FF3061074FF0000102D4A3
:103330000DE008F10101884649450FDA8045F8DBC8
:103340001BF808100029F4D108E008F101018846B3
:103350008142FADB1BF808100029F6D1DDE90F23C2
:10336000AAEB08008146214600F036F9304400EB14
:10337000080604E0DDE90F121BF8010B9047B8F1D5
:103380000108F7D221464846F7E00A21C4F3025368
:103390004FF0000B0891022B04D001CFC117032B73
:1033A00009D00AE0FF1D27F00707F7E8020108E04F
:1033B00032E01FE020E000B2C117042B01D140B27F
:1033C000C117031E71F1000307DA4FF0000CD0EBB8
:1033D0000C006CEB01012D2302E0230504D52B2307
:1033E0008DF82430012303E0E30701D02023F7E721
:1033F000984658E00A2110E010210EE010204FF00E
:10340000000B08900CE010214FF0000B44F0040476
:103410004FF00809089103E008214FF0000B0891D4
:10342000C4F30253022B04D001CF0021032B06D09A
:1034300006E0FF1D27F00707F7E8020103E080B26E
:10344000042B00D1C0B24FF0000823072BD5702AFF
:1034500007D0DDF820C08CF0100C5CEA0B0C05D016
:103460000EE040238DF82430012308E050EA0103E8
:1034700006D030238DF824308DF82520022398467D
:10348000DDF820C08CF0080C5CEA0B0C0BD150EA84
:10349000010301D1630706D530238DF824304FF0A6
:1034A0000108A9F10109582A04D038A20B9208AAF0
:1034B0000A920BE03AA2F9E75B46089AFCF7B6FEDF
:1034C0000B9B9B5C0A9A521E0A92137050EA0102EF
:1034D000F2D10A98ADEB000000F1200B600702D595
:1034E00024F4803401E04FF00109D94502DDA9EB55
:1034F0000B0000E0002000EB0B0141440890AAEB18
:10350000010AE00306D4DDE90F232146504600F00E
:1035100063F806444FF0000908E009A911F8090012
:10352000DDE90F12904709F10109761CC145F4DB72
:10353000E0030CD5DDE90F232146504600F04CF89E
:10354000064404E0DDE90F1230209047761C08990C
:10355000481E08900029F5DC08E00A980A990078CE
:10356000491C0A91DDE90F129047761CBBF100015E
:10357000ABF1010BF1DC21465046DDE90F2300F0F1
:1035800019F806446D1C1BE609280100303132335E
:10359000343536373839616263646566000000008F
:1035A0003031323334353637383941424344454679
:1035B000000000002DE9F041044600251E46174694
:1035C000880404D405E039462020B0476D1C641EF1
:1035D000F9D52846BDE8F0812DE9F04104460025E3
:1035E0001E469046C80301D5302700E020278804F6
:1035F00004D505E041463846B0476D1C641EF9D538
:103600002846BDE8F081000010B5044601E0FDF752
:10361000FBF914F8010B04490028F8D1BDE810406B
:103620000A20FDF7F1B900000000002000000000B2
:10363000010203046B65792072656C656173652115
:103640000D006B6579207072657373210D004572F2
:10365000726F723A25732C2025640D0A002E2E2FCE
:103660004672656552544F532F536F757263652FC1
:1036700071756575652E63002E2E2F467265655235
:10368000544F532F536F757263652F7461736B734F
:103690002E63002E2E2F4672656552544F532F53C2
:1036A0006F757263652F74696D6572732E63002E7A
:1036B0002E2F4672656552544F532F506F72742FE0
:1036C0004D656D4D616E672F686561705F342E6367
:1036D000002E2E2F4672656552544F532F506F7235
:1036E000742F4743432F41524D5F434D34462F7053
:1036F0006F72742E630000001F0000002037000866
:10370000000000201000000084310008303700085D
:1037100010000020E8430100943100080000000080
:1037200000000000001C4E0EAAAAAAAA0000000079
:04000005080001AD41
:00000001FF
