:020000040800F2
:10000000A8440120C10100087919000869110008FD
:10001000AD170008ED1000084521000800000000A1
:10002000000000000000000000000000F11B0008BC
:100030001911000800000000A1190008811C000827
:10004000DB010008DB010008DB010008DB01000820
:10005000DB010008DB0100081D110008DB010008BE
:10006000DB010008DB010008DB010008DB01000800
:10007000DB010008DB010008DB010008DB010008F0
:10008000DB010008DB010008DB010008DB010008E0
:10009000DB010008DB010008DB010008DB010008D0
:1000A000DB010008DB010008DB010008DB010008C0
:1000B000051E0008451E0008DB010008DB010008E2
:1000C000DB010008DB010008DB010008DB010008A0
:1000D000DB010008991E0008DB010008DB010008B5
:1000E000DB010008DB010008DB010008DB01000880
:1000F000DB010008DB010008DB010008DB01000870
:10010000DB010008DB010008DB010008DB0100085F
:10011000DB010008DB010008691E0008DB010008A4
:10012000DB010008DB010008F1100008DB0100081A
:10013000DB010008DB010008DB010008DB0100082F
:10014000DB010008DB010008DB010008DB0100081F
:10015000DB010008DB010008DB010008DB0100080F
:10016000DB010008DB010008DB010008DB010008FF
:10017000DB010008DB010008DB01000800000000D3
:10018000DB010008DB010008DB010008DB010008DF
:10019000DB010008DB010008DB01000800000000B3
:1001A000DB010008DB010008DB010008DFF80CD0F0
:1001B00000F072FD00480047692D0008A8440120A6
:1001C0000648804706480047FEE7FEE7FEE7FEE7F1
:1001D000FEE7FEE7FEE7FEE7FEE7FEE7A51C0008F8
:1001E000AD01000810B5431A934209D2831888184C
:1001F00003E010F8011D03F8011D521EF9D210BDD5
:1002000040EA01039B0703D009E008C9121F08C098
:10021000042AFAD203E011F8013B00F8013B521E18
:10022000F9D210BDD2B201E000F8012B491EFBD279
:1002300070470022F6E710B513460A4604461946F1
:10024000FFF7F0FF204610BD30B505462A460B46A5
:1002500012F8010B13F8014B08B1A042F8D01CB101
:10026000002802D06D1CF1E7284630BD30B50446A9
:100270000020034600E05B1C934203D2E05CCD5CAF
:10028000401BF8D030BD00000FB400B58DB010A9F0
:1002900009900B9000914FF0FF300A9000200C90D5
:1002A00005480690054807906A4609A80F9900F08E
:1002B000DDFB0DB05DF814FB890A0008A70A0008F1
:1002C0002DE9FF4F087883B09946FF2805D0491CD7
:1002D0002D2804D00024002008E000200BE0012499
:1002E000F9E700EB800003EB4000491C0B78FF2B83
:1002F000F7D104B1404200230293147819461D46F9
:100300002D2C01D02B2C04D1521C2D2C13D00024C9
:100310000294AA461478FF2C0FD00A25A3FB057877
:1003200001FB05814FF0000C03FB0C11521CE3197B
:100330004AEB0101EEE70124EAE7814453EA0100B8
:1003400002D019F5C87F06DA03980021C0E9001130
:1003500007B0BDE8F08F0025AE4E2F46DFF8B8821B
:10036000184600F045FCCDE90001B9F1000002DAC1
:10037000C9F1000400E004460023A74A1AEB030B6E
:1003800042EB045A12E0E00707D02A4633463846CB
:10039000414600F0ECF9074688462A4633461046A7
:1003A000194600F0E4F905460E466410002CEAD127
:1003B000DDE90001B9F1000F5A46534606DA00F0B4
:1003C00048FA3A46434600F044FA05E000F0CFF917
:1003D0003A46434600F0CBF9029A0AB181F0004157
:1003E000039AC2E90001B3E72DE9FF4F1F468DB024
:1003F000D7E901464FF0FF382E2045464FF000095F
:100400000B90B9696D1C0E988847396A82468847F7
:100410000028F6D1BAF1FF3F0AD024F4D064002EB0
:1004200011DDBAF12B0F08D0BAF12D0F0BD102E07C
:10043000404611B08DE744F48064B9696D1C0E9894
:1004400088478246761E6946600501D52D2000E06A
:100450002B208DF8000001F1010B0DF1200809E0BF
:10046000B9696D1C0E98884782460F9844F4007451
:10047000761E0560002E02DDBAF1300FF0D00B9928
:100480008A453ED144F0800406E00F99681CA9F12A
:10049000010944F400740860B9696D1C761E0E9859
:1004A000884782463028F0D02BE00B998A4505D149
:1004B000200603D444F08004761E18E0504606F06F
:1004C00023FE08B30DF11302761EAAF1300044F4A6
:1004D0000074934506D20BF8010B200607D5A9F14D
:1004E000010003E0200602D409F101008146A005C5
:1004F00002D50F99681C0860B9696D1C0E98884771
:100500008246002ED1DC53E0002E51DDBAF1650F9A
:1005100002D0BAF1450F4BD1A00549D5B9696D1C80
:1005200024F44074761E0E9888478246002E0CDD17
:100530002B2804D0BAF12D0F07D144F48074B96987
:100540006D1C0E9888478246761EE00501D52D2148
:1005500000E02B2108F8011BCDF82C8021E00DF1E3
:100560002901761E44F4007488450CD2AAF13000AB
:1005700010F0FF0088F8000002D10B99884509D9D6
:1005800008F1010806E0E00501D5244801E042F247
:100590000F708146B9696D1C0E98884782460F9886
:1005A0000560002E04DD504606F0AEFD0028D6D1D1
:1005B000F9690E988847FF208BF8000088F8000042
:1005C0000020069007904B466A4608A906A8FFF748
:1005D00077FEA00502D46FF001002AE714F0240F83
:1005E0000AD0E00714D1DDE906123868031D3B602C
:1005F0000068C0E900120BE0DDE9060100F0ABF98C
:100600000146E00704D13868021D3A6000680160C5
:1006100028460EE7000014400000F03FF1D8FFFF2D
:100620002DE9FE4F804681EA0300C00F0C46009082
:1006300021F0004123F00045B8EB0200A94105D2AA
:100640004046214690461C460B46024623F0004099
:10065000104347D0270DC7F30A00C3F30A51029095
:10066000401A019040286BDAC3F3130040F4801B5A
:100670000098924620B10023D2EB030A63EB0B0BE8
:1006800001985946C0F14002504600F0C7F90646AD
:100690000D4650465946019A00F0CFF910EB08007C
:1006A0006141002487EA115284EAE7731A4340D07B
:1006B000009A62B3019A012A4FEA075215DC001B27
:1006C00061EB02014FF0004202EA0752CDE900421D
:1006D000001C41F5801132462B4600F03BFA03B076
:1006E000BDE8F08F40462146F9E7001B61EB0201AF
:1006F000001C41F5801300185B412018A2F500177B
:1007000047EB030140EAD570B6196D4111E06D0861
:100710004FEA360645EAC0754FEA0752001B61EB07
:100720000201001C41F5801149084FEA3000001910
:10073000514132462B4603B0BDE8F04F00F0FBB903
:100740000098012240000023D0EB020263EBE0732B
:10075000009821464FEAE074B8EB000061EB040119
:10076000E9E783F000435BE781F0004158E72DE9BA
:10077000FE4F81EA030404F0004421F0004100949C
:100780004FF0000B23F0004350EA01045ED052EA20
:1007900003045BD0C3F30A54C1F30A552C44A4F2FA
:1007A000F3340194A0FB0254C1F3130141F480110E
:1007B000C3F3130343F4801301FB024400FB034E15
:1007C000840A970A44EA815447EA8357A4FB0768DE
:1007D00002958D0A05FB07854FEA932C04FB0C5408
:1007E0002705029D4FEA065847EA1637B5EB08057C
:1007F0006EEB070C870E920E47EA811742EA8312CE
:10080000A7FB0201B6EB0B0164EB00042B0D43EADE
:100810000C335E1844EB1C50DA465146E7FB0201EC
:10082000C5F313044FEA0B3343EA14534FEA04327F
:10083000019C43EA0603A4F10C040294009CCDE958
:1008400000B400F087F903B0BDE8F08F0020014646
:10085000F9E72DE9F04D81EA030404F0004B21F0A3
:10086000004514464FF0000A23F0004150EA05020B
:1008700020D054EA01021DD0C5F30A570246C5F341
:100880001303C1F31300C1F30A5640F4801543F477
:100890008013A7EB0608101BD64608F2FD3873EB51
:1008A000050002D308F1010801E092185B41B8F19C
:1008B000000F03DA00200146BDE8F08D00204FF460
:1008C0008011064684460EE0171B73EB050705D31F
:1008D000121B63EB050306434CEA010C49084FEA7F
:1008E000300092185B4150EA0107EDD152EA030053
:1008F00012D082EA040083EA0501084305D0101BE8
:10090000AB4106D20122002306E000224FF0004353
:1009100002E06FF0010253101AEB06004CEB085195
:1009200010EB0A0041EB0B01BDE8F04D00F003B9FC
:1009300000F0004230F000400AD0C10D01F56071B6
:10094000C0F3160042EA0151C20840071143704744
:1009500000200146704701F0004330B421F000410F
:1009600050EA010206D00A0DA2F56072C1F313012C
:10097000002A02DC30BC00207047440F44EAC10466
:10098000C100E01830BC00EBC25000F09DB830B59B
:100990000B46014600202022012409E021FA02F53D
:1009A0009D4205D303FA02F5491B04FA02F52844D7
:1009B000151EA2F10102F1DC30BD2DE9F05F054604
:1009C000002092469B4688460646814640241BE00E
:1009D000284641464746224600F076F953465A4695
:1009E000C01A914110D311461846224600F016F85D
:1009F0002D1A67EB01084F4622460120002100F026
:100A00000DF817EB00094E41201EA4F10104DFDCB4
:100A1000484631462A464346BDE8F09F202A04DB7B
:100A2000203A00FA02F1002070479140C2F1200301
:100A300020FA03F3194390407047202A06DBCB17B6
:100A4000203A41FA02F043EAE07306E041FA02F389
:100A5000D040C2F12002914008431946704700007F
:100A6000026811441378016018467047D160044948
:100A700051610449116200211161114600F03AB937
:100A8000610A0008E90C0008426842B1016811F8E7
:100A9000013B23B1521EC0E90012184670470121E4
:100AA000C160881E704742685AB1C368016843B983
:100AB00083688B4205D0491E521CC0E900120020F9
:100AC00070474FF0FF3070470029A8BF7047401CA7
:100AD000490008BF20F00100704710B4B0FA80FC54
:100AE00000FA0CF050EA010404BF10BC704749B191
:100AF000CCF1200421FA04F411FA0CF118BF012101
:100B000021430843A3EB0C01CB1D4FEA00614FEAE0
:100B1000102042BF002010BC704700EBC3501044AF
:100B20000029A4BF10BC7047401C490008BF20F03A
:100B3000010010BC704710B5141E73F1000408DAF0
:100B4000401C41F1000192185B411A4301D120F091
:100B5000010010BD2DE9F04D92469B4611B1B1FA4E
:100B600081F202E0B0FA80F220329046FFF756FFA1
:100B700004460F4640EA0A0041EA0B0153465A4632
:100B8000084313D0114653EA010019D0C8F14002BE
:100B9000504600F099F805460E46504659464246E2
:100BA000FFF73CFF084305D0012004E0204639460A
:100BB000BDE8F08D0020054346EAE0762C4337433C
:100BC0000A986305E40AA0EB08000022FD0A44EA43
:100BD00047540A3002D500200146E9E70105101903
:100BE0006941DDE9084500196941BDE8F04DA2E71A
:100BF0000EB540F2334202920022CDE900221346A4
:100C0000FFF7A8FF03B000BDC1F30A52C1F31301FF
:100C100040F2FF3341F480119A4202DA002001468B
:100C2000704740F233439A42A2F2334202DC52420E
:100C300000F04AB8FFF7F2BE30B5041E71F10004AF
:100C400004DB4FF00044404264EB0101141E73F1D9
:100C5000000405DB1C464FF00043524263EB0403E3
:100C60008B4208BF824230BD30B5041E71F10004D2
:100C700004DB4FF00044404264EB0101141E73F1A9
:100C8000000405DB1C464FF00043524263EB0403B3
:100C9000994208BF904230BD1CB5094800900948F0
:100CA00001900546009C06E0E06840F0010394E8EE
:100CB000070098471034AC42F6D3FFF77BFA0000E8
:100CC000D8870008F8870008202A04DB203A21FA98
:100CD00002F00021704721FA02F3D040C2F1200255
:100CE0009140084319467047C0B24FF4F05100F0EC
:100CF000E9B900002DE9F34F8BB04FF0000801F186
:100D00000C000C464FF0010B46460DF1080A01900D
:100D10006269012101989047051E2DD0252D2CD008
:100D2000216A8847C0B16269012101989047216A10
:100D300088470028F7D1411E62690198904700E07A
:100D4000761CA1690B988847216A88470028F7D14B
:100D5000E1690B988847DBE7A1690B98884707464C
:100D6000A84201D1761CD3E7E1690B9888477F1C24
:100D700002D1B8F1000F6FD046E1002762693D460D
:100D80003946019890472A2804D1626901210198C7
:100D900090470125DFF8849262690121019890470C
:100DA000A0F130010A290AD24F45E5DC07EB8701A3
:100DB00000EB4107303FDFD445F01005ECE7E906D2
:100DC00001D46FF000476C280AD04C2814D0682852
:100DD00015D06A280DD074281CD07A281AD01DE0AE
:100DE00062690121019890476C2802D045F0040502
:100DF00014E045F002050DE045F020050AE06269C7
:100E0000012101989047682802D045F0080505E0C7
:100E100045F400656269012101989047C4E90157D2
:100E200065283DD019DC58287AD00CDC452837D00D
:100E300004DC252826D0412831D131E046282FD0A6
:100E400047282CD12CE05B2877D0612828D0632854
:100E50007CD0642823D15AE0D0E06F2848D008DC49
:100E600066281DD067281BD0692821D06E2816D18E
:100E700027E0702845D0732868D0752847D0782897
:100E80000DD14DE0A1690B988847054625283FF410
:100E900069AFE1690B9888476D1C3FF46AAFB3E016
:100EA00023466A466FF001000B99FFF79DFA9EE01A
:100EB00045F040006060A80723464FF0000236D49A
:100EC0003EE0E8077FF447AF2068011D216000681D
:100ED000290501D506701BE7290701D5068017E70C
:100EE000A90703D5F117C0E9006111E706600FE714
:100EF00045F040006060A80723464FF0080216D472
:100F00001EE040F60E0125EA0100606016E045F0A3
:100F100040006060A80723464FF00A0207D40FE0A4
:100F200045F040006060A80708D5234610226FF006
:100F300001000B99AFF3008059E007E0234610222F
:100F40006FF001000B99AFF3008050E04FF0000903
:100F50004F464B46632802D05B2806D040E0E806A7
:100F600001D40120A06001273AE0626901210198C3
:100F700090475E2805D14FF0010962694946019802
:100F80009047216939B900210A46534643F8212088
:100F9000491C0829FADBB0B3216969B9C11700EB14
:100FA000D16253110AEB830122F01F02821A012041
:100FB0000B68904003430B606269012101989047E0
:100FC0005D28E8D1B9F1000F09D00020514651F851
:100FD0002020D24341F82020401C0828F7DB02AB38
:100FE000224600976FF001000B99AFF300800028B4
:100FF0000CDA401C08D1BBF1000F05D04FF0FF30D8
:101000000DB0BDE8F08FFFE74046F9E7E90701D1F1
:1010100008F1010806444FF0000B79E6CCCCCC0C6B
:101020002DE9F04D00231A461B1A8A4103DB0020EC
:101030000146BDE8F08DC1F30A52C1F3130141F43A
:1010400080154FF0000BD10702D100186D41521EE0
:101050000027044640F2FF11384601EB620A3E4683
:101060008046024600204FF48011FFF72DFEC21982
:101070007141BB1846EB0100B4EB030C75EB000C9F
:1010800004D3E41A65EB000517460E46241908F14F
:1010900001006D4180463428E3DDF91946EB060076
:1010A000091BA84103D24FF0FF32134601E0002292
:1010B00013461BEB070046EB0A51BDE8F04DFFF766
:1010C0003ABD00007F2801D9002208E0064A02EB61
:1010D0005002C007127800D1120902F00F0201205D
:1010E0009040084070470000F8790008FEE70000D3
:1010F00010B546F20044C4F2020420460221202228
:1011000001F0BEF8012818BF10BD204602212022A0
:10111000BDE8104001F098B8FEE7000010B50120CE
:1011200001F000FD012818BF10BD0024C4F2020424
:101130002046012101F052FD012809D104F540604B
:10114000802101F043FD48F27460C0F6000003E026
:1011500048F26660C0F6000006F08AFB0120BDE898
:10116000104001F0D9BC0000FEE70000B0B540F22D
:101170000044C4F2020420464FF40071002201F042
:1011800027FD20464FF48071012201F021FD204609
:10119000002101224FF4807301F026FD20464FF418
:1011A0000071012201F014FD20464FF4807101F01E
:1011B00015FD012810D10A250520013D01F026F872
:1011C00020464FF4807101F009FD01284FEA0560C7
:1011D00001D10028F0D178B120464FF400710022EF
:1011E000002501F0F5FC2046012101224FF4807317
:1011F00001F0FAFC2846B0BD2046012101224FF43F
:101200008073012501F0F0FC20464FF400710022AC
:1012100001F0DEFC20464FF48071002201F0D8FC82
:1012200020464FF40071012201F0D2FC052000F0AD
:10123000EDFF20464FF48071012201F0C9FC05202A
:1012400000F0E4FF2846B0BDB0B540F20044C4F25F
:10125000020405462046012101224FF4807301F06B
:10126000C3FC20464FF40071002201F0B1FC20467F
:101270004FF48071002201F0ABFC052000F0C6FFA6
:10128000002D18BF012520464FF480712A4601F039
:101290009FFC20464FF40071012201F099FC0520CB
:1012A00000F0B4FF20464FF40071002201F090FCE2
:1012B00020464FF480710122BDE8B04001F088BCA7
:1012C00040F60044C4F2020420468021012201F0CD
:1012D0007FFC4FF4FA7004F06DF920468021002263
:1012E00001F076FC4FF4FA7004F064F9ECE70000CA
:1012F000B0B582B040F6014003F02AFA40F6014052
:1013000003F026FA40F20044C4F202042046012110
:1013100000224FF40073002501F066FC20460021F6
:1013200002224FF4007301F089FC204601210022C3
:101330004FF4807301F058FC2046002102224FF444
:10134000807301F07BFC0A2000F030FF68206B21E5
:101350000122802300F054F9642000F027FF682068
:101360006B210122002300F04BF968201B21012290
:10137000182300F045F968201C210122002300F009
:101380003FF913208DF802000DF1020368201921A6
:10139000012200F035F98DF8020004208DF80300D9
:1013A0000DF1030368201A21012200F029F96820B9
:1013B00038210122002300F023F968206A2101224C
:1013C000002300F01DF9682023210122002300F0F2
:1013D00017F9682037210122802300F011F901ABB1
:1013E000682075210122ADF8045000F045F801464F
:1013F00048F2CC60C0F6000005F0B8F89DF8044053
:10140000682C0AD148F2D560C0F60000682105F0CA
:10141000ADF8682C09D000242AE048F2E760C0F655
:10142000000005F0A3F8682CF5D168206B2101229B
:101430000123012400F0E4F868206C21012200233C
:1014400000F0DEF813208DF806000DF10603682089
:101450001921012200F0D4F88DF8060004208DF83F
:1014600007000DF1070368201A21012200F0C8F8D7
:10147000204602B0B0BD00002DE9F04740F2004424
:10148000C4F20204994690468A4605462046012148
:1014900001224FF48073012701F0A6FB20464FF490
:1014A0000071012201F094FB20464FF4807100226C
:1014B00001F08EFB20464FF48071012201F088FB81
:1014C000052000F0A3FE20464FF48071002201F0B9
:1014D0007FFB052000F09AFE20464FF400710022A9
:1014E00001F076FB6E00F0B200F094FBFFF73EFED9
:1014F00038B12046012101224FF4807301F074FBC2
:101500000EE0504600F086FBFFF730FE0546204611
:10151000012101224FF4807301F066FB0DB3022715
:1015200020464FF40071002201F052FB20464FF498
:101530008071002201F04CFB20464FF40071012223
:1015400001F046FB052000F061FE20464FF480715B
:10155000012201F03DFB052000F058FE3846BDE8B1
:10156000F08720464FF40071012201F031FB204644
:101570004FF48071002201F02BFB20464FF4807164
:10158000012201F025FB052000F040FE20464FF42B
:101590008071002201F01CFB052000F037FE204680
:1015A0004FF40071002201F013FB46F00100C0B2BD
:1015B00000F030FBFFF7DAFD08B1032799E7B8F137
:1015C000020F12D3C8F100064FF0FF3500F062FAA7
:1015D00009EB050148700020FFF736FE0136701C4C
:1015E00005F10105F2D1013500E0002500F052FAC5
:1015F00009F805000120FFF727FE002779E7000022
:101600002DE9F04140F20044C4F202041D461646A2
:10161000884607462046012101224FF4807301F0DD
:10162000E3FA20464FF40071012201F0D1FA20467E
:101630004FF48071002201F0CBFA20464FF4807104
:10164000012201F0C5FA052000F0E0FD20464FF42C
:101650008071002201F0BCFA052000F0D7FD204681
:101660004FF40071002201F0B3FA7800C0B200F02C
:10167000D1FAFFF77BFD40B32046012101224FF450
:101680008073012501F0B0FA20464FF4007100226A
:1016900001F09EFA20464FF48071002201F098FA82
:1016A00020464FF40071012201F092FA052000F06B
:1016B000ADFD20464FF48071012201F089FA05202A
:1016C00000F0A4FDE8B2BDE8F081404600F0A2FAC7
:1016D000FFF74CFD40B32046012101224FF48073F7
:1016E00001F082FA20464FF40071002201F070FAF6
:1016F00020464FF48071002201F06AFA20464FF430
:101700000071012201F064FA052000F07FFD2046FF
:101710004FF48071012201F05BFA052000F076FDA4
:101720000225E8B2BDE8F0814EB10027E85D00F087
:1017300071FAFFF71BFD78B90137BE42F6D120469A
:10174000012101224FF4807301F04EFA20464FF43C
:101750000071002200259BE72046012101224FF461
:10176000807301F041FA20464FF40071002201F02D
:101770002FFA20464FF48071002201F029FA20460A
:101780004FF40071012201F023FA052000F03EFD24
:1017900020464FF48071012201F01AFA052000F072
:1017A00035FDFD1CE8B2BDE8F0810000FEE7000059
:1017B0004FF0804003F010BA2DE9F04186B04FF4AD
:1017C000406002F0C5FF40F6014002F0C1FF40F664
:1017D000024002F0BDFF40F6024002F0B9FF40F2C5
:1017E0000044C4F2000404F5FE352846022100221C
:1017F0004FF400434FF0000801F0F6F904F500370C
:10180000384602210022082301F0EEF904F50136E2
:10181000304602210022402301F0E6F93046022141
:101820000022802301F0E0F9284601214FF4004214
:1018300001F094F938460121082201F08FF9304671
:101840000221402201F08AF930460221802201F073
:1018500085F94FF4805002F07BFF4FF0807002F06A
:10186000A7FF4FF0804003F0BBF94FF4C67602A902
:101870004FF0804004968DF81480CDE9028803F083
:1018800059FA4FF0804003210022002303F068FB47
:101890006D46284603F062F80A274FF08040002189
:1018A0002A46ADF8067003F09BFA4FF08040012104
:1018B0002A4603F095FA1C200221022202F00AFBBC
:1018C0004FF08040012103F037FB4FF080400121B1
:1018D00003F036FB4FF08040002103F07FF94FF01A
:1018E000804003F035F84FF0804003F01DFA41F2DC
:1018F000010002F02DFF4FF0807002F059FF2046EA
:1019000003F06EF902A9204604968DF81480CDE903
:10191000028803F00FFA204603210022002303F07F
:101920001FFB6D46284603F019F8204600212A4681
:10193000ADF8067003F054FA204601212A4603F060
:101940004FFA1D200221022202F0C4FA2046012192
:1019500003F0F2FA2046012103F0F2FA20460021BA
:1019600003F03CF9204602F0F3FF204603F0DCF9D7
:1019700006B0BDE8F0810000FEE70000002180ED28
:10198000000AC0E90111C0E9071180ED092AC0ED84
:101990000A2A1030C0EC030A704700000000000063
:1019A000EFF30980BFF36F8F154B1A681EF0100F0D
:1019B00008BF20ED108A20E9F04F10602DE90900E2
:1019C0004FF0500080F31188BFF34F8FBFF36F8F3C
:1019D00003F0AAFF4FF0000080F31188BDE8090072
:1019E00019680868B0E8F04F1EF0100F08BFB0EC9F
:1019F000108A80F30988BFF36F8F704700BF00BF64
:101A0000D410002010B590ED002A90ED091A90ED49
:101A1000073A32EE400AB5EE401A044680ED010A5C
:101A200030EE030AF1EE10FA80ED070A05D0F1EE70
:101A3000410A00F089FB84ED070A94ED010A94ED58
:101A4000021A94ED042A94ED053A94ED074A94EDB8
:101A5000065A22EE002A30EE410A94ED0A1A23EECD
:101A6000043A32EE032A25EE000AB5EE401A30EEB3
:101A7000020AF1EE10FA84ED080A05D0F1EE410AEF
:101A800000F062FB84ED080A94ED080A6068A0602B
:101A900010BD000070B540F20044C4F202042046BC
:101AA000002101224FF48073002501F09DF80026EB
:101AB00020464FF40071002201F08AF8052000F062
:101AC000A5FB20464FF40071012201F081F80520AA
:101AD00000F09CFB20464FF4807101F07FF8002855
:101AE00018BF012040EA4505052000F08FFB072EB6
:101AF00006F10106DCD320464FF40071002201F00C
:101B000067F8E8B270BD000084B000200390CDE912
:101B10000100FFF7EDFB01F051FB58B11DA400BF20
:101B2000204605F0A5FEC82000F040FB01F046FB72
:101B30000028F5D11AA005F09BFE03AC02AD01AE62
:101B40000FF27C080FF2880925A702E0142003F0A9
:101B500031FD20462946324601F06AFA0028F5D1C7
:101B60000398FEF7E5FE024640460B4604F0FEFCF5
:101B70000298FEF7DDFE024648460B4604F0F6FCEE
:101B80000198FEF7D5FE024638460B4604F0EEFCFF
:101B9000DCE700BF646D70206572726F720D00002B
:101BA000496E697469616C697A6174696F6E204409
:101BB0006174612053756363656564200D000000E6
:101BC0000D0A7069746368203D252E32660D0A0087
:101BD0000D0A726F6C6C203D252E32660D0A0000D6
:101BE0000D0A796177203D252E32660D0A0000002E
:101BF000074B19680868B0E8F04F80F30988BFF315
:101C00006F8F4FF0000080F31188704700BF00BF56
:101C1000D410002070B540F20045C4F2020504461D
:101C20002846012101224FF4807300F0DDFF284691
:101C30004FF40071002200F0CBFF0826E0B2C20989
:101C400028464FF4807100F0C3FF012000F0DEFA57
:101C500028464FF40071012200F0BAFF052000F081
:101C6000D5FA28464FF40071002200F0B1FF05209C
:101C700000F0CCFA013E4FEA4404DFD170BD000011
:101C800080B504F015FA012807D141F27030C2F294
:101C9000000001680131016080BDBDE8804003F0B3
:101CA00047BF000081B04EF68851CEF200010A68AD
:101CB00043F6080042F47002C4F202000A6050F8D1
:101CC000081C41F0010140F8081C00BF50F8081C36
:101CD0008907FBD5016841F0800101600021009176
:101CE000009A4F2A06D800BF009A01320092009A4B
:101CF000502AF9D3026842F09002026000910099E4
:101D00004F2905D800990131009100995029F9D344
:101D100001684FF6FF7221F00301016050F8081CC2
:101D2000CFF6F662114040F8081C50F8081C4FF03E
:101D3000000C21F4802140F8081CC0F800C00268A3
:101D400043F21002C2F2004240F8042CC0F804C072
:101D500050F8082C42F4803240F8082C4FF6FE72FE
:101D600050F8081C013A4CF10003890302D4002BFF
:101D7000F6D100BF50F8081C8903FBD5826B47F2EF
:101D8000000142F08052C4F2000182630A6842F40A
:101D900040420A6002680260026842F40042026047
:101DA000026842F4A052026047F61902C0F64022CF
:101DB00040F8042C50F8082C42F0807240F8082CAF
:101DC00050F8082C9201FBD50A6842F480320A6070
:101DD0004A68D203FCD50A6842F400320A6000BFA8
:101DE0004A689203FCD5016821F003010160016893
:101DF00041F00201016000BF01680907FCD501B094
:101E00007047000010B54FF0804001214FF0804432
:101E100003F09AF8012818BF10BD206840F2A8020C
:101E2000C2F200021168C0064FF0FF3058BF012017
:101E300043184FF0804001211360BDE8104003F0CB
:101E40007FB8000010B540F20044C4F20004204600
:101E5000012103F079F8012818BF10BD20460121A7
:101E6000BDE8104003F06CB810B541F20004C4F2B4
:101E700000042046012103F067F8012818BF10BDB7
:101E80002046012103F05CF804F5FE308021BDE816
:101E9000104000F09BBE00002DE9F04385B041F2F8
:101EA000000440F20435C4F20104C0F2040505F157
:101EB0000111204603F0CEF941F2CE0940F2CC08E0
:101EC0000128C2F20009C2F2000840F0D780204683
:101ED00003F0CEF8B9F800104A1C08F801002046BB
:101EE000A9F8002003F0C4F8212840F0C7800020A2
:101EF000CDE90300CDE9010040F2CC00C2F20000C0
:101F00006AA1FEF7A1F970B148F2636104AE033033
:101F1000C0F600013246FEF7B7F99DED040A02F063
:101F200069FC63A79FE040F2CC00C2F2000063A10D
:101F3000FEF78AF970B148F2636103AE0330C0F670
:101F400000013246FEF7A0F99DED030A02F04AFCBB
:101F50005BA788E040F2CC00C2F200005BA1FEF774
:101F600073F970B148F2636104AE0330C0F600014A
:101F70003246FEF789F99DED040A02F05BFC54A796
:101F800071E040F2CC00C2F2000055A1FEF75CF90E
:101F900070B148F2636103AE0330C0F6000132460F
:101FA000FEF772F99DED030A02F03CFC4DA75AE0E2
:101FB00040F2CC00C2F200004EA1FEF745F970B12C
:101FC00048F2636102AE0330C0F600013246FEF70C
:101FD0005BF99DED020A02F0FDFB47A743E040F2EA
:101FE000CC00C2F2000047A1FEF72EF970B148F212
:101FF000636102AE0330C0F600013246FEF744F9D9
:102000009DED020A02F006FC3FA72CE040F2CC0056
:10201000C2F2000040A1FEF717F970B148F2636107
:1020200001AE0330C0F600013246FEF72DF99DEDFA
:10203000010A02F0E7FB39A715E040F2CC00C2F23A
:1020400000003AA1FEF700F9A8B148F2636101AEC1
:102050000330C0F600013246FEF716F99DED010A85
:1020600002F0F0FB32A73068FEF762FC0246384609
:102070000B4604F07BFA0020A9F800002046294610
:1020800003F0E8F801280DD1204602F0F1FFB9F87D
:102090000000002108F8001041F2CC00C2F200005C
:1020A0000121017005B0BDE8F08300BF50313D0053
:1020B000706F735F6B703A25660D0A0049313D0001
:1020C000706F735F6B693A25660D0A0050323D00F0
:1020D00073706565645F6B703A25660D0A000000D9
:1020E00049323D0073706565645F6B693A25660D22
:1020F0000A00000044313D00706F735F6B643A2545
:10210000660D0A0044323D0073706565645F6B6460
:102110003A25660D0A00000054313D00706F735F70
:102120007461726765743A25660D0A0054323D0089
:1021300073706565645F7461726765743A25660DD6
:102140000A000000FEE70000B4EE410AF1EE10FACA
:10215000B4EE600AC8BFB0EE410AF1EE10FAB8BFA3
:10216000B0EE600A7047000010B50446042002F08B
:10217000E3FB40F2C40140F2C800C2F200010122B8
:10218000C2F200000A704EF210010460CEF20001AB
:102190000A684FF47A70604342F002020A604860B5
:1021A000086840F00100086010BD000010B504464A
:1021B00003F07EFF01280AD02CB940F2C400C2F21D
:1021C0000000007810B9204603F0F4F900244EF224
:1021D000180040F2C801CEF20000C2F2000150F82F
:1021E00004CC09684FF47A7261434A4301680023C2
:1021F00004688C42FCD00B441B1B8C4228BF6344F8
:102200009342214628BF10BDF2E7000080B54EF290
:10221000180140F2C802CEF20001C2F2000251F8E9
:1022200004CC1268002302FB00FE08680A688242A0
:10223000FCD003449B1A824228BF63447345104676
:1022400028BF80BDF2E700000B1F38BF0B46D9B294
:102250004FEA410151FA83F103F002034FF00C0CF5
:102260004FEA430338BF4FF0080C03EB41015CF821
:10227000003002FA01F119434CF8001070470000D9
:10228000F0B5032921D8561E1F2E4FF0000300F28F
:102290008C804FF0800C24248E460546DFE806F043
:1022A0006C8585108585853A8585858585858541FB
:1022B000858585858585858585858585858585480B
:1022C0004FF0020C1024042228E0561E1F2E4FF05F
:1022D000000300F26A800FF20C0202EB86070A1F6D
:1022E000DFE806F01063632B636363336363636348
:1022F0006363633B636363636363636363636363D6
:1023000063636343051D5FFA82FE4FF0800C242453
:10231000012231E04FF0040C102408228E460546BD
:102320002AE04FF0080C10228E460546102423E0C8
:10233000102420228E4605461CE0051D5FFA82FE11
:102340004FF0020C1024042216E0051D5FFA82FEF5
:102350004FF0040C102408220EE0051D5FFA82FEE7
:102360004FF0080C1022102406E0051D5FFA82FED3
:10237000102420224FF0100C0EF002072B680EEBF9
:102380004E057F00204401EB410107EB450750F863
:102390003100BA4013EA020100EA0C0018BF012123
:1023A000002818BF012001EA00031846F0BD000014
:1023B00070B586B004464CF60220C0F6E3100DF16D
:1023C0000205CDF80200682004212A4601F04CFDE8
:1023D00014F040014FF0A3006FF03F018DF80200B0
:1023E00008BF6FF05C016FF037026FF03D0308BF6C
:1023F0006FF05C0208BF6FF05C038DF8031014F4FB
:10240000C0716FF03B018DF804208DF8053008BFD6
:102410006FF05C016FF033026FF0390308BF6FF0AB
:102420005C0208BF6FF05C038DF806104AF2A3311E
:102430008DF80720ADF809108DF80B0040F6A720A5
:102440000A212A468DF8083001F00EFD2020A6074B
:1024500008BF6FF027008DF8020040F6B62001217A
:102460002A4601F001FDA0060CD4C7208DF8140007
:1024700048F6B000CCF2C35004904AF6B820CAF631
:10248000AA200BE05D208DF8140049F6B400C3F2D9
:102490000D5004904AF6B820C8F6B350039003AA32
:1024A0004FF49760092101F0DFFC14F4C07F25D0C0
:1024B0006FF04D016FF0740214F4807008BF6FF07C
:1024C0004F0108BF6FF07F026FF049036FF06405A2
:1024D00008BF6FF04B03002808BF6FF06F058DF841
:1024E00002108DF803200DF1020240F6A220042113
:1024F0008DF804308DF8055001F0B6FCE00708D1E6
:10250000D8208DF802000DF102024FF40B6001217A
:1025100050E0F8208DF802000DF102024FF40B603C
:10252000012101F0A1FC0720FA2100F04FFA3F2021
:102530008DF80C0003AA4FF4A470012101F094FC63
:1025400000208DF80C0003AA40F24F10012101F089
:102550008BFC4FF4A050ADF80C0003AA4FF4EF70C1
:10256000022101F081FC4FF4C840ADF80C0003AA31
:102570004FF4ED70022101F077FC48F60060C9F2DB
:10258000F900039003AA4FF4AE70042101F06CFC33
:102590004FF40060ADF80C0003AA4FF4AD700221B7
:1025A00001F062FC4FF40070ADF80C0003AA4FF488
:1025B000AC70022101F058FC6FF02600002E58BFCD
:1025C0006FF027008DF802000DF1020240F23D701D
:1025D000012101F049FC600752BF4FF08B304CF2F3
:1025E000C020CCF2C460039003AA40F698200421D6
:1025F00001F03AFC01F042F9E00652BF4FF0A3307F
:1026000042F62000C3F63000039003AA40F69E2055
:10261000042101F029FC01F031F940F2BC0144F041
:102620000800C2F200016506088001F027F90620C3
:1026300000EAE57114F4C07F40F2C20018BF063111
:10264000C2F2000014F0140F017002D001781031B2
:10265000017016B1017804310170002006B070BD20
:1026600047F64621C0F6000140F6F6304FF480628E
:10267000C82300F009BF00002DE9F04F89B01446CF
:10268000DDE9129288460021A9F8001040F2C2014B
:10269000C2F2000109780DF1040A8346084651464A
:1026A0001E4601F095F820B14FF0FF3009B0BDE8AB
:1026B000F08F40F2BC07C2F20007388810F0140F08
:1026C00046D09DF8051000969DF80400BDF8066000
:1026D00009049DF8093041EA006031BA40EA11412D
:1026E0009DF8082021601904BDF80A3041EA026112
:1026F0001ABA41EA124262609DF80D209DF80C3032
:10270000BDF80E60120442EA036233BA42EA134390
:10271000A3609DF811309DF8106010FB30F01B0491
:10272000BDF8125011FB310043EA066312FB320080
:102730002EBA13FB330043EA164500F17146B6F199
:10274000007FE56006D8B9F8000040F4807004E02E
:10275000002009E001F092F80020B6F1007FA9F80E
:102760000000A1D8009E102039884A062BD540F0E1
:1027700001031AF800201AF80330374643EA022210
:1027800040F0020340F003061AF803301AF806601E
:10279000A8F8002046EA032240F0040340F00506B2
:1027A0001AF803301AF80660A8F8022046EA032255
:1027B000A8F80420B9F800203E4640F0060042F098
:1027C0000802A9F8002011F4C07F18D03AF80020C0
:1027D0000AEB000312BA5F88120CABF800203ABA79
:1027E0009B88120CABF802201ABA120CABF804202A
:1027F000B9F80020063042F07002A9F800208907DD
:102800001CD00AEB00056878EC78C0070BD040F2CA
:10281000B000C2F2000002682AB104F00700411CB7
:10282000C4F3C20090476878000707D540F2B400AF
:10283000C2F20000016809B1A0098847304600F0E3
:10284000B3FA002009B0BDE8F08F000010B586B0E3
:1028500004464AF6BB70CDF6DF7005904FF2AA1021
:10286000CDF6DF7004904FF2FE20CCF2AB40C82CC6
:10287000039016D8C820B0FBF4F0002101388DF881
:1028800004108DF8050001AA40F21620022101F083
:10289000EBFA30B903AA40F6C1200C2101F0E4FAAA
:1028A00018B14FF0FF3006B010BD40F2C000C2F2C8
:1028B00000000480002006B010BD0000B0B582B05A
:1028C000054647F63B21C0F60001C5F3C10300F001
:1028D0000300CC5C0A5C8DF8054047F638248DF87F
:1028E0000420C5F38112C0F60004895C205C8DF8D9
:1028F00006108DF80000E05CA15C8DF801008DF8F9
:10290000021001AA40F22640032101F0ADFAA0BB5B
:102910006A4640F22A40032101F0A6FA68BB7620FD
:102920008DF8060045F23660ADF8040044F22660EA
:10293000ADF80000662069078DF8020021D4A806D2
:102940002DD4E8050BD59DF806009DF8021040F047
:1029500001008DF8060041F001008DF8020001AA87
:102960004FF48860032101F07FFA30B96A4640F2E3
:102970003140032101F078FA00B34FF0FF3002B08C
:10298000B0BD9DF804009DF8001040F001008DF8E6
:10299000040041F001008DF80000A806D1D59DF893
:1029A00005009DF8011040F001008DF8050041F090
:1029B00001008DF80100E805C5D4D0E740F2B80069
:1029C000C2F200000580002002B0B0BDB0B582B0F8
:1029D0000446B1F5C86F4FF0FF3044D80D4614F0EF
:1029E000070140D00DF1030000F060FC9DF80300EA
:1029F000811EC00740EA5100072866D8C1B28B2269
:102A000022FA01F1C90760D000EE105A9FED311A89
:102A1000B8EE400A80EE010A2FA101EB800191ED92
:102A2000001A35A101EB800090ED002A20EE011A7A
:102A300020EE020ABDEEC00A10EE100ABDEEC10A79
:102A400010EE101A0A0A8DF80510010A8DF806100A
:102A5000E1078DF804208DF8070006D1A00714D4F3
:102A6000600722D4002002B0B0BD01AD4FF4EA707F
:102A700002212A4601F0F8F938BBAA1C4FF49270E3
:102A8000022101F0F1F900BBE8E701AD4FF4EC7071
:102A900002212A4601F0E8F9B8B9AA1C4FF4947053
:102AA000022101F0E1F980B9DAE701AC4FF4EE70F0
:102AB0000221224601F0D8F938B9A21C4FF49670D1
:102AC000022101F0D1F90028CCD04FF0FF3002B044
:102AD000B0BD00BF00004843000080460000004633
:102AE00000008046000080450000804600008046CF
:102AF0000000804600000045000040460000C04540
:102B000000004046000040450000404600004046AE
:102B1000000040460000C04443F61441C4F20101E5
:102B20000860704743F61441C4F201010968084087
:102B300018BF012070470000B0B541F20005C4F293
:102B400001050446C1B2284602F096FA284607213C
:102B500002F000FB0028F9D02046B0BDF0B5D0F857
:102B600020E0D0F824C000230F27002505E000BF97
:102B70000135082D03F104030CD022FA05F6F607FF
:102B8000F6D007FA03F62EEA060601FA03F446EA3F
:102B9000040EEDE7082300240F2504E00133102B79
:102BA00004F104040CD022FA03F6F607F6D005FA75
:102BB00004F62CEA060701FA04F647EA060CEDE7EC
:102BC000C0F820E0C0F824C0F0BD0000C16270472A
:102BD0001823002A08BF28231950704700690840AD
:102BE00018BF0120704700002DE9F041D0F800E047
:102BF000D0F80CC000244FF00308002605E000BF09
:102C00000136102E04F1020412D023FA06F7FF0752
:102C1000F6D008FA04F72EEA070E01FA04F54EEA98
:102C2000050E2CEA070702FA04F547EA050CE7E768
:102C3000C0F800E0C0F80CC0BDE8F081012941688F
:102C400014BF994319434160B0B5D0F808C00021C2
:102C50004FF0030E002404E00134102C01F10201B6
:102C60000CD023FA04F5ED07F6D00EFA01F52CEAA4
:102C7000050C02FA01F54CEA050CEDE7C0F808C0B6
:102C8000B0BD000090F9001000290DDD002190F981
:102C90000320002A0FDD002290F90630002B11DD01
:102CA000002011430843704713D490F90110002904
:102CB00016DD0121EBE70ED490F90420002A16DD81
:102CC0000822E9E709D490F90730002B16DD4020EF
:102CD000E7E70421DBE72022DEE74FF48070E0E73E
:102CE00013D490F90210002916DD0221CFE70ED48B
:102CF00090F90520002A14DD1022CDE709D490F9BF
:102D00000800002812DD8020CBE70521BFE728223C
:102D1000C2E74FF4A070C4E74FF0060108BF0721D7
:102D2000B5E74FF0300208BF3822B5E74FF4C07066
:102D300008BF4FF4E070B4E710B540F6034001F06F
:102D400007FD40F60044C4F202042046012100229F
:102D50008023FFF749FF2046002102228023BDE89F
:102D60001040FFF76BBF000082B001F0D3FD41F2CD
:102D70006C3C44F65500C2F2000C4FF0010EC0F658
:102D8000000006A14FF496720023CDE900EC03F099
:102D900093F802F071FD00BFFEE700BF53544152AB
:102DA000545F5441534B000070470000C14340F250
:102DB0009022C90FC4F241220028116048BF40424E
:102DC00041F288310A1A40F60040C4F200004FF088
:102DD000010138BF002201F0DDBE000040F25004C6
:102DE000C2F200049FED160A9FED162ADFED162AA7
:102DF000F1EE040AB7EE001AF6EE001A2046FEF7CE
:102E0000BDFD12A004F034FD40F2AC0540F20C060A
:102E1000C2F20005C2F20006FEF7CAFC00EE100A7C
:102E20002860B8EE400A2046FEF7ECFDBDEEC00A71
:102E300010EE100AFFF7BAFF306802F0BBFBEBE7B9
:102E4000000034430000FA4300A08C456D6F746F9E
:102E5000725F696E69740D00F0B587B040F602408C
:102E600001F076FC40F6024001F072FC40F60044AE
:102E7000C4F2000404F5FE35284601210022102387
:102E800001260027FFF7B0FE28460121002220235B
:102E9000FFF7AAFE2846002102221023FFF7CEFEEC
:102EA0002846002102222023FFF7C8FE4FF440608D
:102EB00001F04EFC4FF4406001F04AFC04F5FA3595
:102EC0002846022100220223FFF78EFE2846022117
:102ED00000220423FFF788FE284600210222022355
:102EE000FFF7ACFE2846002102220423FFF7A6FECE
:102EF000284602210222FFF731FE28460221042241
:102F0000FFF72CFE41F2030001F022FC4FF080702D
:102F100001F04EFC204601F063FEC720CDE9030717
:102F200041F28730059003A920468DF8187001F012
:102F300001FF6D46204601212A46ADF80470ADF828
:102F4000006001F011FD204602212A4601F00CFD2F
:102F500020460121002201F01DFE204601216022B1
:102F600001F0FCFD20460121002201F019FE20465F
:102F70000221002201F00EFE20460221602201F013
:102F8000EDFD20460221002201F00AFE204601F05C
:102F9000DFFC204601F0C8FE07B0F0BDF0B581B0FF
:102FA00040F21C05C2F2000595F8241009B1002476
:102FB00038E0A97AA1B300F0FE0739402E7CCC1B83
:102FC000287D18BF4FF0FF34002F297408BF002858
:102FD00011D0687CF8B90120D5E900128DF8020003
:102FE0001078C97B0DF102030122FEF709FB90B9AD
:102FF0009DF802000EE00020D5E900128DF80300D4
:103000001078C97B0DF103030122FEF7F9FA10B91C
:103010009DF8030068742FB100F030FC10B12E74DD
:103020004FF0FF34204601B0F0BD0000000000006A
:103030002DE9F0412DED0E8B8CB090460D460446E7
:103040000DF11D070DF11E060DF1260008A903AABA
:103050000BABCDE90067FFF70FFB08B10120A0E043
:10306000BDF81E00C00501D402209AE09DED030AC0
:103070009DED041A9FED504A9DED052AB8EEC00A59
:103080009DED063A20EE049AB8EEC10A20EE04CA7D
:10309000B8EEC20A20EE04AAB8EEC30A20EE04BAC3
:1030A000B8EE000A2CEE00DA39EE098A28EE0A0A98
:1030B0002DEE0B1A31EE000A10EE100AFDF738FC67
:1030C00041EC100B03F07CFA51EC100B9FED380B28
:1030D00056EC107B3A463346FDF749FBFDF73BFCC7
:1030E0003AEE0AEA28EE0C0A2EEE0B1A31EE000A2E
:1030F000206010EE100AFDF71BFC2AEE0E0A2DEEE2
:103100000C1A31EE400AB7EE001A30EE010A41EC1B
:10311000180B10EE100AFDF70BFC41EC110BB0EE92
:10312000480AF0EE680A03F067FD51EC100B3A46CE
:103130003346FDF71CFBFDF70EFC29EE0B0A2CEEC7
:103140000A1A31EE000A30EE000A286010EE100A6A
:10315000FDF7EEFB2CEE0C0A29EE091A31EE000AFF
:103160002AEE0A1A30EE410A2BEE0B1A30EE410A13
:1031700041EC180B10EE100AFDF7DAFB41EC110BD5
:10318000B0EE480AF0EE680A03F036FD51EC100B81
:103190003A463346FDF7EBFAFDF7DDFBC8F80000D1
:1031A00000200CB0BDEC0E8BBDE8F08100BF00BF6D
:1031B0006666666666A64C400000803070B582B0D8
:1031C00000F08EF8000602D0002002B070BD78201A
:1031D00000F0D4FD000602D0012002B070BD40F224
:1031E0001C05C2F2000595F8240008B1002422E075
:1031F000A87AF0B1697C00F078002E7CB0F17804F8
:1032000018BF4FF0FF34287479B90120D5E90012B6
:103210008DF807001078C97B0DF107030122FEF736
:10322000EFF910B99DF80700687400F027FB10B1A2
:103230002E744FF0FF34200602D0022002B070BD81
:10324000642000F02FFD000602D0032002B070BD04
:10325000FFF706FA000602D0042002B070BD40F26B
:103260001000C2F20000FFF70DFDFFF727FB00067C
:1032700002D0052002B070BD40F27310FFF798F83D
:10328000000602D0062002B070BD6420FFF7DEFA0F
:10329000000602D0072002B070BD012000F05AFCE9
:1032A00000063FF491AF092002B070BD40F21C014E
:1032B000C2F200014A7A032A84BF4FF0FF30704700
:1032C00040F20243D200C1F2080323FA02F2027074
:1032D000C97C11B1017849000170002070470000DD
:1032E00010B582B040F21C04C2F200048020D4E980
:1032F00000128DF801001078897C0DF10103012284
:10330000FEF77EF9C8B96420FEF750FF0020D4E92B
:1033100000128DF801001078897C0DF10103012263
:10332000FEF76EF948B9D4E900100DF101030078F9
:10333000897D0622FEF7A0F820B14FF0FF34204629
:1033400002B010BD9DF806209DF802009DF8041003
:10335000042303EA820261F3410200F00100111824
:103360004AD0012902D0022960D100214FF6FF7016
:10337000E081FF202074A0744FF0FF30A060002097
:10338000C4E90500E0612084C4F8230084F8270024
:103390001820E1748DF80700D4E9001001220078AC
:1033A00089790DF10703227384F82220FEF728F9AA
:1033B0000028C2D19DF80700C0082072022000F04A
:1033C00019FB0028B9D12A2000F034FC0028B4D120
:1033D000322000F067FC0028AFD10020FFF7DEFDAF
:1033E0000028AAD1002000F03FFB0028A5D1002032
:1033F000002400F0C3FCA2E7D4E900100DF10103A2
:103400000078C9780122FEF737F8002895D19DF899
:10341000010000F00F0004280CD00028A5D148F2CC
:103420008060C0F6000004F023FA86E70CA003F0E9
:103430009DF882E702A004F01BFA012196E700BF85
:1034400048616C662073656E736974697669747916
:10345000207061727420666F756E642E000000002B
:10346000556E737570706F7274656420736F6674D7
:10347000776172652070726F64756374207265760F
:103480002025642E0A0000002DE9F04F87B0074682
:1034900000294FF0FF3000F0A68040F21C04C2F279
:1034A00000040E4694F82510002940F09C809246B6
:1034B000002F019300F07E804FF000090DF10A0B00
:1034C0001FFA89F0A7EB0008B8F1100FA8BF4FF062
:1034D000100816FA89F54FF0FF30FEB1A17AE9B174
:1034E00060681FFA88F1428951FA89F1914299FA8C
:1034F00089F14FEA1141ADF81A1003D94FF0FF30AE
:1035000070B165E021680078097E02220DF11A038E
:10351000FEF776F800283DD04FF0FF30002857D155
:10352000A07AB0B160681FFA88F1428951FA89F136
:10353000914299FA89F14FEA1141ADF81A1008D871
:1035400021680078097E02220DF11A03FEF758F86F
:1035500080B14FF0FF30D8BB1FFA88F22846594699
:10356000FCF784FE002841D1C1441FFA89F0B8421B
:10357000A6D31FE0D4E900105FFA88F20078497DF5
:103580005B46FDF779FF002818BF4FF0FF30002899
:10359000E2D01DE0D4E900105FFA88F20078497D9E
:1035A0002B46FEF72DF8002818BF4FF0FF300028FB
:1035B000B6D00DE09AFA9AF0D4E90012ADF81A00EC
:1035C0001078897E0DF11A030222FEF719F820B156
:1035D0004FF0FF3007B0BDE8F08F012084F82500E0
:1035E0000198E084002007B0BDE8F08F6FF0010083
:1035F00007B0BDE8F08F000070B582B0282800F257
:10360000D88040F21C050446C2F20005002842D0D2
:1036100095F8230001281DD0A87C95F822103222AD
:10362000002808BF30228DF8032029B19DF803003F
:1036300040F080008DF80300D5E900100DF1030380
:103640000078097D01220126FDF7DAFF002808BF76
:1036500085F823602020012C8DF800004DD1A87A38
:10366000002100288DF8011000F09480E87A0621EE
:1036700006288DF8041000F08D80D5E9001001AB0C
:10368000007889780122FDF7BBFF002840F0828096
:103690009DF804007DE095F82300E8B1A87C95F83A
:1036A0002210002818BF012040008DF8020029B127
:1036B0009DF8020040F080008DF80200D5E900106E
:1036C0000DF102030078097D0122FDF799FF002822
:1036D00004BF002085F823004FF4E060D5E9001214
:1036E000ADF800001078897C6B460222FDF788FF58
:1036F00000285ED100242C755DE0052C18D8A87A2E
:10370000012100288DF8011044D0E87A062106280E
:103710008DF805103ED0D5E900100DF105030078B5
:1037200089780122FDF76CFFA0BB9DF8050030E011
:10373000142C17D8A87A02218DF8011050B3E87A1A
:10374000052105288DF8061024D0D5E900100DF1CB
:103750000603007889780122FDF752FFD0B99DF861
:10376000060016E0A87A03218DF8011090B1E87ADE
:10377000042104288DF807100CD0D5E900100DF1B4
:103780000703007889780122FDF73AFF10B99DF808
:103790000700E8729DF80100D5E9001280010730AA
:1037A0008DF801001078897C6B460222FDF728FF16
:1037B00020B14FF0FF34204602B070BD0820A8723F
:1037C00001200024287500202C73FFF7E7FBF2E7A7
:1037D0002DE9F04182B040F21C07C2F200070E460C
:1037E00097F8241005464FF0FF30E1B3B97AD1B312
:1037F000D7E9001014460078897A0DF106030222F9
:10380000FDF73AFE28BBBDF8060001BAB5EB114F33
:1038100002D9002020701CE0796890FA90F84A885C
:10382000B8EB520F0CD93A680878517C0DF10603B9
:103830000122FDF721FE60B99DF80600C00615D4EF
:10384000D7E90010EAB20078C97A3346FDF714FED2
:1038500020B14FF0FF3002B0BDE8F081B8FBF5F0C9
:1038600001382070002002B0BDE8F08100F006F8B9
:103870006FF0010002B0BDE8F081000010B582B029
:1038800040F21C04C2F20004A07A00B30020D4E984
:1038900000128DF807001078C97B0DF10703012293
:1038A000FDF7AEFE98B9D4E900100DF107030078DA
:1038B00049790122FDF7A4FE48B9D4E900100DF1C1
:1038C0000703007809790122FDF79AFE18B14FF03D
:1038D000FF3002B010BD94F82400002840D00C2026
:1038E000D4E900128DF80700107809790DF107036B
:1038F0000122FDF785FE0028E9D13220FEF756FCB3
:10390000A07A0DF10703C0076FF01F0008BF6FF02A
:103910003F00D4E900128DF80700107809790122E0
:10392000FDF76EFE0028D2D1607C0DF10703002860
:1039300018BF01204000D4E900128DF8070010786C
:10394000C97B0122FDF75CFE0028C0D10020D4E92C
:1039500000128DF80700107849790DF107033FE058
:103960000420D4E900128DF80700107809790DF1D0
:1039700007030122FDF744FE0028A8D1A07AA17C0C
:10398000C0074FF0600008BF4020002918BF40204A
:10399000D4E900128DF80700107809790DF10703BA
:1039A0000122FDF72DFE002891D13220FEF7FEFB0B
:1039B000607C0DF10703002818BF0120D4E9001234
:1039C0008DF807001078C97B0122FDF719FE002849
:1039D0007FF47DAFD4E9001004F110030078497939
:1039E0000122FDF70DFE00287FF471AF002002B028
:1039F00010BD000010B582B040F21C04C2F20004F9
:103A0000A17A31B3811EC00740EA510107294FF066
:103A1000FF3027D8DFE801F0040626082626260A0C
:103A2000002004E0082002E0102000E018208DF8BB
:103A30000700607A9DF80710B0EBD10F11D0D4E9E0
:103A400000100DF107030078C9790122FDF7D8FDB8
:103A500018B14FF0FF3002B010BD9DF80700C0084C
:103A60006072002002B010BDB0B582B040F21C05FB
:103A7000C2F20005A97C814202D1002002B0B0BD93
:103A80000446D5E900100DF10703007809790122F9
:103A9000FDF7F2FC84B3002844D19DF80700D5E976
:103AA000001200F0DF008DF80700107809790DF1A1
:103AB00007030122FDF7A4FDA0BB0320FEF776FB60
:103AC00095F8221095F823206FF07D00002908BF9B
:103AD00002208DF807001AB140F030008DF8070081
:103AE000D5E900100DF107030078097D0122FDF7EB
:103AF00087FDB8B9AC74C0E7A0B99DF80700A97AF2
:103B000000F0DF0001F0010140EA4110D5E90012A8
:103B10008DF80700107809790DF107030122FDF7F0
:103B20006FFD18B14FF0FF3002B0B0BD0320FEF7BB
:103B30003DFB95F8220095F82310024600281CBF93
:103B400001226FF07F00D20100298DF80720C3D138
:103B5000C6E70000B0B582B040F21C04C2F2000417
:103B600094F8241081425DD0D0B394F82500002849
:103B70005BD009B9A07A78B10020D4E900128DF8A1
:103B800005001078C97B0DF105030122FDF738FD12
:103B900010B99DF80500607400200025FFF764FF50
:103BA000E08C00F07FF860688DF80450007801AB7D
:103BB000232101220125FDF723FD0220D4E9001273
:103BC0008DF806001078C97B0DF10603012284F8F8
:103BD0002450FDF715FD18BB9DF8060060741FE02A
:103BE00009B9A07A78B10020D4E900128DF8070055
:103BF0001078C97B0DF107030122FDF701FD10B913
:103C00009DF807006074207C61688DF804000878D6
:103C100001AB23210122FDF7F3FC002084F82400EE
:103C2000FFF72CFE002002B0B0BD4FF0FF3002B015
:103C3000B0BD000010B582B040F21C04C2F2000416
:103C4000A17A21B3BC2801D301200FE0622801D35F
:103C500002200BE02A2801D3032007E0142801D317
:103C6000042003E00A2834BF062005208DF8070051
:103C7000E07A9DF80710884210D0D4E900100DF1C9
:103C80000703007889780122FDF7BAFC18B14FF0DC
:103C9000FF3002B010BD9DF80700E072002002B0B6
:103CA00010BD000070B582B040F21C05C2F20005E4
:103CB000A97A044600294FF0FF305DD095F8241012
:103CC000002959D1287D50B1601E80B2272803D821
:103CD000E0B2FFF791FC4EE00020FFF78DFC4FF4BF
:103CE0007A76B4F57A7F28BF3446042C98BF042432
:103CF000B6FBF4F0D5E9001201388DF80600107813
:103D000049780DF106030122FDF77AFC18B14FF056
:103D1000FF3002B070BD9DF80600AA7A411CB6FBC8
:103D2000F1F1E9813AB3012801D801200FE004281C
:103D300001D802200BE00A2801D8032007E0182848
:103D400001D8042003E031288CBF062005208DF81F
:103D50000700E87A9DF8071088420CD0D5E90010DA
:103D60000DF10703007889780122FDF749FC10B9AD
:103D70009DF80700E872002002B070BDB0B582B0B7
:103D8000044610F0700F01D0012003E0002C0CBF9E
:103D90004020002040F21C05C2F200058DF806000C
:103DA000D5E900100DF106030078897C0122FDF7AA
:103DB00027FC38BB9DF80600A10600F0BF00287361
:103DC0004FF0040020EA141058BF0230E1068DF8CD
:103DD000060005D49DF8060040F001008DF80600AD
:103DE000200705D49DF8060040F038008DF8060045
:103DF000D5E900100DF106030078C97C0122FDF71A
:103E0000FFFB30B10020A8724FF0FF34204602B013
:103E1000B0BD14F0F70F20D095F82300E8B1A87CCE
:103E200095F82210002818BF012040008DF80700E7
:103E300029B19DF8070040F080008DF80700D5E912
:103E400000100DF107030078097D0122FDF7D8FB72
:103E5000002804BF002085F82300AC720024322023
:103E60002C75FEF7A3F9D1E770B582B00D46014677
:103E70004FF0FF3042B340F21C06C2F20006144677
:103E8000B27A0AB370684ABA438955FA81F1994205
:103E9000ADF8062008D831680078097E0DF10603D8
:103EA0000222FDF7ADFB18B14FF0FF3002B070BD3C
:103EB000D6E90010EAB20078497D2346FDF7A0FB61
:103EC000002818BF4FF0FF3002B070BD4FF44070B3
:103ED00000F052B84EF60C5CCEF2000CDCF800306C
:103EE00003F4E063B3F5E06F01D1042328E0DCF8CC
:103EF000003003F4E063B3F5C06F01D103231FE08A
:103F0000DCF8003003F4E063B3F5A06F17D0DCF801
:103F1000003003F4E063B3F5806F01D101230FE0BB
:103F2000DCF8003003F4E063B3F5407F01D10023F7
:103F300006E040F20053C0F2FA53CCF800300223FE
:103F400001FA03FCC3F104030F21D94011404EF2E2
:103F5000001241EA0C01CEF20002090140EA02031C
:103F600083F8001300F01F01012303FA01F11C2361
:103F700003EAD0008150704740F080604EF60C514B
:103F800040F0FD70CEF2000108607047F0B581B0DE
:103F90000D4644F2980141F2D406C2F20101C2F288
:103FA00000060F6831680446081D01F089F910B158
:103FB000601C0FD027E0306843F68C72C06AC2F2F2
:103FC00001020121136801FA00F023EA00001060E9
:103FD000601C18D1BDB144F27000C2F2010041680A
:103FE000326891608A683368DA6032688B680432BC
:103FF0005A60326804328A60316848610168013170
:10400000016001B0F0BD3068E41944600BD341F2A7
:10401000E400C2F2000000683168043101B0BDE87C
:10402000F04001F06FB941F2DC00C2F2000000681C
:104030003168043101F066F943F6EC70C2F2010018
:1040400001688C4238BF046001B0F0BD70B501F06A
:104050008FF944F29C06C2F20106306818B1BDE83F
:10406000704001F0ABB943F69074C2F201042046EF
:1040700001F038F943F6A475C2F20105284601F0B3
:1040800031F941F2D800C2F20000046041F2E800C8
:10409000C2F2000005600A200C21002201F060FD40
:1040A00000283060DBD003A101F02CFABDE870409D
:1040B00001F084B9546D72510000000043F6807520
:1040C00041F2EC0A4EF6045844F2840743F67C763B
:1040D000C2F20105C2F2000ACEF200084FF0805988
:1040E000C2F20107C2F2010615E000BF01F040F97B
:1040F000F868C468201D01F0E3F8306801383060CA
:1041000028680138286001F059F9206B01F072F934
:10411000204601F06FF928680028E7D1DAF800009E
:104120000228F8D3C8F80090BFF34F8FBFF36F8F0A
:10413000F1E7000008480068006880F308884FF045
:10414000000080F3148862B661B6BFF34F8FBFF3EF
:104150006F8F00DF00BF000008ED00E02DE9F043A5
:1041600081B041F2D808C2F20008D8F80020054614
:10417000D2680E46D46804F10409484601F0A0F85C
:1041800094F8240041070CD400F0FE0084F82400C9
:104190001CE000BF711B814210D3216A2046884772
:1041A0003D46A06924614719B7426760F2D9AE4223
:1041B00001D2AF42F1D2D8F8000004E041F2E800A9
:1041C000C2F200000068494601F09CF8216A2046CE
:1041D00001B0BDE8F043084780B582B000200190EF
:1041E00040F24800C2F20000006801300AD048F2F4
:1041F000037048F28671C0F60000C0F60001EA22A2
:1042000002F0B4F94FF0500080F31188BFF36F8FC4
:10421000BFF34F8F01980028FCD002B080BD000092
:1042200084B041F2D80441F2D00B41F2E80844F2E4
:104230009C09C2F20004C2F2000BC2F20008C2F2F2
:1042400001090DF1040A00BF2068076817B1C068B2
:10425000066800E0002601F05FFB01F03DFFDBF89F
:1042600000100546884209D22068016891B1C068F3
:104270004FF0FF310068FFF771FFF5E7CBF8005012
:1042800097B1AE4210D802F07BF830462946FFF7CE
:1042900065FF29E0D8F80010C8F800002160CBF8CD
:1042A000005002F06DF81FE00FB1002205E0D8F8D1
:1042B00000000068B0FA80F04209D9F80000711BD4
:1042C00001F054F902F05CF870B94EF60450CEF2E9
:1042D00000004FF080510160BFF34F8FBFF36F8F2D
:1042E00002E0206801F00EF8D9F8000051460022E3
:1042F00001F0BEFC0028A7D001980028F4D4039F49
:10430000786910B1381D00F0DBFF01F0E5FEDBF845
:104310000010054688420ED22068016831B1C0689D
:104320004FF0FF310068FFF719FFF5E7D8F80010EC
:10433000C8F8000021600198CBF800500138082827
:10434000D2D8DFE800F005051A215705051A21002B
:1043500097F82400029AB96940F0010387F82430E5
:104360008B183E4646F8043FAB423F6132D9954236
:1043700001D2934237D2206831E097F8240000F050
:10438000FE0087F82400AFE797F82400029940F078
:10439000010087F82400B96159B948F2037048F266
:1043A0004871C0F60000C0F6000140F25E3202F033
:1043B000DDF8B8693946421941F8042FAA423F6135
:1043C0003FF68FAF00283FF48FAFD8F8000000F021
:1043D00099FF89E7AA1A8A4205D2D8F80000314627
:1043E00000F090FF80E742070CD400F0FE0087F851
:1043F000240032E097F824008107C0D4384600F04A
:10440000F9FF71E70298D346CA46C146084406E060
:10441000281A884215D3396A384688474046B96910
:104420003F6101EB0008A845C7F80480F0D9854238
:1044300001D28045EFD22068314600F063FFC846C4
:1044400005E0D9F800003146C84600F05BFFD146D0
:10445000DA4641F2D00BC2F2000B396A384688477F
:1044600042E70000F0B581B0044600F081FF94F906
:104470004560012E0FDB04F1240500BF286850B110
:10448000284601F00BFF002818BF01F099F970B21F
:10449000013E0128F2DCFF2684F8456000F08EFF23
:1044A00000F066FF94F94470012F0EDB04F1100553
:1044B000286850B1284601F0F1FE002818BF01F02D
:1044C0007FF978B2013F0128F2DC84F8446001B042
:1044D000BDE8F04000F072BF2DE9F04381B0044622
:1044E00001F01AFA41F2E006C2F20006306843F623
:1044F000E078C2F2010858B184B304F00700113823
:10450000A04226BF24F0070000F11005002526E098
:1045100041F27430C2F20000C11D420700F596322C
:1045200018BF21F0070044F26801C2F20101002324
:10453000C1E9000322F00701A1F10802326041E95C
:104540000233111A3268C8F80010C0E9002143F69E
:10455000E870C2F201000160002CCED10025012DCF
:104560004FF0000470DBD8F8000085426CD844F2AC
:104570006800C2F2010007687968A94207D200BF4B
:104580003A6822B1516838461746A942F8D33268D2
:1045900097422FD0D0F800903A68491B1129026049
:1045A00035D37C1960070AD048F2037048F2647171
:1045B000C0F60000C0F60001DC2201F0D7FF7868E9
:1045C00044F26801401BC2F2010160607D6000BFDF
:1045D00008460968A142FBD342688318A34203D16D
:1045E000636804461A4442606368E2188A4203D052
:1045F0000A4608E0002427E03268914203D0D1E95E
:10460000002119446160A042226018BF046043F693
:10461000E8707968D8F80020C2F201000368511AE6
:104620009942C8F8001038BF016043F6F472786808
:10463000C2F20102136840F00040002109F10804B1
:10464000C7E90010581C106001F09AFE60070BD0FB
:1046500048F2037048F26471C0F60000C0F6000131
:104660004FF48E7201F082FF204601B0BDE8F08366
:10467000034644F2D91021F00101C0F600004FF0CA
:10468000807C03E903106FF00201A3F1440043E9C9
:104690000912704710B543F60402C4F202025368CF
:1046A0000146C3F3810342F20040022BC0F2F40042
:1046B00006D0012B1FD147F64000C0F27D101AE052
:1046C000D2F800C013680CF03F0CC3F3881E1368C7
:1046D0001468C3F30143640247F64004C0F27D143A
:1046E00058BF0446B4FBFCF4022000EB430004FB7B
:1046F0000EF3B3FBF0F0536811A4C3F30313E35CB0
:10470000546847F63E2CC4F38224C0F6000C1CF813
:1047100004E05268032907D820FA03F3DFE801F028
:104720000F020609184610BD002010BD23FA0EF036
:1047300010BDC2F342301CF8000023FA00F010BD97
:104740000000000000000000010203040607080941
:1047500043F6000300F01F018009C4F202034FF08A
:10476000010CC2580CFA01F11143C150704700000E
:1047700043F6000300F01F018009C4F202034FF06A
:10478000010CC2580CFA01F122EA0101C150704734
:1047900043F6000300F01F018009C4F202034FF04A
:1047A000010CC2580CFA01F11143C15070470000CE
:1047B00043F68C0CC4F2020CDCF800206FF0807120
:1047C00042EA0003884208BF22F08073CCF8003030
:1047D0007047000040F25000C2F2000080ED060A6F
:1047E0007047000040F25000C2F2000080ED050A60
:1047F0007047000040F25000C2F2000080ED040A51
:104800007047000040F25000C2F2000080ED000A44
:104810007047000040F27C00C2F2000080ED060A02
:104820007047000040F27C00C2F2000080ED050AF3
:104830007047000040F27C00C2F2000080ED040AE4
:104840007047000040F27C00C2F2000080ED000AD8
:104850007047000010B582B000F08AFD41F2C1201F
:1048600000244FF0020CC0F6000019A1962200238C
:10487000CDE900C401F020FB42F6DD504FF0030CFF
:10488000C0F6000015A196220023CDE900C401F076
:1048900013FB41F609304FF0040CC0F6000012A1E2
:1048A00096220023CDE900C401F006FB01F082F856
:1048B000014612A001F05AFE41F26C30C2F2000033
:1048C000006800F0DBFE02B0BDE8104000F076BDED
:1048D0004C45445F5461736B000000006D6F746F52
:1048E000725461736B000000526561645F6174749F
:1048F00069747564655461736B0000004672656588
:1049000020686561703A2025642062797465730AB5
:104910000000000080B5F020FDF726FCFFF7D6FA76
:10492000FEF70AFA4FF4E13000F01CFCFEF794FAAF
:10493000BDE88040FCF740BF4EF21001CEF200010E
:104940000A68042822F0040208BF04320A60704793
:10495000016841F080010160704700004FF4803130
:104960000160002141607047032988BF704780B50E
:10497000DFE801F002AD4185016A21F00101016229
:10498000816921F0030181611188036A1943016281
:10499000016A002321F002010162B2F804C0D0F8DC
:1049A00020E020F48061C4F2010399424EEA0C0138
:1049B000016240F0D080016A21F004010162518857
:1049C000036A19430162016A21F008010162D1887A
:1049D000036A1943016250F8041F21F480710160D9
:1049E0001189036819430160016821F400710160B5
:1049F00051890268ADE0016A21F480710162C169E8
:104A000021F00301C1611188036A43EA01210162B7
:104A1000016A002321F400710162B2F804C0D0F8E9
:104A200020E020F48061C4F2010399424EEA0C2197
:104A3000016240F09080016A21F480610162518836
:104A4000036A43EA01210162016A21F40061016203
:104A5000D188036A43EA0121016250F8041F21F45E
:104A6000805101601189036843EA01110160016806
:104A700021F40051016052890168120169E0016A64
:104A800021F480510162C16921F44071C161118832
:104A9000036A43EA01310162016A002321F40051F3
:104AA0000162B2F804C0D0F820E020F48061C4F2C2
:104AB000010399424EEA0C3101624CD150F8041FB7
:104AC00021F48041016012890168920141E0016A8C
:104AD00021F010010162816921F440718161118826
:104AE000036A43EA01110162016A002321F02001F7
:104AF0000162B2F804C0D0F820E020F48061C4F272
:104B0000010399424EEA0C11016224D1016A21F09D
:104B1000400101625188036A43EA01110162016A9E
:104B200021F080010162D188036A43EA0111016228
:104B300050F8041F21F4806101601189036843EA81
:104B400081010160016821F40061016052890168FE
:104B5000920011430160BDE880407047032988BF7F
:104B60007047DFE801F0020D050A50F8181F01E058
:104B700050F81C1F21F0700107E050F81C1F01E0E5
:104B800050F8181F21F4E04112020160016811433E
:104B90000160704703299CBF00EB810042637047AE
:104BA000032988BF7047DFE801F0020D050A50F8BD
:104BB000181F01E050F81C1F21F0080107E050F811
:104BC0001C1F01E050F8181F21F40061120201605F
:104BD0000168114301607047406A70474162704745
:104BE00010B541F6FF31C4F2000188421BDC40F6EB
:104BF000FF31C4F20001884230DD41F2FF31C4F2DE
:104C00000001884250DC40F60041C4F200018842B5
:104C100069D041F20001C4F20001884240F0828074
:104C200040F6040476E040F2FF31C4F2010188420C
:104C300026DD44F2FF31C4F20101884243DC40F238
:104C40000041C4F20101884250D044F20001C4F294
:104C50000101884266D14FF411645BE0B0F1804FEE
:104C600047D040F20041C4F20001884244D040F6EF
:104C70000001C4F20001884254D140F6020449E028
:104C800041F60041C4F20001884238D042F20001EE
:104C9000C4F20001884235D00021C4F201018842EB
:104CA00040D14FF4106435E041F20041C4F20001FC
:104CB00088422AD041F60001C4F20001884231D175
:104CC00040F6060426E044F20041C4F201018842A5
:104CD0001ED044F60001C4F20101884218BF10BD85
:104CE00040F6121416E040F6030413E040F60114F7
:104CF00010E04FF400640DE040F601040AE040F6D5
:104D0000070407E040F6080404E040F6050401E06B
:104D100040F611142046FFF73BFD2046BDE8104049
:104D2000FFF726BD10BD0000016841F001010160E0
:104D3000704700000A8840F2004C826240F6FF3261
:104D4000C4F200029042C4F2010C0FDCB0F1804FBB
:104D500019D040F20043C4F20003984213D040F649
:104D60000003C4F2000398420DD018E040F600435F
:104D7000C4F20003984206D0604504D00023C4F278
:104D8000010398420BD1036823F0700303604B8842
:104D900002681A4302608A8803681A43026080B579
:104DA00041F20002D1F808E020F48063C4F200026E
:104DB0009342C0F82CE007D0026822F440720260EF
:104DC000CA8803681A43026040F48062624504BFE7
:104DD000097B0163416941F00101416180BD00002F
:104DE000F0B5032900F28B80DFE801F0021B355794
:104DF00084465CF8203F4FF0010E23F00103CCF80D
:104E00000030DCF8003023F00A03CCF800301388BF
:104E1000DCF800703B43CCF80030034653F8187FB1
:104E200032E084465CF8203F4FF0100E23F0100370
:104E3000CCF80030DCF8003023F0A003CCF80030D0
:104E40001388DCF8007047EA0313CCF800300346FF
:104E500053F8187F3AE084465CF8203F4FF4807E98
:104E600023F48073CCF80030DCF8003023F42063A6
:104E7000CCF800301388DCF8007047EA0323CCF844
:104E80000030034653F81C7F27F003071F60548847
:104E90001D6804266FF0F00721E084465CF8203F8F
:104EA0004FF4805E23F48053CCF80030DCF80030FF
:104EB00023F40053CCF800301388DCF8007047EA84
:104EC0000333CCF80030034653F81C7F27F44077B7
:104ED0001F6057881C683D020C266FF470472C43F6
:104EE0001C601C683C401C60D4881D68B4402C4386
:104EF0001C60DCF8003043EA0E03CCF800300329D4
:104F000088BFF0BD9288DFE801F00205080D50F877
:104F1000181F04E050F8181F06E050F81C1F21F07D
:104F20000C0104E050F81C1F21F4406112020160E2
:104F3000016811430160F0BDC2681143C160704750
:104F4000C943016170470000C26800690A40084017
:104F500018BF0120002A18BF01221040704700002E
:104F6000D0F808C042EA03122CF0070CC0F808C0C1
:104F7000D0F808C041EA0C018160D0F818C040F2B6
:104F800003312CEA01018161D0F818C040F201110F
:104F900041EA0C018161016A21F00A010162016AA2
:104FA00021F0A0010162016A114301627047000013
:104FB000B0B5044647F2FF70C4F200000D468442CB
:104FC0004FF000000EDC44F6FF31C4F200018C42C9
:104FD00017DC44F20041C4F200018C421DD044F6BB
:104FE000000116E040F6FF71C4F201018C422FDC93
:104FF00047F60001C4F200018C420ED047F6004192
:1050000007E044F60041C4F200018C4205D045F2AD
:105010000001C4F200018C4203D102210846FFF7CF
:1050200039FBE168090406D400EB5500B0FBF5F04C
:1050300080B2A060B0BD400000EB5500B0FBF5F0C1
:105040004FF6F0710140C0F342000844A060B0BDCB
:1050500041F20001C4F201018C424FF00301DDD0A6
:1050600041F20042C4F201029442D7D0D9E70000D5
:1050700040686FF35F2070476FF35F2141607047B6
:1050800010B547F2FF71C4F20001884214DC44F607
:10509000FF31C4F20001884224DC44F20041C4F232
:1050A000000188423CD044F60001C4F2000188426D
:1050B00049D140F612043EE040F6FF71C4F201010E
:1050C00088421EDC47F60001C4F2000188422AD063
:1050D00047F60041C4F20001884218BF10BD40F6F7
:1050E0001F0428E044F60041C4F2000188421DD0AC
:1050F00045F20001C4F20001884224D140F61404B4
:1051000019E041F20001C4F20101884211D041F2DC
:105110000041C4F20101884215D140F605140AE0AD
:1051200040F6110407E040F61E0404E040F61304C4
:1051300001E040F604142046FFF72AFB2046BDE8B4
:105140001040FFF715BB10BDC16841F40051C160AC
:10515000704700008A09105801F01F01C84000F094
:105160000100704770B505464FF44060FFF7F0FA54
:105170004FF44060FFF7ECFA41F20410FFF7E8FA51
:1051800041F20004C4F2010404F5704630460721E0
:105190004FF40072FDF7E2FC304607214FF48062C5
:1051A000FDF7DCFC3046022101224FF40073FDF7CD
:1051B0001BFD3046022101224FF48063FDF714FDF0
:1051C0003046002102224FF40073FDF737FD3046D0
:1051D000002102224FF48063FDF730FD2046FFF7E7
:1051E0004FFF20462946FFF7E3FE2046002100F04E
:1051F00043F82046002100F05BF82046002100F033
:1052000049F82046FFF7A0FF2046082100F04AF8A1
:105210002046042100F038F8252002210222FEF762
:1052200059FE204640F2053100F008F820464FF4C0
:105230004171BDE8704000F001B8000001F01F02AC
:1052400089094FF0010C0B580CFA02F21A430A506C
:1052500070470000C1F3891252F800C08A0D10583F
:1052600001F01F03C1F30441C8402CFA03F10840C8
:1052700000F0010070470000C26822F4C062C26002
:10528000C2681143C1607047C26822F00402114332
:10529000C1607047026922F4405202610269114301
:1052A00001617047C26822F008021143C160704773
:1052B000C26822F48052C260C2681143C160704764
:1052C000D0E9013201699A60D1F804C0826884454E
:1052D000536008BF4A600022026108680138086014
:1052E000086870474FF0FF31024642F8081F00215E
:1052F0004260C0E9032201607047000000210161A3
:105300007047000080B5D1F800C01CF1010207D041
:1053100000F108039E465B681A686245FAD901E00D
:10532000D0F810E0DEF8042008614A609160C1F80E
:1053300008E0CEF8041001680131016080BD000072
:10534000D0F800C0436808619A684B608A609A6828
:10535000996051600CF1010101607047DFF80C00A9
:10536000016841F4700101607047000088ED00E0C1
:105370004FF0500080F31188BFF36F8FBFF34F8F52
:1053800040F24800C2F2000001684A1C0029026095
:1053900018BF70474EF60450CEF2000000680006B9
:1053A0000BD048F2037048F28671C0F60000C0F6D8
:1053B000000140F2A91201F0D9B8704710B540F2CF
:1053C0004804C2F20004206858B948F2037048F259
:1053D0008671C0F60000C0F600014FF4D87201F0EB
:1053E000C5F820680138206018BF10BD002080F388
:1053F000118810BDB0B528B3044650F8040CA4F1D0
:10540000080500280BD448F2037048F26471C0F616
:105410000000C0F6000140F22F1201F0A7F8286842
:1054200058B148F2037048F26471C0F60000C0F64B
:1054300000014FF4987201F099F854F8040CB0F19F
:10544000FF3F00DDB0BD2968002918BFB0BD20F0C6
:10545000004044F8040C00F05FFA43F6E071C2F239
:10546000010154F8040C0A681044086044F2680111
:10547000C2F2010108460968A942FBD342688318B9
:10548000AB4204D154F8043C05461A4442606B68B0
:10549000EA188A4201D00A460AE041F2E002C2F26A
:1054A00000021268914203D0D1E9002119446960D9
:1054B000A8422A6018BF056043F6F870C2F20100E6
:1054C000016801310160BDE8B04000F059BF000043
:1054D0004EF21000CEF2000000210160816040F227
:1054E0000801C2F20001096844F6D352C1F2620217
:1054F000A1FB02124FF0FF3101EB92114160072135
:1055000001607047F0B581B004460F4658B948F2C3
:10551000037048F21271C0F60000C0F6000140F6B8
:10552000D82201F023F84FF00000B7B144F2140183
:10553000C2F201010023002503E000BF0833502B15
:105540000ED0CA185668A64209D0002DF6D11668AA
:10555000002E18BF02461546F0E7002500E015466C
:10556000002D18BFC5E9007401B0F0BD70B5154637
:105570000E460446FFF7FCFE94F84400FF2804BFE3
:10558000002084F8440094F84500FF2804BF002060
:1055900084F84500FFF712FFA06B28B904F124003E
:1055A00031462A4600F034F92046BDE87040FEF747
:1055B00059BF000070B5002854D043F68475C2F27C
:1055C00001050446286858B148F2037048F22D716D
:1055D000C0F60000C0F6000140F21C5200F0C6FF09
:1055E00028680130286044F2980041F2D405C2F2E4
:1055F0000100C2F20005066828680430FFF760FE6B
:1056000060B9286843F68C72C06AC2F201020121B7
:10561000136801FA00F023EA000010602868A4195A
:10562000446009D341F2E400C2F200000068296836
:105630000431FFF767FE10E041F2DC00C2F2000027
:10564000006829680431FFF75DFE43F6EC70C2F292
:10565000010001688C4238BF046000F091FE002810
:1056600018BF70BD4EF60450CEF200004FF08051CE
:105670000160BFF34F8FBFF36F8F70BD70B50446ED
:10568000FFF776FE41F2D406002CC2F2000608BFF6
:105690003468251D2846FFF713FEA0B9E06A41F2E1
:1056A000EC0200EB8001C2F2000252F8211051B965
:1056B00043F68C72C2F201020121136801FA00F074
:1056C00023EA00001060A06A18B104F11800FFF787
:1056D000F7FD43F68870C2F20100016801310160F4
:1056E0003068844216D043F67C70C2F20100016833
:1056F0000139016041F2DC00C2F200000168096872
:10570000B1B1006843F6EC71C068C2F201010068F3
:10571000086014E044F28400C2F201002946FFF759
:105720000FFE43F68070C2F201000168013105E00E
:1057300043F6EC70C2F201004FF0FF310160FFF759
:105740003DFE3068844205D0206BFFF753FE2046B3
:10575000FFF750FE44F26400C2F20100006800B39B
:105760003068844218BF70BD43F68470C2F20100F5
:10577000006858B148F2037048F22D71C0F600007D
:10578000C0F6000140F2AF4200F0F0FE4EF60450C9
:10579000CEF200004FF080510160BFF34F8FBFF396
:1057A0006F8F70BD43F6F071C2F2010109680160AC
:1057B00044F29801C2F2010109684160704700009B
:1057C00044F2A400C2F20100012101607047000010
:1057D000B0B505460C4658B948F2037048F22D7131
:1057E000C0F60000C0F6000140F60E4200F0BEFE1A
:1057F00041F2D400C2F20000006800F1180128460E
:10580000FFF780FD20460121BDE8B040FEF7BEBB9A
:1058100070B5144605460E4658B948F2037048F272
:105820002D71C0F60000C0F6000140F6444200F0C1
:105830009DFE41F2D401C2F2000168680A68002CA2
:10584000D06182680B681A620A68836802F11802E4
:105850005A600A6802F1180282600868214685626F
:10586000286818BF4FF0FF36421C30462A60BDE85A
:105870007040FEF78BBB000080B582B043F6E47C3D
:1058800044F2BD00C2F2010C4FF0000EC0F6000061
:105890001FA180220023CDE900EC00F00DFB0128C0
:1058A00008BF00F02FFE411C1FD0012829D14FF066
:1058B000500080F31188BFF36F8FBFF34F8F43F613
:1058C000EC70C2F201004FF0FF31016044F264005D
:1058D000C2F201000121016044F29800C2F201000D
:1058E0000021016000F06CF80BE048F2037048F210
:1058F0002D71C0F60000C0F6000140F6120200F063
:1059000035FE48F2D470C0F60000006802B080BDD9
:1059100049444C450000000043F68470C2F2010087
:10592000016801310160704743F68470C2F20100E2
:10593000006830B144F2A400C2F20100012101600C
:105940007047B0B544F2A400C2F20100002101602A
:1059500043F68C70C2F201000068B0FA80F0C0B269
:10596000C0F11F0041F2EC0500EB8004C2F200051B
:1059700055F8240058B948F2037048F22D71C0F66A
:105980000000C0F6000140F6F63200F0EFFD05EB36
:10599000840050F8041F4968021D9142016001D142
:1059A00049680160006841F2D401C068C2F2000198
:1059B0000860B0BD43F6E070C2F2010000687047B5
:1059C000B0B584B04EF20044CEF200044CF2702523
:1059D000C4F20F15D4F80009691C88420BD148F2B3
:1059E000037048F28671C0F60000C0F6000140F274
:1059F000311200F0BBFDD4F80009A8420BD148F2E7
:105A0000037048F28671C0F60000C0F600014FF442
:105A1000997200F0ABFD207843F674710290FF207C
:105A200020702078C2F201018DF807009DF8070070
:105A300043F6787500F050000870C2F201050720A7
:105A400028609DF90700B0F1FF3F0CDC062000BF85
:105A500028609DF80710013849008DF807109DF95E
:105A600007100029F4D4286803280BD048F20370EB
:105A700048F28671C0F60000C0F6000140F25B12E9
:105A800000F074FD286803280BD048F2037048F238
:105A90008671C0F60000C0F600014FF4B27200F04B
:105AA00065FD28684FF4E06101EA00202860029853
:105AB0002070D4F8200940F47000C4F82009D4F80C
:105AC000200940F07040C4F82009FFF701FD40F2C2
:105AD0004804C2F2000400252560FFF73FFC4EF6A3
