:020000040800F2
:10000000E8430120C10100083D0300080503000882
:100010003903000889020008FD05000800000000FF
:10002000000000000000000000000000B103000814
:10003000B50200080000000041030008D5030008D5
:10004000DB010008DB010008DB010008DB01000820
:10005000DB010008DB010008B9020008DB01000831
:10006000DB010008DB010008DB010008DB01000800
:10007000DB010008DB010008DB010008DB010008F0
:10008000DB010008DB010008DB010008DB010008E0
:10009000DB010008DB010008DB010008DB010008D0
:1000A000DB010008DB010008DB010008DB010008C0
:1000B000DB010008DB010008DB010008DB010008B0
:1000C000DB010008DB010008DB010008DB010008A0
:1000D000DB01000895050008DB010008DB010008D2
:1000E000DB010008DB010008DB010008DB01000880
:1000F000DB010008DB010008DB010008DB01000870
:10010000DB010008DB010008DB010008DB0100085F
:10011000DB010008DB01000865050008DB010008C1
:10012000DB010008DB0100088D020008DB0100088C
:10013000DB010008DB010008DB010008DB0100082F
:10014000DB010008DB010008DB010008DB0100081F
:10015000DB010008DB010008DB010008DB0100080F
:10016000DB010008DB010008DB010008DB010008FF
:10017000DB010008DB010008DB01000800000000D3
:10018000DB010008DB010008DB010008DB010008DF
:10019000DB010008DB010008DB01000800000000B3
:1001A000DB010008DB010008DB010008DFF80CD0F0
:1001B00000F052F800480047CD0A0008E84301204B
:1001C0000648804706480047FEE7FEE7FEE7FEE7F1
:1001D000FEE7FEE7FEE7FEE7FEE7FEE705040008B0
:1001E000AD01000840EA01039B0703D009E008C9FC
:1001F000121F08C0042AFAD203E011F8013B00F8EC
:10020000013B521EF9D27047D2B201E000F8012B37
:10021000491EFBD270470022F6E710B513460A4686
:1002200004461946FFF7F0FF204610BD30B50B46D7
:10023000014600202022012409E021FA02F59D4216
:1002400005D303FA02F5491B04FA02F52844151EEA
:10025000A2F10102F1DC30BD1CB50948009009484B
:1002600001900546009C06E0E06840F0010394E838
:10027000070098471034AC42F6D3FFF79BFF00000D
:10028000642D0008842D0008FEE7000010B546F23A
:100290000044C4F2020420460221202200F066FA43
:1002A000012818BF10BD204602212022BDE81040C1
:1002B00000F040BAFEE7000010B5012000F03EFB60
:1002C000012818BF10BD0024C4F2020420460121F9
:1002D00000F090FB012809D104F54060802100F076
:1002E00081FB42F6AA40C0F6000003E042F69C40C3
:1002F000C0F6000002F0BCFC0120BDE8104000F098
:1003000017BB0000FEE7000040F60044C4F2020400
:1003100020468021012200F067FB4FF4FA7001F0C3
:10032000E7FB20468021002200F05EFB4FF4FA70CC
:1003300001F0DEFBECE70000FEE70000FEE7000056
:10034000EFF30980BFF36F8F154B1A681EF0100F83
:1003500008BF20ED108A20E9F04F10602DE9090058
:100360004FF0500080F31188BFF34F8FBFF36F8FB2
:1003700001F078FD4FF0000080F31188BDE809001E
:1003800019680868B0E8F04F1EF0100F08BFB0EC15
:10039000108A80F30988BFF36F8F704700BF00BFDA
:1003A0001810002000000000000000000000000005
:1003B000074B19680868B0E8F04F80F30988BFF36D
:1003C0006F8F4FF0000080F31188704700BF00BFAF
:1003D0001810002080B54FF0500080F31188BFF353
:1003E0006F8FBFF34F8F02F003F930B14EF6045018
:1003F000CEF200004FF080510160002080F31188A0
:1004000080BD000081B04EF68851CEF200010A682E
:1004100043F6080042F47002C4F202000A6050F889
:10042000081C41F0010140F8081C00BF50F8081CEE
:100430008907FBD5016841F080010160002100912E
:10044000009A4F2A06D800BF009A01320092009A03
:10045000502AF9D3026842F090020260009100999C
:100460004F2905D800990131009100995029F9D3FD
:1004700001684FF6FF7221F00301016050F8081C7B
:10048000CFF6F662114040F8081C50F8081C4FF0F7
:10049000000C21F4802140F8081CC0F800C002685C
:1004A00043F21002C2F2004240F8042CC0F804C02B
:1004B00050F8082C42F4803240F8082C4FF6FE72B7
:1004C00050F8081C013A4CF10003890302D4002BB8
:1004D000F6D100BF50F8081C8903FBD5826B47F2A8
:1004E000000142F08052C4F2000182630A6842F4C3
:1004F00040420A6002680260026842F40042026000
:10050000026842F4A052026047F61902C0F6402287
:1005100040F8042C50F8082C42F0807240F8082C67
:1005200050F8082C9201FBD50A6842F480320A6028
:100530004A68D203FCD50A6842F400320A6000BF60
:100540004A689203FCD5016821F00301016001684B
:1005500041F00201016000BF01680907FCD501B04C
:100560007047000010B541F20004C4F200042046B8
:10057000012100F0ABFF012818BF10BD204601216A
:1005800000F0A0FF04F5FE308021BDE8104000F02F
:1005900029BA0000B0B541F20004C4F2010440F2EF
:1005A0000431C0F20401204601F0F2F8012818BF1E
:1005B000B0BD204600F0F6FF04F5AA342046022123
:1005C00000F0B0F941F21205C0F58050C2F200050A
:1005D00028802046022100F013F800F031F8288826
:1005E00040F21001C2F2000100220A5441F2100050
:1005F000C2F2000001210170B0BD0000FEE7000062
:1006000001EB410100EBC100016921F00101016131
:100610007047000001EB410100EBC100016941F0AE
:10062000010101617047000001EB410100EBC100D5
:10063000016921F0606141EA426101617047000097
:1006400010B58AB040F6164000F09EFE46F2004417
:10065000C4F202042046022100F036F8A4F5A830C6
:1006600040F21001A0F57F70C2F20001019001205C
:10067000039100210290CDE906014FF480500890CB
:100680004FF44030CDE90411099001AA204602211F
:1006900000F004F9204602210422FFF7C5FF20469E
:1006A0000221FFF7B7FF20460221102200F034F8A4
:1006B0003A200221012200F029FAA4F5AA304021B3
:1006C00000F0DCFF0AB010BD01EB410200EBC202FA
:1006D00013694FF03D0C23F00103136100231361F4
:1006E00053619361D3611362212353620A1F28BFB0
:1006F000D1B201EB410301F002014FF00C024FEACD
:10070000410138BF082201EB430113580CFA01F1F3
:100710001943115070470000102301EB4101802A5A
:1007200008BF2423184450F831301A4340F83120D0
:10073000704700000B1F38BF0B46D9B24FEA41018A
:1007400051FA83F103F002034FF00C0C4FEA43031C
:1007500038BF4FF0080C03EB41015CF8003002FA9F
:1007600001F119434CF8001070470000F0B503295F
:1007700021D8561E1F2E4FF0000300F28C804FF040
:10078000800C24248E460546DFE806F06C85851033
:100790008585853A85858585858585418585858598
:1007A0008585858585858585858585484FF0020CFD
:1007B0001024042228E0561E1F2E4FF0000300F2E2
:1007C0006A800FF20C0202EB86070A1FDFE806F0D0
:1007D0001063632B63636333636363636363633BCC
:1007E00063636363636363636363636363636343F9
:1007F000051D5FFA82FE4FF0800C2424012231E0B7
:100800004FF0040C102408228E4605462AE04FF0D3
:10081000080C10228E460546102423E010242022C6
:100820008E4605461CE0051D5FFA82FE4FF0020C65
:100830001024042216E0051D5FFA82FE4FF0040C1E
:10084000102408220EE0051D5FFA82FE4FF0080C0E
:100850001022102406E0051D5FFA82FE10242022DB
:100860004FF0100C0EF002072B680EEB4E057F00C8
:10087000204401EB410107EB450750F83100BA4035
:1008800013EA020100EA0C0018BF0121002818BF7A
:10089000012001EA00031846F0BD000080B501EB1D
:1008A000410100EBC100416A48F23F7321F00401AD
:1008B00041621168CFF6FC7381619168C161D169B1
:1008C00041610169D2F818E001EA030C116A136969
:1008D00041EA0C0141EA830141EA0E011943016139
:1008E0005168012907D00029016914BF41F4004172
:1008F00041F4007102E0016921F400710161D168E5
:100900000369002923F4806308BF03F58063036152
:1009100051690269002922F4807208BF02F58072D1
:10092000026180BD01EB410100EBC10040697047ED
:1009300043F61441C4F201010860704743F61441C4
:10094000C4F201010968084018BF01207047000087
:10095000B0B541F20005C4F201050446C1B2284613
:1009600000F024FE2846072100F098FE0028F9D068
:100970002046B0BDF0B5D0F820E0D0F824C0002368
:100980000F27002505E000BF0135082D03F1040302
:100990000CD022FA05F6F607F6D007FA03F62EEA8F
:1009A000060601FA03F446EA040EEDE708230024E4
:1009B0000F2504E00133102B04F104040CD022FABB
:1009C00003F6F607F6D005FA04F62CEA060701FA54
:1009D00004F647EA060CEDE7C0F820E0C0F824C0B2
:1009E000F0BD0000C16270471823002A08BF282309
:1009F000195070470069084018BF01207047000077
:100A00002DE9F041D0F800E0D0F80CC000244FF000
:100A10000308002605E000BF0136102E04F1020491
:100A200012D023FA06F7FF07F6D008FA04F72EEAE9
:100A3000070E01FA04F54EEA050E2CEA070702FA42
:100A400004F547EA050CE7E7C0F800E0C0F80CC081
:100A5000BDE8F0810129416814BF99431943416001
:100A6000B0B5D0F808C000214FF0030E002404E018
:100A70000134102C01F102010CD023FA04F5ED072A
:100A8000F6D00EFA01F52CEA050C02FA01F54CEA53
:100A9000050CEDE7C0F808C0B0BD000010B540F689
:100AA000034000F071FC40F60044C4F2020420460A
:100AB000012100228023FFF7A3FF2046002102220C
:100AC0008023BDE81040FFF7C5BF000082B000F0F2
:100AD000C3FC41F2B02C41F2E930C2F2000C4FF0FD
:100AE000010EC0F6000006A14FF496720023CDE976
:100AF00000EC01F067FC01F05DF900BFFEE700BF0C
:100B000053544152545F5441534B00004EF60C5C19
:100B1000CEF2000CDCF8003003F4E063B3F5E06FD4
:100B200001D1042328E0DCF8003003F4E063B3F5DE
:100B3000C06F01D103231FE0DCF8003003F4E06351
:100B4000B3F5A06F17D0DCF8003003F4E063B3F521
:100B5000806F01D101230FE0DCF8003003F4E06383
:100B6000B3F5407F01D1002306E040F20053C0F20C
:100B7000FA53CCF80030022301FA03FCC3F104035A
:100B80000F21D94011404EF2001241EA0C01CEF281
:100B90000002090140EA020383F8001300F01F017C
:100BA000012303FA01F11C2303EAD00081507047AE
:100BB00040F080604EF60C5140F0FD70CEF2000126
:100BC00008607047F0B581B00D4643F6D87141F228
:100BD0001806C2F20101C2F200060F68316804462D
:100BE000081D00F00BFE10B1601C0FD027E030682C
:100BF00043F6CC62C06AC2F201020121136801FA15
:100C000000F023EA00001060601C18D1BDB143F66B
:100C1000B070C2F201004168326891608A6833683E
:100C2000DA6032688B6804325A60326804328A6053
:100C30003168486101680131016001B0F0BD306880
:100C4000E41944600BD341F22800C2F200000068AE
:100C50003168043101B0BDE8F04000F0F1BD41F26F
:100C60002000C2F2000000683168043100F0E8FDA5
:100C700043F62C70C2F2010001688C4238BF046058
:100C800001B0F0BD70B500F011FE43F6DC76C2F2A3
:100C90000106306818B1BDE8704000F02DBE43F683
:100CA000D064C2F20104204600F0BAFD43F6E465C8
:100CB000C2F20105284600F0B3FD41F21C00C2F269
:100CC0000000046041F22C00C2F2000005600A201E
:100CD0000C21002201F0CAF900283060DBD003A10A
:100CE00000F0AEFEBDE8704000F006BE546D7251DB
:100CF0000000000043F6C06541F2300A4EF6045889
:100D000043F6C47743F6BC66C2F20105C2F2000A9C
:100D1000CEF200084FF08059C2F20107C2F201067C
:100D200015E000BF00F0C2FDF868C468201D00F0A7
:100D300065FD30680138306028680138286000F0AF
:100D4000DBFD206B00F0F4FD204600F0F1FD28688B
:100D50000028E7D1DAF800000228F8D3C8F800909C
:100D6000BFF34F8FBFF36F8FF1E7000008480068B3
:100D7000006880F308884FF0000080F3148862B6A2
:100D800061B6BFF34F8FBFF36F8F00DF00BF00006E
:100D900008ED00E02DE9F04381B041F21C08C2F2F9
:100DA0000008D8F800200546D2680E46D46804F141
:100DB0000409484600F022FD94F8240041070CD4B1
:100DC00000F0FE0084F824001CE000BF711B81428B
:100DD00010D3216A204688473D46A06924614719FF
:100DE000B7426760F2D9AE4201D2AF42F1D2D8F831
:100DF000000004E041F22C00C2F200000068494605
:100E000000F01EFD216A204601B0BDE8F04308470E
:100E100080B582B00020019040F20800C2F20000CC
:100E2000006801300AD042F6B64042F63951C0F6A9
:100E30000000C0F60001EA2201F01EFE4FF0500053
:100E400080F31188BFF36F8FBFF34F8F0198002895
:100E5000FCD002B080BD000084B041F21C0441F21D
:100E6000140B41F22C0843F6DC79C2F20004C2F202
:100E7000000BC2F20008C2F201090DF1040A00BF22
:100E80002068076817B1C068066800E0002600F017
:100E9000E1FF01F0A7FBDBF800100546884209D20C
:100EA0002068016891B1C0684FF0FF310068FFF71A
:100EB00071FFF5E7CBF8005097B1AE4210D801F0C2
:100EC000E5FC30462946FFF765FF29E0D8F8001019
:100ED000C8F800002160CBF8005001F0D7FC1FE0FB
:100EE0000FB1002205E0D8F800000068B0FA80F0E9
:100EF0004209D9F80000711B00F0D6FD01F0C6FCD4
:100F000070B94EF60450CEF200004FF080510160EF
:100F1000BFF34F8FBFF36F8F02E0206800F090FCAB
:100F2000D9F800005146002201F028F90028A7D086
:100F300001980028F4D4039F786910B1381D00F09F
:100F40005DFC01F04FFBDBF80010054688420ED235
:100F50002068016831B1C0684FF0FF310068FFF7C9
:100F600019FFF5E7D8F80010C8F8000021600198D3
:100F7000CBF8005001380828D2D8DFE800F005058A
:100F80001A215705051A210097F82400029AB96919
:100F900040F0010387F824308B183E4646F8043FA2
:100FA000AB423F6132D9954201D2934237D2206899
:100FB00031E097F8240000F0FE0087F82400AFE746
:100FC00097F82400029940F0010087F82400B961E5
:100FD00059B942F6B64042F6FB41C0F60000C0F6F1
:100FE000000140F25E3201F047FDB869394642190E
:100FF00041F8042FAA423F613FF68FAF00283FF42B
:101000008FAFD8F8000000F01BFC89E7AA1A8A42CB
:1010100005D2D8F80000314600F012FC80E7420704
:101020000CD400F0FE0087F8240032E097F824008A
:101030008107C0D4384600F07BFC71E70298D346A4
:10104000CA46C146084406E0281A884215D3396AC0
:10105000384688474046B9693F6101EB0008A8451A
:10106000C7F80480F0D9854201D28045EFD22068CC
:10107000314600F0E5FBC84605E0D9F800003146EE
:10108000C84600F0DDFBD146DA4641F2140BC2F24D
:10109000000B396A3846884742E70000F0B581B056
:1010A000044600F003FC94F94560012E0FDB04F1C7
:1010B000240500BF286850B1284601F075FB0028C0
:1010C00018BF00F01BFE70B2013E0128F2DCFF26C3
:1010D00084F8456000F010FC00F0E8FB94F94470DF
:1010E000012F0EDB04F11005286850B1284601F0ED
:1010F0005BFB002818BF00F001FE78B2013F012819
:10110000F2DC84F8446001B0BDE8F04000F0F4BBCC
:101110002DE9F04381B0044600F09CFE41F2240624
:10112000C2F20006306843F62078C2F2010858B1D6
:1011300084B304F007001138A04226BF24F0070052
:1011400000F11005002526E041F2B420C2F20000B3
:10115000C11D420700F5963218BF21F0070043F683
:10116000A871C2F201010023C1E9000322F00701C6
:10117000A1F10802326041E90233111A3268C8F85D
:101180000010C0E9002143F62870C2F2010001609E
:10119000002CCED10025012D4FF0000470DBD8F8D3
:1011A000000085426CD843F6A870C2F201000768BF
:1011B0007968A94207D200BF3A6822B1516838461F
:1011C0001746A942F8D3326897422FD0D0F8009042
:1011D0003A68491B1129026035D37C1960070AD08F
:1011E00042F6B64042F61751C0F60000C0F60001C4
:1011F000DC2201F041FC786843F6A871401BC2F282
:10120000010160607D6000BF08460968A142FBD310
:1012100042688318A34203D1636804461A444260BB
:101220006368E2188A4203D00A4608E0002427E0F7
:101230003268914203D0D1E9002119446160A04293
:10124000226018BF046043F628707968D8F800203F
:10125000C2F201000368511A9942C8F8001038BF61
:10126000016043F634727868C2F20102136840F0FC
:101270000040002109F10804C7E90010581C106063
:1012800001F004FB60070BD042F6B64042F617515E
:10129000C0F60000C0F600014FF48E7201F0ECFBC6
:1012A000204601B0BDE8F083034640F6116021F00E
:1012B0000101C0F600004FF0807C03E903106FF0DD
:1012C0000201A3F1440043E90912704710B543F647
:1012D0000402C4F2020253680146C3F3810342F2DE
:1012E0000040022BC0F2F40006D0012B1FD147F6BC
:1012F0004000C0F27D101AE0D2F800C013680CF074
:101300003F0CC3F3881E13681468C3F301436402DF
:1013100047F64004C0F27D1458BF0446B4FBFCF409
:10132000022000EB430004FB0EF3B3FBF0F0536824
:1013300011A4C3F30313E35C546842F6944CC4F362
:101340008224C0F6000C1CF804E05268032907D878
:1013500020FA03F3DFE801F00F020609184610BD7A
:10136000002010BD23FA0EF010BDC2F342301CF86D
:10137000000023FA00F010BD000000000000000093
:10138000010203040607080943F6000300F01F01E9
:101390008009C4F202034FF0010CC2580CFA01F1AB
:1013A0001143C1507047000043F6000300F01F01D5
:1013B0008009C4F202034FF0010CC2580CFA01F18B
:1013C00022EA0101C150704743F6000300F01F01FB
:1013D0008009C4F202034FF0010CC2580CFA01F16B
:1013E0001143C1507047000080B582B000F05EFA32
:1013F00040F209304FF0000C4FF0020EC0F6000032
:101400000CA196220023CDE900EC00F0DBFF00F0F8
:101410006FFD01460AA001F02FFB41F2B020C2F29D
:101420000000006800F0C8FB02B0BDE8804000F09A
:1014300063BA00BF4C45445F5461736B0000000009
:101440004672656520686561703A2025642062797E
:101450007465730A0000000080B54FF44070FFF718
:10146000A7FB00F009F8FFF719FB4FF41650BDE891
:10147000804000F01BB9000040F20400C2F20000FE
:10148000006844F6D351C1F26201A0FB01014FF0A4
:10149000FF3000EB9110B0F1807F11D24EF21001BD
:1014A000CEF2000148604EF62350CEF20000F0224A
:1014B0000270002207238A600B600270704700BF31
:1014C000FEE70000C943016170470000C26800697F
:1014D0000A40084018BF0120002A18BF012210400E
:1014E00070470000B0B5044647F2FF70C4F2000038
:1014F0000D4684424FF000000EDC44F6FF31C4F28A
:1015000000018C4217DC44F20041C4F200018C421D
:101510001DD044F6000116E040F6FF71C4F201014F
:101520008C422FDC47F60001C4F200018C420ED041
:1015300047F6004107E044F60041C4F200018C4246
:1015400005D045F20001C4F200018C4203D1022112
:101550000846FFF7BBFEE168090406D400EB55001E
:10156000B0FBF5F080B2A060B0BD400000EB5500CC
:10157000B0FBF5F04FF6F0710140C0F342000844B3
:10158000A060B0BD41F20001C4F201018C424FF0F5
:101590000301DDD041F20042C4F201029442D7D0EF
:1015A000D9E7000040686FF35F2070476FF35F2159
:1015B0004160704710B547F2FF71C4F200018842E4
:1015C00014DC44F6FF31C4F20001884224DC44F20A
:1015D0000041C4F2000188423CD044F60001C4F24C
:1015E0000001884249D140F612043EE040F6FF7106
:1015F000C4F2010188421EDC47F60001C4F200017A
:1016000088422AD047F60041C4F20001884218BF40
:1016100010BD40F61F0428E044F60041C4F200016A
:1016200088421DD045F20001C4F20001884224D155
:1016300040F6140419E041F20001C4F201018842AD
:1016400011D041F20041C4F20101884215D140F6A7
:1016500005140AE040F6110407E040F61E0404E019
:1016600040F6130401E040F604142046FFF7ACFEF8
:101670002046BDE81040FFF797BE10BD426901F05B
:10168000400122F0400242614269114341617047CA
:10169000C16841F40051C160704700008A091058C8
:1016A00001F01F01C84000F00100704770B5054609
:1016B0004FF44060FFF768FE4FF44060FFF764FEB0
:1016C00041F20410FFF760FE41F20004C4F201048D
:1016D00004F57046304607214FF40072FFF74AF9CF
:1016E000304607214FF48062FFF744F9304602216B
:1016F00001224FF40073FFF783F9304602210122E3
:101700004FF48063FFF77CF93046002102224FF44A
:101710000073FFF79FF93046002102224FF48063E7
:10172000FFF798F92046FFF745FF20462946FFF7C7
:10173000D9FE2046002100F03DF82046002100F0AF
:1017400055F82046002100F043F82046FFF7A0FF9F
:101750002046082100F044F82046042100F032F829
:10176000252002210222FFF7D1F920464FF44171D2
:10177000BDE87040AFF3008001F01F0289094FF00F
:10178000010C0B580CFA02F21A430A507047000081
:10179000C1F3891252F800C08A0D105801F01F03DE
:1017A000C1F30441C8402CFA03F1084000F00100E5
:1017B00070470000C26822F4C062C260C268114370
:1017C000C1607047C26822F004021143C1607047D3
:1017D000026922F4405202610269114301617047BB
:1017E000C26822F008021143C1607047C26822F447
:1017F0008052C260C2681143C1607047D0E90132B3
:1018000001699A60D1F804C082688445536008BFBA
:101810004A60002202610868013808600868704761
:101820004FF0FF31024642F8081F00214260C0E934
:101830000322016070470000002101617047000031
:1018400080B5D1F800C01CF1010207D000F10803F7
:101850009E465B681A686245FAD901E0D0F810E04C
:10186000DEF8042008614A609160C1F808E0CEF813
:10187000041001680131016080BD0000D0F800C093
:10188000436808619A684B608A609A689960516001
:101890000CF1010101607047DFF80C00016841F4B0
:1018A000700101607047000088ED00E04FF05000CB
:1018B00080F31188BFF36F8FBFF34F8F40F20800A2
:1018C000C2F2000001684A1C0029026018BF70477C
:1018D0004EF60450CEF20000006800060BD042F62F
:1018E000B64042F63951C0F60000C0F6000140F2A1
:1018F000A91201F0C1B8704710B540F20804C2F255
:101900000004206858B942F6B64042F63951C0F694
:101910000000C0F600014FF4D87201F0ADF8206865
:101920000138206018BF10BD002080F3118810BD61
:10193000B0B528B3044650F8040CA4F108050028FB
:101940000BD442F6B64042F61751C0F60000C0F67E
:10195000000140F22F1201F08FF8286858B142F6CA
:10196000B64042F61751C0F60000C0F600014FF431
:10197000987201F081F854F8040CB0F1FF3F00DDDB
:10198000B0BD2968002918BFB0BD20F0004044F860
:10199000040C00F05FFA43F62071C2F2010154F822
:1019A000040C0A681044086043F6A871C2F20101F1
:1019B00008460968A942FBD342688318AB4204D1A8
:1019C00054F8043C05461A4442606B68EA188A429F
:1019D00001D00A460AE041F22402C2F20002126873
:1019E000914203D0D1E9002119446960A8422A60DC
:1019F00018BF056043F63870C2F20100016801317A
:101A00000160BDE8B04000F041BF00004EF21000A0
:101A1000CEF2000000210160816040F20401C2F2B8
:101A20000001096844F6D352C1F26202A1FB02121E
:101A30004FF0FF3101EB92114160072101607047C7
:101A4000F0B581B004460F4658B942F6B64042F6AA
:101A5000C541C0F60000C0F6000140F6D82201F0F2
:101A60000BF84FF00000B7B143F65471C2F2010118
:101A70000023002503E000BF0833502B0ED0CA1806
:101A80005668A64209D0002DF6D11668002E18BF60
:101A900002461546F0E7002500E01546002D18BF68
:101AA000C5E9007401B0F0BD70B515460E46044698
:101AB000FFF7FCFE94F84400FF2804BF002084F8E0
:101AC000440094F84500FF2804BF002084F8450036
:101AD000FFF712FFA06B28B904F1240031462A4613
:101AE00000F034F92046BDE87040FFF7D7BA000097
:101AF00070B5002854D043F6C465C2F2010504460F
:101B0000286858B142F6B64042F6E041C0F60000FF
:101B1000C0F6000140F21C5200F0AEFF2868013010
:101B2000286043F6D87041F21805C2F20100C2F2F3
:101B30000005066828680430FFF760FE60B9286871
:101B400043F6CC62C06AC2F201020121136801FAB5
:101B500000F023EA000010602868A419446009D34B
:101B600041F22800C2F20000006829680431FFF742
:101B700067FE10E041F22000C2F200000068296810
:101B80000431FFF75DFE43F62C70C2F201000168DC
:101B90008C4238BF046000F079FE002818BF70BD89
:101BA0004EF60450CEF200004FF080510160BFF3BA
:101BB0004F8FBFF36F8F70BD70B50446FFF776FE91
:101BC00041F21806002CC2F2000608BF3468251D39
:101BD0002846FFF713FEA0B9E06A41F2300200EB9D
:101BE0008001C2F2000252F8211051B943F6CC62D2
:101BF000C2F201020121136801FA00F023EA000099
:101C00001060A06A18B104F11800FFF7F7FD43F661
:101C1000C860C2F20100016801310160306884428D
:101C200016D043F6BC60C2F20100016801390160C0
:101C300041F22000C2F2000001680968B1B10068F9
:101C400043F62C71C068C2F201010068086014E01C
:101C500043F6C470C2F201002946FFF70FFE43F6B7
:101C6000C060C2F201000168013105E043F62C704A
:101C7000C2F201004FF0FF310160FFF73DFE306816
:101C8000844205D0206BFFF753FE2046FFF750FE3D
:101C900043F6A470C2F20100006800B330688442C9
:101CA00018BF70BD43F6C460C2F20100006858B1AD
:101CB00042F6B64042F6E041C0F60000C0F6000130
:101CC00040F2AF4200F0D8FE4EF60450CEF20000D3
:101CD0004FF080510160BFF34F8FBFF36F8F70BD26
:101CE00043F63071C2F201010968016043F6D87110
:101CF000C2F20101096841607047000043F6E470D8
:101D0000C2F201000121016070470000B0B5054634
:101D10000C4658B942F6B64042F6E041C0F6000023
:101D2000C0F6000140F60E4200F0A6FE41F2180097
:101D3000C2F20000006800F118012846FFF780FD9C
:101D400020460121BDE8B040FEF73CBF70B5144607
:101D500005460E4658B942F6B64042F6E041C0F696
:101D60000000C0F6000140F6444200F085FE41F25A
:101D70001801C2F2000168680A68002CD06182680C
:101D80000B681A620A68836802F118025A600A68CE
:101D900002F118028260086821468562286818BF2F
:101DA0004FF0FF36421C30462A60BDE87040FEF717
:101DB00009BF000080B582B043F6247C40F6F540B0
:101DC000C2F2010C4FF0000EC0F600001FA18022ED
:101DD0000023CDE900EC00F0F5FA012808BF00F07F
:101DE00017FE411C1FD0012829D14FF0500080F36D
:101DF0001188BFF36F8FBFF34F8F43F62C70C2F281
:101E000001004FF0FF31016043F6A470C2F20100FF
:101E10000121016043F6D870C2F201000021016087
:101E200000F06CF80BE042F6B64042F6E041C0F636
:101E30000000C0F6000140F6120200F01DFE42F65E
:101E40006050C0F60000006802B080BD49444C45B7
:101E50000000000043F6C460C2F2010001680131D5
:101E60000160704743F6C460C2F20100006830B1FF
:101E700043F6E470C2F20100012101607047B0B581
:101E800043F6E470C2F201000021016043F6CC6029
:101E9000C2F201000068B0FA80F0C0B2C0F11F00C9
:101EA00041F2300500EB8004C2F2000555F8240031
:101EB00058B942F6B64042F6E041C0F60000C0F61E
:101EC000000140F6F63200F0D7FD05EB840050F833
:101ED000041F4968021D9142016001D149680160F7
:101EE000006841F21801C068C2F200010860B0BD8C
:101EF00043F62070C2F2010000687047B0B584B0AC
:101F00004EF20044CEF200044CF27025C4F20F15DC
:101F1000D4F80009691C88420BD142F6B64042F65B
:101F20003951C0F60000C0F6000140F2311200F055
:101F3000A3FDD4F80009A8420BD142F6B64042F600
:101F40003951C0F60000C0F600014FF4997200F05C
:101F500093FD207843F6B4610290FF202070207832
:101F6000C2F201018DF807009DF8070043F6B8653D
:101F700000F050000870C2F20105072028609DF9AA
:101F80000700B0F1FF3F0CDC062000BF28609DF881
:101F90000710013849008DF807109DF90710002936
:101FA000F4D4286803280BD042F6B64042F63951E3
:101FB000C0F60000C0F6000140F25B1200F05CFDCC
:101FC000286803280BD042F6B64042F63951C0F6D5
:101FD0000000C0F600014FF4B27200F04DFD286819
:101FE0004FF4E06101EA0020286002982070D4F8E4
:101FF000200940F47000C4F82009D4F8200940F00A
:102000007040C4F82009FFF701FD40F20804C2F255
:10201000000400252560FFF73FFC4EF63470CEF239
:102020000000016841F040410160FEF79FFEFFF7AC
:1020300019FF0395206801300AD042F6B64042F6F7
:102040003951C0F60000C0F60001EA2200F014FD8C
:102050004FF0500080F31188BFF36F8FBFF34F8FA5
:1020600003980028FCD0002004B0B0BD70B5D0B1FA
:1020700004460D46A0FB0101A9B905FB04F010F1CF
:10208000490F10D84830FFF743F8C0B10646002D7D
:1020900018BF4830306030460121C6E90F4500F0D6
:1020A00011F8304670BD42F6B64042F6C541C0F662
:1020B0000000C0F600014FF4F27200F0DDFC0020D9
:1020C00070BD000070B528B30546C06B70B30E46F6
:1020D000296C0024A0FB010149BBFFF7E7FB28683E
:1020E000D5E90F12AC6302FB0103013901FB0201C8
:1020F000C5E90103FF20E96085F8440085F8450043
:1021000005F110001EB3FFF78BFB05F12400FFF76C
:1021100087FB2CE042F6B64042F6C541C0F600000F
:10212000C0F600014FF4977200F0A6FC00240120D5
:1021300058B142F6B64042F6C541C0F60000C0F6BE
:10214000000140F2631200F097FC204670BD016868
:1021500069B100F029FB50B14EF60450CEF20000F8
:102160004FF080510160BFF34F8FBFF36F8FFFF7C8
:10217000C3FB012400200028DBD1E6E72DE9F04F66
:1021800085B00C460546049208B1DCB90CE042F675
:10219000B64042F6C541C0F60000C0F6000140F26C
:1021A0006B5200F069FC6CB9286C58B142F6B6402D
:1021B00042F6C541C0F60000C0F6000140F26F5281
:1021C00000F05AFC019400F0F9F968B9049858B18C
:1021D00042F6B64042F6C541C0F60000C0F6000126
:1021E00040F2745200F048FC05F1100A05F1240099
:1021F00002AF0DF110094FF0000800900DE000BF94
:102200002846FEF74BFF00F041FBFFF74FFBAC6B9E
:10221000FFF772FB002C00F08480FFF747FBD5F836
:1022200038B0BBF1000F27D02A6C5AB1D5E90201B2
:102230001144E960814224BF2868E860E968019898
:10224000FDF7D0FFABF10100A863286970B15046DB
:1022500000F0AAFA50B14EF60450CEF200004FF052
:1022600080510160BFF34F8FBFF36F8FFFF744FBC7
:1022700000200126A0B955E0049850B1B8F1000F34
:1022800002D13846FFF72CFD4FF00108012038B984
:1022900048E0FFF731FB00260020002842D000BFB5
:1022A000FFF72AFBFFF7D6FDFFF700FB95F8440088
:1022B000FF2804BF002085F8440095F84500FF285A
:1022C00004BF002085F84500FFF716FB3846494655
:1022D00000F02CF800287FF493AFFFF7E7FAAC6B1F
:1022E000FFF70AFB2CB12846FEF7D8FE00F0CEFA25
:1022F00093E704990098FFF709FD2846FEF7CEFE04
:1023000000F0C4FA00287FF488AF4EF60450CEF2F5
:1023100000004FF080510160BFF34F8FBFF36F8F0C
:102320007BE70026304605B0BDE8F08F70B5044667
:102330000D46B8B35DB942F6B64042F6E041C0F68C
:102340000000C0F600014FF44F6200F095FBFFF76C
:10235000ADFA43F6D87EC2F2010EDEF800302968ED
:102360004A1C16D043F6307CC2F2010CD4E90002BC
:10237000DCF80060864201D093420CD29A1A914256
:1023800009D9881A2860DCF800002060DEF8000017
:102390006060002402E0002001242860FFF7ACFA0E
:1023A000204670BD42F6B64042F6E041C0F600005D
:1023B000C0F6000140F6EF4200F05EFB002DC6D1F2
:1023C000B9E700002DE9F04781469000984616468F
:1023D0000D46FEF79DFE88B107464C20FEF798FE9D
:1023E00048B14C210446FDF716FF27634CB94FF066
:1023F000FF30BDE8F0873846FFF79AFA0024002C3A
:10240000F5D0206B089F00EB8600043820F007060B
:102410006DB104F1340000216A5C42546A5C1AB167
:102420000F2901F10101F7D1002084F84300DDF804
:1024300024A0202F0BD342F6B64042F6E041C0F66E
:102440000000C0F6000140F2923200F015FB251D9D
:1024500028461F2F28BF1F27E762FFF7EDF904F179
:102460001800FFF7E9F9C7F12000A061304649469E
:10247000424624616462FEF717FFBAF1000F206044
:1024800018BFCAF80040FFF711FA43F6BC60C2F269
:102490000100016841F2180A01310160C2F2000A2C
:1024A000DAF8001043F6A47941F23007C2F20109CC
:1024B000C2F2000761B1D9F80000002840D1DAF873
:1024C0000000E16AC06A884298BFCAF8004037E05D
:1024D000CAF800400068012832D10026B819FFF779
:1024E0009FF91436B6F5207FF8D143F6F868C2F2AA
:1024F00001084046FFF794F943F60C76C2F2010654
:102500003046FFF78DF943F64070C2F20100FFF745
:1025100087F943F6C470C2F20100FFF781F943F670
:10252000B070C2F20100FFF77BF941F22000C2F265
:102530000000C0F8008041F22800C2F200000660EE
:1025400043F6C860C2F20100016801260131016052
:1025500043F6CC61E06AC2F201010A6806FA00F3B0
:102560001A4300EB80000A6007EB80014A68616152
:102570009368A260E360936895605D6057F82010EF
:10258000013147F82010FFF7B7F9D9F8000088B1FA
:10259000DAF80000E16AC06A88420AD24EF60450B6
:1025A000CEF200004FF080510160BFF34F8FBFF3B8
:1025B0006F8F01263046BDE8F087000043F6A47017
:1025C000C2F201000068002804BF0120704743F6F2
:1025D000C460C2F201000068B0FA80F04009400017
:1025E0007047000043F6D870C2F2010000687047DF
:1025F00043F6C460C2F20100006840B143F63C708B
:10260000C2F20100016801310160002070472DE92C
:10261000F04F81B043F6D870C2F20100016843F672
:102620002C7511F1010AC2F20105C0F800A02BD3EC
:1026300041F22004C2F200042068006858B142F65A
:10264000B64042F6E041C0F60000C0F6000140F698
:10265000B72200F011FA41F22801C2F2000120680D
:102660000A682260086043F63070C2F20100016817
:10267000013101602068006818B12068C0680068F6
:1026800001E04FF0FF302860286841F2300E8245AB
:10269000C2F2000E01D200206EE041F2200BC2F225
:1026A000000BDBF800004FF000090068002858D04C
:1026B00043F6CC6CC2F2010C002025E0D16ADCF8B4
:1026C000003001248C402343CCF8003001EB81031F
:1026D0000EEB830465685461AF689560D760AF689E
:1026E000AE607E605EF8232001324EF8232041F276
:1026F0001802C2F200021268D26ADBF8003091427E
:1027000088BF0120196881B3DBF80020D268D26845
:10271000164656F8044FA24529D3D2E9023554692A
:102720009D60D4F80480D568B0456B6008BF6560D3
:10273000C2F814902368013B2360946A002CBDD03A
:10274000D2E9073561689D60156A02F11807B94240
:102750006B6008BF6560C2F828902168013921606C
:10276000ACE74FF0FF34002005E04FF0FF3443F6B4
:102770002C75C2F201052C6041F21801C2F2000171
:102780000968C96A01EB81015EF82110012943F64D
:10279000E471C2F2010188BF01200968002918BF55
:1027A000012001B0BDE8F08F10B5C068C4685CB905
:1027B00042F6B64042F6E041C0F60000C0F6000125
:1027C00040F6744200F058F9D4E90732A16A9A60E1
:1027D000486804F1180C226A60454FF0000053600D
:1027E00008BF4A60A06208680138086043F6C46008
:1027F000C2F20100006848B143F64071C2F2010123
:102800004868A1628268E061226225E0D4E9023270
:1028100061699A604868E26804F1040C604553609D
:1028200008BF4A60086843F6CC6201380860E06A75
:10283000C2F201020121136881401943116041F283
:10284000300100EB8000C2F2000101EB800148681A
:1028500061618268A060E2608268C0F808C0C2F866
:1028600004C008680130086041F21801C2F200019A
:10287000E06A0968C96A884291BF002043F6E471A2
:10288000C2F20101012088BF086010BD2DE9F04FA0
:1028900081B043F6C464C2F20104206858B942F61C
:1028A000B64042F6E041C0F60000C0F6000140F636
:1028B000850200F0E1F8FEF7F9FF2068013820609A
:1028C000206830B10024FFF717F8204601B0BDE8BA
:1028D000F08F43F6BC60C2F2010000680028F1D01E
:1028E00043F6407AC2F2010ADAF8001043F6E478BF
:1028F0000029C2F2010868D043F6CC6B41F23004E3
:1029000041F2180E4FF0000C4FF00109C2F2010B1A
:10291000C2F20004C2F2000EDAF80C10CE68D6E95A
:102920000721B76A91607868316A06F11805A842F4
:102930004A6008BF7960C6F828C038680138386036
:10294000D6E90202716982604A68F568371DBA42A9
:10295000686008BF4D60086801380860F06ADBF8FD
:10296000001009FA00F21143CBF8001000EB8001CF
:1029700004EB810255687261AB68B560F360AB68C7
:10298000AF605F6054F82120013244F82120DEF866
:102990000010C96A884228BFC8F80090DAF8000021
:1029A0000028B9D18EB141F22000C2F200000168C6
:1029B000096819B10068C068006801E04FF0FF3095
:1029C00043F62C71C2F20101086043F63C74C2F276
:1029D0000104256855B10126FFF70AFE002818BF3B
:1029E000C8F80060013DF7D100202060D8F8000051
:1029F00000283FF467AF4EF60450CEF200004FF0CF
:102A000080510160BFF34F8F0124BFF36F8F5AE7EE
:102A100010B582B0FEF736F943F6DC70C2F2010061
:102A2000006808B343F6E07C40F65960C2F2010C3E
:102A30001F24C0F600000EA14FF480720023CDE9E0
:102A4000004CFFF7BFFC04465CB942F6B64042F6C4
:102A5000FB41C0F60000C0F6000140F2191200F080
:102A60000BF8204602B010BD0024002CF9D1ECE791
:102A7000546D7220537663000FB4054B10B503A953
:102A8000044A029800F018F810BC5DF814FB00002E
:102A9000510900080000002002E008C8121F08C108
:102AA000002AFAD170477047002001E001C1121FCF
:102AB000002AFBD1704700002DE9FF4F8BB09A46EA
:102AC0000F460546002606E025280BD052460D99F4
:102AD00090476D1C761C28780028F5D10FB0304641
:102AE000BDE8F08F0024A0460122604900E00443C5
:102AF00015F8013F203B02FA03F00842F7D128788D
:102B00002E2817D115F8010F44F004042A280ED0FE
:102B10006FF02F022878A0F1300109290AD808EBBC
:102B2000880102EB410100EB01086D1CF2E757F848
:102B3000048B6D1C287869283ED006DC0028CDD097
:102B400063280BD0642804D136E0732810D0752890
:102B50004BD052460D999047761C85E017F8040B30
:102B60008DF8000000208DF80100E946012003E007
:102B700057F8049B4FF0FF3061074FF0000401D479
:102B80000AE0641C44450DDA8442FADB19F80410AB
:102B90000029F6D106E0641C8442FCDB19F804101D
:102BA0000029F8D1264404E019F8010B52460D998A
:102BB0009047641EF8D257E001CF4FF00A0B00286F
:102BC00002DA40422D2102E0210504D52B218DF8A7
:102BD0002410012103E0E10705D02021F7E70DF1E2
:102BE000200908910CE00021F9E701CF4FF00A0B12
:102BF000F9E75946FDF71AFB01F1300209F8012DFA
:102C00000028F6D1ADEB090000F1200B600701D4DC
:102C10004FF00108D84502DDA8EB0B0000E00020D2
:102C20008046002406E009A85246005D0D999047B1
:102C3000641C761C08988442F5DB04E03020524680
:102C40000D999047761CB8F10001A8F10108F5DC58
:102C500005E019F8010B52460D999047761CBBF11F
:102C60000001ABF1010BF4DC6D1C34E70928010015
:102C700010B5044601E0FDF76BFE14F8010B0449A2
:102C80000028F8D1BDE810400A20FDF761BE000021
:102C90000000002000000000010203046B657920A1
:102CA00072656C65617365210D006B6579207072CA
:102CB000657373210D004572726F723A25732C2073
:102CC00025640D0A002E2E2F4672656552544F530F
:102CD0002F536F757263652F71756575652E63006F
:102CE0002E2E2F4672656552544F532F536F7572B7
:102CF00063652F7461736B732E63002E2E2F4672E3
:102D0000656552544F532F536F757263652F746905
:102D10006D6572732E63002E2E2F467265655254B8
:102D20004F532F506F72742F4D656D4D616E672F2D
:102D3000686561705F342E63002E2E2F46726565C4
:102D400052544F532F506F72742F4743432F4152A9
:102D50004D5F434D34462F706F72742E6300000038
:102D60001F000000882D0008000000201000000057
:102D7000982A0008982D000810000020D843010070
:102D8000A82A00080000000000000000001C4E0EF1
:082D9000AAAAAAAA0000000093
:04000005080001AD41
:00000001FF
