:020000040800F2
:10000000E0440120C10100087112000879100008C5
:10001000AD100008FD0F0008CD1900080000000019
:1000200000000000000000000000000011130008A4
:100030002910000800000000A11200083513000874
:10004000DB010008DB010008DB010008DB01000820
:10005000DB010008DB0100082D100008DB010008AF
:10006000DB010008DB010008DB010008DB01000800
:10007000DB010008DB010008DB010008DB010008F0
:10008000DB010008DB010008DB010008DB010008E0
:10009000DB010008DB010008DB010008DB010008D0
:1000A000DB010008DB010008DB010008DB010008C0
:1000B000B9140008F9140008DB010008DB0100088E
:1000C000DB010008DB010008DB010008DB010008A0
:1000D000DB01000869150008DB010008DB010008EE
:1000E000DB010008DB010008DB010008DB01000880
:1000F000DB010008DB010008DB010008DB01000870
:10010000DB010008DB010008DB010008DB0100085F
:10011000DB010008DB01000839150008DB010008DD
:10012000DB010008DB01000801100008DB0100080A
:10013000DB010008DB010008DB010008DB0100082F
:10014000DB010008DB010008DB010008DB0100081F
:10015000DB010008DB010008DB010008DB0100080F
:10016000DB010008DB010008DB010008DB010008FF
:10017000DB010008DB010008DB01000800000000D3
:10018000DB010008DB010008DB010008DB010008DF
:10019000DB010008DB010008DB01000800000000B3
:1001A000DB010008DB010008DB010008DFF80CD0F0
:1001B00000F04CFD00480047191D0008E0440120F4
:1001C0000648804706480047FEE7FEE7FEE7FEE7F1
:1001D000FEE7FEE7FEE7FEE7FEE7FEE7591300084D
:1001E000AD01000810B5431A934209D2831888184C
:1001F00003E010F8011D03F8011D521EF9D210BDD5
:1002000040EA01039B0703D009E008C9121F08C098
:10021000042AFAD203E011F8013B00F8013B521E18
:10022000F9D210BDD2B201E000F8012B491EFBD279
:1002300070470022F6E710B513460A4604461946F1
:10024000FFF7F0FF204610BD30B505462A460B46A5
:1002500012F8010B13F8014B08B1A042F8D01CB101
:10026000002802D06D1CF1E7284630BD0FB400B560
:100270008DB010A909900B9000914FF0FF300A90BB
:1002800000200C9005480690054807906A4609A88A
:100290000F9900F0DDFB0DB05DF814FB6D0A00084E
:1002A0008B0A00082DE9FF4F087883B09946FF2894
:1002B00005D0491C2D2804D00024002008E000208F
:1002C0000BE00124F9E700EB800003EB4000491C40
:1002D0000B78FF2BF7D104B140420023029314782E
:1002E00019461D462D2C01D02B2C04D1521C2D2C2F
:1002F00013D000240294AA461478FF2C0FD00A25AC
:10030000A3FB057801FB05814FF0000C03FB0C11EA
:10031000521CE3194AEB0101EEE70124EAE78144AC
:1003200053EA010002D019F5C87F06DA03980021CC
:10033000C0E9001107B0BDE8F08F0025AE4E2F4692
:10034000DFF8B882184600F045FCCDE90001B9F1AC
:10035000000002DAC9F1000400E004460023A74AC5
:100360001AEB030B42EB045A12E0E00707D02A46CF
:1003700033463846414600F0ECF9074688462A469F
:1003800033461046194600F0E4F905460E4664105F
:10039000002CEAD1DDE90001B9F1000F5A465346BD
:1003A00006DA00F048FA3A46434600F044FA05E01F
:1003B00000F0CFF93A46434600F0CBF9029A0AB171
:1003C00081F00041039AC2E90001B3E72DE9FF4F34
:1003D0001F468DB0D7E901464FF0FF382E20454625
:1003E0004FF000090B90B9696D1C0E988847396A67
:1003F000824688470028F6D1BAF1FF3F0AD024F49C
:10040000D064002E11DDBAF12B0F08D0BAF12D0FF8
:100410000BD102E0404611B08DE744F48064B96925
:100420006D1C0E9888478246761E6946600501D588
:100430002D2000E02B208DF8000001F1010B0DF1C3
:10044000200809E0B9696D1C0E98884782460F980C
:1004500044F40074761E0560002E02DDBAF1300F00
:10046000F0D00B998A453ED144F0800406E00F9904
:10047000681CA9F1010944F400740860B9696D1C95
:10048000761E0E98884782463028F0D02BE00B99D4
:100490008A4505D1200603D444F08004761E18E076
:1004A000504604F05FF908B30DF11302761EAAF16D
:1004B000300044F40074934506D20BF8010B20067B
:1004C00007D5A9F1010003E0200602D409F10100DB
:1004D0008146A00502D50F99681C0860B9696D1C9A
:1004E0000E9888478246002ED1DC53E0002E51DD65
:1004F000BAF1650F02D0BAF1450F4BD1A00549D52D
:10050000B9696D1C24F44074761E0E9888478246A3
:10051000002E0CDD2B2804D0BAF12D0F07D144F4A6
:100520008074B9696D1C0E9888478246761EE00576
:1005300001D52D2100E02B2108F8011BCDF82C80DE
:1005400021E00DF12901761E44F4007488450CD297
:10055000AAF1300010F0FF0088F8000002D10B99DA
:10056000884509D908F1010806E0E00501D52448CD
:1005700001E042F20F708146B9696D1C0E98884700
:1005800082460F980560002E04DD504604F0EAF81C
:100590000028D6D1F9690E988847FF208BF8000013
:1005A00088F800000020069007904B466A4608A98C
:1005B00006A8FFF777FEA00502D46FF001002AE736
:1005C00014F0240F0AD0E00714D1DDE906123868D0
:1005D000031D3B600068C0E900120BE0DDE9060185
:1005E00000F0ABF90146E00704D13868021D3A601B
:1005F0000068016028460EE7000014400000F03F4C
:10060000F1D8FFFF2DE9FE4F804681EA0300C00FBD
:100610000C46009021F0004123F00045B8EB0200A9
:10062000A94105D24046214690461C460B4602464B
:1006300023F00040104347D0270DC7F30A00C3F34F
:100640000A510290401A019040286BDAC3F313005C
:1006500040F4801B0098924620B10023D2EB030A9D
:1006600063EB0B0B01985946C0F14002504600F075
:10067000C7F906460D4650465946019A00F0CFF993
:1006800010EB08006141002487EA115284EAE77305
:100690001A4340D0009A62B3019A012A4FEA0752E6
:1006A00015DC001B61EB02014FF0004202EA075229
:1006B000CDE90042001C41F5801132462B4600F086
:1006C0003BFA03B0BDE8F08F40462146F9E7001B36
:1006D00061EB0201001C41F5801300185B412018FA
:1006E000A2F5001747EB030140EAD570B6196D413A
:1006F00011E06D084FEA360645EAC0754FEA075229
:10070000001B61EB0201001C41F5801149084FEA12
:1007100030000019514132462B4603B0BDE8F04F7E
:1007200000F0FBB90098012240000023D0EB020248
:1007300063EBE073009821464FEAE074B8EB0000E9
:1007400061EB0401E9E783F000435BE781F00041DE
:1007500058E72DE9FE4F81EA030404F0004421F03C
:10076000004100944FF0000B23F0004350EA0104D5
:100770005ED052EA03045BD0C3F30A54C1F30A55B6
:100780002C44A4F2F3340194A0FB0254C1F31301EE
:1007900041F48011C3F3130343F4801301FB0244BB
:1007A00000FB034E840A970A44EA815447EA8357C0
:1007B000A4FB076802958D0A05FB07854FEA932C79
:1007C00004FB0C542705029D4FEA065847EA1637EA
:1007D000B5EB08056EEB070C870E920E47EA811702
:1007E00042EA8312A7FB0201B6EB0B0164EB0004A3
:1007F0002B0D43EA0C335E1844EB1C50DA4651468D
:10080000E7FB0201C5F313044FEA0B3343EA145329
:100810004FEA0432019C43EA0603A4F10C0402945B
:10082000009CCDE900B400F087F903B0BDE8F08F7B
:1008300000200146F9E72DE9F04D81EA030404F0B8
:10084000004B21F0004514464FF0000A23F0004110
:1008500050EA050220D054EA01021DD0C5F30A5720
:100860000246C5F31303C1F31300C1F30A5640F463
:10087000801543F48013A7EB0608101BD64608F238
:10088000FD3873EB050002D308F1010801E092186E
:100890005B41B8F1000F03DA00200146BDE8F08D9E
:1008A00000204FF48011064684460EE0171B73EBC0
:1008B000050705D3121B63EB050306434CEA010C45
:1008C00049084FEA300092185B4150EA0107EDD128
:1008D00052EA030012D082EA040083EA05010843C9
:1008E00005D0101BAB4106D20122002306E00022F6
:1008F0004FF0004302E06FF0010253101AEB0600C4
:100900004CEB085110EB0A0041EB0B01BDE8F04D38
:1009100000F003B900F0004230F000400AD0C10DF1
:1009200001F56071C0F3160042EA0151C2084007A8
:100930001143704700200146704701F0004330B476
:1009400021F0004150EA010206D00A0DA2F56072C2
:10095000C1F31301002A02DC30BC00207047440FB1
:1009600044EAC104C100E01830BC00EBC25000F002
:100970009DB830B50B46014600202022012409E035
:1009800021FA02F59D4205D303FA02F5491B04FA48
:1009900002F52844151EA2F10102F1DC30BD2DE95B
:1009A000F05F0546002092469B46884606468146F3
:1009B00040241BE0284641464746224600F05EF9A7
:1009C00053465A46C01A914110D311461846224642
:1009D00000F016F82D1A67EB01084F462246012059
:1009E000002100F00DF817EB00094E41201EA4F184
:1009F0000104DFDC484631462A464346BDE8F09F05
:100A0000202A04DB203A00FA02F1002070479140CE
:100A1000C2F1200320FA03F3194390407047202AC3
:100A200006DBCB17203A41FA02F043EAE07306E016
:100A300041FA02F3D040C2F1200291400843194626
:100A4000704700000268114413780160184670472F
:100A5000D1600449516104491162002111611146BC
:100A600000F022B9450A00089D0C0008426842B116
:100A7000016811F8013B23B1521EC0E9001218466B
:100A800070470121C160881E704742685AB1C3682F
:100A9000016843B983688B4205D0491E521CC0E9E6
:100AA0000012002070474FF0FF3070470029A8BFA8
:100AB0007047401C490008BF20F00100704710B487
:100AC000B0FA80FC00FA0CF050EA010404BF10BC3C
:100AD000704749B1CCF1200421FA04F411FA0CF169
:100AE00018BF012121430843A3EB0C01CB1D4FEAA2
:100AF00000614FEA102042BF002010BC704700EB9D
:100B0000C35010440029A4BF10BC7047401C4900CA
:100B100008BF20F0010010BC704710B5141E73F11F
:100B2000000408DA401C41F1000192185B411A43AD
:100B300001D120F0010010BD2DE9F04D92469B46F9
:100B400011B1B1FA81F202E0B0FA80F2203290469F
:100B5000FFF756FF04460F4640EA0A0041EA0B0140
:100B600053465A46084313D0114653EA010019D0A0
:100B7000C8F14002504600F081F805460E46504646
:100B800059464246FFF73CFF084305D0012004E0E8
:100B900020463946BDE8F08D0020054346EAE07660
:100BA0002C4337430A986305E40AA0EB08000022AF
:100BB000FD0A44EA47540A3002D500200146E9E71D
:100BC000010510196941DDE9084500196941BDE8D1
:100BD000F04DA2E70EB540F2334202920022CDE979
:100BE00000221346FFF7A8FF03B000BDC1F30A526D
:100BF000C1F3130140F2FF3341F480119A4202DA4B
:100C000000200146704740F233439A42A2F2334239
:100C100002DC524200F032B8FFF7F2BE30B5041EDB
:100C200071F1000404DB4FF00044404264EB010129
:100C3000141E73F1000405DB1C464FF000435242C2
:100C400063EB0403994208BF904230BD1CB50948CC
:100C50000090094801900546009C06E0E06840F0DD
:100C6000010394E8070098471034AC42F6D3FFF72D
:100C7000A1FA00004050000860500008202A04DB60
:100C8000203A21FA02F00021704721FA02F3D04005
:100C9000C2F120029140084319467047C0B24FF498
:100CA000F05100F097B900002DE9F34F8BB04FF0F1
:100CB000000801F10C000C464FF0010B46460DF107
:100CC000080A01906269012101989047051E2DD004
:100CD000252D2CD0216A8847C0B162690121019875
:100CE0009047216A88470028F7D1411E6269019820
:100CF000904700E0761CA1690B988847216A8847D5
:100D00000028F7D1E1690B988847DBE7A1690B98C8
:100D100088470746A84201D1761CD3E7E1690B98C2
:100D200088477F1C02D1B8F1000F6FD046E1002741
:100D300062693D463946019890472A2804D1626984
:100D40000121019890470125DFF884926269012111
:100D500001989047A0F130010A290AD24F45E5DCFD
:100D600007EB870100EB4107303FDFD445F010056A
:100D7000ECE7E90601D46FF000476C280AD04C2854
:100D800014D0682815D06A280DD074281CD07A2871
:100D90001AD01DE062690121019890476C2802D0A9
:100DA00045F0040514E045F002050DE045F020058E
:100DB0000AE06269012101989047682802D045F055
:100DC000080505E045F40065626901210198904736
:100DD000C4E9015765283DD019DC58287AD00CDCCD
:100DE000452837D004DC252826D0412831D131E0F0
:100DF00046282FD047282CD12CE05B2877D06128BB
:100E000028D063287CD0642823D15AE0D0E06F2812
:100E100048D008DC66281DD067281BD0692821D05F
:100E20006E2816D127E0702845D0732868D0752821
:100E300047D078280DD14DE0A1690B988847054629
:100E400025283FF469AFE1690B9888476D1C3FF492
:100E50006AAFB3E023466A466FF001000B99FFF7D3
:100E6000B5FA9EE045F040006060A80723464FF0C9
:100E7000000236D43EE0E8077FF447AF2068011D4A
:100E800021600068290501D506701BE7290701D5F7
:100E9000068017E7A90703D5F117C0E9006111E73C
:100EA00006600FE745F040006060A80723464FF05A
:100EB000080216D41EE040F60E0125EA010060602B
:100EC00016E045F040006060A80723464FF00A0294
:100ED00007D40FE045F040006060A80708D523461E
:100EE00010226FF001000B99AFF3008059E007E08A
:100EF000234610226FF001000B99AFF3008050E001
:100F00004FF000094F464B46632802D05B2806D0BD
:100F100040E0E80601D40120A06001273AE06269C0
:100F20000121019890475E2805D14FF001096269BF
:100F3000494601989047216939B900210A4653462C
:100F400043F82120491C0829FADBB0B3216969B9AB
:100F5000C11700EBD16253110AEB830122F01F028B
:100F6000821A01200B68904003430B6062690121E3
:100F7000019890475D28E8D1B9F1000F09D0002011
:100F8000514651F82020D24341F82020401C082827
:100F9000F7DB02AB224600976FF001000B99AFF32D
:100FA000008000280CDA401C08D1BBF1000F05D0EE
:100FB0004FF0FF300DB0BDE8F08FFFE74046F9E796
:100FC000E90701D108F1010806444FF0000B79E66A
:100FD000CCCCCC0C7F2801D9002208E0064A02EBD9
:100FE0005002C007127800D1120902F00F0201204E
:100FF0009040084070470000C84E0008FEE700001F
:1010000010B546F20044C4F2020420460221202218
:1010100000F01CFD012818BF10BD2046022120222F
:10102000BDE8104000F0F6BCFEE7000010B501205E
:1010300000F0AAFD012818BF10BD0024C4F202046C
:101040002046012100F0FCFD012809D104F5406093
:10105000802100F0EDFD44F68670C0F6000003E04C
:1010600044F67870C0F6000003F01CFF0120BDE8D4
:10107000104000F083BD0000FEE7000040F6004491
:10108000C4F2020420468021012200F0D3FD4FF477
:10109000FA7002F0A9FA20468021002200F0CAFD71
:1010A0004FF4FA7002F0A0FAECE70000FEE700004F
:1010B0002DE9F04186B04FF4406001F0ADFB40F601
:1010C000014001F0A9FB40F6024001F0A5FB40F60B
:1010D000024001F0A1FB40F20044C4F2000404F518
:1010E000FE352846022100224FF400434FF000084D
:1010F00000F0ACFD04F50037384602210022082339
:1011000000F0A4FD04F50136304602210022402300
:1011100000F09CFD304602210022802300F096FD65
:10112000284601214FF4004200F04AFD38460121D3
:10113000082200F045FD30460221402200F040FD2B
:1011400030460221802200F03BFD4FF4805001F038
:1011500063FB4FF0807001F08FFB4FF0804001F097
:1011600059FD4FF4C67602A94FF0804004968DF8E1
:101170001480CDE9028801F0F7FD4FF08040032193
:101180000022002301F006FF6D46284601F002FC14
:101190000A274FF0804000212A46ADF8067001F082
:1011A00039FE4FF0804001212A4601F033FE1C2019
:1011B0000221022200F0F2FE4FF08040012101F0F6
:1011C000D5FE4FF08040012101F0D4FE4FF0804069
:1011D000002101F01DFD4FF0804001F0D5FB4FF0E4
:1011E000804001F0BBFD41F2010001F015FB4FF022
:1011F000807001F041FB204601F00CFD02A9204661
:1012000004968DF81480CDE9028801F0ADFD2046EA
:1012100003210022002301F0BDFE6D46284601F0A7
:10122000B9FB204600212A46ADF8067001F0F2FD18
:10123000204601212A4601F0EDFD1D200221022257
:1012400000F0ACFE2046012101F090FE2046012175
:1012500001F090FE2046002101F0DAFC204601F06A
:1012600093FB204601F07AFD06B0BDE8F081000056
:10127000FEE70000002180ED000AC0E90111C0E98D
:10128000071180ED092AC0ED0A2A1030C0EC030ACC
:101290007047000000000000000000000000000097
:1012A000EFF30980BFF36F8F154B1A681EF0100F14
:1012B00008BF20ED108A20E9F04F10602DE90900E9
:1012C0004FF0500080F31188BFF34F8FBFF36F8F43
:1012D00002F044FB4FF0000080F31188BDE80900E4
:1012E00019680868B0E8F04F1EF0100F08BFB0ECA6
:1012F000108A80F30988BFF36F8F704700BF00BF6B
:10130000E0100020000000000000000000000000CD
:10131000074B19680868B0E8F04F80F30988BFF3FD
:101320006F8F4FF0000080F31188704700BF00BF3F
:10133000E010002080B502F0D5FE012807D141F26F
:10134000A830C2F2000001680131016080BDBDE833
:10135000804002F007BC000081B04EF68851CEF20A
:1013600000010A6843F6080042F47002C4F2020069
:101370000A6050F8081C41F0010140F8081C00BF49
:1013800050F8081C8907FBD5016841F08001016015
:1013900000210091009A4F2A06D800BF009A01321E
:1013A0000092009A502AF9D3026842F0900202603B
:1013B000009100994F2905D80099013100910099B9
:1013C0005029F9D301684FF6FF7221F00301016043
:1013D00050F8081CCFF6F662114040F8081C50F88F
:1013E000081C4FF0000C21F4802140F8081CC0F8C4
:1013F00000C0026843F21002C2F2004240F8042C1E
:10140000C0F804C050F8082C42F4803240F8082C90
:101410004FF6FE7250F8081C013A4CF100038903A4
:1014200002D4002BF6D100BF50F8081C8903FBD56D
:10143000826B47F2000142F08052C4F200018263E5
:101440000A6842F440420A6002680260026842F49C
:1014500000420260026842F4A052026047F619029C
:10146000C0F6402240F8042C50F8082C42F080725C
:1014700040F8082C50F8082C9201FBD50A6842F479
:1014800080320A604A68D203FCD50A6842F400320E
:101490000A6000BF4A689203FCD5016821F003018D
:1014A0000160016841F00201016000BF01680907A5
:1014B000FCD501B07047000010B54FF0804001210D
:1014C0004FF0804401F05AFD012818BF10BD20687C
:1014D00041F22002C2F200021168C0064FF0FF3054
:1014E00058BF012043184FF0804001211360BDE830
:1014F000104001F03FBD000010B540F20044C4F2BE
:1015000000042046012101F039FD012818BF10BD5B
:10151000206841F26402C2F200021168C0064FF076
:10152000FF3058BF01204318204601211360BDE859
:10153000104001F01FBD000010B541F20004C4F2DC
:1015400000042046012101F019FD012818BF10BD3B
:101550002046012101F00EFD04F5FE308021BDE89A
:10156000104000F065BB00002DE9F04184B041F26D
:10157000000440F20435C4F20104C0F2040505F190
:101580000111204601F080FE41F21A0740F21808CE
:101590000128C2F20007C2F2000840F0A1812046F3
:1015A00001F080FD39884A1C08F8010020463A8085
:1015B00001F078FD212840F093810020CDE9020060
:1015C000CDE9000040F21800C2F20000CFA1FEF702
:1015D0003BFEC8B144F675710330C0F6000103AAA2
:1015E000FEF744FE41F21C00C2F2000000689DEDCF
:1015F000030A58B341F2B000C2F2000001F056F9FC
:101600009DED030AC2A660E140F21800C2F200009C
:10161000C7A1FEF719FE18B344F675710330C0F682
:10162000000102AAFEF722FE41F21C00C2F20000F5
:1016300000689DED020AA8B341F2B000C2F20000BA
:1016400001F030F99DED020ABAA63EE141F2380000
:10165000C2F2000001F02AF99DED030AB0A634E1C0
:1016600040F21800C2F20000BAA1FEF7EDFD18B377
:1016700044F675710330C0F6000103AAFEF7F6FDCB
:1016800041F21C00C2F2000000689DED030AA8B3FD
:1016900041F27830C2F2000001F008F99DED030A32
:1016A000ADA612E141F23800C2F2000001F0FAF8F2
:1016B0009DED020AA3A608E140F21800C2F2000064
:1016C000ADA1FEF7C1FD18B344F675710330C0F645
:1016D000000102AAFEF7CAFD41F21C00C2F200009E
:1016E00000689DED020AA8B341F27830C2F2000012
:1016F00001F0D8F89DED020AA0A6E6E041F27C00D8
:10170000C2F2000001F0D2F89DED030A96A6DCE0DB
:1017100040F21800C2F20000A0A1FEF795FD18B338
:1017200044F675710330C0F6000101AAFEF79EFD74
:1017300041F21C00C2F2000000689DED010AC0B336
:1017400041F2B000C2F2000001F0A8F89DED010ADC
:1017500093A6BAE041F27C00C2F2000001F0A2F8C8
:101760009DED020A89A6B0E040F21800C2F2000026
:1017700093A1FEF769FD30B344F675710330C0F6EE
:10178000000101AAFEF772FD41F21C00C2F2000046
:1017900000689DED010AE0B341F27830C2F200002A
:1017A00001F07CF89DED010A44F61F76C0F60006B4
:1017B0008BE041F23800C2F2000001F06FF89DEDBD
:1017C000010A7BA681E040F21800C2F200007DA170
:1017D000FEF73AFD50B344F675710330C0F60001D0
:1017E0006A46FEF743FD41F21C00C2F200000068A9
:1017F0009DED000A00283FD041F2B000C2F2000087
:1018000001F058F89DED000A44F65276C0F6000645
:101810005BE041F27C00C2F2000001F03FF89DED78
:10182000010A44F61076C0F600064EE040F21800B9
:10183000C2F2000064A1FEF707FD00284ED044F676
:1018400075710330C0F600016A46FEF70FFD41F2E4
:101850001C00C2F2000000689DED000A08B341F2CE
:101860007830C2F2000001F025F89DED000A44F640
:101870006476C0F6000628E041F23800C2F20000AB
:1018800001F018F89DED000A41F2A800BDEEC01A63
:10189000C2F2000044F62C7680ED001AC0F6000675
:1018A00013E041F27C00C2F2000001F003F89DED6C
:1018B000000A41F2AC00BDEEC01AC2F2000044F6CC
:1018C0003F7680ED001AC0F6000610EE100AFFF712
:1018D00021F8024630460B4602F062FE00203880B6
:1018E0002046294601F0D0FC01280CD1204601F009
:1018F000D9FB3888002108F8001041F21800C2F224
:1019000000000121017004B0BDE8F08150313D00BC
:1019100070697463685F6B703A25660D0A00000099
:101920006D6F746F72315F6B703A25660D0A00003F
:1019300049313D0070697463685F6B693A25660DD3
:101940000A0000006D6F746F72315F6B693A256633
:101950000D0A000050323D00726F6C6C5F6B703A84
:1019600025660D0A000000006D6F746F72325F6BA8
:10197000703A25660D0A000049323D00726F6C6CAA
:101980005F6B693A25660D0A000000006D6F746F89
:1019900072325F6B693A25660D0A000044313D00E2
:1019A00070697463685F6B643A25660D0A00000015
:1019B0006D6F746F72315F6B643A25660D0A0000BB
:1019C00044323D0054313D0054323D00FEE70000FA
:1019D00010B50446042000F0CBFF40F2100140F2A5
:1019E0001400C2F200010122C2F200000A704EF29D
:1019F00010010460CEF200010A684FF47A7060436F
:101A000042F002020A604860086840F00100086085
:101A100010BD00000B1F38BF0B46D9B24FEA410181
:101A200051FA83F103F002034FF00C0C4FEA430329
:101A300038BF4FF0080C03EB41015CF8003002FAAC
:101A400001F119434CF8001070470000F0B503296C
:101A500021D8561E1F2E4FF0000300F28C804FF04D
:101A6000800C24248E460546DFE806F06C85851040
:101A70008585853A858585858585854185858585A5
:101A80008585858585858585858585484FF0020C0A
:101A90001024042228E0561E1F2E4FF0000300F2EF
:101AA0006A800FF20C0202EB86070A1FDFE806F0DD
:101AB0001063632B63636333636363636363633BD9
:101AC0006363636363636363636363636363634306
:101AD000051D5FFA82FE4FF0800C2424012231E0C4
:101AE0004FF0040C102408228E4605462AE04FF0E1
:101AF000080C10228E460546102423E010242022D4
:101B00008E4605461CE0051D5FFA82FE4FF0020C72
:101B10001024042216E0051D5FFA82FE4FF0040C2B
:101B2000102408220EE0051D5FFA82FE4FF0080C1B
:101B30001022102406E0051D5FFA82FE10242022E8
:101B40004FF0100C0EF002072B680EEB4E057F00D5
:101B5000204401EB410107EB450750F83100BA4042
:101B600013EA020100EA0C0018BF0121002818BF87
:101B7000012001EA00031846F0BD000043F61441BD
:101B8000C4F201010860704743F61441C4F2010138
:101B90000968084018BF012070470000B0B541F245
:101BA0000005C4F201050446C1B2284601F07EFAE0
:101BB0002846072101F0E8FA0028F9D02046B0BDF8
:101BC000F0B5D0F820E0D0F824C000230F2700257E
:101BD00005E000BF0135082D03F104030CD022FA03
:101BE00005F6F607F6D007FA03F62EEA060601FA1E
:101BF00003F446EA040EEDE7082300240F2504E071
:101C00000133102B04F104040CD022FA03F6F6077A
:101C1000F6D005FA04F62CEA060701FA04F647EABC
:101C2000060CEDE7C0F820E0C0F824C0F0BD0000CD
:101C3000C16270471823002A08BF28231950704733
:101C40000069084018BF0120704700002DE9F041ED
:101C5000D0F800E0D0F80CC000244FF003080026B4
:101C600005E000BF0136102E04F1020412D023FA61
:101C700006F7FF07F6D008FA04F72EEA070E01FA76
:101C800004F54EEA050E2CEA070702FA04F547EAC6
:101C9000050CE7E7C0F800E0C0F80CC0BDE8F08133
:101CA0000129416814BF994319434160B0B5D0F888
:101CB00008C000214FF0030E002404E00134102C72
:101CC00001F102010CD023FA04F5ED07F6D00EFA6B
:101CD00001F52CEA050C02FA01F54CEA050CEDE7DA
:101CE000C0F808C0B0BD000010B540F6034000F0D9
:101CF00093FD40F60044C4F2020420460121002274
:101D00008023FFF7A3FF2046002102228023BDE8A5
:101D10001040FFF7C5BF000082B000F01BFE41F28B
:101D2000A43C42F6BD00C2F2000C4FF0010EC0F61A
:101D3000000006A14FF496720023CDE900EC02F0FA
:101D4000D5F801F0B3FD00BFFEE700BF5354415288
:101D5000545F5441534B0000C14340F29022C90FDD
:101D6000C4F241220028116048BF404242F2107183
:101D70000A1A40F60040C4F200004FF0010138BFDB
:101D8000002200F023BF0000C14340F29422C90F9B
:101D9000C4F241220028116048BF404242F2107153
:101DA0000A1A40F60040C4F200004FF0020138BFAA
:101DB000002200F00BBF0000F0B587B040F60240F3
:101DC00000F02AFD40F6024000F026FD40F60044F7
:101DD000C4F2000404F5FE35284601210022102338
:101DE00001260027FFF732FF284601210022202389
:101DF000FFF72CFF2846002102221023FFF750FF97
:101E00002846002102222023FFF74AFF4FF44060BA
:101E100000F002FD4FF4406000F0FEFC04F5FA35DE
:101E20002846022100220223FFF710FF2846022144
:101E300000220423FFF70AFF284600210222022382
:101E4000FFF72EFF2846002102220423FFF728FF78
:101E5000284602210222FFF7B3FE2846022104226F
:101E6000FFF7AEFE41F2030000F0D6FC4FF08070A9
:101E700000F002FD204600F0CDFE1320CDE903075F
:101E800042F20F70059003A920468DF8187000F0FB
:101E90006BFF6D46204601212A46ADF80470ADF86F
:101EA000006000F07DFD204602212A4600F078FD0A
:101EB00020460121002200F089FE204601216022F7
:101EC00000F068FE20460121002200F085FE204639
:101ED0000221002200F07AFE20460221602200F05A
:101EE00059FE20460221002200F076FE204600F036
:101EF0004BFD204600F032FF07B0F0BD9FED22BA47
:101F00009FED22CA41F238009FED1E0AB1EE048A0D
:101F1000B7EE009AB6EE00AAC2F20000F0EE480A50
:101F2000B0EE491AF0EE4A1AB0EE4B2AF0EE4C2A07
:101F3000FFF7A0F941F27C009FED150AC2F2000004
:101F4000F0EE480AB0EE491AF0EE4A1AB0EE4B2A0B
:101F5000F0EE4C2AFFF78EF9FFF7AAF8FFF72CFFF7
:101F600041F2A80441F2AC05C2F20004C2F200053D
:101F7000642001F039FB2068FFF7EEFE2868FFF7C8
:101F800003FFF5E700401C450000FA4300A08C4524
:101F9000000000004FF4407000F052B84EF60C5CA8
:101FA000CEF2000CDCF8003003F4E063B3F5E06F30
:101FB00001D1042328E0DCF8003003F4E063B3F53A
:101FC000C06F01D103231FE0DCF8003003F4E063AD
:101FD000B3F5A06F17D0DCF8003003F4E063B3F57D
:101FE000806F01D101230FE0DCF8003003F4E063DF
:101FF000B3F5407F01D1002306E040F20053C0F268
:10200000FA53CCF80030022301FA03FCC3F10403B5
:102010000F21D94011404EF2001241EA0C01CEF2DC
:102020000002090140EA020383F8001300F01F01D7
:10203000012303FA01F11C2303EAD0008150704709
:1020400040F080604EF60C5140F0FD70CEF2000181
:1020500008607047F0B581B00D4644F2D00141F2FE
:10206000E006C2F20101C2F200060F6831680446C0
:10207000081D01F03FF910B1601C0FD027E0306857
:1020800043F6C472C06AC2F201020121136801FA68
:1020900000F023EA00001060601C18D1BDB144F2CA
:1020A000A800C2F201004168326891608A68336812
:1020B000DA6032688B6804325A60326804328A60AF
:1020C0003168486101680131016001B0F0BD3068DC
:1020D000E41944600BD341F2F000C2F20000006842
:1020E0003168043101B0BDE8F04001F025B941F29A
:1020F000E800C2F2000000683168043101F01CF908
:1021000044F22400C2F2010001688C4238BF04602E
:1021100001B0F0BD70B501F045F944F2D406C2F249
:102120000106306818B1BDE8704001F061B943F6AE
:10213000C874C2F20104204601F0EEF843F6DC75E3
:10214000C2F20105284601F0E7F841F2E400C2F2CC
:102150000000046041F2F400C2F2000005600A20B1
:102160000C21002201F016FD00283060DBD003A115
:1021700001F0E2F9BDE8704001F03AB9546D7251D6
:102180000000000043F6B87541F2F80A4EF6045814
:1021900044F2BC0743F6B476C2F20105C2F2000A6B
:1021A000CEF200084FF08059C2F20107C2F20106D8
:1021B00015E000BF01F0F6F8F868C468201D01F0D2
:1021C00099F830680138306028680138286001F0DB
:1021D0000FF9206B01F028F9204601F025F9286855
:1021E0000028E7D1DAF800000228F8D3C8F80090F8
:1021F000BFF34F8FBFF36F8FF1E70000084800680F
:10220000006880F308884FF0000080F3148862B6FD
:1022100061B6BFF34F8FBFF36F8F00DF00BF0000C9
:1022200008ED00E02DE9F04381B041F2E408C2F28C
:102230000008D8F800200546D2680E46D46804F19C
:102240000409484601F056F894F8240041070CD4DC
:1022500000F0FE0084F824001CE000BF711B8142E6
:1022600010D3216A204688473D46A069246147195A
:10227000B7426760F2D9AE4201D2AF42F1D2D8F88C
:10228000000004E041F2F400C2F200000068494698
:1022900001F052F8216A204601B0BDE8F04308473A
:1022A00080B582B00020019040F20800C2F2000028
:1022B000006801300AD044F6927045F21501C0F66C
:1022C0000000C0F60001EA2202F06AF94FF0500067
:1022D00080F31188BFF36F8FBFF34F8F01980028F1
:1022E000FCD002B080BD000084B041F2E40441F2B1
:1022F000DC0B41F2F40844F2D409C2F20004C2F249
:10230000000BC2F20008C2F201090DF1040A00BF7D
:102310002068076817B1C068066800E0002601F071
:1023200015FB01F0F3FEDBF800100546884209D2E8
:102330002068016891B1C0684FF0FF310068FFF775
:1023400071FFF5E7CBF8005097B1AE4210D802F01C
:1023500031F830462946FFF765FF29E0D8F800102C
:10236000C8F800002160CBF8005002F023F81FE00D
:102370000FB1002205E0D8F800000068B0FA80F044
:102380004209D9F80000711B01F00AF902F012F8B5
:1023900070B94EF60450CEF200004FF0805101604B
:1023A000BFF34F8FBFF36F8F02E0206800F0C4FFD0
:1023B000D9F800005146002201F074FC0028A7D093
:1023C00001980028F4D4039F786910B1381D00F0FB
:1023D00091FF01F09BFEDBF80010054688420ED20B
:1023E0002068016831B1C0684FF0FF310068FFF725
:1023F00019FFF5E7D8F80010C8F80000216001982F
:10240000CBF8005001380828D2D8DFE800F00505E5
:102410001A215705051A210097F82400029AB96974
:1024200040F0010387F824308B183E4646F8043FFD
:10243000AB423F6132D9954201D2934237D22068F4
:1024400031E097F8240000F0FE0087F82400AFE7A1
:1024500097F82400029940F0010087F82400B96140
:1024600059B944F6927044F6D771C0F60000C0F630
:10247000000140F25E3202F093F8B8693946421921
:1024800041F8042FAA423F613FF68FAF00283FF486
:102490008FAFD8F8000000F04FFF89E7AA1A8A42F0
:1024A00005D2D8F80000314600F046FF80E7420729
:1024B0000CD400F0FE0087F8240032E097F82400E6
:1024C0008107C0D4384600F0AFFF71E70298D346C9
:1024D000CA46C146084406E0281A884215D3396A1C
:1024E000384688474046B9693F6101EB0008A84576
:1024F000C7F80480F0D9854201D28045EFD2206828
:10250000314600F019FFC84605E0D9F80000314611
:10251000C84600F011FFD146DA4641F2DC0BC2F2A8
:10252000000B396A3846884742E70000F0B581B0B1
:10253000044600F037FF94F94560012E0FDB04F1EB
:10254000240500BF286850B1284601F0C1FE0028CC
:1025500018BF01F04FF970B2013E0128F2DCFF26EE
:1025600084F8456000F044FF00F01CFF94F94470CB
:10257000012F0EDB04F11005286850B1284601F048
:10258000A7FE002818BF01F035F978B2013F0128F5
:10259000F2DC84F8446001B0BDE8F04000F028BFF0
:1025A0002DE9F04381B0044601F0D0F941F2EC0688
:1025B000C2F20006306844F21808C2F2010858B1AD
:1025C00084B304F007001138A04226BF24F00700AE
:1025D00000F11005002526E041F2AC30C2F2000007
:1025E000C11D420700F5963218BF21F0070044F2E2
:1025F000A001C2F201010023C1E9000322F007019A
:10260000A1F10802326041E90233111A3268C8F8B8
:102610000010C0E9002144F22000C2F20100016074
:10262000002CCED10025012D4FF0000470DBD8F82E
:10263000000085426CD844F2A000C2F20100076895
:102640007968A94207D200BF3A6822B1516838467A
:102650001746A942F8D3326897422FD0D0F800909D
:102660003A68491B1129026035D37C1960070AD0EA
:1026700044F6927044F6F371C0F60000C0F6000113
:10268000DC2201F08DFF786844F2A001401BC2F209
:10269000010160607D6000BF08460968A142FBD36C
:1026A00042688318A34203D1636804461A44426017
:1026B0006368E2188A4203D00A4608E0002427E053
:1026C0003268914203D0D1E9002119446160A042EF
:1026D000226018BF046044F220007968D8F8002016
:1026E000C2F201000368511A9942C8F8001038BFBD
:1026F000016044F22C027868C2F20102136840F0D3
:102700000040002109F10804C7E90010581C1060BE
:1027100001F050FE60070BD044F6927044F6F3715E
:10272000C0F60000C0F600014FF48E7201F038FFD1
:10273000204601B0BDE8F083034642F2A12021F01B
:102740000101C0F600004FF0807C03E903106FF038
:102750000201A3F1440043E90912704710B543F6A2
:102760000402C4F2020253680146C3F3810342F239
:102770000040022BC0F2F40006D0012B1FD147F617
:102780004000C0F27D101AE0D2F800C013680CF0CF
:102790003F0CC3F3881E13681468C3F3014364023B
:1027A00047F64004C0F27D1458BF0446B4FBFCF465
:1027B000022000EB430004FB0EF3B3FBF0F0536880
:1027C00011A4C3F30313E35C546844F6087CC4F318
:1027D0008224C0F6000C1CF804E05268032907D8D4
:1027E00020FA03F3DFE801F00F020609184610BDD6
:1027F000002010BD23FA0EF010BDC2F342301CF8C9
:10280000000023FA00F010BD0000000000000000EE
:10281000010203040607080943F6000300F01F0144
:102820008009C4F202034FF0010CC2580CFA01F106
:102830001143C1507047000043F6000300F01F0130
:102840008009C4F202034FF0010CC2580CFA01F1E6
:1028500022EA0101C150704743F6000300F01F0156
:102860008009C4F202034FF0010CC2580CFA01F1C6
:102870001143C1507047000043F68C0CC4F2020CA7
:10288000DCF800206FF0807142EA0003884208BF44
:1028900022F08073CCF800307047000080ED060A0B
:1028A0007047000080ED050A7047000080ED040AC3
:1028B0007047000080ED000A7047000010B582B03C
:1028C00000F070FD41F27D0000244FF0020CC0F6D4
:1028D000000013A196220023CDE900C401F006FBFD
:1028E00041F6FD604FF0040CC0F600000FA19622E7
:1028F0000023CDE900C401F0F9FA01F075F80146B2
:102900000EA001F04DFE41F2A430C2F200000068BA
:1029100000F0CEFE02B0BDE8104000F069BD00BF7F
:102920004C45445F5461736B000000006D6F746F21
:10293000725F746573745F5461736B004672656592
:1029400020686561703A2025642062797465730A95
:102950000000000080B5F020FFF73AF8FFF71AFBFF
:10296000FFF7C2F94FF4E130BDE8804000F014BC3D
:102970004EF21001CEF200010A68042822F004028F
:1029800008BF04320A607047016841F080010160AD
:10299000704700004FF480310160002141607047B2
:1029A000032988BF704780B5DFE801F002AD41859B
:1029B000016A21F001010162816921F00301816155
:1029C0001188036A19430162016A002321F00201A0
:1029D0000162B2F804C0D0F820E020F48061C4F2B3
:1029E000010399424EEA0C01016240F0D080016A75
:1029F00021F0040101625188036A19430162016AEE
:102A000021F008010162D188036A1943016250F87C
:102A1000041F21F48071016011890368194301606A
:102A2000016821F40071016051890268ADE0016A1A
:102A300021F480710162C16921F00301C161118833
:102A4000036A43EA01210162016A002321F4007153
:102A50000162B2F804C0D0F820E020F48061C4F232
:102A6000010399424EEA0C21016240F09080016A14
:102A700021F4806101625188036A43EA0121016205
:102A8000016A21F400610162D188036A43EA0121ED
:102A9000016250F8041F21F480510160118903681C
:102AA00043EA01110160016821F40051016052897B
:102AB0000168120169E0016A21F480510162C16973
:102AC00021F44071C1611188036A43EA0131016256
:102AD000016A002321F400510162B2F804C0D0F869
:102AE00020E020F48061C4F2010399424EEA0C31E7
:102AF00001624CD150F8041F21F480410160128919
:102B00000168920141E0016A21F0100101628169CE
:102B100021F4407181611188036A43EA0111016265
:102B2000016A002321F020010162B2F804C0D0F84C
:102B300020E020F48061C4F2010399424EEA0C11B6
:102B4000016224D1016A21F0400101625188036AC7
:102B500043EA01110162016A21F080010162D1881A
:102B6000036A43EA0111016250F8041F21F48061F5
:102B700001601189036843EA81010160016821F461
:102B80000061016052890168920011430160BDE853
:102B900080407047032988BF7047DFE801F0020DCD
:102BA000050A50F8181F01E050F81C1F21F07001B1
:102BB00007E050F81C1F01E050F8181F21F4E04115
:102BC00012020160016811430160704703299CBF34
:102BD00000EB810042637047032988BF7047DFE83C
:102BE00001F0020D050A50F8181F01E050F81C1FF3
:102BF00021F0080107E050F81C1F01E050F8181FF1
:102C000021F4006112020160016811430160704704
:102C10004162704710B541F6FF31C4F200018842AD
:102C20001BDC40F6FF31C4F20001884230DD41F286
:102C3000FF31C4F20001884250DC40F60041C4F28A
:102C40000001884269D041F20001C4F200018842CB
:102C500040F0828040F6040476E040F2FF31C4F296
:102C60000101884226DD44F2FF31C4F201018842AD
:102C700043DC40F20041C4F20101884250D044F2EA
:102C80000001C4F20101884266D14FF411645BE097
:102C9000B0F1804F47D040F20041C4F200018842B9
:102CA00044D040F60001C4F20001884254D140F6FD
:102CB000020449E041F60041C4F20001884238D0E4
:102CC00042F20001C4F20001884235D00021C4F272
:102CD0000101884240D14FF4106435E041F20041D7
:102CE000C4F2000188422AD041F60001C4F200017A
:102CF000884231D140F6060426E044F20041C4F295
:102D0000010188421ED044F60001C4F2010188424C
:102D100018BF10BD40F6121416E040F6030413E08D
:102D200040F6011410E04FF400640DE040F6010499
:102D30000AE040F6070407E040F6080404E040F625
:102D4000050401E040F611142046FFF785FD2046FA
:102D5000BDE81040FFF770BD10BD0000016841F0F4
:102D600001010160704700000A8840F2004C826255
:102D700040F6FF32C4F200029042C4F2010C0FDCB4
:102D8000B0F1804F19D040F20043C4F200039842E2
:102D900013D040F60003C4F2000398420DD018E0AF
:102DA00040F60043C4F20003984206D0604504D0C8
:102DB0000023C4F2010398420BD1036823F070038F
:102DC00003604B8802681A4302608A8803681A43CA
:102DD000026080B541F20002D1F808E020F480637F
:102DE000C4F200029342C0F82CE007D0026822F43B
:102DF00040720260CA8803681A43026040F480622D
:102E0000624504BF097B0163416941F001014161F1
:102E100080BD0000F0B5032900F28B80DFE801F0EF
:102E2000021B355784465CF8203F4FF0010E23F01B
:102E30000103CCF80030DCF8003023F00A03CCF8B2
:102E400000301388DCF800703B43CCF800300346B8
:102E500053F8187F32E084465CF8203F4FF0100EA4
:102E600023F01003CCF80030DCF8003023F0A0038E
:102E7000CCF800301388DCF8007047EA0313CCF874
:102E80000030034653F8187F3AE084465CF8203F50
:102E90004FF4807E23F48073CCF80030DCF80030EF
:102EA00023F42063CCF800301388DCF8007047EA84
:102EB0000323CCF80030034653F81C7F27F00307A8
:102EC0001F6054881D6804266FF0F00721E08446D7
:102ED0005CF8203F4FF4805E23F48053CCF8003040
:102EE000DCF8003023F40053CCF800301388DCF811
:102EF000007047EA0333CCF80030034653F81C7FD8
:102F000027F440771F6057881C683D020C266FF439
:102F100070472C431C601C683C401C60D4881D68B2
:102F2000B4402C431C60DCF8003043EA0E03CCF8BC
:102F30000030032988BFF0BD9288DFE801F0020568
:102F4000080D50F8181F04E050F8181F06E050F85C
:102F50001C1F21F00C0104E050F81C1F21F44061FB
:102F600012020160016811430160F0BDC2681143A3
:102F7000C1607047C943016170470000C2680069C1
:102F80000A40084018BF0120002A18BF0122104043
:102F900070470000D0F808C042EA03122CF0070C7A
:102FA000C0F808C0D0F808C041EA0C018160D0F830
:102FB00018C040F203312CEA01018161D0F818C039
:102FC00040F2011141EA0C018161016A21F00A011C
:102FD0000162016A21F0A0010162016A11430162EC
:102FE00070470000B0B5044647F2FF70C4F200001D
:102FF0000D4684424FF000000EDC44F6FF31C4F26F
:1030000000018C4217DC44F20041C4F200018C4202
:103010001DD044F6000116E040F6FF71C4F2010134
:103020008C422FDC47F60001C4F200018C420ED026
:1030300047F6004107E044F60041C4F200018C422B
:1030400005D045F20001C4F200018C4203D10221F7
:103050000846FFF783FBE168090406D400EB55003E
:10306000B0FBF5F080B2A060B0BD400000EB5500B1
:10307000B0FBF5F04FF6F0710140C0F34200084498
:10308000A060B0BD41F20001C4F201018C424FF0DA
:103090000301DDD041F20042C4F201029442D7D0D4
:1030A000D9E7000040686FF35F2070476FF35F213E
:1030B0004160704710B547F2FF71C4F200018842C9
:1030C00014DC44F6FF31C4F20001884224DC44F2EF
:1030D0000041C4F2000188423CD044F60001C4F231
:1030E0000001884249D140F612043EE040F6FF71EB
:1030F000C4F2010188421EDC47F60001C4F200015F
:1031000088422AD047F60041C4F20001884218BF25
:1031100010BD40F61F0428E044F60041C4F200014F
:1031200088421DD045F20001C4F20001884224D13A
:1031300040F6140419E041F20001C4F20101884292
:1031400011D041F20041C4F20101884215D140F68C
:1031500005140AE040F6110407E040F61E0404E0FE
:1031600040F6130401E040F604142046FFF774FB18
:103170002046BDE81040FFF75FBB10BDC16841F4B9
:103180000051C160704700008A09105801F01F010A
:10319000C84000F00100704770B505464FF440602C
:1031A000FFF73AFB4FF44060FFF736FB41F20410A3
:1031B000FFF732FB41F20004C4F2010404F570464B
:1031C000304607214FF40072FEF7FAFC3046072123
:1031D0004FF48062FEF7F4FC3046022101224FF4E6
:1031E0000073FEF733FD3046022101224FF4806365
:1031F000FEF72CFD3046002102224FF40073FEF74B
:103200004FFD3046002102224FF48063FEF748FD57
:103210002046FFF74FFF20462946FFF7E3FE2046F2
:10322000002100F043F82046002100F05BF8204622
:10323000002100F049F82046FFF7A0FF20460821B2
:1032400000F04AF82046042100F038F82520022139
:103250000222FEF7A3FE204640F2053100F008F8F6
:1032600020464FF44171BDE8704000F001B8000005
:1032700001F01F0289094FF0010C0B580CFA02F201
:103280001A430A5070470000C1F3891252F800C077
:103290008A0D105801F01F03C1F30441C8402CFAF5
:1032A00003F1084000F0010070470000C26822F4FA
:1032B000C062C260C2681143C1607047C26822F038
:1032C00004021143C1607047026922F44052026156
:1032D0000269114301617047C26822F0080211437C
:1032E000C1607047C26822F48052C260C268114354
:1032F000C1607047D0E9013201699A60D1F804C019
:1033000082688445536008BF4A60002202610868F1
:1033100001380860086870474FF0FF31024642F8F4
:10332000081F00214260C0E90322016070470000CD
:10333000002101617047000080B5D1F800C01CF188
:10334000010207D000F108039E465B681A686245D7
:10335000FAD901E0D0F810E0DEF8042008614A60F4
:103360009160C1F808E0CEF80410016801310160F5
:1033700080BD0000D0F800C0436808619A684B60C7
:103380008A609A68996051600CF101010160704790
:10339000DFF80C00016841F4700101607047000023
:1033A00088ED00E04FF0500080F31188BFF36F8F7D
:1033B000BFF34F8F40F20800C2F2000001684A1CC0
:1033C0000029026018BF70474EF60450CEF200008C
:1033D000006800060BD044F6927045F21501C0F665
:1033E0000000C0F6000140F2A91201F0D9B8704700
:1033F00010B540F20804C2F20004206858B944F63F
:10340000927045F21501C0F60000C0F600014FF4BD
:10341000D87201F0C5F820680138206018BF10BDCF
:10342000002080F3118810BDB0B528B3044650F8D1
:10343000040CA4F1080500280BD444F6927044F65D
:10344000F371C0F60000C0F6000140F22F1201F047
:10345000A7F8286858B144F6927044F6F371C0F6A4
:103460000000C0F600014FF4987201F099F854F88A
:10347000040CB0F1FF3F00DDB0BD2968002918BF82
:10348000B0BD20F0004044F8040C00F05FFA44F2B4
:103490001801C2F2010154F8040C0A6810440860D3
:1034A00044F2A001C2F2010108460968A942FBD317
:1034B00042688318AB4204D154F8043C05461A44D0
:1034C00042606B68EA188A4201D00A460AE041F27B
:1034D000EC02C2F200021268914203D0D1E900214D
:1034E00019446960A8422A6018BF056044F23000A0
:1034F000C2F20100016801310160BDE8B04000F096
:1035000059BF00004EF21000CEF200000021016011
:10351000816040F20401C2F20001096844F6D3520E
:10352000C1F26202A1FB02124FF0FF3101EB9211D6
:103530004160072101607047F0B581B004460F4635
:1035400058B944F6927044F6A171C0F60000C0F676
:10355000000140F6D82201F023F84FF00000B7B187
:1035600044F24C01C2F201010023002503E000BF38
:103570000833502B0ED0CA185668A64209D0002D29
:10358000F6D11668002E18BF02461546F0E7002552
:1035900000E01546002D18BFC5E9007401B0F0BD6C
:1035A00070B515460E460446FFF7FCFE94F844003D
:1035B000FF2804BF002084F8440094F84500FF2849
:1035C00004BF002084F84500FFF712FFA06B28B964
:1035D00004F1240031462A4600F034F92046BDE8C3
:1035E0007040FEF7A3BF000070B5002854D043F62A
:1035F000BC75C2F201050446286858B144F69270C1
:1036000044F6BC71C0F60000C0F6000140F21C5246
:1036100000F0C6FF28680130286044F2D00041F273
:10362000E005C2F20100C2F2000506682868043015
:10363000FFF760FE60B9286843F6C472C06AC2F240
:1036400001020121136801FA00F023EA0000106072
:103650002868A419446009D341F2F000C2F20000C6
:10366000006829680431FFF767FE10E041F2E800C6
:10367000C2F20000006829680431FFF75DFE44F2E1
:103680002400C2F2010001688C4238BF046000F0DF
:1036900091FE002818BF70BD4EF60450CEF2000017
:1036A0004FF080510160BFF34F8FBFF36F8F70BD3C
:1036B00070B50446FFF776FE41F2E006002CC2F238
:1036C000000608BF3468251D2846FFF713FEA0B981
:1036D000E06A41F2F80200EB8001C2F2000252F807
:1036E000211051B943F6C472C2F2010201211368DC
:1036F00001FA00F023EA00001060A06A18B104F19A
:103700001800FFF7F7FD43F6C070C2F20100016830
:10371000013101603068844216D043F6B470C2F2C1
:10372000010001680139016041F2E800C2F20000C5
:1037300001680968B1B1006844F22401C068C2F2AE
:1037400001010068086014E044F2BC00C2F201000C
:103750002946FFF70FFE43F6B870C2F20100016878
:10376000013105E044F22400C2F201004FF0FF31C4
:103770000160FFF73DFE3068844205D0206BFFF703
:1037800053FE2046FFF750FE44F29C00C2F20100B7
:10379000006800B33068844218BF70BD43F6BC7047
:1037A000C2F20100006858B144F6927044F6BC7150
:1037B000C0F60000C0F6000140F2AF4200F0F0FE9B
:1037C0004EF60450CEF200004FF080510160BFF37E
:1037D0004F8FBFF36F8F70BD44F22801C2F2010119
:1037E0000968016044F2D001C2F201010968416038
:1037F0007047000044F2DC00C2F2010001210160C8
:1038000070470000B0B505460C4658B944F69270B2
:1038100044F6BC71C0F60000C0F6000140F60E424E
:1038200000F0BEFE41F2E000C2F20000006800F1CC
:1038300018012846FFF780FD20460121BDE8B04071
:10384000FEF708BC70B5144605460E4658B944F656
:10385000927044F6BC71C0F60000C0F6000140F65C
:10386000444200F09DFE41F2E001C2F200016868AE
:103870000A68002CD06182680B681A620A68836843
:1038800002F118025A600A6802F1180282600868A0
:1038900021468562286818BF4FF0FF36421C30462B
:1038A0002A60BDE87040FEF7D5BB000080B582B04D
:1038B00044F21C0C42F28510C2F2010C4FF0000ED3
:1038C000C0F600001FA180220023CDE900EC00F02B
:1038D0000DFB012808BF00F02FFE411C1FD001285E
:1038E00029D14FF0500080F31188BFF36F8FBFF3E1
:1038F0004F8F44F22400C2F201004FF0FF3101600B
:1039000044F29C00C2F201000121016044F2D000A7
:10391000C2F201000021016000F06CF80BE044F6F7
:10392000927044F6BC71C0F60000C0F6000140F68B
:10393000120200F035FE45F23C00C0F600000068BF
:1039400002B080BD49444C450000000043F6BC7005
:10395000C2F20100016801310160704743F6BC709A
:10396000C2F20100006830B144F2DC00C2F2010092
:10397000012101607047B0B544F2DC00C2F20100E1
:103980000021016043F6C470C2F201000068B0FA81
:1039900080F0C0B2C0F11F0041F2F80500EB8004D6
:1039A000C2F2000555F8240058B944F6927044F666
:1039B000BC71C0F60000C0F6000140F6F63200F01F
:1039C000EFFD05EB840050F8041F4968021D914289
:1039D000016001D149680160006841F2E001C068FE
:1039E000C2F200010860B0BD44F21800C2F201004A
:1039F00000687047B0B584B04EF20044CEF20004C7
:103A00004CF27025C4F20F15D4F80009691C8842E5
:103A10000BD144F6927045F21501C0F60000C0F6D5
:103A2000000140F2311200F0BBFDD4F80009A842B9
:103A30000BD144F6927045F21501C0F60000C0F6B5
:103A400000014FF4997200F0ABFD207843F6AC71A1
:103A50000290FF2020702078C2F201018DF807004B
:103A60009DF8070043F6B07500F050000870C2F2F0
:103A70000105072028609DF90700B0F1FF3F0CDC2D
:103A8000062000BF28609DF80710013849008DF816
:103A900007109DF907100029F4D4286803280BD0DB
:103AA00044F6927045F21501C0F60000C0F6000120
:103AB00040F25B1200F074FD286803280BD044F636
:103AC000927045F21501C0F60000C0F600014FF4F7
:103AD000B27200F065FD28684FF4E06101EA002051
:103AE000286002982070D4F8200940F47000C4F8CF
:103AF0002009D4F8200940F07040C4F82009FFF7ED
:103B000001FD40F20804C2F2000400252560FFF721
:103B10003FFC4EF63470CEF20000016841F04041A7
:103B20000160FEF76BFBFFF719FF0395206801307A
:103B30000AD044F6927045F21501C0F60000C0F6B6
:103B40000001EA2200F02CFD4FF0500080F31188B4
:103B5000BFF36F8FBFF34F8F03980028FCD0002076
:103B600004B0B0BD80B54FF0500080F31188BFF3B2
:103B70006F8FBFF34F8F00F0CFFA30B14EF6045085
:103B8000CEF200004FF080510160002080F31188D8
:103B900080BD000070B5D0B104460D46A0FB010108
:103BA000A9B905FB04F010F1490F10D84830FEF711
:103BB000F7FCC0B10646002D18BF483030603046D3
:103BC0000121C6E90F4500F011F8304670BD44F6FA
:103BD000927044F6A171C0F60000C0F600014FF4E7
:103BE000F27200F0DDFC002070BD000070B528B35B
:103BF0000546C06B70B30E46296C0024A0FB010182
:103C000049BBFFF7CFFB2868D5E90F12AC6302FB75
:103C10000103013901FB0201C5E90103FF20E9604D
:103C200085F8440085F8450005F110001EB3FFF744
:103C300073FB05F12400FFF76FFB2CE044F6927054
:103C400044F6A171C0F60000C0F600014FF497726F
:103C500000F0A6FC0024012058B144F6927044F60E
:103C6000A171C0F60000C0F6000140F2631200F03E
:103C700097FC204670BD016869B100F029FB50B186
:103C80004EF60450CEF200004FF080510160BFF3B9
:103C90004F8FBFF36F8FFFF7ABFB0124002000288D
:103CA000DBD1E6E72DE9F04F85B00C4605460492DE
:103CB00008B1DCB90CE044F6927044F6A171C0F68C
:103CC0000000C0F6000140F26B5200F069FC6CB9D4
:103CD000286C58B144F6927044F6A171C0F6000009
:103CE000C0F6000140F26F5200F05AFC019400F05F
:103CF000F9F968B9049858B144F6927044F6A17184
:103D0000C0F60000C0F6000140F2745200F048FC1A
:103D100005F1100A05F1240002AF0DF110094FF072
:103D2000000800900DE000BF2846FEF7FFFB00F002
:103D300041FBFFF737FBAC6BFFF75AFB002C00F0A1
:103D40008480FFF72FFBD5F838B0BBF1000F27D0E8
:103D50002A6C5AB1D5E902011144E960814224BFBD
:103D60002868E860E9680198FCF73CFAABF10100CB
:103D7000A863286970B1504600F0AAFA50B14EF617
:103D80000450CEF200004FF080510160BFF34F8F1E
:103D9000BFF36F8FFFF72CFB00200126A0B955E081
:103DA000049850B1B8F1000F02D13846FFF714FD66
:103DB0004FF00108012038B948E0FFF719FB002651
:103DC0000020002842D000BFFFF712FBFFF7BEFD26
:103DD000FFF7E8FA95F84400FF2804BF002085F8B3
:103DE000440095F84500FF2804BF002085F84500F1
:103DF000FFF7FEFA3846494600F02CF800287FF419
:103E000093AFFFF7CFFAAC6BFFF7F2FA2CB128466D
:103E1000FEF78CFB00F0CEFA93E704990098FFF7C9
:103E2000F1FC2846FEF782FB00F0C4FA00287FF47C
:103E300088AF4EF60450CEF200004FF08051016082
:103E4000BFF34F8FBFF36F8F7BE70026304605B07F
:103E5000BDE8F08F70B504460D46B8B35DB944F6C1
:103E6000927044F6BC71C0F60000C0F600014FF439
:103E70004F6200F095FBFFF795FA44F2D00EC2F2C4
:103E8000010EDEF8003029684A1C16D044F2280CD6
:103E9000C2F2010CD4E90002DCF80060864201D0D5
:103EA00093420CD29A1A914209D9881A2860DCF8F8
:103EB00000002060DEF800006060002402E00020C6
:103EC00001242860FFF794FA204670BD44F69270F2
:103ED00044F6BC71C0F60000C0F6000140F6EF42A7
:103EE00000F05EFB002DC6D1B9E700002DE9F047D8
:103EF00081469000984616460D46FEF751FB88B164
:103F000007464C20FEF74CFB48B14C210446FCF719
:103F100090F927634CB94FF0FF30BDE8F087384681
:103F2000FFF782FA0024002CF5D0206B089F00EBED
:103F30008600043820F007066DB104F1340000213A
:103F40006A5C42546A5C1AB10F2901F10101F7D190
:103F5000002084F84300DDF824A0202F0BD344F682
:103F6000927044F6BC71C0F60000C0F6000140F249
:103F7000923200F015FB251D28461F2F28BF1F2752
:103F8000E762FFF7D5F904F11800FFF7D1F9C7F19F
:103F90002000A06130464946424624616462FEF733
:103FA000CBFBBAF1000F206018BFCAF80040FFF742
:103FB000F9F943F6B470C2F20100016841F2E00A77
:103FC00001310160C2F2000ADAF8001044F29C09E3
:103FD00041F2F807C2F20109C2F2000761B1D9F853
:103FE0000000002840D1DAF80000E16AC06A884287
:103FF00098BFCAF8004037E0CAF8004000680128BE
:1040000032D10026B819FFF787F91436B6F5207FAC
:10401000F8D143F6F078C2F201084046FFF77CF988
:1040200044F20406C2F201063046FFF775F944F285
:104030003800C2F20100FFF76FF944F2BC00C2F28F
:104040000100FFF769F944F2A800C2F20100FFF78E
:1040500063F941F2E800C2F20000C0F8008041F2CA
:10406000F000C2F20000066043F6C070C2F2010028
:10407000016801260131016043F6C471E06AC2F2B1
:1040800001010A6806FA00F31A4300EB80000A6097
:1040900007EB80014A6861619368A260E3609368FE
:1040A00095605D6057F82010013147F82010FFF748
:1040B0009FF9D9F8000088B1DAF80000E16AC06A17
:1040C00088420AD24EF60450CEF200004FF08051E2
:1040D0000160BFF34F8FBFF36F8F01263046BDE8FD
:1040E000F087000044F29C00C2F201000068002842
:1040F00004BF0120704743F6BC70C2F201000068A3
:10410000B0FA80F0400940007047000044F2D0004F
:10411000C2F201000068704743F6BC70C2F20100B1
:10412000006840B144F23400C2F20100016801317C
:104130000160002070472DE9F04F81B044F2D000BB
:10414000C2F20100016844F2240511F1010AC2F231
:104150000105C0F800A02BD341F2E804C2F200042C
:104160002068006858B144F6927044F6BC71C0F6FD
:104170000000C0F6000140F6B72200F011FA41F24B
:10418000F001C2F2000120680A682260086044F26F
:104190002800C2F201000168013101602068006856
:1041A00018B12068C068006801E04FF0FF30286057
:1041B000286841F2F80E8245C2F2000E01D20020BA
:1041C0006EE041F2E80BC2F2000BDBF800004FF0AA
:1041D00000090068002858D043F6C47CC2F2010CE4
:1041E000002025E0D16ADCF8003001248C40234314
:1041F000CCF8003001EB81030EEB83046568546159
:10420000AF689560D760AF68AE607E605EF82320CF
:1042100001324EF8232041F2E002C2F2000212689D
:10422000D26ADBF80030914288BF0120196881B35F
:10423000DBF80020D268D268164656F8044FA24533
:1042400029D3D2E9023554699D60D4F80480D56839
:10425000B0456B6008BF6560C2F814902368013BED
:104260002360946A002CBDD0D2E9073561689D6057
:10427000156A02F11807B9426B6008BF6560C2F8A1
:104280002890216801392160ACE74FF0FF3400200D
:1042900005E04FF0FF3444F22405C2F201052C6022
:1042A00041F2E001C2F200010968C96A01EB810133
:1042B0005EF82110012944F2DC01C2F2010188BF3D
:1042C00001200968002918BF012001B0BDE8F08F66
:1042D00010B5C068C4685CB944F6927044F6BC710D
:1042E000C0F60000C0F6000140F6744200F058F934
:1042F000D4E90732A16A9A60486804F1180C226A6E
:1043000060454FF00000536008BF4A60A062086833
:104310000138086043F6BC70C2F20100006848B181
:1043200044F23801C2F201014868A1628268E0618A
:10433000226225E0D4E9023261699A604868E26845
:1043400004F1040C6045536008BF4A60086843F6F6
:10435000C47201380860E06AC2F2010201211368E8
:1043600081401943116041F2F80100EB8000C2F274
:10437000000101EB8001486861618268A060E26031
:104380008268C0F808C0C2F804C00868013008603C
:1043900041F2E001C2F20001E06A0968C96A88429C
:1043A00091BF002044F2DC01C2F20101012088BF6C
:1043B000086010BD2DE9F04F81B043F6BC74C2F225
:1043C0000104206858B944F6927044F6BC71C0F6F6
:1043D0000000C0F6000140F6850200F0E1F8FEF7AB
:1043E000E1FF206801382060206830B10024FEF72A
:1043F000FFFF204601B0BDE8F08F43F6B470C2F273
:10440000010000680028F1D044F2380AC2F2010A23
:10441000DAF8001044F2DC080029C2F2010868D082
:1044200043F6C47B41F2F80441F2E00E4FF0000C79
:104430004FF00109C2F2010BC2F20004C2F2000EF9
:10444000DAF80C10CE68D6E90721B76A916078686F
:10445000316A06F11805A8424A6008BF7960C6F8BB
:1044600028C0386801383860D6E902027169826074
:104470004A68F568371DBA42686008BF4D60086831
:1044800001380860F06ADBF8001009FA00F2114305
:10449000CBF8001000EB800104EB810255687261DB
:1044A000AB68B560F360AB68AF605F6054F8212023
:1044B000013244F82120DEF80010C96A884228BF82
:1044C000C8F80090DAF800000028B9D18EB141F2A6
:1044D000E800C2F200000168096819B10068C0680C
:1044E000006801E04FF0FF3044F22401C2F2010104
:1044F000086044F23404C2F20104256855B1012673
:10450000FFF70AFE002818BFC8F80060013DF7D188
:1045100000202060D8F8000000283FF467AF4EF676
:104520000450CEF200004FF080510160BFF34F8F76
:104530000124BFF36F8F5AE710B582B0FDF7EAFD93
:1045400044F2D400C2F20100006808B344F2D80C6F
:1045500042F2E920C2F2010C1F24C0F600000EA1B5
:104560004FF480720023CDE9004CFFF7BFFC0446F6
:104570005CB944F6927044F6D771C0F60000C0F6FC
:10458000000140F2191200F00BF8204602B010BDF5
:104590000024002CF9D1ECE7546D722053766300AF
:1045A0000FB4054B10B503A9044A029800F0E2F8D5
:1045B00010BC5DF814FB00009D1B000800000020EB
:1045C00002E008C8121F08C1002AFAD170477047DC
:1045D000002001E001C1121F002AFBD1704700003A
:1045E0002DE9FF5F82B00021DDE90430020DDDF826
:1045F00040B0034318D044F61050A2F2FF324243B9
:104600001514119801281FD0A5EB0B00401C5FEA80
:10461000000A4FF000064E4FDFF83891B046504682
:1046200015D5CAF1000413E0119801244AA301280A
:1046300001D16FEA0B010298119AC0E90031C0E97B
:10464000024206B0BDE8F09FCBF10000DFE7044670
:104650000021404A491842EB0450CDE9001012E015
:10466000E00707D032463B4640464946FCF771F822
:104670008046894632463B4610461946FCF769F8A3
:1046800006460F466410002CEAD1DDE90401DDE99D
:104690000023BAF1000F06DAFCF75BF842464B46FE
:1046A000FCF757F805E0FCF7C6F842464B46FCF726
:1046B000C2F804460E460022284BFCF7AFFA03D896
:1046C0004FF0FF30014607E00022254B20463146DF
:1046D000FBF798FFFCF78AFA102409E0002C0ADBAC
:1046E0000A220023FCF75BF9039B30321A55641E43
:1046F00050EA0102F2D1641C039AC4F1110314447C
:10470000119A012A03D0012208430DD10AE008437F
:1047100004D000204FF0110B119072E7A3EB0B05B2
:104720006D1E0DE05B4504DD4FF0000205F1010553
:1047300004E003DA4FF00002A5F10105002AECD0F5
:1047400002981199C0E90231C0E9004579E70000FB
:10475000000014400000F03F300000000000F04373
:104760000000E03F30380A2801D2012070470020C5
:10477000704700002DE9FF4F95B09B4689460646DD
:1047800000250FE2252877D100242746F84A012189
:10479000059400E0044316F8013F203B01FA03F0C2
:1047A0001042F7D130782A2811D06FF02F033078DB
:1047B000A0F13002092A16D8059A44F0020402EB4F
:1047C000820203EB42021044761C0590EFE759F891
:1047D000042B0592002A03DA504244F40054059059
:1047E00044F00204761C30782E2816D116F8010FFA
:1047F00044F004042A280DD06FF02F023078A0F185
:104800003003092B09D807EB870302EB4303C718D2
:10481000761CF3E759F8047B761C30786C280FD0AF
:1048200006DC4C2817D068280DD06A2814D104E083
:10483000742810D07A280FD10DE044F400140AE057
:1048400044F4801401E044F440147278824202D1AE
:1048500004F58014761C761C307866280BD013DCA7
:10486000582877D009DC002875D04528F6D046288E
:10487000F4D047281AD19DE118E0632835D0642888
:1048800079D0652812D195E1702873D008DC6728AB
:10489000F1D069286FD06E280DD06F2806D1B5E011
:1048A00073282CD0752875D0782874D05A4617995B
:1048B00090476D1C75E1C4F30250022809D003280B
:1048C0000DD0D9F8001004280DD00D6009F10409AD
:1048D00067E1D9F80010EA17C1E90052F6E7D9F804
:1048E00000100D80F2E70D70F0E719F8041B8DF849
:1048F000001000208DF80100EA46012003E059F87D
:1049000004AB4FF0FF3061074FF0000102D40DE01F
:1049100008F101018846B9420FDA8045F8DB1AF840
:1049200008100029F4D108E008F10101884681420D
:10493000FADB1AF808100029F6D105985B46A0EBBF
:10494000080721463846179A00F094FA284400EBED
:10495000080507E04DE029E10DE01AF8010B5A4681
:1049600017999047B8F10108F7D25B4621463846BF
:10497000179A13E142E00A220092C4F302524FF068
:10498000000A022A08D059F804CB032A4FEAEC7136
:104990000AD00DE029E02AE009F1070121F0070221
:1049A000F2E802C1914609E00FFA8CFC4FEAEC7183
:1049B000042A03D14FFA8CFC4FEAEC71002907DA84
:1049C0000A460021DCF1000C61EB02012D2202E01D
:1049D000220504D52B228DF80420012203E0E207F2
:1049E00001D02022F7E7904659E00A2102E0102288
:1049F0000DE010214FF0000A00910BE010224FF063
:104A0000000A44F004040827009203E008224FF053
:104A1000000A0092C4F30252022A05D059F804CBCE
:104A20000021032A08D009E009F1070121F007025B
:104A3000F2E802C1914605E01FFA8CFC042A01D17C
:104A40000CF0FF0C4FF00008220728D5702806D084
:104A5000009B83F0100353EA0A0305D00EE04022C6
:104A60008DF80420012208E05CEA010206D0302221
:104A70008DF804208DF8050002229046009B83F0FB
:104A8000080353EA0A030AD15CEA010201D1620772
:104A900005D530228DF804204FF001087F1E5828DC
:104AA00004D034A003900EA802900DE036A0F9E7E0
:104AB00053466046009AFBF772FF84460398825C77
:104AC0000298401E029002705CEA0100F0D1029848
:104AD00006A9081A00F1200A600702D524F48034E0
:104AE00000E00127574502DDA7EB0A0000E00020A7
:104AF00000EB0A01009005984144401A0590E0033C
:104B000006D45B462146179A059800F0B3F9054490
:104B1000002706E001A85A46C05D179990476D1C12
:104B20007F1C4745F6DBE0030CD55B462146179A10
:104B3000059800F09FF9054404E030205A46179983
:104B400090476D1C0099481E00900029F5DC08E094
:104B5000029802995A460078491C02911799904789
:104B60006D1CBAF10001AAF1010AF1DC65E1000057
:104B70000928010030313233343536373839616233
:104B800063646566000000003031323334353637F7
:104B900038394142434445460000000000F058F9CE
:104BA0000544761C307800287FF4ECAD19B0284617
:104BB000BDE8F08F620700D4062709F1070222F052
:104BC000070CFCE80223E14603F000485FEA080C0A
:104BD00002D00FF2702C0DE05FEA045C02D50FF2F8
:104BE000682C07E05FEAC47C02D00FF2602C01E081
:104BF000AFF2700C4FF0FF3823F00043CDF850C0F7
:104C000065280CD006DC452809D046281DD0472849
:104C10003DD13DE0662818D067287ED138E00021DC
:104C2000112F01DB112000E0781CCDE9000106A95D
:104C30000EA8FFF7D5FCDDE90F010E9A03910021C4
:104C4000009207F1010A04914DE04FF000400097F7
:104C5000CDE9011006A90EA8FFF7C2FCDDE90F029D
:104C600003920E9B11990022DDF80CA00093049290
:104C700011B9791C00EB010AB7EB0A0004D4C0F1AA
:104C8000FF3007F1010A0490AAEB0700019044E00D
:104C9000012F00DA01270021112F01DD112000E092
:104CA0003846CDE9000106A90EA8FFF799FCDDE919
:104CB0000F010E9A0391002104910092BA46210738
:104CC0000CD40399514500DA8A46BAF1010F05DD8B
:104CD000009AAAF10101515C302908D0B84202DAE9
:104CE00010F1040F06DA0121CDE9011015E0AAF157
:104CF0000101E9E7002805DC049901440491AAEBCD
:104D0000000102E0411C514500DD8A460499401A29
:104D1000401C01904FF000400290200704D40198FD
:104D2000504501DBCDF8048000208DF84F0002983B
:104D30000DF14F07B0F1004F25D02B200E900298B7
:104D40004FF0020800280CDA404202902D200E900D
:104D500007E00A210298FBF70CFE3031029007F8B9
:104D6000011DB8F10001A8F10108F2DC0298002849
:104D7000EFD1791E0E980870307800F0200040F0D6
:104D8000450007F8020D12A8C01B00F1070814988F
:104D9000007800B1012000EB0A01019801EBE071FD
:104DA00005984144401A401E0590E00306D45B4636
:104DB0002146179A059800F05DF80544149800788C
:104DC00018B15A46179990476D1CE00324D55B46ED
:104DD0002146179A059800F04DF805441CE0049808
:104DE000002807DBDDE90301884203DD0098405C11
:104DF000179901E0179930205A469047049805F119
:104E00000105401C04900198401E019004D12E2001
:104E10005A46179990476D1CBAF10001AAF1010A90
:104E2000DDDC05E017F8010B5A46179990476D1C19
:104E3000B8F10001A8F10108F4DC5B462146179A9D
:104E40000598ABE62D0000002B00000020000000BC
:104E50002DE9F041044600251E461746880404D477
:104E600005E039462020B0476D1C641EF9D5284660
:104E7000BDE8F0812DE9F041044600251E4690462C
:104E8000C80301D5302700E02027880404D505E0B9
:104E900041463846B0476D1C641EF9D52846BDE82A
:104EA000F081000010B5044601E0FCF777FE14F82D
:104EB000010B04490028F8D1BDE810400A20FCF796
:104EC0006DBE000000000020DDDDDDDDDCBBBBDDF4
:104ED000DDDDDDDDDDDDDDDD98888888888888889A
:104EE00077777777778888888555555666666666BA
:104EF0006666666666688888833333322222222299
:104F0000222222222228888D0000000001020304B0
:104F10006D6F746F72325F6B643A25660D0A0072B2
:104F20006F6C6C5F6B643A25660D0A006D6F746F71
:104F300072315F7461726765743A25660D0A006D9F
:104F40006F746F72325F7461726765743A25660DB3
:104F50000A0070697463685F7461726765743A25EA
:104F6000660D0A00726F6C6C5F7461726765743AEB
:104F700025660D0A002566006B65792072656C65F3
:104F8000617365210D006B65792070726573732103
:104F90000D004572726F723A25732C2025640D0A3C
:104FA000002E2E2F4672656552544F532F536F7546
:104FB0007263652F71756575652E63002E2E2F4601
:104FC00072656552544F532F536F757263652F741A
:104FD00061736B732E63002E2E2F467265655254DB
:104FE0004F532F536F757263652F74696D657273BC
:104FF0002E63002E2E2F4672656552544F532F504C
:105000006F72742F4D656D4D616E672F68656170AD
:105010005F342E63002E2E2F4672656552544F5317
:105020002F506F72742F4743432F41524D5F434DB2
:1050300034462F706F72742E630000001F00000052
:10504000605000080000002010000000C04500086B
:105050007050000810000020D0440100D045000826
:1050600000000000001C4E0EAAAAAAAA0000000020
:04000005080001AD41
:00000001FF
