:020000040800F2
:10000000D0450120C1010008C1190008691100088C
:10001000E9170008ED100008792100080000000031
:10002000000000000000000000000000D11A0008DD
:100030001911000800000000F1190008611B0008F8
:10004000DB010008DB010008DB010008DB01000820
:10005000DB010008DB0100081D110008DB010008BE
:10006000DB010008DB010008DB010008DB01000800
:10007000DB010008DB010008DB010008DB010008F0
:10008000DB010008DB010008DB010008DB010008E0
:10009000DB010008DB010008DB010008DB010008D0
:1000A000DB010008DB010008DB010008DB010008C0
:1000B000E51C0008251D0008DB010008DB01000825
:1000C000DB010008DB010008DB010008DB010008A0
:1000D000DB010008951D0008DB010008DB010008BA
:1000E000DB010008DB010008DB010008DB01000880
:1000F000DB010008DB010008DB010008DB01000870
:10010000DB010008DB010008DB010008DB0100085F
:10011000DB010008DB010008651D0008DB010008A9
:10012000DB010008DB010008F1100008DB0100081A
:10013000DB010008DB010008DB010008DB0100082F
:10014000DB010008DB010008DB010008DB0100081F
:10015000DB010008DB010008DB010008DB0100080F
:10016000DB010008DB010008DB010008DB010008FF
:10017000DB010008DB010008DB01000800000000D3
:10018000DB010008DB010008DB010008DB010008DF
:10019000DB010008DB010008DB01000800000000B3
:1001A000DB010008DB010008DB010008DFF80CD0F0
:1001B00000F072FD0048004785300008D04501205E
:1001C0000648804706480047FEE7FEE7FEE7FEE7F1
:1001D000FEE7FEE7FEE7FEE7FEE7FEE7851B000819
:1001E000AD01000810B5431A934209D2831888184C
:1001F00003E010F8011D03F8011D521EF9D210BDD5
:1002000040EA01039B0703D009E008C9121F08C098
:10021000042AFAD203E011F8013B00F8013B521E18
:10022000F9D210BDD2B201E000F8012B491EFBD279
:1002300070470022F6E710B513460A4604461946F1
:10024000FFF7F0FF204610BD30B505462A460B46A5
:1002500012F8010B13F8014B08B1A042F8D01CB101
:10026000002802D06D1CF1E7284630BD30B50446A9
:100270000020034600E05B1C934203D2E05CCD5CAF
:10028000401BF8D030BD00000FB400B58DB010A9F0
:1002900009900B9000914FF0FF300A9000200C90D5
:1002A00005480690054807906A4609A80F9900F08E
:1002B000DDFB0DB05DF814FB890A0008A70A0008F1
:1002C0002DE9FF4F087883B09946FF2805D0491CD7
:1002D0002D2804D00024002008E000200BE0012499
:1002E000F9E700EB800003EB4000491C0B78FF2B83
:1002F000F7D104B1404200230293147819461D46F9
:100300002D2C01D02B2C04D1521C2D2C13D00024C9
:100310000294AA461478FF2C0FD00A25A3FB057877
:1003200001FB05814FF0000C03FB0C11521CE3197B
:100330004AEB0101EEE70124EAE7814453EA0100B8
:1003400002D019F5C87F06DA03980021C0E9001130
:1003500007B0BDE8F08F0025AE4E2F46DFF8B8821B
:10036000184600F045FCCDE90001B9F1000002DAC1
:10037000C9F1000400E004460023A74A1AEB030B6E
:1003800042EB045A12E0E00707D02A4633463846CB
:10039000414600F0ECF9074688462A4633461046A7
:1003A000194600F0E4F905460E466410002CEAD127
:1003B000DDE90001B9F1000F5A46534606DA00F0B4
:1003C00048FA3A46434600F044FA05E000F0CFF917
:1003D0003A46434600F0CBF9029A0AB181F0004157
:1003E000039AC2E90001B3E72DE9FF4F1F468DB024
:1003F000D7E901464FF0FF382E2045464FF000095F
:100400000B90B9696D1C0E988847396A82468847F7
:100410000028F6D1BAF1FF3F0AD024F4D064002EB0
:1004200011DDBAF12B0F08D0BAF12D0F0BD102E07C
:10043000404611B08DE744F48064B9696D1C0E9894
:1004400088478246761E6946600501D52D2000E06A
:100450002B208DF8000001F1010B0DF1200809E0BF
:10046000B9696D1C0E98884782460F9844F4007451
:10047000761E0560002E02DDBAF1300FF0D00B9928
:100480008A453ED144F0800406E00F99681CA9F12A
:10049000010944F400740860B9696D1C761E0E9859
:1004A000884782463028F0D02BE00B998A4505D149
:1004B000200603D444F08004761E18E0504607F06E
:1004C0006FF908B30DF11302761EAAF1300044F45F
:1004D0000074934506D20BF8010B200607D5A9F14D
:1004E000010003E0200602D409F101008146A005C5
:1004F00002D50F99681C0860B9696D1C0E98884771
:100500008246002ED1DC53E0002E51DDBAF1650F9A
:1005100002D0BAF1450F4BD1A00549D5B9696D1C80
:1005200024F44074761E0E9888478246002E0CDD17
:100530002B2804D0BAF12D0F07D144F48074B96987
:100540006D1C0E9888478246761EE00501D52D2148
:1005500000E02B2108F8011BCDF82C8021E00DF1E3
:100560002901761E44F4007488450CD2AAF13000AB
:1005700010F0FF0088F8000002D10B99884509D9D6
:1005800008F1010806E0E00501D5244801E042F247
:100590000F708146B9696D1C0E98884782460F9886
:1005A0000560002E04DD504607F0FAF80028D6D189
:1005B000F9690E988847FF208BF8000088F8000042
:1005C0000020069007904B466A4608A906A8FFF748
:1005D00077FEA00502D46FF001002AE714F0240F83
:1005E0000AD0E00714D1DDE906123868031D3B602C
:1005F0000068C0E900120BE0DDE9060100F0ABF98C
:100600000146E00704D13868021D3A6000680160C5
:1006100028460EE7000014400000F03FF1D8FFFF2D
:100620002DE9FE4F804681EA0300C00F0C46009082
:1006300021F0004123F00045B8EB0200A94105D2AA
:100640004046214690461C460B46024623F0004099
:10065000104347D0270DC7F30A00C3F30A51029095
:10066000401A019040286BDAC3F3130040F4801B5A
:100670000098924620B10023D2EB030A63EB0B0BE8
:1006800001985946C0F14002504600F0C7F90646AD
:100690000D4650465946019A00F0CFF910EB08007C
:1006A0006141002487EA115284EAE7731A4340D07B
:1006B000009A62B3019A012A4FEA075215DC001B27
:1006C00061EB02014FF0004202EA0752CDE900421D
:1006D000001C41F5801132462B4600F03BFA03B076
:1006E000BDE8F08F40462146F9E7001B61EB0201AF
:1006F000001C41F5801300185B412018A2F500177B
:1007000047EB030140EAD570B6196D4111E06D0861
:100710004FEA360645EAC0754FEA0752001B61EB07
:100720000201001C41F5801149084FEA3000001910
:10073000514132462B4603B0BDE8F04F00F0FBB903
:100740000098012240000023D0EB020263EBE0732B
:10075000009821464FEAE074B8EB000061EB040119
:10076000E9E783F000435BE781F0004158E72DE9BA
:10077000FE4F81EA030404F0004421F0004100949C
:100780004FF0000B23F0004350EA01045ED052EA20
:1007900003045BD0C3F30A54C1F30A552C44A4F2FA
:1007A000F3340194A0FB0254C1F3130141F480110E
:1007B000C3F3130343F4801301FB024400FB034E15
:1007C000840A970A44EA815447EA8357A4FB0768DE
:1007D00002958D0A05FB07854FEA932C04FB0C5408
:1007E0002705029D4FEA065847EA1637B5EB08057C
:1007F0006EEB070C870E920E47EA811742EA8312CE
:10080000A7FB0201B6EB0B0164EB00042B0D43EADE
:100810000C335E1844EB1C50DA465146E7FB0201EC
:10082000C5F313044FEA0B3343EA14534FEA04327F
:10083000019C43EA0603A4F10C040294009CCDE958
:1008400000B400F087F903B0BDE8F08F0020014646
:10085000F9E72DE9F04D81EA030404F0004B21F0A3
:10086000004514464FF0000A23F0004150EA05020B
:1008700020D054EA01021DD0C5F30A570246C5F341
:100880001303C1F31300C1F30A5640F4801543F477
:100890008013A7EB0608101BD64608F2FD3873EB51
:1008A000050002D308F1010801E092185B41B8F19C
:1008B000000F03DA00200146BDE8F08D00204FF460
:1008C0008011064684460EE0171B73EB050705D31F
:1008D000121B63EB050306434CEA010C49084FEA7F
:1008E000300092185B4150EA0107EDD152EA030053
:1008F00012D082EA040083EA0501084305D0101BE8
:10090000AB4106D20122002306E000224FF0004353
:1009100002E06FF0010253101AEB06004CEB085195
:1009200010EB0A0041EB0B01BDE8F04D00F003B9FC
:1009300000F0004230F000400AD0C10D01F56071B6
:10094000C0F3160042EA0151C20840071143704744
:1009500000200146704701F0004330B421F000410F
:1009600050EA010206D00A0DA2F56072C1F313012C
:10097000002A02DC30BC00207047440F44EAC10466
:10098000C100E01830BC00EBC25000F09DB830B59B
:100990000B46014600202022012409E021FA02F53D
:1009A0009D4205D303FA02F5491B04FA02F52844D7
:1009B000151EA2F10102F1DC30BD2DE9F05F054604
:1009C000002092469B4688460646814640241BE00E
:1009D000284641464746224600F076F953465A4695
:1009E000C01A914110D311461846224600F016F85D
:1009F0002D1A67EB01084F4622460120002100F026
:100A00000DF817EB00094E41201EA4F10104DFDCB4
:100A1000484631462A464346BDE8F09F202A04DB7B
:100A2000203A00FA02F1002070479140C2F1200301
:100A300020FA03F3194390407047202A06DBCB17B6
:100A4000203A41FA02F043EAE07306E041FA02F389
:100A5000D040C2F12002914008431946704700007F
:100A6000026811441378016018467047D160044948
:100A700051610449116200211161114600F03AB937
:100A8000610A0008E90C0008426842B1016811F8E7
:100A9000013B23B1521EC0E90012184670470121E4
:100AA000C160881E704742685AB1C368016843B983
:100AB00083688B4205D0491E521CC0E900120020F9
:100AC00070474FF0FF3070470029A8BF7047401CA7
:100AD000490008BF20F00100704710B4B0FA80FC54
:100AE00000FA0CF050EA010404BF10BC704749B191
:100AF000CCF1200421FA04F411FA0CF118BF012101
:100B000021430843A3EB0C01CB1D4FEA00614FEAE0
:100B1000102042BF002010BC704700EBC3501044AF
:100B20000029A4BF10BC7047401C490008BF20F03A
:100B3000010010BC704710B5141E73F1000408DAF0
:100B4000401C41F1000192185B411A4301D120F091
:100B5000010010BD2DE9F04D92469B4611B1B1FA4E
:100B600081F202E0B0FA80F220329046FFF756FFA1
:100B700004460F4640EA0A0041EA0B0153465A4632
:100B8000084313D0114653EA010019D0C8F14002BE
:100B9000504600F099F805460E46504659464246E2
:100BA000FFF73CFF084305D0012004E0204639460A
:100BB000BDE8F08D0020054346EAE0762C4337433C
:100BC0000A986305E40AA0EB08000022FD0A44EA43
:100BD00047540A3002D500200146E9E70105101903
:100BE0006941DDE9084500196941BDE8F04DA2E71A
:100BF0000EB540F2334202920022CDE900221346A4
:100C0000FFF7A8FF03B000BDC1F30A52C1F31301FF
:100C100040F2FF3341F480119A4202DA002001468B
:100C2000704740F233439A42A2F2334202DC52420E
:100C300000F04AB8FFF7F2BE30B5041E71F10004AF
:100C400004DB4FF00044404264EB0101141E73F1D9
:100C5000000405DB1C464FF00043524263EB0403E3
:100C60008B4208BF824230BD30B5041E71F10004D2
:100C700004DB4FF00044404264EB0101141E73F1A9
:100C8000000405DB1C464FF00043524263EB0403B3
:100C9000994208BF904230BD1CB5094800900948F0
:100CA00001900546009C06E0E06840F0010394E8EE
:100CB000070098471034AC42F6D3FFF77BFA0000E8
:100CC000D48E0008F48E0008202A04DB203A21FA92
:100CD00002F00021704721FA02F3D040C2F1200255
:100CE0009140084319467047C0B24FF4F05100F0EC
:100CF000E9B900002DE9F34F8BB04FF0000801F186
:100D00000C000C464FF0010B46460DF1080A01900D
:100D10006269012101989047051E2DD0252D2CD008
:100D2000216A8847C0B16269012101989047216A10
:100D300088470028F7D1411E62690198904700E07A
:100D4000761CA1690B988847216A88470028F7D14B
:100D5000E1690B988847DBE7A1690B98884707464C
:100D6000A84201D1761CD3E7E1690B9888477F1C24
:100D700002D1B8F1000F6FD046E1002762693D460D
:100D80003946019890472A2804D1626901210198C7
:100D900090470125DFF8849262690121019890470C
:100DA000A0F130010A290AD24F45E5DC07EB8701A3
:100DB00000EB4107303FDFD445F01005ECE7E906D2
:100DC00001D46FF000476C280AD04C2814D0682852
:100DD00015D06A280DD074281CD07A281AD01DE0AE
:100DE00062690121019890476C2802D045F0040502
:100DF00014E045F002050DE045F020050AE06269C7
:100E0000012101989047682802D045F0080505E0C7
:100E100045F400656269012101989047C4E90157D2
:100E200065283DD019DC58287AD00CDC452837D00D
:100E300004DC252826D0412831D131E046282FD0A6
:100E400047282CD12CE05B2877D0612828D0632854
:100E50007CD0642823D15AE0D0E06F2848D008DC49
:100E600066281DD067281BD0692821D06E2816D18E
:100E700027E0702845D0732868D0752847D0782897
:100E80000DD14DE0A1690B988847054625283FF410
:100E900069AFE1690B9888476D1C3FF46AAFB3E016
:100EA00023466A466FF001000B99FFF79DFA9EE01A
:100EB00045F040006060A80723464FF0000236D49A
:100EC0003EE0E8077FF447AF2068011D216000681D
:100ED000290501D506701BE7290701D5068017E70C
:100EE000A90703D5F117C0E9006111E706600FE714
:100EF00045F040006060A80723464FF0080216D472
:100F00001EE040F60E0125EA0100606016E045F0A3
:100F100040006060A80723464FF00A0207D40FE0A4
:100F200045F040006060A80708D5234610226FF006
:100F300001000B99AFF3008059E007E0234610222F
:100F40006FF001000B99AFF3008050E04FF0000903
:100F50004F464B46632802D05B2806D040E0E806A7
:100F600001D40120A06001273AE0626901210198C3
:100F700090475E2805D14FF0010962694946019802
:100F80009047216939B900210A46534643F8212088
:100F9000491C0829FADBB0B3216969B9C11700EB14
:100FA000D16253110AEB830122F01F02821A012041
:100FB0000B68904003430B606269012101989047E0
:100FC0005D28E8D1B9F1000F09D00020514651F851
:100FD0002020D24341F82020401C0828F7DB02AB38
:100FE000224600976FF001000B99AFF300800028B4
:100FF0000CDA401C08D1BBF1000F05D04FF0FF30D8
:101000000DB0BDE8F08FFFE74046F9E7E90701D1F1
:1010100008F1010806444FF0000B79E6CCCCCC0C6B
:101020002DE9F04D00231A461B1A8A4103DB0020EC
:101030000146BDE8F08DC1F30A52C1F3130141F43A
:1010400080154FF0000BD10702D100186D41521EE0
:101050000027044640F2FF11384601EB620A3E4683
:101060008046024600204FF48011FFF72DFEC21982
:101070007141BB1846EB0100B4EB030C75EB000C9F
:1010800004D3E41A65EB000517460E46241908F14F
:1010900001006D4180463428E3DDF91946EB060076
:1010A000091BA84103D24FF0FF32134601E0002292
:1010B00013461BEB070046EB0A51BDE8F04DFFF766
:1010C0003ABD00007F2801D9002208E0064A02EB61
:1010D0005002C007127800D1120902F00F0201205D
:1010E000904008407047000090800008FEE7000034
:1010F00010B546F20044C4F2020420460221202228
:1011000001F018FA012818BF10BD20460221202244
:10111000BDE8104001F0F2B9FEE7000010B5012073
:1011200001F05AFE012818BF10BD0024C4F20204C9
:101130002046012101F0E0FE012809D104F54060BC
:10114000802101F0D1FE48F67150C0F6000003E0A6
:1011500048F66350C0F6000006F0D6FE0120BDE858
:10116000104001F033BE0000FEE70000B0B540F2D1
:101170000044C4F2020420464FF40071002201F042
:10118000B5FE20464FF48071012201F0AFFE2046EB
:10119000002101224FF4807301F0B4FE20464FF489
:1011A0000071012201F0A2FE20464FF4807101F08F
:1011B000A3FE012810D10A250520013D01F080F988
:1011C00020464FF4807101F097FE01284FEA056038
:1011D00001D10028F0D178B120464FF400710022EF
:1011E000002501F083FE2046012101224FF4807387
:1011F00001F088FE2846B0BD2046012101224FF4AF
:101200008073012501F07EFE20464FF4007100221C
:1012100001F06CFE20464FF48071002201F066FE62
:1012200020464FF40071012201F060FE052001F01C
:1012300047F920464FF48071012201F057FE052046
:1012400001F03EF92846B0BDB0B540F20044C4F20A
:10125000020405462046012101224FF4807301F06B
:1012600051FE20464FF40071002201F03FFE20465F
:101270004FF48071002201F039FE052001F020F9C1
:10128000002D18BF012520464FF480712A4601F039
:101290002DFE20464FF40071012201F027FE0520AB
:1012A00001F00EF920464FF40071002201F01EFEFD
:1012B00020464FF480710122BDE8B04001F016BE17
:1012C00040F60044C4F2020420468021012201F0CD
:1012D0000DFE4FF4FA7004F0BFFB2046802100227F
:1012E00001F004FE4FF4FA7004F0B6FBECE70000E6
:1012F00010B582B004460DF1020368204321062296
:1013000000F0D8F808B102B010BDBDF80200BDF879
:10131000041000BA000C208008BABDF80610000CBA
:10132000608008BA000CA08002B010BDB0B582B0D9
:1013300040F6014003F0B8FB40F6014003F0B4FB77
:1013400040F20044C4F202042046012100224FF47E
:101350000073002501F0D6FD2046002102224FF443
:10136000007301F0F9FD2046012100224FF4807343
:1013700001F0C8FD2046002102224FF4807301F0E5
:10138000EBFD0A2001F06CF868206B21012280231C
:1013900000F054F9642001F063F868206B21012209
:1013A000002300F04BF968201B210122182300F0D4
:1013B00045F968201C210122002300F03FF9132089
:1013C0008DF802000DF1020368201921012200F0BE
:1013D00035F98DF8020004208DF803000DF10303A8
:1013E00068201A21012200F029F968203821012201
:1013F000002300F023F968206A210122002300F075
:101400001DF9682023210122002300F017F968202C
:1014100037210122802300F011F901AB68207521EA
:101420000122ADF8045000F045F8014648F6C950D5
:10143000C0F6000005F0E6FB9DF80440682C0AD1D8
:1014400048F6D250C0F60000682105F0DBFB682C9E
:1014500009D000242AE048F6E450C0F6000005F068
:10146000D1FB682CF5D168206B21012201230124D6
:1014700000F0E4F868206C210122002300F0DEF87F
:1014800013208DF806000DF10603682019210122B2
:1014900000F0D4F88DF8060004208DF807000DF157
:1014A000070368201A21012200F0C8F8204602B084
:1014B000B0BD00002DE9F04740F20044C4F2020440
:1014C000994690468A4605462046012101224FF45E
:1014D0008073012701F016FD20464FF400710122B0
:1014E00001F004FD20464FF48071002201F0FEFC63
:1014F00020464FF48071012201F0F8FC052000F035
:10150000DFFF20464FF48071002201F0EFFC052040
:1015100000F0D6FF20464FF40071002201F0E6FCF7
:101520006E00F0B200F0E6FAFFF720FE38B1204678
:10153000012101224FF4807301F0E4FC0EE05046DB
:1015400000F0D8FAFFF712FE0546204601210122DD
:101550004FF4807301F0D6FC0DB3022720464FF400
:101560000071002201F0C2FC20464FF4807100227D
:1015700001F0BCFC20464FF40071012201F0B6FCE2
:10158000052000F09DFF20464FF48071012201F0FC
:10159000ADFC052000F094FF3846BDE8F0872046FA
:1015A0004FF40071012201F0A1FC20464FF480713C
:1015B000002201F09BFC20464FF48071012201F0D3
:1015C00095FC052000F07CFF20464FF4807100223E
:1015D00001F08CFC052000F073FF20464FF40071F1
:1015E000002201F083FC46F00100C0B200F082FA54
:1015F000FFF7BCFD08B1032799E7B8F1020F12D33A
:10160000C8F100064FF0FF3500F024FA09EB0501A0
:1016100048700020FFF718FE0136701C05F1010527
:10162000F2D1013500E0002500F014FA09F80500B8
:101630000120FFF709FE002779E700002DE9F041BE
:1016400040F20044C4F202041D461646884607468E
:101650002046012101224FF4807301F053FC204603
:101660004FF40071012201F041FC20464FF48071DB
:10167000002201F03BFC20464FF48071012201F072
:1016800035FC052000F01CFF20464FF4807100223D
:1016900001F02CFC052000F013FF20464FF40071F0
:1016A000002201F023FC7800C0B200F023FAFFF71B
:1016B0005DFD40B32046012101224FF480730125D6
:1016C00001F020FC20464FF40071002201F00EFCD6
:1016D00020464FF48071002201F008FC20464FF4B0
:1016E0000071012201F002FC052000F0E9FE204615
:1016F0004FF48071012201F0F9FB052000F0E0FEBB
:10170000E8B2BDE8F081404600F0F4F9FFF72EFDA5
:1017100040B32046012101224FF4807301F0F2FB17
:1017200020464FF40071002201F0E0FB20464FF408
:101730008071002201F0DAFB20464FF40071012293
:1017400001F0D4FB052000F0BBFE20464FF4807171
:10175000012201F0CBFB052000F0B2FE0225E8B229
:10176000BDE8F0814EB10027E85D00F0C3F9FFF756
:10177000FDFC78B90137BE42F6D120460121012295
:101780004FF4807301F0BEFB20464FF4007100223D
:1017900000259BE72046012101224FF4807301F0D0
:1017A000B1FB20464FF40071002201F09FFB204660
:1017B0004FF48071002201F099FB20464FF4007134
:1017C000012201F093FB052000F07AFE20464FF441
:1017D0008071012201F08AFB052000F071FEFD1CE2
:1017E000E8B2BDE8F0810000FEE700004FF0804065
:1017F00003F044BC40F20040C4F2000003F03EBCE1
:101800002DE9F04186B04FF4406003F04DF940F609
:10181000014003F049F940F6024003F045F940F673
:10182000024003F041F940F20044C4F2000404F520
:10183000FE352846022100224FF400434FF00008F5
:1018400001F060FB04F5003738460221002208232E
:1018500001F058FB04F501363046022100224023F6
:1018600001F050FB304602210022802301F04AFBA8
:10187000284601214FF4004201F0FEFA38460121CA
:10188000082201F0F9FA30460221402201F0F4FA70
:1018900030460221802201F0EFFA4FF4805003F02D
:1018A00003F94FF0807003F02FF94FF0804003F000
:1018B000E9FB4FF4C67602A94FF0804004968DF8FC
:1018C0001480CDE9028803F087FC4FF080400321AB
:1018D0000022002303F096FD6D46284603F090FA9F
:1018E0000A274FF0804000212A46ADF8067003F029
:1018F000C9FC4FF0804001212A4603F0C3FC1C20A4
:101900000221022202F092FC4FF08040012103F0FC
:1019100065FD4FF08040012103F064FD4FF08040F1
:10192000002103F0ADFB4FF0804003F063FA4FF06D
:10193000804003F04BFC41F2010003F0B5F84FF09A
:10194000807003F0E1F8204603F09CFB02A92046DA
:1019500004968DF81480CDE9028803F03DFC204602
:1019600003210022002303F04DFD6D46284603F0BD
:1019700047FA204600212A46ADF8067003F082FCA3
:10198000204601212A4603F07DFC1D20022102226F
:1019900002F04CFC2046012103F020FD20460121ED
:1019A00003F020FD2046002103F06AFB204603F0EF
:1019B00021FA204603F00AFC06B0BDE8F0810000E1
:1019C000FEE70000002180ED000AC0E90111C0E936
:1019D000071180ED092AC0ED0A2A1030C0EC030A75
:1019E0007047000000000000000000000000000040
:1019F000EFF30980BFF36F8F154B1A681EF0100FBD
:101A000008BF20ED108A20E9F04F10602DE9090091
:101A10004FF0500080F31188BFF34F8FBFF36F8FEB
:101A200004F0D4F94FF0000080F31188BDE80900FC
:101A300019680868B0E8F04F1EF0100F08BFB0EC4E
:101A4000108A80F30988BFF36F8F704700BF00BF13
:101A5000E011002070B540F20044C4F202042046B8
:101A6000002101224FF48073002501F04BFA00267B
:101A700020464FF40071002201F038FA052000F0F2
:101A80001FFD20464FF40071012201F02FFA0520BE
:101A900000F016FD20464FF4807101F02DFA002869
:101AA00018BF012040EA4505052000F009FD072E7A
:101AB00006F10106DCD320464FF40071002201F04C
:101AC00015FAE8B270BD0000000000000000000040
:101AD000074B19680868B0E8F04F80F30988BFF336
:101AE0006F8F4FF0000080F31188704700BF00BF78
:101AF000E011002070B540F20045C4F20205044632
:101B00002846012101224FF4807301F0FBF9284699
:101B10004FF40071002201F0E9F90826E0B2C20991
:101B200028464FF4807101F0E1F9012000F0C8FC73
:101B300028464FF40071012201F0D8F9052000F089
:101B4000BFFC28464FF40071002201F0CFF90520B8
:101B500000F0B6FC013E4FEA4404DFD170BD000046
:101B600080B504F0F1FD012807D141F28C40C2F2AA
:101B7000000001680131016080BDBDE8804004F0D3
:101B800029BA000081B04EF68851CEF200010A68F1
:101B900043F6080042F47002C4F202000A6050F8F2
:101BA000081C41F0010140F8081C00BF50F8081C57
:101BB0008907FBD5016841F0800101600021009197
:101BC000009A4F2A06D800BF009A01320092009A6C
:101BD000502AF9D3026842F0900202600091009905
:101BE0004F2905D800990131009100995029F9D366
:101BF00001684FF6FF7221F00301016050F8081CE4
:101C0000CFF6F662114040F8081C50F8081C4FF05F
:101C1000000C21F4802140F8081CC0F800C00268C4
:101C200043F21002C2F2004240F8042CC0F804C093
:101C300050F8082C42F4803240F8082C4FF6FE721F
:101C400050F8081C013A4CF10003890302D4002B20
:101C5000F6D100BF50F8081C8903FBD5826B47F210
:101C6000000142F08052C4F2000182630A6842F42B
:101C700040420A6002680260026842F40042026068
:101C8000026842F4A052026047F61902C0F64022F0
:101C900040F8042C50F8082C42F0807240F8082CD0
:101CA00050F8082C9201FBD50A6842F480320A6091
:101CB0004A68D203FCD50A6842F400320A6000BFC9
:101CC0004A689203FCD5016821F0030101600168B4
:101CD00041F00201016000BF01680907FCD501B0B5
:101CE0007047000010B54FF0804001214FF0804454
:101CF00003F07CFB012818BF10BD206841F254128C
:101D0000C2F200021168C0064FF0FF3058BF012038
:101D100043184FF0804001211360BDE8104003F0EC
:101D200061BB000010B540F20044C4F2000420463C
:101D3000012103F05BFB012818BF10BD206841F2B0
:101D40009812C2F200021168C0064FF0FF3058BF6F
:101D500001204318204601211360BDE8104003F024
:101D600041BB000010B541F20004C4F2000420465B
:101D7000012103F03BFB012818BF10BD20460121C3
:101D800003F030FB04F5FE308021BDE8104001F087
:101D9000ABB800002DE9F04184B041F2000440F2FC
:101DA0000435C4F20104C0F2040505F10111204616
:101DB00003F0A2FC41F2461740F244180128C2F297
:101DC0000007C2F2000840F06081204603F0A2FB49
:101DD00039884A1C08F8010020463A8003F09AFB33
:101DE000212840F052810020CDE90200CDE9000019
:101DF00040F24410C2F20000AFA1FEF725FA88B10C
:101E000048F660510330C0F6000103AAFEF73CFA21
:101E100041F25010C2F2000000689DED030AD8B1F3
:101E2000A6A627E140F24410C2F20000ABA1FEF7E3
:101E30000BFAD8B148F660510330C0F6000102AA8F
:101E4000FEF722FA41F25010C2F2000000689DED48
:101E5000020A28B3A2A60DE141F26C10C2F2000002
:101E600002F04AFF9DED030A98A603E140F24410F8
:101E7000C2F20000A2A1FEF7E7F9D8B148F660511E
:101E80000330C0F6000103AAFEF7FEF941F250103C
:101E9000C2F2000000689DED030A28B399A6E9E0AC
:101EA00041F26C10C2F2000002F022FF9DED020A26
:101EB0008FA6DFE040F24410C2F2000099A1FEF7C5
:101EC000C3F9D8B148F660510330C0F6000102AA48
:101ED000FEF7DAF941F25010C2F2000000689DED01
:101EE000020A28B390A6C5E041F2B010C2F2000089
:101EF00002F002FF9DED030A86A6BBE040F244100B
:101F0000C2F2000090A1FEF79FF9D8B148F66051E7
:101F10000330C0F6000101AAFEF7B6F941F25010F5
:101F2000C2F2000000689DED010A40B387A6A1E05F
:101F300041F2B010C2F2000002F0DAFE9DED020A9A
:101F40007DA697E040F24410C2F2000087A1FEF7A0
:101F50007BF9F0B148F660510330C0F6000101AAE8
:101F6000FEF792F941F25010C2F2000000689DEDB8
:101F7000010A58B348F60A56C0F600067AE041F264
:101F80006C10C2F2000002F0AFFE9DED010A73A6D4
:101F900070E040F24410C2F2000075A1FEF754F95F
:101FA00008B348F660510330C0F600016A46FEF7F8
:101FB0006BF941F25010C2F2000000689DED000A7A
:101FC00078B348F63D56C0F6000653E041F2B01033
:101FD000C2F2000002F088FE9DED010A48F6FB46C1
:101FE000C0F6000646E040F24410C2F2000061A1D3
:101FF000FEF72AF9002846D048F660510330C0F6B3
:1020000000016A46FEF740F941F25010C2F20000AA
:1020100000689DED000AC8B148F64F56C0F60006AC
:1020200028E041F26C10C2F2000002F069FE9DED62
:10203000000A40F21800BDEEC01AC2F2000048F6D5
:10204000175680ED001AC0F6000613E041F2B010FA
:10205000C2F2000002F054FE9DED000A40F21C00A6
:1020600048F62A56BDEEC01AC2F20000C0F60006BD
:1020700080ED001A10EE100AFEF75AFC02463046B8
:102080000B4604F0BFFD002038802046294603F0AF
:1020900033FB01280CD1204603F03CFA388800219C
:1020A00008F8001041F24410C2F200000121017052
:1020B00004B0BDE8F08100BF50313D007069746329
:1020C000685F6B703A25660D0A0000006D6F746FD3
:1020D00072315F6B703A25660D0A000049313D0090
:1020E00070697463685F6B693A25660D0A000000C9
:1020F0006D6F746F72315F6B693A25660D0A00006F
:1021000050323D00726F6C6C5F6B703A25660D0A41
:10211000000000006D6F746F72325F6B703A25665D
:102120000D0A000049323D00726F6C6C5F6B693ABA
:1021300025660D0A000000006D6F746F72325F6BD0
:10214000693A25660D0A000044313D0070697463E8
:10215000685F6B643A25660D0A0000006D6F746F4E
:1021600072315F6B643A25660D0A000044323D000F
:1021700054313D0054323D00FEE7000082B09FED37
:102180005F8A40F25000C2F20000B0EE480AF0EE62
:10219000480AB0EE481AF0EE481AB0EE482AF0EEBF
:1021A000482AFFF70FFC40F2B800C2F20000B0EE80
:1021B000480AF0EE480AB0EE481AF0EE481AB0EEBF
:1021C000482AF0EE482AFFF7FDFB40F27C00DFEDE5
:1021D0004C0ADFED4C2AC2F20000F1EE041AB0EE18
:1021E000480AB0EE481AB0EE482AFFF7EBFB40F27F
:1021F000E400DFED450AC2F20000F2EE042AB0EE80
:10220000480AB0EE481AF0EE481AB0EE482AFFF736
:10221000D9FB01F027F84FF4FA6003F01DFC40F2FF
:10222000181441F2844B44F2C81841F27C4940F240
:10223000141AC2F20004C2F2000BC2F20108C2F288
:102240000009C2F2000A31A5142003F005FC204663
:1022500002F06CFC00F0F6FD014644F2C410C2F23C
:10226000010090ED000A41F28040C2F200000160DE
:1022700040F2B800C2F2000000F08CF841F2784061
:10228000C2F20000D4ED000AB4F90C1080ED000A8F
:1022900040F25000C2F2000000F052F800F0B8FD29
:1022A000014698ED000ACBF8000040F2E400C2F2CB
:1022B000000000F06FF8D4ED010AB4F90E1040F2FE
:1022C0007C00C2F2000089ED000A00F039F8CAF87B
:1022D000000000F0F9FE6068FEF72AFB0646D8F819
:1022E00000000F46FEF724FB41EC100B2846324657
:1022F0003B468DED000B04F085FCA5E700000000D7
:102300000000964300409C450AD723BC7069746363
:10231000683A252E32662C20252E32660A000000EF
:10232000B4EE410AF1EE10FAB4EE600AC8BFB0EEA6
:10233000410AF1EE10FAB8BFB0EE600A7047000033
:1023400010B501EE101AB8EEC12A90ED043A90EDE6
:10235000064A90ED0A1A30EE600A80ED010A24EE7A
:10236000022A23EE000AB5EE401A044630EE020AB5
:10237000F1EE10FA80ED080A05D0F1EE410AFFF700
:10238000CFFF84ED080A94ED080ABDEEC00A10EEF6
:10239000100A10BD10B52DED028B0446484294ED95
:1023A000091AB0EE408A00EE100A94ED072AB8EE42
:1023B000C00AB5EE401A84ED010A32EE000AF1EED1
:1023C00010FA84ED070A05D0F1EE410AFFF7A8FFE5
:1023D00084ED070A94ED051A94ED072A94ED010A9D
:1023E00094ED043A21EE022A94ED0A1A23EE000A33
:1023F000B5EE401A30EE020AF1EE10FA84ED080A4A
:1024000005D0F1EE410AFFF78BFF84ED080A94ED49
:10241000080A30EE080ABDEC028B10BD10B5044668
:10242000042002F0DBFC40F23C1140F24010C2F20A
:1024300000010122C2F200000A704EF21001046095
:10244000CEF200010A684FF47A70604342F0020253
:102450000A604860086840F00100086010BD000094
:1024600010B5044604F070F901280AD02CB940F2E6
:102470003C10C2F20000007810B9204603F0ECFADC
:1024800000244EF2180040F24011CEF20000C2F2D9
:10249000000150F804CC09684FF47A7261434A4352
:1024A0000168002304688C42FCD00B441B1B8C4247
:1024B00028BF63449342214628BF10BDF2E70000C5
:1024C00080B54EF2180140F24012CEF20001C2F285
:1024D000000251F804CC1268002302FB00FE0868D9
:1024E0000A688242FCD003449B1A824228BF63449C
:1024F0007345104628BF80BDF2E700000B1F38BFB0
:102500000B46D9B24FEA410151FA83F103F00203BD
:102510004FF00C0C4FEA430338BF4FF0080C03EBAD
:1025200041015CF8003002FA01F119434CF8001047
:1025300070470000F0B5032921D8561E1F2E4FF01A
:10254000000300F28C804FF0800C24248E46054658
:10255000DFE806F06C8585108585853A858585855B
:10256000858585418585858585858585858585855F
:10257000858585484FF0020C1024042228E0561E61
:102580001F2E4FF0000300F26A800FF20C0202EBE4
:1025900086070A1FDFE806F01063632B636363336B
:1025A000636363636363633B636363636363636323
:1025B0006363636363636343051D5FFA82FE4FF0E9
:1025C000800C2424012231E04FF0040C1024082256
:1025D0008E4605462AE04FF0080C10228E4605462E
:1025E000102423E0102420228E4605461CE0051D01
:1025F0005FFA82FE4FF0020C1024042216E0051D43
:102600005FFA82FE4FF0040C102408220EE0051D34
:102610005FFA82FE4FF0080C1022102406E0051D20
:102620005FFA82FE102420224FF0100C0EF00207F9
:102630002B680EEB4E057F00204401EB410107EBB8
:10264000450750F83100BA4013EA020100EA0C00D5
:1026500018BF0121002818BF012001EA0003184615
:10266000F0BD000070B586B004464CF60220C0F6FE
:10267000E3100DF10205CDF80200682004212A467E
:1026800001F09EFD14F040014FF0A3006FF03F01F8
:102690008DF8020008BF6FF05C016FF037026FF039
:1026A0003D0308BF6FF05C0208BF6FF05C038DF85C
:1026B000031014F4C0716FF03B018DF804208DF805
:1026C000053008BF6FF05C016FF033026FF0390323
:1026D00008BF6FF05C0208BF6FF05C038DF8061056
:1026E0004AF2A3318DF80720ADF809108DF80B00E0
:1026F00040F6A7200A212A468DF8083001F060FD37
:102700002020A60708BF6FF027008DF8020040F6D2
:10271000B62001212A4601F053FDA0060CD4C720A3
:102720008DF8140048F6B000CCF2C35004904AF67D
:10273000B820CAF6AA200BE05D208DF8140049F6F7
:10274000B400C3F20D5004904AF6B820C8F6B35056
:10275000039003AA4FF49760092101F031FD14F4AE
:10276000C07F25D06FF04D016FF0740214F48070BB
:1027700008BF6FF04F0108BF6FF07F026FF0490391
:102780006FF0640508BF6FF04B03002808BF6FF0BF
:102790006F058DF802108DF803200DF1020240F64E
:1027A000A22004218DF804308DF8055001F008FDB9
:1027B000E00708D1D8208DF802000DF102024FF495
:1027C0000B60012150E0F8208DF802000DF10202AB
:1027D0004FF40B60012101F0F3FC0720FA2100F017
:1027E0004FFA3F208DF80C0003AA4FF4A47001218A
:1027F00001F0E6FC00208DF80C0003AA40F24F1017
:10280000012101F0DDFC4FF4A050ADF80C0003AA4B
:102810004FF4EF70022101F0D3FC4FF4C840ADF843
:102820000C0003AA4FF4ED70022101F0C9FC48F638
:102830000060C9F2F900039003AA4FF4AE700421BE
:1028400001F0BEFC4FF40060ADF80C0003AA4FF499
:10285000AD70022101F0B4FC4FF40070ADF80C0033
:1028600003AA4FF4AC70022101F0AAFC6FF026001D
:10287000002E58BF6FF027008DF802000DF1020204
:1028800040F23D70012101F09BFC600752BF4FF008
:102890008B304CF2C020CCF2C460039003AA40F607
:1028A0009820042101F08CFC01F094F9E00652BF5D
:1028B0004FF0A33042F62000C3F63000039003AA85
:1028C00040F69E20042101F07BFC01F083F940F2E8
:1028D000341144F00800C2F200016506088001F0DE
:1028E00079F9062000EAE57114F4C07F40F23A104D
:1028F00018BF0631C2F2000014F0140F017002D0AC
:1029000001781031017016B1017804310170002096
:1029100006B070BD48F2DE01C0F6000140F6F630A8
:102920004FF48062C82300F05BBF00002DE9F04F38
:1029300089B01446DDE9129288460021A9F80010FA
:1029400040F23A11C2F2000109780DF1040A8346FF
:10295000084651461E4601F0E7F820B14FF0FF301F
:1029600009B0BDE8F08F40F23417C2F20007388892
:1029700010F0140F46D09DF8051000969DF8040045
:10298000BDF8066009049DF8093041EA006031BADB
:1029900040EA11419DF8082021601904BDF80A3071
:1029A00041EA02611ABA41EA124262609DF80D20C2
:1029B0009DF80C30BDF80E60120442EA036233BA8F
:1029C00042EA1343A3609DF811309DF8106010FB9C
:1029D00030F01B04BDF8125011FB310043EA0663CE
:1029E00012FB32002EBA13FB330043EA164500F106
:1029F0007146B6F1007FE56006D8B9F8000040F4F2
:102A0000807004E0002009E001F0E4F80020B6F155
:102A1000007FA9F80000A1D8009E102039884A063E
:102A20002BD540F001031AF800201AF8033037467E
:102A300043EA022240F0020340F003061AF8033092
:102A40001AF80660A8F8002046EA032240F00403C2
:102A500040F005061AF803301AF80660A8F80220BC
:102A600046EA0322A8F80420B9F800203E4640F0C8
:102A7000060042F00802A9F8002011F4C07F18D027
:102A80003AF800200AEB000312BA5F88120CABF888
:102A900000203ABA9B88120CABF802201ABA120C2A
:102AA000ABF80420B9F80020063042F07002A9F813
:102AB000002089071CD00AEB00056878EC78C00775
:102AC0000BD040F22810C2F2000002682AB104F0D4
:102AD0000700411CC4F3C20090476878000707D57F
:102AE00040F22C10C2F20000016809B1A009884729
:102AF000304600F0E7FA002009B0BDE8F08F000092
:102B000010B586B004464AF6BB70CDF6DF7005906E
:102B10004FF2AA10CDF6DF7004904FF2FE20CCF2F7
:102B2000AB40C82C039016D8C820B0FBF4F00021AD
:102B300001388DF804108DF8050001AA40F2162026
:102B4000022101F03DFB30B903AA40F6C1200C215F
:102B500001F036FB18B14FF0FF3006B010BD40F267
:102B60003810C2F200000480002006B010BD000042
:102B7000B0B582B0054648F2D301C0F60001C5F3F6
:102B8000C10300F00300CC5C0A5C8DF8054048F2FC
:102B9000D0048DF80420C5F38112C0F60004895CCE
:102BA000205C8DF806108DF80000E05CA15C8DF8CB
:102BB00001008DF8021001AA40F22640032101F025
:102BC000FFFAA0BB6A4640F22A40032101F0F8FA5E
:102BD00068BB76208DF8060045F23660ADF804003B
:102BE00044F22660ADF80000662069078DF8020007
:102BF00021D4A8062DD4E8050BD59DF806009DF834
:102C0000021040F001008DF8060041F001008DF83F
:102C1000020001AA4FF48860032101F0D1FA30B913
:102C20006A4640F23140032101F0CAFA00B34FF086
:102C3000FF3002B0B0BD9DF804009DF8001040F0D8
:102C400001008DF8040041F001008DF80000A80695
:102C5000D1D59DF805009DF8011040F001008DF8D8
:102C6000050041F001008DF80100E805C5D4D0E76A
:102C700040F23010C2F200000580002002B0B0BD6A
:102C8000B0B582B00446B1F5C86F4FF0FF3044D8FC
:102C90000D4614F0070140D00DF1030000F0B2FC26
:102CA0009DF80300811EC00740EA5100072866D83E
:102CB000C1B28B2222FA01F1C90760D000EE105A8E
:102CC0009FED311AB8EE400A80EE010A2FA101EB08
:102CD000800191ED001A35A101EB800090ED002AF2
:102CE00020EE011A20EE020ABDEEC00A10EE100A14
:102CF000BDEEC10A10EE101A0A0A8DF80510010A7D
:102D00008DF80610E1078DF804208DF8070006D134
:102D1000A00714D4600722D4002002B0B0BD01ADDA
:102D20004FF4EA7002212A4601F04AFA38BBAA1C85
:102D30004FF49270022101F043FA00BBE8E701ADC5
:102D40004FF4EC7002212A4601F03AFAB8B9AA1CF5
:102D50004FF49470022101F033FA80B9DAE701AC44
:102D60004FF4EE700221224601F02AFA38B9A21C73
:102D70004FF49670022101F023FA0028CCD04FF0D6
:102D8000FF3002B0B0BD00BF0000484300008046E5
:102D9000000000460000804600008045000080469C
:102DA00000008046000080460000004500004046CC
:102DB0000000C0450000404600004045000040467D
:102DC00000004046000040460000C04443F6144165
:102DD000C4F201010860704743F61441C4F20101D6
:102DE0000968084018BF012070470000B0B541F2E3
:102DF0000005C4F201050446C1B2284602F08EFB6C
:102E00002846072102F0F8FB0028F9D02046B0BD83
:102E100080B5FEF7EBFC41F25412C2F2000201460B
:102E20001061D068D2E9003CA1EB000EA3EB0C0CC2
:102E30004FF4C6700CFB00E09360908200B25360C8
:102E4000D16080BD80B5FEF7D5FC41F29812C2F288
:102E5000000201461061D068D2E9003CA1EB000EEF
:102E6000A3EB0C0C4FF4C6700CFB00E09360908257
:102E700000B25360D16080BDF0B5D0F820E0D0F84A
:102E800024C000230F27002505E000BF0135082DD1
:102E900003F104030CD022FA05F6F607F6D007FA80
:102EA00003F62EEA060601FA03F446EA040EEDE7FD
:102EB000082300240F2504E00133102B04F104043F
:102EC0000CD022FA03F6F607F6D005FA04F62CEA3F
:102ED000060701FA04F647EA060CEDE7C0F820E021
:102EE000C0F824C0F0BD0000C16270471823002A5A
:102EF00008BF2823195070470069084018BF0120F7
:102F0000704700002DE9F041D0F800E0D0F80CC087
:102F100000244FF00308002605E000BF0136102E04
:102F200004F1020412D023FA06F7FF07F6D008FADC
:102F300004F72EEA070E01FA04F54EEA050E2CEA14
:102F4000070702FA04F547EA050CE7E7C0F800E0D6
:102F5000C0F80CC0BDE8F0810129416814BF994355
:102F600019434160B0B5D0F808C000214FF0030EFE
:102F7000002404E00134102C01F102010CD023FAEA
:102F800004F5ED07F6D00EFA01F52CEA050C02FA6D
:102F900001F54CEA050CEDE7C0F808C0B0BD000033
:102FA00090F9001000290DDD002190F90320002A7E
:102FB0000FDD002290F90630002B11DD00201143B7
:102FC0000843704713D490F90110002916DD012140
:102FD000EBE70ED490F90420002A16DD0822E9E779
:102FE00009D490F90730002B16DD4020E7E70421D3
:102FF000DBE72022DEE74FF48070E0E713D490F99E
:103000000210002916DD0221CFE70ED490F9052029
:10301000002A14DD1022CDE709D490F90800002819
:1030200012DD8020CBE70521BFE72822C2E74FF45D
:10303000A070C4E74FF0060108BF0721B5E74FF0C5
:10304000300208BF3822B5E74FF4C07008BF4FF414
:10305000E070B4E710B540F6034001F025FD40F6FE
:103060000044C4F202042046012100228023FFF71D
:1030700049FF2046002102228023BDE81040FFF7CF
:103080006BBF000082B001F09BFE41F2884C44F619
:103090000950C2F2000C4FF0010EC0F6000006A16C
:1030A0004FF496720023CDE900EC03F051FA02F0E0
:1030B00035FE00BFFEE700BF53544152545F5441F8
:1030C000534B00007047000040F29022C10FC4F241
:1030D00041220028116048BF404242F210710A1A92
:1030E00040F60040C4F200004FF0010138BF00225A
:1030F00001F0A2BF40F29422C10FC4F24122002885
:10310000116048BF404242F210710A1A40F6004076
:10311000C4F200004FF0020138BF002201F08CBF62
:10312000F0B587B040F6024001F0BEFC40F6024028
:1031300001F0BAFC40F60044C4F2000404F5FE3588
:10314000284601210022102301260027FFF7DAFE7E
:103150002846012100222023FFF7D4FE2846002123
:1031600002221023FFF7F8FE284600210222202326
:10317000FFF7F2FE4FF4406001F096FC4FF4406020
:1031800001F092FC04F5FA352846022100220223C0
:10319000FFF7B8FE2846022100220423FFF7B2FE03
:1031A0002846002102220223FFF7D6FE28460021EE
:1031B00002220423FFF7D0FE284602210222FFF755
:1031C0005BFE284602210422FFF756FE41F203006F
:1031D00001F06AFC4FF0807001F096FC204601F08F
:1031E00051FF1320CDE9030742F20F70059003A9A8
:1031F00020468DF8187001F0EFFF6D462046012142
:103200002A46ADF80470ADF8006001F0FFFD2046DD
:1032100002212A4601F0FAFD20460121002201F098
:103220000BFF20460121602201F0EAFE2046012129
:10323000002201F007FF20460221002201F0FCFEDF
:1032400020460221602201F0DBFE204602210022FE
:1032500001F0F8FE204601F0CDFD204601F0B6FF5A
:1032600007B0F0BD80B52DED088B9FED1D8A9FED59
:103270001EBA41F26C10B1EE0C9A9FED1A1AB6EE1E
:1032800000AADFED1A2AC2F20000B0EE480AF0EE02
:10329000490AF0EE4A1AB0EE4B2AFEF793FB41F2D0
:1032A000B0109FED131ADFED132AC2F20000B0EE4A
:1032B000480AF0EE490AF0EE4A1AB0EE4B2AFEF741
:1032C00081FBFEF79DFAFFF72BFF0020FFF7FCFEC6
:1032D0000020BDEC088BBDE88040FFF70BBF00BFAE
:1032E000000048429A99D93F0000FA4300401C462A
:1032F0006666E63F0000FA44F0B581B040F2200572
:10330000C2F2000595F8241009B1002438E0A97A2A
:10331000A1B300F0FE0739402E7CCC1B287D18BFDE
:103320004FF0FF34002F297408BF002811D0687CAB
:10333000F8B90120D5E900128DF802001078C97B98
:103340000DF102030122FEF779F990B99DF8020010
:103350000EE00020D5E900128DF803001078C97B3B
:103360000DF103030122FEF769F910B99DF803007E
:1033700068742FB100F02EFC10B12E744FF0FF34A2
:10338000204601B0F0BD00002DE9F0412DED0E8B7F
:103390008CB090460D4604460DF11D070DF11E063A
:1033A0000DF1260008A903AA0BABCDE90067FFF7D2
:1033B000BDFA08B10120A0E0BDF81E00C00501D48F
:1033C00002209AE09DED030A9DED041A9FED504AFC
:1033D0009DED052AB8EEC00A9DED063A20EE049A4E
:1033E000B8EEC10A20EE04CAB8EEC20A20EE04AA62
:1033F000B8EEC30A20EE04BAB8EE000A2CEE00DAEA
:1034000039EE098A28EE0A0A2DEE0B1A31EE000A6F
:1034100010EE100AFDF78CFA41EC100B03F01CFCC7
:1034200051EC100B9FED380B56EC107B3A463346AF
:10343000FDF79DF9FDF78FFA3AEE0AEA28EE0C0A3D
:103440002EEE0B1A31EE000A206010EE100AFDF786
:103450006FFA2AEE0E0A2DEE0C1A31EE400AB7EE84
:10346000001A30EE010A41EC180B10EE100AFDF7BD
:103470005FFA41EC110BB0EE480AF0EE680A03F077
:1034800007FF51EC100B3A463346FDF770F9FDF794
:1034900062FA29EE0B0A2CEE0A1A31EE000A30EE1F
:1034A000000A286010EE100AFDF742FA2CEE0C0A12
:1034B00029EE091A31EE000A2AEE0A1A30EE410A04
:1034C0002BEE0B1A30EE410A41EC180B10EE100AED
:1034D000FDF72EFA41EC110BB0EE480AF0EE680A47
:1034E00003F0D6FE51EC100B3A463346FDF73FF998
:1034F000FDF731FAC8F8000000200CB0BDEC0E8BCF
:10350000BDE8F08100BF00BF6666666666A64C40F7
:103510000000803070B582B000F08EF8000602D056
:10352000002002B070BD782000F0D4FD000602D06B
:10353000012002B070BD40F22005C2F2000595F8EE
:10354000240008B1002422E0A87AF0B1697C00F0E0
:1035500078002E7CB0F1780418BF4FF0FF34287447
:1035600079B90120D5E900128DF807001078C97BE0
:103570000DF107030122FEF761F810B99DF807006D
:10358000687400F027FB10B12E744FF0FF34200652
:1035900002D0022002B070BD642000F02FFD0006B2
:1035A00002D0032002B070BDFFF7B4F9000602D0CC
:1035B000042002B070BD40F20C00C2F20000FFF720
:1035C000EFFCFFF7D5FA000602D0052002B070BD6F
:1035D00040F27310FFF746F8000602D0062002B052
:1035E00070BD6420FFF78CFA000602D0072002B0FD
:1035F00070BD012000F05AFC00063FF491AF092095
:1036000002B070BD40F22001C2F200014A7A032AE2
:1036100084BF4FF0FF30704740F20243D200C1F246
:10362000080323FA02F20270C97C11B10178490043
:10363000017000207047000010B582B040F22004F5
:10364000C2F200048020D4E900128DF80100107845
:10365000897C0DF101030122FDF7F0FFC8B9642058
:10366000FEF7FEFE0020D4E900128DF8010010786C
:10367000897C0DF101030122FDF7E0FF48B9D4E98F
:1036800000100DF101030078897D0622FDF712FF7D
:1036900020B14FF0FF34204602B010BD9DF8062047
:1036A0009DF802009DF80410042303EA820261F3EE
:1036B000410200F0010011184AD0012902D002296C
:1036C00060D100214FF6FF70E081FF202074A074CC
:1036D0004FF0FF30A0600020C4E90500E0612084C5
:1036E000C4F8230084F827001820E1748DF807003F
:1036F000D4E900100122007889790DF107032273C3
:1037000084F82220FDF79AFF0028C2D19DF8070017
:10371000C0082072022000F019FB0028B9D12A202D
:1037200000F034FC0028B4D1322000F067FC0028FF
:10373000AFD10020FFF7E0FD0028AAD1002000F063
:103740003FFB0028A5D10020002400F0C3FCA2E725
:10375000D4E900100DF101030078C9780122FDF7CA
:10376000A9FE002895D19DF8010000F00F00042863
:103770000CD00028A5D148F67D50C0F6000004F01A
:10378000C3FB86E70CA003F03DFA82E702A004F039
:10379000BBFB012196E700BF48616C662073656E34
:1037A0007369746976697479207061727420666FC8
:1037B000756E642E00000000556E737570706F7228
:1037C00074656420736F6674776172652070726FC0
:1037D00064756374207265762025642E0A000000EB
:1037E0002DE9F04F87B0074600294FF0FF3000F079
:1037F000A68040F22004C2F200040E4694F8251080
:10380000002940F09C809246002F019300F07E80BA
:103810004FF000090DF10A0B1FFA89F0A7EB000821
:10382000B8F1100FA8BF4FF0100816FA89F54FF045
:10383000FF30FEB1A17AE9B160681FFA88F14289D0
:1038400051FA89F1914299FA89F14FEA1141ADF8A3
:103850001A1003D94FF0FF3070B165E0216800788D
:10386000097E02220DF11A03FDF7E8FE00283DD083
:103870004FF0FF30002857D1A07AB0B160681FFA2E
:1038800088F1428951FA89F1914299FA89F14FEA16
:103890001141ADF81A1008D821680078097E02227B
:1038A0000DF11A03FDF7CAFE80B14FF0FF30D8BB0F
:1038B0001FFA88F228465946FCF7D8FC002841D167
:1038C000C1441FFA89F0B842A6D31FE0D4E9001022
:1038D0005FFA88F20078497D5B46FDF7EBFD002832
:1038E00018BF4FF0FF300028E2D01DE0D4E90010EF
:1038F0005FFA88F20078497D2B46FDF79FFE00288D
:1039000018BF4FF0FF300028B6D00DE09AFA9AF0B9
:10391000D4E90012ADF81A001078897E0DF11A036F
:103920000222FDF78BFE20B14FF0FF3007B0BDE85B
:10393000F08F012084F825000198E084002007B072
:10394000BDE8F08F6FF0010007B0BDE8F08F000018
:1039500070B582B0282800F2D88040F220050446D5
:10396000C2F20005002842D095F8230001281DD09E
:10397000A87C95F822103222002808BF30228DF84A
:10398000032029B19DF8030040F080008DF803006A
:10399000D5E900100DF103030078097D012201260D
:1039A000FDF74CFE002808BF85F823602020012C7D
:1039B0008DF800004DD1A87A002100288DF8011063
:1039C00000F09480E87A062106288DF8041000F0B3
:1039D0008D80D5E9001001AB007889780122FDF7D0
:1039E0002DFE002840F082809DF804007DE095F8CF
:1039F0002300E8B1A87C95F82210002818BF012008
:103A000040008DF8020029B19DF8020040F08000CE
:103A10008DF80200D5E900100DF102030078097D50
:103A20000122FDF70BFE002804BF002085F82300CB
:103A30004FF4E060D5E90012ADF800001078897C01
:103A40006B460222FDF7FAFD00285ED100242C759A
:103A50005DE0052C18D8A87A012100288DF8011006
:103A600044D0E87A062106288DF805103ED0D5E925
:103A700000100DF10503007889780122FDF7DEFDC5
:103A8000A0BB9DF8050030E0142C17D8A87A0221BD
:103A90008DF8011050B3E87A052105288DF806103D
:103AA00024D0D5E900100DF10603007889780122B1
:103AB000FDF7C4FDD0B99DF8060016E0A87A0321F1
:103AC0008DF8011090B1E87A042104288DF80710D0
:103AD0000CD0D5E900100DF1070300788978012298
:103AE000FDF7ACFD10B99DF80700E8729DF80100E4
:103AF000D5E90012800107308DF801001078897C2B
:103B00006B460222FDF79AFD20B14FF0FF342046AC
:103B100002B070BD0820A872012000242875002082
:103B20002C73FFF7E9FBF2E72DE9F04182B040F298
:103B30002007C2F200070E4697F8241005464FF002
:103B4000FF30E1B3B97AD1B3D7E900101446007859
:103B5000897A0DF106030222FDF7ACFC28BBBDF803
:103B6000060001BAB5EB114F02D9002020701CE00D
:103B7000796890FA90F84A88B8EB520F0CD93A68F5
:103B80000878517C0DF106030122FDF793FC60B922
:103B90009DF80600C00615D4D7E90010EAB20078F7
:103BA000C97A3346FDF786FC20B14FF0FF3002B0F2
:103BB000BDE8F081B8FBF5F001382070002002B0BC
:103BC000BDE8F08100F006F86FF0010002B0BDE83A
:103BD000F081000010B582B040F22004C2F200046F
:103BE000A07A00B30020D4E900128DF80700107805
:103BF000C97B0DF107030122FDF720FD98B9D4E937
:103C000000100DF10703007849790122FDF716FD38
:103C100048B9D4E900100DF10703007809790122B1
:103C2000FDF70CFD18B14FF0FF3002B010BD94F855
:103C30002400002840D00C20D4E900128DF80700A1
:103C4000107809790DF107030122FDF7F7FC002830
:103C5000E9D13220FEF704FCA07A0DF10703C0077A
:103C60006FF01F0008BF6FF03F00D4E900128DF81D
:103C70000700107809790122FDF7E0FC0028D2D175
:103C8000607C0DF10703002818BF01204000D4E933
:103C900000128DF807001078C97B0122FDF7CEFCD9
:103CA0000028C0D10020D4E900128DF80700107858
:103CB00049790DF107033FE00420D4E900128DF8A3
:103CC0000700107809790DF107030122FDF7B6FC12
:103CD0000028A8D1A07AA17CC0074FF0600008BFDF
:103CE0004020002918BF4020D4E900128DF80700B9
:103CF000107809790DF107030122FDF79FFC0028D8
:103D000091D13220FEF7ACFB607C0DF10703002857
:103D100018BF0120D4E900128DF807001078C97B84
:103D20000122FDF78BFC00287FF47DAFD4E9001061
:103D300004F11003007849790122FDF77FFC002887
:103D40007FF471AF002002B010BD000010B582B04A
:103D500040F22004C2F20004A17A31B3811EC007F0
:103D600040EA510107294FF0FF3027D8DFE801F082
:103D7000040626082626260A002004E0082002E081
:103D8000102000E018208DF80700607A9DF80710D9
:103D9000B0EBD10F11D0D4E900100DF1070300787A
:103DA000C9790122FDF74AFC18B14FF0FF3002B08B
:103DB00010BD9DF80700C0086072002002B010BD61
:103DC000B0B582B040F22005C2F20005A97C814264
:103DD00002D1002002B0B0BD0446D5E900100DF1BB
:103DE0000703007809790122FDF764FB84B30028FA
:103DF00044D19DF80700D5E9001200F0DF008DF8EE
:103E00000700107809790DF107030122FDF716FC70
:103E1000A0BB0320FEF724FB95F8221095F8232081
:103E20006FF07D00002908BF02208DF807001AB14D
:103E300040F030008DF80700D5E900100DF10703C0
:103E40000078097D0122FDF7F9FBB8B9AC74C0E731
:103E5000A0B99DF80700A97A00F0DF0001F0010188
:103E600040EA4110D5E900128DF807001078097971
:103E70000DF107030122FDF7E1FB18B14FF0FF3010
:103E800002B0B0BD0320FEF7EBFA95F8220095F8DA
:103E90002310024600281CBF01226FF07F00D201D0
:103EA00000298DF80720C3D1C6E70000B0B582B065
:103EB00040F22004C2F2000494F8241081425DD044
:103EC000D0B394F8250000285BD009B9A07A78B166
:103ED0000020D4E900128DF805001078C97B0DF19F
:103EE00005030122FDF7AAFB10B99DF805006074D7
:103EF00000200025FFF764FFE08C00F07FF8606889
:103F00008DF80450007801AB232101220125FDF733
:103F100095FB0220D4E900128DF806001078C97BC9
:103F20000DF10603012284F82450FDF787FB18BB2E
:103F30009DF8060060741FE009B9A07A78B10020EE
:103F4000D4E900128DF807001078C97B0DF1070342
:103F50000122FDF773FB10B99DF807006074207C07
:103F600061688DF80400087801AB23210122FDF778
:103F700065FB002084F82400FFF72CFE002002B02F
:103F8000B0BD4FF0FF3002B0B0BD000010B582B040
:103F900040F22004C2F20004A17A21B3BC2801D36C
:103FA00001200FE0622801D302200BE02A2801D370
:103FB000032007E0142801D3042003E00A2834BFBB
:103FC000062005208DF80700E07A9DF8071088424A
:103FD00010D0D4E900100DF1070300788978012290
:103FE000FDF72CFB18B14FF0FF3002B010BD9DF86B
:103FF0000700E072002002B010BD000070B582B072
:1040000040F22005C2F20005A97A044600294FF0CB
:10401000FF305DD095F82410002959D1287D50B18A
:10402000601E80B2272803D8E0B2FFF791FC4EE073
:104030000020FFF78DFC4FF47A76B4F57A7F28BF25
:104040003446042C98BF0424B6FBF4F0D5E90012E2
:1040500001388DF80600107849780DF10603012229
:10406000FDF7ECFA18B14FF0FF3002B070BD9DF8CB
:104070000600AA7A411CB6FBF1F1E9813AB30128A6
:1040800001D801200FE0042801D802200BE00A2803
:1040900001D8032007E0182801D8042003E03128C4
:1040A0008CBF062005208DF80700E87A9DF80710E0
:1040B00088420CD0D5E900100DF10703007889780B
:1040C0000122FDF7BBFA10B99DF80700E872002045
:1040D00002B070BDB0B582B0044610F0700F01D0D0
:1040E000012003E0002C0CBF4020002040F22005FE
:1040F000C2F200058DF80600D5E900100DF10603A7
:104100000078897C0122FDF799FA38BB9DF80600FA
:10411000A10600F0BF0028734FF0040020EA14103D
:1041200058BF0230E1068DF8060005D49DF8060060
:1041300040F001008DF80600200705D49DF8060028
:1041400040F038008DF80600D5E900100DF10603A7
:104150000078C97C0122FDF771FA30B10020A87205
:104160004FF0FF34204602B0B0BD14F0F70F20D05E
:1041700095F82300E8B1A87C95F82210002818BF14
:10418000012040008DF8070029B19DF8070040F09C
:1041900080008DF80700D5E900100DF107030078C5
:1041A000097D0122FDF74AFA002804BF002085F8A6
:1041B0002300AC72002432202C75FEF751F9D1E7B0
:1041C00070B582B00D4601464FF0FF3042B340F269
:1041D0002006C2F200061446B27A0AB370684ABAE0
:1041E000438955FA81F19942ADF8062008D8316823
:1041F0000078097E0DF106030222FDF71FFA18B1BF
:104200004FF0FF3002B070BDD6E90010EAB200787E
:10421000497D2346FDF712FA002818BF4FF0FF3002
:1042200002B070BD4FF4407000F052B84EF60C5C16
:10423000CEF2000CDCF8003003F4E063B3F5E06F7D
:1042400001D1042328E0DCF8003003F4E063B3F587
:10425000C06F01D103231FE0DCF8003003F4E063FA
:10426000B3F5A06F17D0DCF8003003F4E063B3F5CA
:10427000806F01D101230FE0DCF8003003F4E0632C
:10428000B3F5407F01D1002306E040F20053C0F2B5
:10429000FA53CCF80030022301FA03FCC3F1040303
:1042A0000F21D94011404EF2001241EA0C01CEF22A
:1042B0000002090140EA020383F8001300F01F0125
:1042C000012303FA01F11C2303EAD0008150704757
:1042D00040F080604EF60C5140F0FD70CEF20001CF
:1042E00008607047F0B581B00D4644F2B41141F258
:1042F000E016C2F20101C2F200060F6831680446FE
:10430000081D01F02FFA10B1601C0FD027E03068B3
:1043100044F2A802C06AC2F201020121136801FA44
:1043200000F023EA00001060601C18D1BDB144F217
:104330008C10C2F201004168326891608A6833686B
:10434000DA6032688B6804325A60326804328A60FC
:104350003168486101680131016001B0F0BD306829
:10436000E41944600BD341F2F010C2F2000000687F
:104370003168043101B0BDE8F04001F015BA41F2F6
:10438000E810C2F2000000683168043101F00CFA54
:1043900044F20810C2F2010001688C4238BF046088
:1043A00001B0F0BD70B501F035FA44F2B816C2F2B2
:1043B0000106306818B1BDE8704001F051BA44F20E
:1043C000AC04C2F20104204601F0DEF944F2C0055B
:1043D000C2F20105284601F0D7F941F2E410C2F219
:1043E0000000046041F2F410C2F2000005600A20EF
:1043F0000C21002201F006FE00283060DBD003A172
:1044000001F0D2FABDE8704001F02ABA546D725141
:104410000000000044F29C0541F2F81A4EF60458E0
:1044200044F2A01744F29806C2F20105C2F2000A53
:10443000CEF200084FF08059C2F20107C2F2010625
:1044400015E000BF01F0E6F9F868C468201D01F02E
:1044500089F930680138306028680138286001F037
:10446000FFF9206B01F018FA204601F015FA2868D0
:104470000028E7D1DAF800000228F8D3C8F8009045
:10448000BFF34F8FBFF36F8FF1E70000084800685C
:10449000006880F308884FF0000080F3148862B64B
:1044A00061B6BFF34F8FBFF36F8F00DF00BF000017
:1044B00008ED00E02DE9F04381B041F2E418C2F2CA
:1044C0000008D8F800200546D2680E46D46804F1EA
:1044D0000409484601F046F994F8240041070CD439
:1044E00000F0FE0084F824001CE000BF711B814234
:1044F00010D3216A204688473D46A06924614719A8
:10450000B7426760F2D9AE4201D2AF42F1D2D8F8D9
:10451000000004E041F2F410C2F2000000684946D5
:1045200001F042F9216A204601B0BDE8F043084796
:1045300080B582B00020019040F24C00C2F2000031
:10454000006801300AD048F6006048F68361C0F682
:104550000000C0F60001EA2202F054FB4FF05000C8
:1045600080F31188BFF36F8FBFF34F8F019800283E
:10457000FCD002B080BD000084B041F2E41441F2EE
:10458000DC1B41F2F41844F2B819C2F20004C2F282
:10459000000BC2F20008C2F201090DF1040A00BFCB
:1045A0002068076817B1C068066800E0002601F0BF
:1045B00005FC02F0DDF8DBF800100546884209D260
:1045C0002068016891B1C0684FF0FF310068FFF7C3
:1045D00071FFF5E7CBF8005097B1AE4210D802F06A
:1045E0001BFA30462946FFF765FF29E0D8F800108E
:1045F000C8F800002160CBF8005002F00DFA1FE06F
:104600000FB1002205E0D8F800000068B0FA80F091
:104610004209D9F80000711B01F0FAF902F0FCF927
:1046200070B94EF60450CEF200004FF08051016098
:10463000BFF34F8FBFF36F8F02E0206801F0B4F833
:10464000D9F800005146002201F05EFE0028A7D0F4
:1046500001980028F4D4039F786910B1381D01F047
:1046600081F802F085F8DBF80010054688420ED28A
:104670002068016831B1C0684FF0FF310068FFF772
:1046800019FFF5E7D8F80010C8F80000216001987C
:10469000CBF8005001380828D2D8DFE800F0050533
:1046A0001A215705051A210097F82400029AB969C2
:1046B00040F0010387F824308B183E4646F8043F4B
:1046C000AB423F6132D9954201D2934237D2206842
:1046D00031E097F8240000F0FE0087F82400AFE7EF
:1046E00097F82400029940F0010087F82400B9618E
:1046F00059B948F6006048F64561C0F60000C0F6BA
:10470000000140F25E3202F07DFAB8693946421982
:1047100041F8042FAA423F613FF68FAF00283FF4D3
:104720008FAFD8F8000001F03FF889E7AA1A8A4253
:1047300005D2D8F80000314601F036F880E742078C
:104740000CD400F0FE0087F8240032E097F8240033
:104750008107C0D4384601F09FF871E70298D3462C
:10476000CA46C146084406E0281A884215D3396A69
:10477000384688474046B9693F6101EB0008A845C3
:10478000C7F80480F0D9854201D28045EFD2206875
:10479000314601F009F8C84605E0D9F80000314675
:1047A000C84601F001F8D146DA4641F2DC1BC2F2FC
:1047B000000B396A3846884742E70000F0B581B0FF
:1047C000044601F027F894F94560012E0FDB04F14F
:1047D000240500BF286850B1284602F0ABF8002835
:1047E00018BF01F03FFA70B2013E0128F2DCFF264B
:1047F00084F8456001F034F801F00CF894F9447045
:10480000012F0EDB04F11005286850B1284602F094
:1048100091F8002818BF01F025FA78B2013F01286D
:10482000F2DC84F8446001B0BDE8F04001F018B853
:104830002DE9F04381B0044601F0C0FA41F2EC16D4
:10484000C2F20006306844F2FC08C2F2010858B116
:1048500084B304F007001138A04226BF24F00700FB
:1048600000F11005002526E041F29040C2F2000060
:10487000C11D420700F5963218BF21F0070044F22F
:104880008411C2F201010023C1E9000322F00701F3
:10489000A1F10802326041E90233111A3268C8F806
:1048A0000010C0E9002144F20410C2F201000160CE
:1048B000002CCED10025012D4FF0000470DBD8F87C
:1048C000000085426CD844F28410C2F201000768EF
:1048D0007968A94207D200BF3A6822B151683846C8
:1048E0001746A942F8D3326897422FD0D0F80090EB
:1048F0003A68491B1129026035D37C1960070AD038
:1049000048F6006048F66161C0F60000C0F600019C
:10491000DC2202F077F9786844F28411401BC2F27D
:10492000010160607D6000BF08460968A142FBD3B9
:1049300042688318A34203D1636804461A44426064
:104940006368E2188A4203D00A4608E0002427E0A0
:104950003268914203D0D1E9002119446160A0423C
:10496000226018BF046044F204107968D8F800206F
:10497000C2F201000368511A9942C8F8001038BF0A
:10498000016044F210127868C2F20102136840F02C
:104990000040002109F10804C7E90010581C10600C
:1049A00002F03AF860070BD048F6006048F6616103
:1049B000C0F60000C0F600014FF48E7202F022F93A
:1049C000204601B0BDE8F083034644F2315021F0A7
:1049D0000101C0F600004FF0807C03E903106FF086
:1049E0000201A3F1440043E90912704710B543F6F0
:1049F0000402C4F2020253680146C3F3810342F287
:104A00000040022BC0F2F40006D0012B1FD147F664
:104A10004000C0F27D101AE0D2F800C013680CF01C
:104A20003F0CC3F3881E13681468C3F30143640288
:104A300047F64004C0F27D1458BF0446B4FBFCF4B2
:104A4000022000EB430004FB0EF3B3FBF0F05368CD
:104A500011A4C3F30313E35C546848F2D60CC4F307
:104A60008224C0F6000C1CF804E05268032907D821
:104A700020FA03F3DFE801F00F020609184610BD23
:104A8000002010BD23FA0EF010BDC2F342301CF816
:104A9000000023FA00F010BD00000000000000003C
:104AA000010203040607080943F6000300F01F0192
:104AB0008009C4F202034FF0010CC2580CFA01F154
:104AC0001143C1507047000043F6000300F01F017E
:104AD0008009C4F202034FF0010CC2580CFA01F134
:104AE00022EA0101C150704743F6000300F01F01A4
:104AF0008009C4F202034FF0010CC2580CFA01F114
:104B00001143C1507047000043F68C0CC4F2020CF4
:104B1000DCF800206FF0807142EA0003884208BF91
:104B200022F08073CCF800307047000010B50446C6
:104B300040F2B000C2F200000068211D002201F026
:104B4000E3FB40F2B400C2F20000006821460022FC
:104B500001F0DAFB40F2A800C2F20000006804F1A4
:104B60000C01002201F0D0FB40F2AC00C2F20000C8
:104B7000006804F10E010022BDE8104001F0C4BB42
:104B800010B5FCF7D3FBFEF7C5FC58B120A400BF5D
:104B9000204603F0B9F9C820FDF762FCFEF7BAFC25
:104BA0000028F5D11DA003F0AFF901200421002257
:104BB00001F028FA40F2B001C2F2000108600120C1
:104BC0000421002201F01EFA40F2B401C2F20001F9
:104BD000086001200421002201F014FA40F21011B3
:104BE000C2F20001086001200221002201F00AFA4D
:104BF00040F2A801C2F20001086001200221002257
:104C000001F000FA40F2AC01C2F20001086010BDF0
:104C1000646D70206572726F720D0000496E697468
:104C200069616C697A6174696F6E20446174612096
:104C300053756363656564200D00000084B0002037
:104C40000390CDE90100FFF79BFF41F2481740F2C6
:104C5000101BC2F2000740F2A80940F2AC0A0DF1A5
:104C60000C0802AD01AEC2F2000BC2F20009C2F2A2
:104C7000000ABC1C11E000BF3846FCF739FBD9F82C
:104C8000000039460022002301F044FADAF800005F
:104C900021460022002301F03DFA142000F0DCFE42
:104CA000404629463246FEF76FFB0028E4D140F229
:104CB000B000C2F20000006841460022002301F06B
:104CC00029FA40F2B400C2F200000068294600222E
:104CD000002301F01FFADBF8000031460022002318
:104CE00001F018FAC8E7000080ED060A70470000DE
:104CF00080ED050A7047000080ED040A704700004F
:104D000080ED000A70470000B0B582B000F082FD6F
:104D100041F2C12000244FF0020CC0F6000018A19F
:104D200096220023CDE900C401F012FC42F27D106E
:104D30000425C0F6000015A196220023CDE90054F9
:104D400001F006FC44F63D40C0F6000013A1962297
:104D50000023CDE9005401F0FBFB01F07DF8014692
:104D600011A001F04FFF41F28840C2F2000000683C
:104D700000F0D6FE02B0BDE8B04000F071BD00BF4B
:104D80004C45445F5461736B0000000061747469AA
:104D9000747564655461736B0000000073656E7315
:104DA0006F72735461736B0046726565206865614C
:104DB000703A2025642062797465730A000000004F
:104DC00080B5F020FDF72AFBFFF72CFAFEF742F939
:104DD0004FF4E130BDE8804000F016BC4EF2100107
:104DE000CEF200010A68042822F0040208BF04324F
:104DF0000A607047016841F080010160704700005F
:104E00004FF480310160002141607047032988BF61
:104E1000704780B5DFE801F002AD4185016A21F0FD
:104E200001010162816921F0030181611188036A36
:104E300019430162016A002321F002010162B2F804
:104E400004C0D0F820E020F48061C4F2010399424C
:104E50004EEA0C01016240F0D080016A21F00401A9
:104E600001625188036A19430162016A21F0080155
:104E70000162D188036A1943016250F8041F21F4CA
:104E8000807101601189036819430160016821F490
:104E90000071016051890268ADE0016A21F48071FE
:104EA0000162C16921F00301C1611188036A43EA0B
:104EB00001210162016A002321F400710162B2F84C
:104EC00004C0D0F820E020F48061C4F201039942CC
:104ED0004EEA0C21016240F09080016A21F4806169
:104EE00001625188036A43EA01210162016A21F4E7
:104EF00000610162D188036A43EA0121016250F82E
:104F0000041F21F4805101601189036843EA0111F3
:104F10000160016821F400510160528901681201A9
:104F200069E0016A21F480510162C16921F4407194
:104F3000C1611188036A43EA01310162016A0023F9
:104F400021F400510162B2F804C0D0F820E020F44E
:104F50008061C4F2010399424EEA0C3101624CD1E6
:104F600050F8041F21F48041016012890168920108
:104F700041E0016A21F010010162816921F4407170
:104F800081611188036A43EA01110162016A002309
:104F900021F020010162B2F804C0D0F820E020F432
:104FA0008061C4F2010399424EEA0C11016224D1DE
:104FB000016A21F0400101625188036A43EA01114C
:104FC0000162016A21F080010162D188036A43EA2B
:104FD0000111016250F8041F21F480610160118900
:104FE000036843EA81010160016821F40061016006
:104FF00052890168920011430160BDE8804070470A
:10500000032988BF7047DFE801F0020D050A50F858
:10501000181F01E050F81C1F21F0700107E050F844
:105020001C1F01E050F8181F21F4E041120201603A
:10503000016811430160704703299CBF00EB8100A8
:1050400042637047032988BF7047DFE801F0020D13
:10505000050A50F8181F01E050F81C1F21F0080144
:1050600007E050F81C1F01E050F8181F21F4006100
:10507000120201600168114301607047406A704785
:105080004162704710B541F6FF31C4F20001884219
:105090001BDC40F6FF31C4F20001884230DD41F2F2
:1050A000FF31C4F20001884250DC40F60041C4F2F6
:1050B0000001884269D041F20001C4F20001884237
:1050C00040F0828040F6040476E040F2FF31C4F202
:1050D0000101884226DD44F2FF31C4F20101884219
:1050E00043DC40F20041C4F20101884250D044F256
:1050F0000001C4F20101884266D14FF411645BE003
:10510000B0F1804F47D040F20041C4F20001884224
:1051100044D040F60001C4F20001884254D140F668
:10512000020449E041F60041C4F20001884238D04F
:1051300042F20001C4F20001884235D00021C4F2DD
:105140000101884240D14FF4106435E041F2004142
:10515000C4F2000188422AD041F60001C4F20001E5
:10516000884231D140F6060426E044F20041C4F200
:10517000010188421ED044F60001C4F201018842B8
:1051800018BF10BD40F6121416E040F6030413E0F9
:1051900040F6011410E04FF400640DE040F6010405
:1051A0000AE040F6070407E040F6080404E040F691
:1051B000050401E040F611142046FFF795FC204657
:1051C000BDE81040FFF780BC10BD0000016841F051
:1051D00001010160704700000A8840F2004C8262C1
:1051E00040F6FF32C4F200029042C4F2010C0FDC20
:1051F000B0F1804F19D040F20043C4F2000398424E
:1052000013D040F60003C4F2000398420DD018E01A
:1052100040F60043C4F20003984206D0604504D033
:105220000023C4F2010398420BD1036823F07003FA
:1052300003604B8802681A4302608A8803681A4335
:10524000026080B541F20002D1F808E020F48063EA
:10525000C4F200029342C0F82CE007D0026822F4A6
:1052600040720260CA8803681A43026040F4806298
:10527000624504BF097B0163416941F0010141615D
:1052800080BD0000F0B5032900F28B80DFE801F05B
:10529000021B355784465CF8203F4FF0010E23F087
:1052A0000103CCF80030DCF8003023F00A03CCF81E
:1052B00000301388DCF800703B43CCF80030034624
:1052C00053F8187F32E084465CF8203F4FF0100E10
:1052D00023F01003CCF80030DCF8003023F0A003FA
:1052E000CCF800301388DCF8007047EA0313CCF8E0
:1052F0000030034653F8187F3AE084465CF8203FBC
:105300004FF4807E23F48073CCF80030DCF800305A
:1053100023F42063CCF800301388DCF8007047EAEF
:105320000323CCF80030034653F81C7F27F0030713
:105330001F6054881D6804266FF0F00721E0844642
:105340005CF8203F4FF4805E23F48053CCF80030AB
:10535000DCF8003023F40053CCF800301388DCF87C
:10536000007047EA0333CCF80030034653F81C7F43
:1053700027F440771F6057881C683D020C266FF4A5
:1053800070472C431C601C683C401C60D4881D681E
:10539000B4402C431C60DCF8003043EA0E03CCF828
:1053A0000030032988BFF0BD9288DFE801F00205D4
:1053B000080D50F8181F04E050F8181F06E050F8C8
:1053C0001C1F21F00C0104E050F81C1F21F4406167
:1053D00012020160016811430160F0BDC26811430F
:1053E000C1607047C943016170470000C26800692D
:1053F0000A40084018BF0120002A18BF01221040AF
:1054000070470000D0F808C042EA03122CF0070CE5
:10541000C0F808C0D0F808C041EA0C018160D0F89B
:1054200018C040F203312CEA01018161D0F818C0A4
:1054300040F2011141EA0C018161016A21F00A0187
:105440000162016A21F0A0010162016A1143016257
:1054500070470000B0B5044647F2FF70C4F2000088
:105460000D4684424FF000000EDC44F6FF31C4F2DA
:1054700000018C4217DC44F20041C4F200018C426E
:105480001DD044F6000116E040F6FF71C4F20101A0
:105490008C422FDC47F60001C4F200018C420ED092
:1054A00047F6004107E044F60041C4F200018C4297
:1054B00005D045F20001C4F200018C4203D1022163
:1054C0000846FFF793FAE168090406D400EB55009B
:1054D000B0FBF5F080B2A060B0BD400000EB55001D
:1054E000B0FBF5F04FF6F0710140C0F34200084404
:1054F000A060B0BD41F20001C4F201018C424FF046
:105500000301DDD041F20042C4F201029442D7D03F
:10551000D9E7000040686FF35F2070476FF35F21A9
:105520004160704710B547F2FF71C4F20001884234
:1055300014DC44F6FF31C4F20001884224DC44F25A
:105540000041C4F2000188423CD044F60001C4F29C
:105550000001884249D140F612043EE040F6FF7156
:10556000C4F2010188421EDC47F60001C4F20001CA
:1055700088422AD047F60041C4F20001884218BF91
:1055800010BD40F61F0428E044F60041C4F20001BB
:1055900088421DD045F20001C4F20001884224D1A6
:1055A00040F6140419E041F20001C4F201018842FE
:1055B00011D041F20041C4F20101884215D140F6F8
:1055C00005140AE040F6110407E040F61E0404E06A
:1055D00040F6130401E040F604142046FFF784FA75
:1055E0002046BDE81040FFF76FBA10BDC16841F416
:1055F0000051C160704700008A09105801F01F0176
:10560000C84000F00100704770B505464FF4406097
:10561000FFF74AFA4FF44060FFF746FA41F20410F0
:10562000FFF742FA41F20004C4F2010404F57046A7
:10563000304607214FF40072FDF71EFC304607216B
:105640004FF48062FDF718FC3046022101224FF42E
:105650000073FDF757FC3046022101224FF48063AE
:10566000FDF750FC3046002102224FF40073FDF795
:1056700073FC3046002102224FF48063FDF76CFC7E
:105680002046FFF74FFF20462946FFF7E3FE20465E
:10569000002100F043F82046002100F05BF820468E
:1056A000002100F049F82046FFF7A0FF204608211E
:1056B00000F04AF82046042100F038F825200221A5
:1056C0000222FEF7B3FD204640F2053100F008F853
:1056D00020464FF44171BDE8704000F001B8000071
:1056E00001F01F0289094FF0010C0B580CFA02F26D
:1056F0001A430A5070470000C1F3891252F800C0E3
:105700008A0D105801F01F03C1F30441C8402CFA60
:1057100003F1084000F0010070470000C26822F465
:10572000C062C260C2681143C1607047C26822F0A3
:1057300004021143C1607047026922F440520261C1
:105740000269114301617047C26822F008021143E7
:10575000C1607047C26822F48052C260C2681143BF
:10576000C1607047D0E9013201699A60D1F804C084
:1057700082688445536008BF4A600022026108685D
:1057800001380860086870474FF0FF31024642F860
:10579000081F00214260C0E9032201607047000039
:1057A000002101617047000080B5D1F800C01CF1F4
:1057B000010207D000F108039E465B681A68624543
:1057C000FAD901E0D0F810E0DEF8042008614A6060
:1057D0009160C1F808E0CEF8041001680131016061
:1057E00080BD0000D0F800C0436808619A684B6033
:1057F0008A609A68996051600CF1010101607047FC
:10580000DFF80C00016841F470010160704700008E
:1058100088ED00E04FF0500080F31188BFF36F8FE8
:10582000BFF34F8F40F24C00C2F2000001684A1CE7
:105830000029026018BF70474EF60450CEF20000F7
:10584000006800060BD048F6006048F68361C0F699
:105850000000C0F6000140F2A91201F0D3B9704770
:1058600010B540F24C04C2F20004206858B948F662
:10587000006048F68361C0F60000C0F600014FF4F6
:10588000D87201F0BFF920680138206018BF10BD40
:10589000002080F3118810BDB0B528B3044650F83D
:1058A000040CA4F1080500280BD448F6006048F663
:1058B0006161C0F60000C0F6000140F22F1201F055
:1058C000A1F9286858B148F6006048F66161C0F651
:1058D0000000C0F600014FF4987201F093F954F8FB
:1058E000040CB0F1FF3F00DDB0BD2968002918BFEE
:1058F000B0BD20F0004044F8040C00F05FFA44F220
:10590000FC01C2F2010154F8040C0A68104408605A
:1059100044F28411C2F2010108460968A942FBD38E
:1059200042688318AB4204D154F8043C05461A443B
:1059300042606B68EA188A4201D00A460AE041F2E6
:10594000EC12C2F200021268914203D0D1E90021A8
:1059500019446960A8422A6018BF056044F2141017
:10596000C2F20100016801310160BDE8B04001F000
:1059700053B800004EF21000CEF20000002101608A
:10598000816040F20801C2F20001096844F6D35276
:10599000C1F26202A1FB02124FF0FF3101EB921142
:1059A0004160072101607047F0B581B004460F46A1
:1059B00058B948F6006048F60F61C0F60000C0F61E
:1059C000000140F6D82201F01DF94FF00000B7B1F8
:1059D00044F23011C2F201010023002503E000BFB0
:1059E0000833502B0ED0CA185668A64209D0002D95
:1059F000F6D11668002E18BF02461546F0E70025BE
:105A000000E01546002D18BFC5E9007401B0F0BDD7
:105A100070B515460E460446FFF7FCFE94F84400A8
:105A2000FF2804BF002084F8440094F84500FF28B4
:105A300004BF002084F84500FFF712FFA06B28B9CF
:105A400004F1240031462A4600F034F92046BDE82E
:105A50007040FEF7B3BE000070B5002854D044F289
:105A6000A005C2F201050446286858B148F6006056
:105A700048F62A61C0F60000C0F6000140F21C5250
:105A800001F0C0F828680130286044F2B41041F2F7
:105A9000E015C2F20100C2F2000506682868043071
:105AA000FFF760FE60B9286844F2A802C06AC2F23B
:105AB00001020121136801FA00F023EA00001060DE
:105AC0002868A419446009D341F2F010C2F2000022
:105AD000006829680431FFF767FE10E041F2E81022
