:020000040800F2
:1000000010440120C1010008C10A0008C10800080D
:10001000F508000845080008E50D0008000000008C
:10002000000000000000000000000000410B00087C
:100030007108000800000000D10A0008650B0008E4
:10004000DB010008DB010008DB010008DB01000820
:10005000DB010008DB01000875080008DB0100086F
:10006000DB010008DB010008DB010008DB01000800
:10007000DB010008DB010008DB010008DB010008F0
:10008000DB010008DB010008DB010008DB010008E0
:10009000DB010008DB010008DB010008DB010008D0
:1000A000DB010008DB010008DB010008DB010008C0
:1000B000E90C0008290D0008DB010008DB0100083D
:1000C000DB010008DB010008DB010008DB010008A0
:1000D000DB0100087D0D0008DB010008DB010008E2
:1000E000DB010008DB010008DB010008DB01000880
:1000F000DB010008DB010008DB010008DB01000870
:10010000DB010008DB010008DB010008DB0100085F
:10011000DB010008DB0100084D0D0008DB010008D1
:10012000DB010008DB01000849080008DB010008CA
:10013000DB010008DB010008DB010008DB0100082F
:10014000DB010008DB010008DB010008DB0100081F
:10015000DB010008DB010008DB010008DB0100080F
:10016000DB010008DB010008DB010008DB010008FF
:10017000DB010008DB010008DB01000800000000D3
:10018000DB010008DB010008DB010008DB010008DF
:10019000DB010008DB010008DB01000800000000B3
:1001A000DB010008DB010008DB010008DFF80CD0F0
:1001B00000F020FB00480047F9120008104401201D
:1001C0000648804706480047FEE7FEE7FEE7FEE7F1
:1001D000FEE7FEE7FEE7FEE7FEE7FEE7890B000825
:1001E000AD01000840EA01039B0703D009E008C9FC
:1001F000121F08C0042AFAD203E011F8013B00F8EC
:10020000013B521EF9D27047D2B201E000F8012B37
:10021000491EFBD270470022F6E710B513460A4686
:1002200004461946FFF7F0FF204610BD2DE9FE4FAA
:10023000804681EA0300C00F0C46009021F0004187
:1002400023F00045B8EB0200A94105D24046214603
:1002500090461C460B46024623F00040104347D010
:10026000270DC7F30A00C3F30A510290401A019008
:1002700040286BDAC3F3130040F4801B00989246C9
:1002800020B10023D2EB030A63EB0B0B0198594614
:10029000C0F14002504600F0C7F906460D465046F0
:1002A0005946019A00F0CFF910EB08006141002493
:1002B00087EA115284EAE7731A4340D0009A62B386
:1002C000019A012A4FEA075215DC001B61EB02017B
:1002D0004FF0004202EA0752CDE90042001C41F50E
:1002E000801132462B4600F006FA03B0BDE8F08FCD
:1002F00040462146F9E7001B61EB0201001C41F575
:10030000801300185B412018A2F5001747EB03018A
:1003100040EAD570B6196D4111E06D084FEA360616
:1003200045EAC0754FEA0752001B61EB0201001C51
:1003300041F5801149084FEA300000195141324619
:100340002B4603B0BDE8F04F00F0C6B9009801227B
:1003500040000023D0EB020263EBE07300982146DB
:100360004FEAE074B8EB000061EB0401E9E783F0C9
:1003700000435BE781F0004158E72DE9FE4F81EA39
:10038000030404F0004421F0004100944FF0000BFE
:1003900023F0004350EA01045ED052EA03045BD02C
:1003A000C3F30A54C1F30A552C44A4F2F334019464
:1003B000A0FB0254C1F3130141F48011C3F31303F2
:1003C00043F4801301FB024400FB034E840A970AA6
:1003D00044EA815447EA8357A4FB076802958D0AD3
:1003E00005FB07854FEA932C04FB0C542705029D5F
:1003F0004FEA065847EA1637B5EB08056EEB070CCF
:10040000870E920E47EA811742EA8312A7FB020188
:10041000B6EB0B0164EB00042B0D43EA0C335E18C2
:1004200044EB1C50DA465146E7FB0201C5F31304C6
:100430004FEA0B3343EA14534FEA0432019C43EA78
:100440000603A4F10C040294009CCDE900B400F072
:1004500052F903B0BDE8F08F00200146F9E72DE91D
:10046000F04D81EA030404F0004B21F000451446EE
:100470004FF0000A23F0004150EA050220D054EA70
:1004800001021DD0C5F30A570246C5F31303C1F399
:100490001300C1F30A5640F4801543F48013A7EB10
:1004A0000608101BD64608F2FD3873EB050002D390
:1004B00008F1010801E092185B41B8F1000F03DA7E
:1004C00000200146BDE8F08D00204FF48011064663
:1004D00084460EE0171B73EB050705D3121B63EB75
:1004E000050306434CEA010C49084FEA3000921814
:1004F0005B4150EA0107EDD152EA030012D082EAD3
:10050000040083EA0501084305D0101BAB4106D265
:100510000122002306E000224FF0004302E06FF0CA
:10052000010253101AEB06004CEB085110EB0A00C5
:1005300041EB0B01BDE8F04D00F0CEB800F00042F9
:1005400030F000400AD0C10D01F56071C0F3160013
:1005500042EA0151C208400711437047002001469A
:10056000704701F0004330B421F0004150EA01022D
:1005700006D00A0DA2F56072C1F31301002A02DC55
:1005800030BC00207047440F44EAC104C100E018A9
:1005900030BC00EBC25000F068B830B50B460146E5
:1005A00000202022012409E021FA02F59D4205D312
:1005B00003FA02F5491B04FA02F52844151EA2F1BC
:1005C0000102F1DC30BD2DE9F05F054600209246C6
:1005D0009B4688460646814640241BE02846414605
:1005E0004746224600F01EF953465A46C01A91412A
:1005F00010D311461846224600F016F82D1A67EB64
:1006000001084F4622460120002100F00DF817EBAB
:1006100000094E41201EA4F10104DFDC48463146AA
:100620002A464346BDE8F09F202A04DB203A00FA20
:1006300002F1002070479140C2F1200320FA03F339
:10064000194390407047202A06DBCB17203A41FA25
:1006500002F043EAE07306E041FA02F3D040C2F14F
:10066000200291400843194670470029A8BF7047EF
:10067000401C490008BF20F00100704710B4B0FAD8
:1006800080FC00FA0CF050EA010404BF10BC704773
:1006900049B1CCF1200421FA04F411FA0CF118BF8D
:1006A000012121430843A3EB0C01CB1D4FEA00615C
:1006B0004FEA102042BF002010BC704700EBC3502F
:1006C00010440029A4BF10BC7047401C490008BF5B
:1006D00020F0010010BC704710B5141E73F1000427
:1006E00008DA401C41F1000192185B411A4301D124
:1006F00020F0010010BD2DE9F04D92469B4611B14E
:10070000B1FA81F202E0B0FA80F220329046FFF7AF
:100710008BFF04460F4640EA0A0041EA0B015346AC
:100720005A46084313D0114653EA010019D0C8F1C4
:100730004002504600F076F805460E4650465946AF
:100740004246FFF771FF084305D0012004E0204630
:100750003946BDE8F08D0020054346EAE0762C439B
:1007600037430A986305E40AA0EB08000022FD0A5B
:1007700044EA47540A3002D500200146E9E7010562
:1007800010196941DDE9084500196941BDE8F04DDE
:10079000A2E7C1F30A52C1F3130140F2FF3341F45F
:1007A00080119A4202DA00200146704740F233433A
:1007B0009A42A2F2334202DC524200F033B8FFF711
:1007C00033BF000030B5041E71F1000404DB4FF0AC
:1007D0000044404264EB0101141E73F1000405DB88
:1007E0001C464FF00043524263EB0403994208BF9A
:1007F000904230BD1CB5094800900948019005465B
:10080000009C06E0E06840F0010394E80700984788
:100810001034AC42F6D3FFF7CDFC0000A045000831
:10082000C0450008202A04DB203A21FA02F000210A
:10083000704721FA02F3D040C2F1200291400843F0
:1008400019467047FEE7000010B546F20044C4F2B6
:10085000020420460221202200F09EFB012818BF3E
:1008600010BD204602212022BDE8104000F078BBD8
:10087000FEE7000010B5012000F076FC012818BF4B
:1008800010BD0024C4F202042046012100F0C8FC7F
:10089000012809D104F54060802100F0B9FC44F240
:1008A000E640C0F6000003E044F2D840C0F6000085
:1008B00003F0FCFD0120BDE8104000F04FBC00003B
:1008C000FEE7000040F60044C4F202042046802106
:1008D000012200F09FFC4FF4FA7002F091F92046DB
:1008E0008021002200F096FC4FF4FA7002F088F9A3
:1008F000ECE70000FEE700004FF0804001F08EBC06
:100900002DE9F04186B04FF4406001F0A1FA40F6C5
:10091000014001F09DFA40F6024001F099FA40F6DC
:10092000024001F095FA40F20044C4F2000404F5DC
:10093000FE352846022100224FF400434FF0000804
:1009400000F074FC04F50037384602210022082329
:1009500000F06CFC04F501363046022100224023F1
:1009600000F064FC304602210022802300F05EFC8F
:10097000284601214FF4004200F012FC38460121C4
:10098000082200F00DFC30460221402200F008FC55
:1009900030460221802200F003FC4FF4805001F029
:1009A00057FA4FF0807001F083FA4FF0804001F069
:1009B00039FC4FF4C67602A94FF0804004968DF8BA
:1009C0001480CDE9028801F0D7FC4FF0804003216C
:1009D0000022002301F0E6FD6D46284601F0E0FA12
:1009E0000A274FF0804000212A46ADF8067001F03A
:1009F00019FD4FF0804001212A4601F013FD1C2013
:100A00000221022200F0E6FD4FF08040012101F0BA
:100A1000B5FD4FF08040012101F0B4FD4FF0804062
:100A2000002101F0FDFB4FF0804001F0B3FA4FF0E0
:100A3000804001F09BFC41F2010001F009FA4FF007
:100A4000807001F035FA204601F0ECFB02A9204647
:100A500004968DF81480CDE9028801F08DFC2046C3
:100A600003210022002301F09DFD6D46284601F080
:100A700097FA204600212A46ADF8067001F0D2FC14
:100A8000204601212A4601F0CDFC1D200221022230
:100A900000F0A0FD2046012101F070FD204601215B
:100AA00001F070FD2046002101F0BAFB204601F064
:100AB00071FA204601F05AFC06B0BDE8F081000052
:100AC000FEE7000000000000000000000000000041
:100AD000EFF30980BFF36F8F154B1A681EF0100FEC
:100AE00008BF20ED108A20E9F04F10602DE90900C1
:100AF0004FF0500080F31188BFF34F8FBFF36F8F1B
:100B000002F038FA4FF0000080F31188BDE80900C8
:100B100019680868B0E8F04F1EF0100F08BFB0EC7D
:100B2000108A80F30988BFF36F8F704700BF00BF42
:100B3000381000200000000000000000000000004D
:100B4000074B19680868B0E8F04F80F30988BFF3D5
:100B50006F8F4FF0000080F31188704700BF00BF17
:100B60003810002080B502F0C9FD012807D141F2FC
:100B7000D420C2F2000001680131016080BDBDE8EF
:100B8000804002F0FBBA000081B04EF68851CEF2F0
:100B900000010A6843F6080042F47002C4F2020041
:100BA0000A6050F8081C41F0010140F8081C00BF21
:100BB00050F8081C8907FBD5016841F080010160ED
:100BC00000210091009A4F2A06D800BF009A0132F6
:100BD0000092009A502AF9D3026842F09002026013
:100BE000009100994F2905D8009901310091009991
:100BF0005029F9D301684FF6FF7221F0030101601B
:100C000050F8081CCFF6F662114040F8081C50F866
:100C1000081C4FF0000C21F4802140F8081CC0F89B
:100C200000C0026843F21002C2F2004240F8042CF5
:100C3000C0F804C050F8082C42F4803240F8082C68
:100C40004FF6FE7250F8081C013A4CF1000389037C
:100C500002D4002BF6D100BF50F8081C8903FBD545
:100C6000826B47F2000142F08052C4F200018263BD
:100C70000A6842F440420A6002680260026842F474
:100C800000420260026842F4A052026047F6190274
:100C9000C0F6402240F8042C50F8082C42F0807234
:100CA00040F8082C50F8082C9201FBD50A6842F451
:100CB00080320A604A68D203FCD50A6842F40032E6
:100CC0000A6000BF4A689203FCD5016821F0030165
:100CD0000160016841F00201016000BF016809077D
:100CE000FCD501B07047000010B54FF080400121E5
:100CF0004FF0804401F04AFC012818BF10BD206865
:100D000040F21002C2F200021168C0064FF0FF303C
:100D100058BF012043184FF0804001211360BDE807
:100D2000104001F02FBC000010B540F20044C4F2A6
:100D300000042046012101F029FC012818BF10BD44
:100D400020460121BDE8104001F01CBC10B541F265
:100D50000004C4F200042046012101F017FC012820
:100D600018BF10BD2046012101F00CFC04F5FE3037
:100D70008021BDE8104000F04BBA0000B0B541F250
:100D80000004C4F2010440F20431C0F20401204620
:100D900001F086FD012818BFB0BD204601F08AFC95
:100DA00004F5AA342046022100F0D2F941F22A05C6
:100DB000C0F58050C2F2000528802046022100F0D4
:100DC00035F800F053F8288840F22801C2F20001FB
:100DD00000220A5441F22800C2F2000001210170F1
:100DE000B0BD0000FEE7000010B50446042001F08D
:100DF000C5F840F2200140F22400C2F200010122B5
:100E0000C2F200000A704EF210010460CEF200013E
:100E10000A684FF47A70604342F002020A60486048
:100E2000086840F00100086010BD000001EB4101BE
:100E300000EBC100016921F0010101617047000070
:100E400001EB410100EBC100016941F001010161C9
:100E50007047000001EB410100EBC100016921F086
:100E6000606141EA426101617047000010B58AB0DB
:100E700040F6164000F0ECFF46F20044C4F20204D3
:100E80002046022100F036F8A4F5A83040F22801EF
:100E9000A0F57F70C2F200010190012003910021B2
:100EA0000290CDE906014FF4805008904FF4403095
:100EB000CDE90411099001AA2046022100F004F9AD
:100EC000204602210422FFF7C5FF20460221FFF73A
:100ED000B7FF20460221102200F034F83A20022108
:100EE000012200F077FBA4F5AA30402101F04EFC6E
:100EF0000AB010BD01EB410200EBC20213694FF0D2
:100F00003D0C23F0010313610023136153619361CE
:100F1000D3611362212353620A1F28BFD1B201EBB0
:100F2000410301F002014FF00C024FEA410138BFCA
:100F3000082201EB430113580CFA01F11943115037
:100F400070470000102301EB4101802A08BF2423D1
:100F5000184450F831301A4340F8312070470000EF
:100F60000B1F38BF0B46D9B24FEA410151FA83F14A
:100F700003F002034FF00C0C4FEA430338BF4FF06D
:100F8000080C03EB41015CF8003002FA01F119434F
:100F90004CF8001070470000F0B5032921D8561E08
:100FA0001F2E4FF0000300F28C804FF0800C2424A1
:100FB0008E460546DFE806F06C8585108585853A06
:100FC0008585858585858541858585858585858515
:100FD00085858585858585484FF0020C102404227F
:100FE00028E0561E1F2E4FF0000300F26A800FF219
:100FF0000C0202EB86070A1FDFE806F01063632B82
:1010000063636333636363636363633B6363636308
:10101000636363636363636363636343051D5FFAD1
:1010200082FE4FF0800C2424012231E04FF0040CAA
:10103000102408228E4605462AE04FF0080C1022A4
:101040008E460546102423E0102420228E460546B5
:101050001CE0051D5FFA82FE4FF0020C10240422F2
:1010600016E0051D5FFA82FE4FF0040C10240822E2
:101070000EE0051D5FFA82FE4FF0080C10221024CE
:1010800006E0051D5FFA82FE102420224FF0100CAE
:101090000EF002072B680EEB4E057F00204401EB9B
:1010A000410107EB450750F83100BA4013EA02014D
:1010B00000EA0C0018BF0121002818BF012001EA36
:1010C00000031846F0BD000080B501EB410100EBC4
:1010D000C100416A48F23F7321F004014162116886
:1010E000CFF6FC7381619168C161D1694161016989
:1010F000D2F818E001EA030C116A136941EA0C0105
:1011000041EA830141EA0E01194301615168012955
:1011100007D00029016914BF41F4004141F4007176
:1011200002E0016921F400710161D16803690029BD
:1011300023F4806308BF03F580630361516902698A
:10114000002922F4807208BF02F58072026180BD1E
:1011500001EB410100EBC1004069704743F61441C7
:10116000C4F201010860704743F61441C4F2010162
:101170000968084018BF012070470000B0B541F26F
:101180000005C4F201050446C1B2284601F096FAF2
:101190002846072101F00AFB0028F9D02046B0BDFF
:1011A000F0B5D0F820E0D0F824C000230F270025A8
:1011B00005E000BF0135082D03F104030CD022FA2D
:1011C00005F6F607F6D007FA03F62EEA060601FA48
:1011D00003F446EA040EEDE7082300240F2504E09B
:1011E0000133102B04F104040CD022FA03F6F607A5
:1011F000F6D005FA04F62CEA060701FA04F647EAE7
:10120000060CEDE7C0F820E0C0F824C0F0BD0000F7
:10121000C16270471823002A08BF2823195070475D
:101220000069084018BF0120704700002DE9F04117
:10123000D0F800E0D0F80CC000244FF003080026DE
:1012400005E000BF0136102E04F1020412D023FA8B
:1012500006F7FF07F6D008FA04F72EEA070E01FAA0
:1012600004F54EEA050E2CEA070702FA04F547EAF0
:10127000050CE7E7C0F800E0C0F80CC0BDE8F0815D
:101280000129416814BF994319434160B0B5D0F8B2
:1012900008C000214FF0030E002404E00134102C9C
:1012A00001F102010CD023FA04F5ED07F6D00EFA95
:1012B00001F52CEA050C02FA01F54CEA050CEDE704
:1012C000C0F808C0B0BD000010B540F6034000F003
:1012D000BFFD40F60044C4F2020420460121002272
:1012E0008023FFF7A3FF2046002102228023BDE8D0
:1012F0001040FFF7C5BF000082B000F031FE41F2A0
:10130000D02C41F6D560C2F2000C4FF0010EC0F6B1
:10131000000006A14FF496720023CDE900EC02F024
:10132000F1F801F0CFFD00BFFEE700BF535441527A
:10133000545F5441534B0000024640F60040C4F253
:101340000000012100F048BF84B000F09DF8FFF7D5
:10135000D7FA41A003F0AAF89FED3B0B41F230050C
:1013600051EC100B9FED3A0B41F22C0B40F2080AA6
:1013700040F2180943F6F466CDE9021057EC100B61
:10138000C2F20005C2F2000BC2F2000AC2F200096A
:10139000C2F20106019000BF40F29020C4F2412049
:1013A00001210160FFF7A8FA40F21001C2F200012A
:1013B00004462868D1F80080DBF80010201AA8EB5A
:1013C00001014FF4C67201FB02009AED001A00EE13
:1013D000100AB8EEC00AB8EEC11A80EE010A40F257
:1013E0001401C2F20001086040F21C00C2F20000C9
:1013F0000460C9F8008010EE100AFFF79FF8DDE9DD
:101400000232FFF72CF8019A3B46FEF7B6FFFFF7D2
:10141000A8F8306041F64C50CBF800802C60FFF704
:101420008BFF3068FFF78AF8D9F8004002460DA01C
:101430000B46009402F0C0FBDAF8000001F0E0FB7C
:10144000AAE700BF00BF00BF0000000000C0784056
:101450000000000000408F406D6F746F725F696E16
:1014600069740D0076656C6F636974793A252E3264
:10147000662C20636972636C655F636F756E743A86
:1014800025640D0A00000000F0B587B040F6024068
:1014900000F0DEFC40F6024000F0DAFC40F60044CA
:1014A000C4F2000404F5FE35284601210022102371
:1014B00001260027FFF7BAFE28460121002220233B
:1014C000FFF7B4FE2846002102221023FFF7D8FEC2
:1014D0002846002102222023FFF7D2FE4FF440606D
:1014E00000F0B6FC4FF4406000F0B2FC04F5FA35B1
:1014F0002846022100220223FFF798FE28460221F7
:1015000000220423FFF792FE284600210222022334
:10151000FFF7B6FE2846002102220423FFF7B0FEA3
:10152000284602210222FFF73BFE28460221042220
:10153000FFF736FE41F2030000F08AFC4FF08070A6
:1015400000F0B6FC204600F06DFE1320CDE9030745
:1015500042F20F70059003A920468DF8187000F034
:101560000BFF6D46204601212A46ADF80470ADF808
:10157000006000F01BFD204602212A4600F016FD07
:1015800020460121002200F027FE20460121602292
:1015900000F006FE20460121002200F023FE204636
:1015A0000221002200F018FE20460221602200F0F5
:1015B000F7FD20460221002200F014FE204600F034
:1015C000E9FC204600F0D2FE07B0F0BD4FF44070B9
:1015D00000F052B84EF60C5CCEF2000CDCF8003095
:1015E00003F4E063B3F5E06F01D1042328E0DCF8F5
:1015F000003003F4E063B3F5C06F01D103231FE0B3
:10160000DCF8003003F4E063B3F5A06F17D0DCF82A
:10161000003003F4E063B3F5806F01D101230FE0E4
:10162000DCF8003003F4E063B3F5407F01D1002320
:1016300006E040F20053C0F2FA53CCF80030022327
:1016400001FA03FCC3F104030F21D94011404EF20B
:10165000001241EA0C01CEF20002090140EA020345
:1016600083F8001300F01F01012303FA01F11C238A
:1016700003EAD0008150704740F080604EF60C5174
:1016800040F0FD70CEF2000108607047F0B581B007
:101690000D4644F2000141F23806C2F20101C2F2E5
:1016A00000060F6831680446081D01F02FF910B1DB
:1016B000601C0FD027E0306843F6F062C06AC2F2C7
:1016C00001020121136801FA00F023EA0000106012
:1016D000601C18D1BDB143F6D870C2F20100416858
:1016E000326891608A683368DA6032688B680432E5
:1016F0005A60326804328A60316848610168013199
:10170000016001B0F0BD3068E41944600BD341F2D0
:101710004800C2F2000000683168043101B0BDE841
:10172000F04001F015B941F24000C2F2000000683B
:101730003168043101F00CF943F65470C2F2010033
:1017400001688C4238BF046001B0F0BD70B501F093
:1017500035F944F20406C2F20106306818B1BDE85A
:10176000704001F051B943F6F864C2F2010420461A
:1017700001F0DEF843F60C75C2F20105284601F0CF
:10178000D7F841F23C00C2F20000046041F24C0084
:10179000C2F2000005600A200C21002201F006FDC3
:1017A00000283060DBD003A101F0D2F9BDE8704021
:1017B00001F02AB9546D72510000000043F6E4654F
:1017C00041F2500A4EF6045843F6EC7743F6E066D1
:1017D000C2F20105C2F2000ACEF200084FF08059B1
:1017E000C2F20107C2F2010615E000BF01F0E6F8FF
:1017F000F868C468201D01F089F83068013830604D
:1018000028680138286001F0FFF8206B01F018F912
:10181000204601F015F928680028E7D1DAF8000021
:101820000228F8D3C8F80090BFF34F8FBFF36F8F33
:10183000F1E7000008480068006880F308884FF06E
:10184000000080F3148862B661B6BFF34F8FBFF318
:101850006F8F00DF00BF000008ED00E02DE9F043CE
:1018600081B041F23C08C2F20008D8F800200546D9
:10187000D2680E46D46804F10409484601F046F8DF
:1018800094F8240041070CD400F0FE0084F82400F2
:101890001CE000BF711B814210D3216A204688479B
:1018A0003D46A06924614719B7426760F2D9AE424C
:1018B00001D2AF42F1D2D8F8000004E041F24C006E
:1018C000C2F200000068494601F042F8216A204651
:1018D00001B0BDE8F043084780B582B00020019018
:1018E00040F20C00C2F20000006801300AD044F25D
:1018F000F24044F27551C0F60000C0F60001EA2241
:1019000002F05AF94FF0500080F31188BFF36F8F47
:10191000BFF34F8F01980028FCD002B080BD0000BB
:1019200084B041F23C0441F2340B41F24C0844F2E1
:101930000409C2F20004C2F2000BC2F20008C2F2B3
:1019400001090DF1040A00BF2068076817B1C068DB
:10195000066800E0002601F005FB01F0E3FEDBF87D
:1019600000100546884209D22068016891B1C0681C
:101970004FF0FF310068FFF771FFF5E7CBF800503B
:1019800097B1AE4210D802F021F830462946FFF751
:1019900065FF29E0D8F80010C8F800002160CBF8F6
:1019A000005002F013F81FE00FB1002205E0D8F854
:1019B00000000068B0FA80F04209D9F80000711BFD
:1019C00001F0FAF802F002F870B94EF60450CEF2C7
:1019D00000004FF080510160BFF34F8FBFF36F8F56
:1019E00002E0206800F0B4FFD9F800005146002260
:1019F00001F064FC0028A7D001980028F4D4039FCC
:101A0000786910B1381D00F081FF01F08BFEDBF822
:101A10000010054688420ED22068016831B1C068C6
:101A20004FF0FF310068FFF719FFF5E7D8F8001015
:101A3000C8F8000021600198CBF800500138082850
:101A4000D2D8DFE800F005051A215705051A210054
:101A500097F82400029AB96940F0010387F824300E
:101A60008B183E4646F8043FAB423F6132D995425F
:101A700001D2934237D2206831E097F8240000F079
:101A8000FE0087F82400AFE797F82400029940F0A1
:101A9000010087F82400B96159B944F2F24044F2D8
:101AA0003751C0F60000C0F6000140F25E3202F08D
:101AB00083F8B8693946421941F8042FAA423F61B8
:101AC0003FF68FAF00283FF48FAFD8F8000000F04A
:101AD0003FFF89E7AA1A8A4205D2D8F800003146AA
:101AE00000F036FF80E742070CD400F0FE0087F8D4
:101AF000240032E097F824008107C0D4384600F073
:101B00009FFF71E70298D346CA46C146084406E0E3
:101B1000281A884215D3396A384688474046B96939
:101B20003F6101EB0008A845C7F80480F0D9854261
:101B300001D28045EFD22068314600F009FFC84647
:101B400005E0D9F800003146C84600F001FFD14653
:101B5000DA4641F2340BC2F2000B396A3846884744
:101B600042E70000F0B581B0044600F027FF94F989
:101B70004560012E0FDB04F1240500BF286850B139
:101B8000284601F0B1FE002818BF01F03FF970B2FD
:101B9000013E0128F2DCFF2684F8456000F034FFA6
:101BA00000F00CFF94F94470012F0EDB04F11005D6
:101BB000286850B1284601F097FE002818BF01F0B0
:101BC00025F978B2013F0128F2DC84F8446001B0C5
:101BD000BDE8F04000F018BF2DE9F04381B00446A5
:101BE00001F0C0F941F24406C2F20006306843F643
:101BF0004878C2F2010858B184B304F007001138E4
:101C0000A04226BF24F0070000F11005002526E0C1
:101C100041F2D820C2F20000C11D420700F5963201
:101C200018BF21F0070043F6D071C2F20101002372
:101C3000C1E9000322F00701A1F10802326041E985
:101C40000233111A3268C8F80010C0E9002143F6C7
:101C50005070C2F201000160002CCED10025012D90
:101C60004FF0000470DBD8F8000085426CD843F6D2
:101C7000D070C2F2010007687968A94207D200BF9C
:101C80003A6822B1516838461746A942F8D33268FB
:101C900097422FD0D0F800903A68491B1129026072
:101CA00035D37C1960070AD044F2F24044F2535114
:101CB000C0F60000C0F60001DC2201F07DFF78686C
:101CC00043F6D071401BC2F2010160607D6000BF2D
:101CD00008460968A142FBD342688318A34203D196
:101CE000636804461A4442606368E2188A4203D07B
:101CF0000A4608E0002427E03268914203D0D1E987
:101D0000002119446160A042226018BF046043F6BC
:101D100050707968D8F80020C2F201000368511AA7
:101D20009942C8F8001038BF016043F65C727868C9
:101D3000C2F20102136840F00040002109F10804DA
:101D4000C7E90010581C106001F040FE60070BD07E
:101D500044F2F24044F25351C0F60000C0F60001D4
:101D60004FF48E7201F028FF204601B0BDE8F083E9
:101D7000034641F6D90021F00101C0F600004FF002
:101D8000807C03E903106FF00201A3F1440043E9F2
:101D90000912704710B543F60402C4F202025368F8
:101DA0000146C3F3810342F20040022BC0F2F4006B
:101DB00006D0012B1FD147F64000C0F27D101AE07B
:101DC000D2F800C013680CF03F0CC3F3881E1368F0
:101DD0001468C3F30143640247F64004C0F27D1463
:101DE00058BF0446B4FBFCF4022000EB430004FBA4
:101DF0000EF3B3FBF0F0536811A4C3F30313E35CD9
:101E0000546844F2D04CC4F38224C0F6000C1CF891
:101E100004E05268032907D820FA03F3DFE801F051
:101E20000F020609184610BD002010BD23FA0EF05F
:101E300010BDC2F342301CF8000023FA00F010BDC0
:101E4000000000000000000001020304060708096A
:101E500043F6000300F01F018009C4F202034FF0B3
:101E6000010CC2580CFA01F11143C1507047000037
:101E700043F6000300F01F018009C4F202034FF093
:101E8000010CC2580CFA01F122EA0101C15070475D
:101E900043F6000300F01F018009C4F202034FF073
:101EA000010CC2580CFA01F11143C15070470000F7
:101EB00043F68C0CC4F2020CDCF800206FF0807149
:101EC00042EA0003884208BF22F08073CCF8003059
:101ED00070470000B0B582B000F070FD40F6C5005C
:101EE00000240225C0F6000011A196220023CDE9AE
:101EF000005401F007FB41F24930C0F600000FA189
:101F000096220023CDE9005401F0FCFA01F078F8A4
:101F100001460DA001F050FE41F2D020C2F20000B7
:101F2000006800F0D1FE02B0BDE8B04000F06CBD2A
:101F30004C45445F5461736B000000006D6F746F1B
:101F4000725461736B0000004672656520686561BC
:101F5000703A2025642062797465730A00000000DD
:101F600080B5F020FEF740FFFFF730FBFFF7ACF93C
:101F70004FF41650BDE8804000F020BC4EF2100136
:101F8000CEF200010A68042822F0040208BF0432DD
:101F90000A607047016841F08001016070470000ED
:101FA0004FF480310160002141607047032988BFF0
:101FB000704780B5DFE801F002AD4185016A21F08C
:101FC00001010162816921F0030181611188036AC5
:101FD00019430162016A002321F002010162B2F893
:101FE00004C0D0F820E020F48061C4F201039942DB
:101FF0004EEA0C01016240F0D080016A21F0040138
:1020000001625188036A19430162016A21F00801E3
:102010000162D188036A1943016250F8041F21F458
:10202000807101601189036819430160016821F41E
:102030000071016051890268ADE0016A21F480718C
:102040000162C16921F00301C1611188036A43EA99
:1020500001210162016A002321F400710162B2F8DA
:1020600004C0D0F820E020F48061C4F2010399425A
:102070004EEA0C21016240F09080016A21F48061F7
:1020800001625188036A43EA01210162016A21F475
:1020900000610162D188036A43EA0121016250F8BC
:1020A000041F21F4805101601189036843EA011182
:1020B0000160016821F40051016052890168120138
:1020C00069E0016A21F480510162C16921F4407123
:1020D000C1611188036A43EA01310162016A002388
:1020E00021F400510162B2F804C0D0F820E020F4DD
:1020F0008061C4F2010399424EEA0C3101624CD175
:1021000050F8041F21F48041016012890168920196
:1021100041E0016A21F010010162816921F44071FE
:1021200081611188036A43EA01110162016A002397
:1021300021F020010162B2F804C0D0F820E020F4C0
:102140008061C4F2010399424EEA0C11016224D16C
:10215000016A21F0400101625188036A43EA0111DA
:102160000162016A21F080010162D188036A43EAB9
:102170000111016250F8041F21F48061016011898E
:10218000036843EA81010160016821F40061016094
:1021900052890168920011430160BDE88040704798
:1021A000032988BF7047DFE801F0020D050A50F8E7
:1021B000181F01E050F81C1F21F0700107E050F8D3
:1021C0001C1F01E050F8181F21F4E04112020160C9
:1021D000016811430160704703299CBF00EB810037
:1021E00042637047032988BF7047DFE801F0020DA2
:1021F000050A50F8181F01E050F81C1F21F00801D3
:1022000007E050F81C1F01E050F8181F21F400618E
:10221000120201600168114301607047406A704713
:102220004162704710B541F6FF31C4F200018842A7
:102230001BDC40F6FF31C4F20001884230DD41F280
:10224000FF31C4F20001884250DC40F60041C4F284
:102250000001884269D041F20001C4F200018842C5
:1022600040F0828040F6040476E040F2FF31C4F290
:102270000101884226DD44F2FF31C4F201018842A7
:1022800043DC40F20041C4F20101884250D044F2E4
:102290000001C4F20101884266D14FF411645BE091
:1022A000B0F1804F47D040F20041C4F200018842B3
:1022B00044D040F60001C4F20001884254D140F6F7
:1022C000020449E041F60041C4F20001884238D0DE
:1022D00042F20001C4F20001884235D00021C4F26C
:1022E0000101884240D14FF4106435E041F20041D1
:1022F000C4F2000188422AD041F60001C4F2000174
:10230000884231D140F6060426E044F20041C4F28E
:10231000010188421ED044F60001C4F20101884246
:1023200018BF10BD40F6121416E040F6030413E087
:1023300040F6011410E04FF400640DE040F6010493
:102340000AE040F6070407E040F6080404E040F61F
:10235000050401E040F611142046FFF799FD2046E0
:10236000BDE81040FFF784BD10BD0000016841F0DA
:1023700001010160704700000A8840F2004C82624F
:1023800040F6FF32C4F200029042C4F2010C0FDCAE
:10239000B0F1804F19D040F20043C4F200039842DC
:1023A00013D040F60003C4F2000398420DD018E0A9
:1023B00040F60043C4F20003984206D0604504D0C2
:1023C0000023C4F2010398420BD1036823F0700389
:1023D00003604B8802681A4302608A8803681A43C4
:1023E000026080B541F20002D1F808E020F4806379
:1023F000C4F200029342C0F82CE007D0026822F435
:1024000040720260CA8803681A43026040F4806226
:10241000624504BF097B0163416941F001014161EB
:1024200080BD0000F0B5032900F28B80DFE801F0E9
:10243000021B355784465CF8203F4FF0010E23F015
:102440000103CCF80030DCF8003023F00A03CCF8AC
:1024500000301388DCF800703B43CCF800300346B2
:1024600053F8187F32E084465CF8203F4FF0100E9E
:1024700023F01003CCF80030DCF8003023F0A00388
:10248000CCF800301388DCF8007047EA0313CCF86E
:102490000030034653F8187F3AE084465CF8203F4A
:1024A0004FF4807E23F48073CCF80030DCF80030E9
:1024B00023F42063CCF800301388DCF8007047EA7E
:1024C0000323CCF80030034653F81C7F27F00307A2
:1024D0001F6054881D6804266FF0F00721E08446D1
:1024E0005CF8203F4FF4805E23F48053CCF800303A
:1024F000DCF8003023F40053CCF800301388DCF80B
:10250000007047EA0333CCF80030034653F81C7FD1
:1025100027F440771F6057881C683D020C266FF433
:1025200070472C431C601C683C401C60D4881D68AC
:10253000B4402C431C60DCF8003043EA0E03CCF8B6
:102540000030032988BFF0BD9288DFE801F0020562
:10255000080D50F8181F04E050F8181F06E050F856
:102560001C1F21F00C0104E050F81C1F21F44061F5
:1025700012020160016811430160F0BDC26811439D
:10258000C1607047C943016170470000C2680069BB
:102590000A40084018BF0120002A18BF012210403D
:1025A00070470000D0F808C042EA03122CF0070C74
:1025B000C0F808C0D0F808C041EA0C018160D0F82A
:1025C00018C040F203312CEA01018161D0F818C033
:1025D00040F2011141EA0C018161016A21F00A0116
:1025E0000162016A21F0A0010162016A11430162E6
:1025F00070470000B0B5044647F2FF70C4F2000017
:102600000D4684424FF000000EDC44F6FF31C4F268
:1026100000018C4217DC44F20041C4F200018C42FC
:102620001DD044F6000116E040F6FF71C4F201012E
:102630008C422FDC47F60001C4F200018C420ED020
:1026400047F6004107E044F60041C4F200018C4225
:1026500005D045F20001C4F200018C4203D10221F1
:102660000846FFF797FBE168090406D400EB550024
:10267000B0FBF5F080B2A060B0BD400000EB5500AB
:10268000B0FBF5F04FF6F0710140C0F34200084492
:10269000A060B0BD41F20001C4F201018C424FF0D4
:1026A0000301DDD041F20042C4F201029442D7D0CE
:1026B000D9E7000040686FF35F2070476FF35F2138
:1026C0004160704710B547F2FF71C4F200018842C3
:1026D00014DC44F6FF31C4F20001884224DC44F2E9
:1026E0000041C4F2000188423CD044F60001C4F22B
:1026F0000001884249D140F612043EE040F6FF71E5
:10270000C4F2010188421EDC47F60001C4F2000158
:1027100088422AD047F60041C4F20001884218BF1F
:1027200010BD40F61F0428E044F60041C4F2000149
:1027300088421DD045F20001C4F20001884224D134
:1027400040F6140419E041F20001C4F2010188428C
:1027500011D041F20041C4F20101884215D140F686
:1027600005140AE040F6110407E040F61E0404E0F8
:1027700040F6130401E040F604142046FFF788FBFE
:102780002046BDE81040FFF773BB10BD426901F061
:10279000400122F0400242614269114341617047A9
:1027A000C16841F40051C160704700008A091058A7
:1027B00001F01F01C84000F00100704770B50546E8
:1027C0004FF44060FFF744FB4FF44060FFF740FBDD
:1027D00041F20410FFF73CFB41F20004C4F2010493
:1027E00004F57046304607214FF40072FEF7D8FC1E
:1027F000304607214FF48062FEF7D2FC30460221BA
:1028000001224FF40073FEF711FD30460221012230
:102810004FF48063FEF70AFD3046002102224FF498
:102820000073FEF72DFD3046002102224FF4806335
:10283000FEF726FD2046FFF745FF20462946FFF715
:10284000D9FE2046002100F03DF82046002100F08E
:1028500055F82046002100F043F82046FFF7A0FF7E
:102860002046082100F044F82046042100F032F808
:10287000252002210222FEF7ADFE20464FF44171D1
:10288000BDE87040AFF3008001F01F0289094FF0EE
:10289000010C0B580CFA02F21A430A507047000060
:1028A000C1F3891252F800C08A0D105801F01F03BD
:1028B000C1F30441C8402CFA03F1084000F00100C4
:1028C00070470000C26822F4C062C260C26811434F
:1028D000C1607047C26822F004021143C1607047B2
:1028E000026922F44052026102691143016170479A
:1028F000C26822F008021143C1607047C26822F426
:102900008052C260C2681143C1607047D0E9013291
:1029100001699A60D1F804C082688445536008BF99
:102920004A60002202610868013808600868704740
:102930004FF0FF31024642F8081F00214260C0E913
:102940000322016070470000002101617047000010
:1029500080B5D1F800C01CF1010207D000F10803D6
:102960009E465B681A686245FAD901E0D0F810E02B
:10297000DEF8042008614A609160C1F808E0CEF8F2
:10298000041001680131016080BD0000D0F800C072
:10299000436808619A684B608A609A6899605160E0
:1029A0000CF1010101607047DFF80C00016841F48F
:1029B000700101607047000088ED00E04FF05000AA
:1029C00080F31188BFF36F8FBFF34F8F40F20C007D
:1029D000C2F2000001684A1C0029026018BF70475B
:1029E0004EF60450CEF20000006800060BD044F210
:1029F000F24044F27551C0F60000C0F6000140F20A
:102A0000A91201F0D9B8704710B540F20C04C2F217
:102A10000004206858B944F2F24044F27551C0F6FF
:102A20000000C0F600014FF4D87201F0C5F820682C
:102A30000138206018BF10BD002080F3118810BD40
:102A4000B0B528B3044650F8040CA4F108050028DA
:102A50000BD444F2F24044F25351C0F60000C0F6E9
:102A6000000140F22F1201F0A7F8286858B144F293
:102A7000F24044F25351C0F60000C0F600014FF49A
:102A8000987201F099F854F8040CB0F1FF3F00DDA2
:102A9000B0BD2968002918BFB0BD20F0004044F83F
:102AA000040C00F05FFA43F64871C2F2010154F8D9
:102AB000040C0A681044086043F6D071C2F20101A8
:102AC00008460968A942FBD342688318AB4204D187
:102AD00054F8043C05461A4442606B68EA188A427E
:102AE00001D00A460AE041F24402C2F20002126832
:102AF000914203D0D1E9002119446960A8422A60BB
:102B000018BF056043F66070C2F201000168013130
:102B10000160BDE8B04000F059BF00004EF2100067
:102B2000CEF2000000210160816040F20401C2F297
:102B30000001096844F6D352C1F26202A1FB0212FD
:102B40004FF0FF3101EB92114160072101607047A6
:102B5000F0B581B004460F4658B944F2F24044F251
:102B60000151C0F60000C0F6000140F6D82201F085
:102B700023F84FF00000B7B143F67C71C2F20101B7
:102B80000023002503E000BF0833502B0ED0CA18E5
:102B90005668A64209D0002DF6D11668002E18BF3F
:102BA00002461546F0E7002500E01546002D18BF47
:102BB000C5E9007401B0F0BD70B515460E46044677
:102BC000FFF7FCFE94F84400FF2804BF002084F8BF
:102BD000440094F84500FF2804BF002084F8450015
:102BE000FFF712FFA06B28B904F1240031462A46F2
:102BF00000F034F92046BDE87040FEF7B3BF000096
:102C000070B5002854D043F6E865C2F201050446C9
:102C1000286858B144F2F24044F21C51C0F600005A
:102C2000C0F6000140F21C5200F0C6FF28680130D7
:102C3000286044F2000041F23805C2F20100C2F2FD
:102C40000005066828680430FFF760FE60B9286850
:102C500043F6F062C06AC2F201020121136801FA70
:102C600000F023EA000010602868A419446009D32A
:102C700041F24800C2F20000006829680431FFF701
:102C800067FE10E041F24000C2F2000000682968CF
:102C90000431FFF75DFE43F65470C2F20100016893
:102CA0008C4238BF046000F091FE002818BF70BD50
:102CB0004EF60450CEF200004FF080510160BFF399
:102CC0004F8FBFF36F8F70BD70B50446FFF776FE70
:102CD00041F23806002CC2F2000608BF3468251DF8
:102CE0002846FFF713FEA0B9E06A41F2500200EB5C
:102CF0008001C2F2000252F8211051B943F6F0628D
:102D0000C2F201020121136801FA00F023EA000077
:102D10001060A06A18B104F11800FFF7F7FD43F640
:102D2000EC60C2F201000168013101603068844248
:102D300016D043F6E060C2F201000168013901607B
:102D400041F24000C2F2000001680968B1B10068B8
:102D500043F65471C068C2F201010068086014E0D3
:102D600043F6EC70C2F201002946FFF70FFE43F66E
:102D7000E460C2F201000168013105E043F65470DD
:102D8000C2F201004FF0FF310160FFF73DFE3068F5
:102D9000844205D0206BFFF753FE2046FFF750FE1C
:102DA00043F6CC70C2F20100006800B33068844280
:102DB00018BF70BD43F6E860C2F20100006858B168
:102DC00044F2F24044F21C51C0F60000C0F600018B
:102DD00040F2AF4200F0F0FE4EF60450CEF200009A
:102DE0004FF080510160BFF34F8FBFF36F8F70BD05
:102DF00043F65871C2F201010968016044F2000112
:102E0000C2F20101096841607047000044F20C0001
:102E1000C2F201000121016070470000B0B5054613
:102E20000C4658B944F2F24044F21C51C0F600007E
:102E3000C0F6000140F60E4200F0BEFE41F238003E
:102E4000C2F20000006800F118012846FFF780FD7B
:102E500020460121BDE8B040FEF718BC70B514460D
:102E600005460E4658B944F2F24044F21C51C0F6F1
:102E70000000C0F6000140F6444200F09DFE41F221
:102E80003801C2F2000168680A68002CD0618268CB
:102E90000B681A620A68836802F118025A600A68AD
:102EA00002F118028260086821468562286818BF0E
:102EB0004FF0FF36421C30462A60BDE87040FEF7F6
:102EC000E5BB000080B582B043F64C7C41F2BD709A
:102ED000C2F2010C4FF0000EC0F600001FA18022CC
:102EE0000023CDE900EC00F00DFB012808BF00F045
:102EF0002FFE411C1FD0012829D14FF0500080F334
:102F00001188BFF36F8FBFF34F8F43F65470C2F237
:102F100001004FF0FF31016043F6CC70C2F20100B6
:102F20000121016044F20000C2F2010000210160B1
:102F300000F06CF80BE044F2F24044F21C51C0F691
:102F40000000C0F6000140F6120200F035FE44F227
:102F50009C50C0F60000006802B080BD49444C455A
:102F60000000000043F6E860C2F201000168013190
:102F70000160704743F6E860C2F20100006830B1BA
:102F800044F20C00C2F20100012101607047B0B5AB
:102F900044F20C00C2F201000021016043F6F0602F
:102FA000C2F201000068B0FA80F0C0B2C0F11F00A8
:102FB00041F2500500EB8004C2F2000555F82400F0
:102FC00058B944F2F24044F21C51C0F60000C0F679
:102FD000000140F6F63200F0EFFD05EB840050F8FA
:102FE000041F4968021D9142016001D149680160D6
:102FF000006841F23801C068C2F200010860B0BD4B
:1030000043F64870C2F2010000687047B0B584B062
:103010004EF20044CEF200044CF27025C4F20F15BB
:10302000D4F80009691C88420BD144F2F24044F202
:103030007551C0F60000C0F6000140F2311200F0F8
:10304000BBFDD4F80009A8420BD144F2F24044F28F
:103050007551C0F60000C0F600014FF4997200F0FF
:10306000ABFD207843F6D8610290FF2020702078D5
:10307000C2F201018DF807009DF8070043F6DC65F8
:1030800000F050000870C2F20105072028609DF989
:103090000700B0F1FF3F0CDC062000BF28609DF860
:1030A0000710013849008DF807109DF90710002915
:1030B000F4D4286803280BD044F2F24044F275514E
:1030C000C0F60000C0F6000140F25B1200F074FD93
:1030D000286803280BD044F2F24044F27551C0F640
:1030E0000000C0F600014FF4B27200F065FD2868E0
:1030F0004FF4E06101EA0020286002982070D4F8C3
:10310000200940F47000C4F82009D4F8200940F0E8
:103110007040C4F82009FFF701FD40F20C04C2F230
:10312000000400252560FFF73FFC4EF63470CEF218
:103130000000016841F040410160FEF77BFBFFF7B2
:1031400019FF0395206801300AD044F2F24044F29E
:103150007551C0F60000C0F60001EA2200F02CFD17
:103160004FF0500080F31188BFF36F8FBFF34F8F84
:1031700003980028FCD0002004B0B0BD80B54FF00B
:10318000500080F31188BFF36F8FBFF34F8F00F0B3
:10319000CFFA30B14EF60450CEF200004FF080511D
:1031A0000160002080F3118880BD000070B5D0B1AF
:1031B00004460D46A0FB0101A9B905FB04F010F17E
:1031C000490F10D84830FEF707FDC0B10646002D64
:1031D00018BF4830306030460121C6E90F4500F085
:1031E00011F8304670BD44F2F24044F20151C0F68D
:1031F0000000C0F600014FF4F27200F0DDFC002088
:1032000070BD000070B528B30546C06B70B30E46A4
:10321000296C0024A0FB010149BBFFF7CFFB286804
:10322000D5E90F12AC6302FB0103013901FB020176
:10323000C5E90103FF20E96085F8440085F84500F1
:1032400005F110001EB3FFF773FB05F12400FFF733
:103250006FFB2CE044F2F24044F20151C0F6000052
:10326000C0F600014FF4977200F0A6FC0024012084
:1032700058B144F2F24044F20151C0F60000C0F6E9
:10328000000140F2631200F097FC204670BD016817
:1032900069B100F029FB50B14EF60450CEF20000A7
:1032A0004FF080510160BFF34F8FBFF36F8FFFF777
:1032B000ABFB012400200028DBD1E6E72DE9F04F2D
:1032C00085B00C460546049208B1DCB90CE044F226
:1032D000F24044F20151C0F60000C0F6000140F295
:1032E0006B5200F069FC6CB9286C58B144F2F240A2
:1032F00044F20151C0F60000C0F6000140F26F52E6
:1033000000F05AFC019400F0F9F968B9049858B13A
:1033100044F2F24044F20151C0F60000C0F6000150
:1033200040F2745200F048FC05F1100A05F1240047
:1033300002AF0DF110094FF0000800900DE000BF42
:103340002846FEF70FFC00F041FBFFF737FBAC6BA4
:10335000FFF75AFB002C00F08480FFF72FFBD5F815
:1033600038B0BBF1000F27D02A6C5AB1D5E9020161
:103370001144E960814224BF2868E860E968019847
:10338000FCF730FFABF10100A863286970B150462B
:1033900000F0AAFA50B14EF60450CEF200004FF001
:1033A00080510160BFF34F8FBFF36F8FFFF72CFB8E
:1033B00000200126A0B955E0049850B1B8F1000FE3
:1033C00002D13846FFF714FD4FF00108012038B94B
:1033D00048E0FFF719FB00260020002842D000BF7C
:1033E000FFF712FBFFF7BEFDFFF7E8FA95F8440080
:1033F000FF2804BF002085F8440095F84500FF2809
:1034000004BF002085F84500FFF7FEFA384649461C
:1034100000F02CF800287FF493AFFFF7CFFAAC6BE5
:10342000FFF7F2FA2CB12846FEF79CFB00F0CEFA2B
:1034300093E704990098FFF7F1FC2846FEF792FB0A
:1034400000F0C4FA00287FF488AF4EF60450CEF2A4
:1034500000004FF080510160BFF34F8FBFF36F8FBB
:103460007BE70026304605B0BDE8F08F70B5044616
:103470000D46B8B35DB944F2F24044F21C51C0F6B7
:103480000000C0F600014FF44F6200F095FBFFF71B
:1034900095FA44F2000EC2F2010EDEF800302968FF
:1034A0004A1C16D043F6587CC2F2010CD4E9000243
:1034B000DCF80060864201D093420CD29A1A914205
:1034C00009D9881A2860DCF800002060DEF80000C6
:1034D0006060002402E0002001242860FFF794FAD5
:1034E000204670BD44F2F24044F21C51C0F6000088
:1034F000C0F6000140F6EF4200F05EFB002DC6D1A1
:10350000B9E700002DE9F04781469000984616463D
:103510000D46FEF761FB88B107464C20FEF75CFBC9
:1035200048B14C210446FCF776FE27634CB94FF0B6
:10353000FF30BDE8F0873846FFF782FA0024002C00
:10354000F5D0206B089F00EB8600043820F00706BA
:103550006DB104F1340000216A5C42546A5C1AB116
:103560000F2901F10101F7D1002084F84300DDF8B3
:1035700024A0202F0BD344F2F24044F21C51C0F699
:103580000000C0F6000140F2923200F015FB251D4C
:1035900028461F2F28BF1F27E762FFF7D5F904F140
:1035A0001800FFF7D1F9C7F12000A0613046494665
:1035B000424624616462FEF7DBFBBAF1000F206033
:1035C00018BFCAF80040FFF7F9F943F6E060C2F20D
:1035D0000100016841F2380A01310160C2F2000ABB
:1035E000DAF8001043F6CC7941F25007C2F2010933
:1035F000C2F2000761B1D9F80000002840D1DAF822
:103600000000E16AC06A884298BFCAF8004037E00B
:10361000CAF800400068012832D10026B819FFF727
:1036200087F91436B6F5207FF8D143F62078C2F238
:1036300001084046FFF77CF943F63476C2F20106F2
:103640003046FFF775F943F66870C2F20100FFF7E4
:103650006FF943F6EC70C2F20100FFF769F943F627
:10366000D870C2F20100FFF763F941F24000C2F2E4
:103670000000C0F8008041F24800C2F2000006607D
:1036800043F6EC60C2F201000168012601310160DD
:1036900043F6F061E06AC2F201010A6806FA00F33B
:1036A0001A4300EB80000A6007EB80014A68616101
:1036B0009368A260E360936895605D6057F820109E
:1036C000013147F82010FFF79FF9D9F8000088B1C1
:1036D000DAF80000E16AC06A88420AD24EF6045065
:1036E000CEF200004FF080510160BFF34F8FBFF367
:1036F0006F8F01263046BDE8F087000043F6CC709E
:10370000C2F201000068002804BF0120704743F6A0
:10371000E860C2F201000068B0FA80F040094000A1
:103720007047000044F20000C2F2010000687047D8
:1037300043F6E860C2F20100006840B143F66470ED
:10374000C2F20100016801310160002070472DE9DB
:10375000F04F81B044F20000C2F20100016843F66C
:10376000547511F1010AC2F20105C0F800A02BD373
:1037700041F24004C2F200042068006858B144F2EB
:10378000F24044F21C51C0F60000C0F6000140F6C1
:10379000B72200F011FA41F24801C2F2000120689C
:1037A0000A682260086043F65870C2F2010001689E
:1037B000013101602068006818B12068C0680068A5
:1037C00001E04FF0FF302860286841F2500E82453A
:1037D000C2F2000E01D200206EE041F2400BC2F2B4
:1037E000000BDBF800004FF000090068002858D0FB
:1037F00043F6F06CC2F2010C002025E0D16ADCF83F
:10380000003001248C402343CCF8003001EB8103CD
:103810000EEB830465685461AF689560D760AF684C
:10382000AE607E605EF8232001324EF8232041F224
:103830003802C2F200021268D26ADBF8003091420C
:1038400088BF0120196881B3DBF80020D268D268F4
:10385000164656F8044FA24529D3D2E902355469D9
:103860009D60D4F80480D568B0456B6008BF656082
:10387000C2F814902368013B2360946A002CBDD0E9
:10388000D2E9073561689D60156A02F11807B942EF
:103890006B6008BF6560C2F828902168013921601B
:1038A000ACE74FF0FF34002005E04FF0FF3443F663
:1038B0005475C2F201052C6041F23801C2F20001D8
:1038C0000968C96A01EB81015EF82110012944F2FF
:1038D0000C01C2F2010188BF01200968002918BF4C
:1038E000012001B0BDE8F08F10B5C068C4685CB9B4
:1038F00044F2F24044F21C51C0F60000C0F6000150
:1039000040F6744200F058F9D4E90732A16A9A608F
:10391000486804F1180C226A60454FF000005360BB
:1039200008BF4A60A06208680138086043F6E86092
:10393000C2F20100006848B143F66871C2F20101A9
:103940004868A1628268E061226225E0D4E902321F
:1039500061699A604868E26804F1040C604553604C
:1039600008BF4A60086843F6F06201380860E06A00
:10397000C2F201020121136881401943116041F232
:10398000500100EB8000C2F2000101EB80014868A9
:1039900061618268A060E2608268C0F808C0C2F815
:1039A00004C008680130086041F23801C2F2000129
:1039B000E06A0968C96A884291BF002044F20C019C
:1039C000C2F20101012088BF086010BD2DE9F04F4F
:1039D00081B043F6E864C2F20104206858B944F2A9
:1039E000F24044F21C51C0F60000C0F6000140F65F
:1039F000850200F0E1F8FEF7E1FF20680138206061
:103A0000206830B10024FEF7FFFF204601B0BDE87A
:103A1000F08F43F6E060C2F2010000680028F1D0A8
:103A200043F6687AC2F2010ADAF8001044F20C0890
:103A30000029C2F2010868D043F6F06B41F250044D
:103A400041F2380E4FF0000C4FF00109C2F2010BA9
:103A5000C2F20004C2F2000EDAF80C10CE68D6E909
:103A60000721B76A91607868316A06F11805A842A3
:103A70004A6008BF7960C6F828C0386801383860E5
:103A8000D6E90202716982604A68F568371DBA4258
:103A9000686008BF4D60086801380860F06ADBF8AC
:103AA000001009FA00F21143CBF8001000EB80017E
:103AB00004EB810255687261AB68B560F360AB6876
:103AC000AF605F6054F82120013244F82120DEF815
:103AD0000010C96A884228BFC8F80090DAF80000D0
:103AE0000028B9D18EB141F24000C2F20000016855
:103AF000096819B10068C068006801E04FF0FF3044
:103B000043F65471C2F20101086043F66474C2F2D4
:103B10000104256855B10126FFF70AFE002818BFE9
:103B2000C8F80060013DF7D100202060D8F80000FF
:103B300000283FF467AF4EF60450CEF200004FF07D
:103B400080510160BFF34F8F0124BFF36F8F5AE79D
:103B500010B582B0FDF7FAFD44F20400C2F2010094
:103B6000006808B344F2080C41F62110C2F2010CBF
:103B70001F24C0F600000EA14FF480720023CDE98F
:103B8000004CFFF7BFFC04465CB944F2F24044F23B
:103B90003751C0F60000C0F6000140F2191200F0E3
:103BA0000BF8204602B010BD0024002CF9D1ECE740
:103BB000546D7220537663000FB4054B10B503A902
:103BC000044A029800F0DAF810BC5DF814FB00001B
:103BD0007D1100080000002002E008C8121F08C183
:103BE000002AFAD170477047002001E001C1121F7E
:103BF000002AFBD1704700002DE9FF5F82B0002151
:103C0000DDE90430020DDDF840B0034318D044F67E
:103C10001050A2F2FF3242431514119801281FD010
:103C2000A5EB0B00401C5FEA000A4FF000064E4F68
:103C3000DFF83891B046504615D5CAF1000413E0BC
:103C4000119801244AA3012801D16FEA0B010298BF
:103C5000119AC0E90031C0E9024206B0BDE8F09F08
:103C6000CBF10000DFE704460021404A491842EB4F
:103C70000450CDE9001012E0E00707D032463B4681
:103C800040464946FCF779FB8046894632463B462A
:103C900010461946FCF771FB06460F466410002CCF
:103CA000EAD1DDE90401DDE90023BAF1000F06DA0B
:103CB000FCF763FB42464B46FCF75FFB05E0FCF775
:103CC000CEFB42464B46FCF7CAFB04460E4600229A
:103CD000284BFCF777FD03D84FF0FF30014607E093
:103CE0000022254B20463146FCF7A0FAFCF751FD97
:103CF000102409E0002C0ADB0A220023FCF763FCF5
:103D0000039B30321A55641E50EA0102F2D1641C42
:103D1000039AC4F111031444119A012A03D0012219
:103D200008430DD10AE0084304D000204FF0110BE6
:103D3000119072E7A3EB0B056D1E0DE05B4504DDF2
:103D40004FF0000205F1010504E003DA4FF0000234
:103D5000A5F10105002AECD002981199C0E90231C1
:103D6000C0E9004579E70000000014400000F03F82
:103D7000300000000000F0430000E03F2DE9FF4F5D
:103D800095B09B468946064600250FE2252877D147
:103D900000242746F84A0121059400E0044316F860
:103DA000013F203B01FA03F01042F7D130782A2876
:103DB00011D06FF02F033078A0F13002092A16D805
:103DC000059A44F0020402EB820203EB4202104423
:103DD000761C0590EFE759F8042B0592002A03DAC8
:103DE000504244F40054059044F00204761C3078AC
:103DF0002E2816D116F8010F44F004042A280DD0FD
:103E00006FF02F023078A0F13003092B09D807EBAF
:103E1000870302EB4303C718761CF3E759F8047BCA
:103E2000761C30786C280FD006DC4C2817D0682818
:103E30000DD06A2814D104E0742810D07A280FD14C
:103E40000DE044F400140AE044F4801401E044F46A
:103E500040147278824202D104F58014761C761CDC
:103E6000307866280BD013DC582877D009DC00287E
:103E700075D04528F6D04628F4D047281AD19DE1C0
:103E800018E0632835D0642879D0652812D195E1EF
:103E9000702873D008DC6728F1D069286FD06E28AD
:103EA0000DD06F2806D1B5E073282CD0752875D0B9
:103EB000782874D05A46179990476D1C75E1C4F361
:103EC0000250022809D003280DD0D9F80010042888
:103ED0000DD00D6009F1040967E1D9F80010EA1767
:103EE000C1E90052F6E7D9F800100D80F2E70D7035
:103EF000F0E719F8041B8DF8001000208DF8010080
:103F0000EA46012003E059F804AB4FF0FF306107A7
:103F10004FF0000102D40DE008F101018846B942DA
:103F20000FDA8045F8DB1AF808100029F4D108E010
:103F300008F1010188468142FADB1AF808100029CD
:103F4000F6D105985B46A0EB080721463846179A3C
:103F500000F094FA284400EB080507E04DE029E161
:103F60000DE01AF8010B5A4617999047B8F101086D
:103F7000F7D25B4621463846179A13E142E00A22FF
:103F80000092C4F302524FF0000A022A08D059F8F6
:103F900004CB032A4FEAEC710AD00DE029E02AE0B5
:103FA00009F1070121F00702F2E802C1914609E098
:103FB0000FFA8CFC4FEAEC71042A03D14FFA8CFC07
:103FC0004FEAEC71002907DA0A460021DCF1000C07
:103FD00061EB02012D2202E0220504D52B228DF88F
:103FE0000420012203E0E20701D02022F7E79046F7
:103FF00059E00A2102E010220DE010214FF0000AE2
:1040000000910BE010224FF0000A44F0040408274E
:10401000009203E008224FF0000A0092C4F302521B
:10402000022A05D059F804CB0021032A08D009E060
:1040300009F1070121F00702F2E802C1914605E00B
:104040001FFA8CFC042A01D10CF0FF0C4FF0000881
:10405000220728D5702806D0009B83F0100353EA6E
:104060000A0305D00EE040228DF80420012208E06A
:104070005CEA010206D030228DF804208DF805009C
:1040800002229046009B83F0080353EA0A030AD1F8
:104090005CEA010201D1620705D530228DF80420C7
:1040A0004FF001087F1E582804D034A003900EA8BA
:1040B00002900DE036A0F9E753466046009AFCF7FF
:1040C00082FA84460398825C0298401E0290027035
:1040D0005CEA0100F0D1029806A9081A00F1200A52
:1040E000600702D524F4803400E00127574502DD43
:1040F000A7EB0A0000E0002000EB0A010090059801
:104100004144401A0590E00306D45B462146179AC5
:10411000059800F0B3F90544002706E001A85A46C7
:10412000C05D179990476D1C7F1C4745F6DBE00387
:104130000CD55B462146179A059800F09FF9054477
:1041400004E030205A46179990476D1C0099481E8C
:1041500000900029F5DC08E0029802995A460078A0
:10416000491C0291179990476D1CBAF10001AAF100
:10417000010AF1DC65E10000092801003031323329
:104180003435363738396162636465660000000093
:10419000303132333435363738394142434445467D
:1041A0000000000000F058F90544761C3078002823
:1041B0007FF4ECAD19B02846BDE8F08F620700D45B
:1041C000062709F1070222F0070CFCE80223E1466A
:1041D00003F000485FEA080C02D00FF2702C0DE0EB
:1041E0005FEA045C02D50FF2682C07E05FEAC47C4A
:1041F00002D00FF2602C01E0AFF2700C4FF0FF38EC
:1042000023F00043CDF850C065280CD006DC4528CB
:1042100009D046281DD047283DD13DE0662818D05A
:1042200067287ED138E00021112F01DB112000E04A
:10423000781CCDE9000106A90EA8FFF7DDFCDDE939
:104240000F010E9A03910021009207F1010A0491D7
:104250004DE04FF000400097CDE9011006A90EA8EF
:10426000FFF7CAFCDDE90F0203920E9B11990022B1
:10427000DDF80CA00093049211B9791C00EB010A3F
:10428000B7EB0A0004D4C0F1FF3007F1010A049033
:10429000AAEB0700019044E0012F00DA012700217A
:1042A000112F01DD112000E03846CDE9000106A9FB
:1042B0000EA8FFF7A1FCDDE90F010E9A0391002182
:1042C00004910092BA4621070CD40399514500DAB3
:1042D0008A46BAF1010F05DD009AAAF10101515C8D
:1042E000302908D0B84202DA10F1040F06DA0121B1
:1042F000CDE9011015E0AAF10101E9E7002805DC8C
:10430000049901440491AAEB000102E0411C5145CB
:1043100000DD8A460499401A401C01904FF000408D
:104320000290200704D40198504501DBCDF80480A9
:1043300000208DF84F0002980DF14F07B0F1004FAB
:1043400025D02B200E9002984FF0020800280CDA9E
:10435000404202902D200E9007E00A210298FCF7BF
:104360001CF93031029007F8011DB8F10001A8F1E5
:104370000108F2DC02980028EFD1791E0E9808702F
:10438000307800F0200040F0450007F8020D12A838
:10439000C01B00F107081498007800B1012000EB61
:1043A0000A01019801EBE07105984144401A401E52
:1043B0000590E00306D45B462146179A059800F065
:1043C0005DF805441498007818B15A46179990473B
:1043D0006D1CE00324D55B462146179A059800F032
:1043E0004DF805441CE00498002807DBDDE90301D3
:1043F000884203DD0098405C179901E0179930204E
:104400005A469047049805F10105401C0490019814
:10441000401E019004D12E205A46179990476D1CDA
:10442000BAF10001AAF1010ADDDC05E017F8010B81
:104430005A46179990476D1CB8F10001A8F1010880
:10444000F4DC5B462146179A0598ABE62D00000088
:104450002B000000200000002DE9F041044600255B
:104460001E461746880404D405E039462020B0478C
:104470006D1C641EF9D52846BDE8F0812DE9F04198
:10448000044600251E469046C80301D5302700E0AB
:104490002027880404D505E041463846B0476D1C06
:1044A000641EF9D52846BDE8F081000010B5044629
:1044B00001E0FCF763FE14F8010B04490028F8D171
:1044C000BDE810400A20FCF759BE000000000020A3
:1044D00000000000010203046B65792072656C65C1
:1044E000617365210D006B657920707265737321AE
:1044F0000D004572726F723A25732C2025640D0AE7
:10450000002E2E2F4672656552544F532F536F75F0
:104510007263652F71756575652E63002E2E2F46AB
:1045200072656552544F532F536F757263652F74C4
:1045300061736B732E63002E2E2F46726565525485
:104540004F532F536F757263652F74696D65727366
:104550002E63002E2E2F4672656552544F532F50F6
:104560006F72742F4D656D4D616E672F6865617058
:104570005F342E63002E2E2F4672656552544F53C2
:104580002F506F72742F4743432F41524D5F434D5D
:1045900034462F706F72742E630000001F000000FD
:1045A000C04500080000002010000000D83B0008B3
:1045B000D04500081000002000440100E83B00083E
:1045C00000000000001C4E0ED0070000AAAAAAAAF4
:04000005080001AD41
:00000001FF
