:020000040800F2
:10000000C0410120C1010008410300083903000874
:100010003D0300085D0200080D0600080000000016
:10002000000000000000000000000000C103000804
:10003000E90200080000000051030008E503000881
:10004000DB010008DB010008DB010008DB01000820
:10005000DB010008DB010008ED020008DB010008FD
:10006000DB010008DB010008DB010008DB01000800
:10007000DB010008DB010008DB010008DB010008F0
:10008000DB010008DB010008DB010008DB010008E0
:10009000DB010008DB010008DB010008DB010008D0
:1000A000DB010008DB010008DB010008DB010008C0
:1000B000DB010008DB010008DB010008DB010008B0
:1000C000DB010008DB010008DB010008DB010008A0
:1000D000DB010008A5050008DB010008DB010008C2
:1000E000DB010008DB010008DB010008DB01000880
:1000F000DB010008DB010008DB010008DB01000870
:10010000DB010008DB010008DB010008DB0100085F
:10011000DB010008DB01000875050008DB010008B1
:10012000DB010008DB010008C1020008DB01000858
:10013000DB010008DB010008DB010008DB0100082F
:10014000DB010008DB010008DB010008DB0100081F
:10015000DB010008DB010008DB010008DB0100080F
:10016000DB010008DB010008DB010008DB010008FF
:10017000DB010008DB010008DB01000800000000D3
:10018000DB010008DB010008DB010008DB010008DF
:10019000DB010008DB010008DB01000800000000B3
:1001A000DB010008DB010008DB010008DFF80CD0F0
:1001B00000F03CF800480047D10A0008C041012087
:1001C0000648804706480047FEE7FEE7FEE7FEE7F1
:1001D000FEE7FEE7FEE7FEE7FEE7FEE715040008A0
:1001E000AD01000840EA01039B0703D009E008C9FC
:1001F000121F08C0042AFAD203E011F8013B00F8EC
:10020000013B521EF9D27047D2B201E000F8012B37
:10021000491EFBD270470022F6E710B513460A4686
:1002200004461946FFF7F0FF204610BD1CB50948EB
:100230000090094801900546009C06E0E06840F007
:10024000010394E8070098471034AC42F6D3FFF757
:10025000B1FF00004C2900086C290008FEE70000EF
:10026000B0B582B001F0E0FA41F2FD300024022581
:10027000C0F600000EA132220023CDE9005401F0A7
:10028000D3FF41F22140C0F600000BA1322200232F
:10029000CDE9005401F0C8FF40F21000C2F20000A6
:1002A000006801F02DFC02B0BDE8B04001F0E0BAFA
:1002B0007461736B5F6100007461736B5F62000057
:1002C00010B546F20044C4F2020420460221202266
:1002D00000F054FA012818BF10BD20460221202248
:1002E000BDE8104000F02EBAFEE7000010B5012076
:1002F00000F02CFB012818BF10BD0024C4F202043A
:100300002046012100F078FB012809D104F5406066
:10031000802100F06FFB42F63A10C0F6000003E0C7
:1003200042F62C10C0F6000002F0EAFA0120BDE807
:10033000104000F005BB0000FEE70000FEE70000F3
:10034000FEE70000000000000000000000000000C8
:10035000EFF30980BFF36F8F154B1A681EF0100F73
:1003600008BF20ED108A20E9F04F10602DE9090048
:100370004FF0500080F31188BFF34F8FBFF36F8FA2
:1003800001F012FD4FF0000080F31188BDE8090074
:1003900019680868B0E8F04F1EF0100F08BFB0EC05
:1003A000108A80F30988BFF36F8F704700BF00BFCA
:1003B0001C100020000000000000000000000000F1
:1003C000074B19680868B0E8F04F80F30988BFF35D
:1003D0006F8F4FF0000080F31188704700BF00BF9F
:1003E0001C10002080B54FF0500080F31188BFF33F
:1003F0006F8FBFF34F8F02F031F830B14EF60450DB
:10040000CEF200004FF080510160002080F311888F
:1004100080BD000081B04EF68851CEF200010A681E
:1004200043F6080042F47002C4F202000A6050F879
:10043000081C41F0010140F8081C00BF50F8081CDE
:100440008907FBD5016841F080010160002100911E
:10045000009A4F2A06D800BF009A01320092009AF3
:10046000502AF9D3026842F090020260009100998C
:100470004F2905D800990131009100995029F9D3ED
:1004800001684FF6FF7221F00301016050F8081C6B
:10049000CFF6F662114040F8081C50F8081C4FF0E7
:1004A000000C21F4802140F8081CC0F800C002684C
:1004B00043F21002C2F2004240F8042CC0F804C01B
:1004C00050F8082C42F4803240F8082C4FF6FE72A7
:1004D00050F8081C013A4CF10003890302D4002BA8
:1004E000F6D100BF50F8081C8903FBD5826B47F298
:1004F000000142F08052C4F2000182630A6842F4B3
:1005000040420A6002680260026842F400420260EF
:10051000026842F4A052026047F61902C0F6402277
:1005200040F8042C50F8082C42F0807240F8082C57
:1005300050F8082C9201FBD50A6842F480320A6018
:100540004A68D203FCD50A6842F400320A6000BF50
:100550004A689203FCD5016821F00301016001683B
:1005600041F00201016000BF01680907FCD501B03C
:100570007047000010B541F20004C4F200042046A8
:10058000012100F061FF012818BF10BD20460121A4
:1005900000F056FF04F5FE308021BDE8104000F069
:1005A00029BA0000B0B541F20004C4F2010440F2DF
:1005B0000431C0F20401204601F0A8F8012818BF58
:1005C000B0BD204600F0ACFF04F5AA34204602215D
:1005D00000F0B0F941F21605C0F58050C2F20005F6
:1005E00028802046022100F013F800F031F8288816
:1005F00040F21401C2F2000100220A5441F2140038
:10060000C2F2000001210170B0BD0000FEE7000051
:1006100001EB410100EBC100016921F00101016121
:100620007047000001EB410100EBC100016941F09E
:10063000010101617047000001EB410100EBC100C5
:10064000016921F0606141EA426101617047000087
:1006500010B58AB040F6164000F07AFE46F200442B
:10066000C4F202042046022100F036F8A4F5A830B6
:1006700040F21401A0F57F70C2F200010190012048
:10068000039100210290CDE906014FF480500890BB
:100690004FF44030CDE90411099001AA204602210F
:1006A00000F004F9204602210422FFF7C5FF20468E
:1006B0000221FFF7B7FF20460221102200F034F894
:1006C0003A200221012200F027FAA4F5AA304021A5
:1006D00000F092FF0AB010BD01EB410200EBC20234
:1006E00013694FF03D0C23F00103136100231361E4
:1006F00053619361D3611362212353620A1F28BFA0
:10070000D1B201EB410301F002014FF00C024FEABC
:10071000410138BF082201EB430113580CFA01F1E3
:100720001943115070470000102301EB4101802A4A
:1007300008BF2423184450F831301A4340F83120C0
:10074000704700000B1F38BF0B46D9B24FEA41017A
:1007500051FA83F103F002034FF00C0C4FEA43030C
:1007600038BF4FF0080C03EB41015CF8003002FA8F
:1007700001F119434CF8001070470000F0B503294F
:1007800021D8561E1F2E4FF0000300F28C804FF030
:10079000800C24248E460546DFE806F06C85851023
:1007A0008585853A85858585858585418585858588
:1007B0008585858585858585858585484FF0020CED
:1007C0001024042228E0561E1F2E4FF0000300F2D2
:1007D0006A800FF20C0202EB86070A1FDFE806F0C0
:1007E0001063632B63636333636363636363633BBC
:1007F00063636363636363636363636363636343E9
:10080000051D5FFA82FE4FF0800C2424012231E0A6
:100810004FF0040C102408228E4605462AE04FF0C3
:10082000080C10228E460546102423E010242022B6
:100830008E4605461CE0051D5FFA82FE4FF0020C55
:100840001024042216E0051D5FFA82FE4FF0040C0E
:10085000102408220EE0051D5FFA82FE4FF0080CFE
:100860001022102406E0051D5FFA82FE10242022CB
:100870004FF0100C0EF002072B680EEB4E057F00B8
:10088000204401EB410107EB450750F83100BA4025
:1008900013EA020100EA0C0018BF0121002818BF6A
:1008A000012001EA00031846F0BD000080B501EB0D
:1008B000410100EBC100416A48F23F7321F004019D
:1008C00041621168CFF6FC7381619168C161D169A1
:1008D00041610169D2F818E001EA030C116A136959
:1008E00041EA0C0141EA830141EA0E011943016129
:1008F0005168012907D00029016914BF41F4004162
:1009000041F4007102E0016921F400710161D168D4
:100910000369002923F4806308BF03F58063036142
:1009200051690269002922F4807208BF02F58072C1
:10093000026180BD01EB410100EBC10040697047DD
:1009400043F61441C4F201010860704743F61441B4
:10095000C4F201010968084018BF01207047000077
:10096000B0B541F20005C4F201050446C1B2284603
:1009700000F0DAFD2846072100F04EFE0028F9D0ED
:100980002046B0BDF0B5D0F820E0D0F824C0002358
:100990000F27002505E000BF0135082D03F10403F2
:1009A0000CD022FA05F6F607F6D007FA03F62EEA7F
:1009B000060601FA03F446EA040EEDE708230024D4
:1009C0000F2504E00133102B04F104040CD022FAAB
:1009D00003F6F607F6D005FA04F62CEA060701FA44
:1009E00004F647EA060CEDE7C0F820E0C0F824C0A2
:1009F000F0BD0000C16270470069084018BF0120C7
:100A0000704700002DE9F041D0F800E0D0F80CC0AC
:100A100000244FF00308002605E000BF0136102E29
:100A200004F1020412D023FA06F7FF07F6D008FA01
:100A300004F72EEA070E01FA04F54EEA050E2CEA39
:100A4000070702FA04F547EA050CE7E7C0F800E0FB
:100A5000C0F80CC0BDE8F0810129416814BF99437A
:100A600019434160B0B5D0F808C000214FF0030E23
:100A7000002404E00134102C01F102010CD023FA0F
:100A800004F5ED07F6D00EFA01F52CEA050C02FA92
:100A900001F54CEA050CEDE7C0F808C0B0BD000058
:100AA00010B540F6034000F053FC40F60044C4F299
:100AB00002042046012100228023FFF7A3FF2046E5
:100AC000002102228023BDE81040FFF7C5BF0000CF
:100AD00082B000F06DFCFFF7E3FF4FF4165000F01A
:100AE000A3FD40F2100C40F26120C2F2000C4FF066
:100AF000010EC0F6000005A180220023CDE900EC24
:100B000001F092FB01F0FAF8FEE700BF4372617456
:100B1000655461736B0000004EF60C5CCEF2000C65
:100B2000DCF8003003F4E063B3F5E06F01D1042397
:100B300028E0DCF8003003F4E063B3F5C06F01D1C6
:100B400003231FE0DCF8003003F4E063B3F5A06F8B
:100B500017D0DCF8003003F4E063B3F5806F01D107
:100B600001230FE0DCF8003003F4E063B3F5407FCD
:100B700001D1002306E040F20053C0F2FA53CCF852
:100B80000030022301FA03FCC3F104030F21D94012
:100B900011404EF2001241EA0C01CEF200020901AE
:100BA00040EA020383F8001300F01F01012303FA57
:100BB00001F11C2303EAD00081507047F0B581B0E9
:100BC0000D4643F6AC5141F21C06C2F20101C2F2DD
:100BD00000060F6831680446081D00F0CDFD10B115
:100BE000601C0FD027E0306843F6B042C06AC2F202
:100BF00001020121136801FA00F023EA00001060ED
:100C0000601C18D1BDB143F68450C2F201004168A6
:100C1000326891608A683368DA6032688B680432BF
:100C20005A60326804328A60316848610168013173
:100C3000016001B0F0BD3068E41944600BD341F2AB
:100C40002C00C2F2000000683168043101B0BDE838
:100C5000F04000F0B3BD41F22400C2F20000006891
:100C60003168043100F0AAFD43F61050C2F20100D1
:100C700001688C4238BF046001B0F0BD70B500F06F
:100C8000D3FD43F6B056C2F20106306818B1BDE894
:100C9000704000F0EDBD43F6B444C2F201042046BA
:100CA00000F07CFD43F6C845C2F20105284600F07D
:100CB00075FD41F22000C2F20000046041F23000F4
:100CC000C2F2000005600A200C21002201F04AF95E
:100CD00000283060DBD003A100F05EFEBDE870406C
:100CE00000F0C6BD546D72510000000043F6A445EB
:100CF00041F2340A4EF6045843F6985743F6A0469C
:100D0000C2F20105C2F2000ACEF200084FF080598B
:100D1000C2F20107C2F2010615E000BF00F084FD37
:100D2000F868C468201D00F027FD30680138306085
:100D300028680138286000F09BFD206B00F0B0FDB2
:100D4000204600F0ADFD28680028E7D1DAF8000061
:100D50000228F8D3C8F80090BFF34F8FBFF36F8F0E
:100D6000F1E7000008480068006880F308884FF049
:100D7000000080F3148862B661B6BFF34F8FBFF3F3
:100D80006F8F00DF00BF000008ED00E02DE9F043A9
:100D900081B041F22008C2F20008D8F800200546D0
:100DA000D2680E46D46804F10409484600F0E4FC19
:100DB00094F8280041070CD400F0FE0084F82800C5
:100DC0001CE000BF711B814210D3216A2046884776
:100DD0003D46A06924614719B7426760F2D9AE4227
:100DE00001D2AF42F1D2D8F8000004E041F2300065
:100DF000C2F200000068494600F0E0FC216A20468B
:100E000001B0BDE8F043084781B00020009040F2F7
:100E10000800C2F2000000684FF0500181F3118811
:100E2000BFF36F8FBFF34F8F013001D0FEE700BFDC
:100E300000980028FCD001B07047000084B041F257
:100E4000200441F2180941F2300A43F6B05BC2F2C5
:100E50000004C2F20009C2F2000AC2F2010B0DF155
:100E6000040800BF2068076817B1C068066800E082
:100E7000002600F091FF01F0EBFAD9F800100546CA
:100E8000884209D22068016891B1C0684FF0FF31F3
:100E90000068FFF77BFFF5E7C9F8005097B1AE4255
:100EA00010D801F02DFC30462946FFF76FFF2DE0EA
:100EB000DAF80010CAF800002160C9F8005001F00B
:100EC0001FFC23E00FB1002205E0DAF80000006803
:100ED000B0FA80F04209DBF80000711B00F08AFDD7
:100EE00001F00EFC90B94EF60450CEF200004FF027
:100EF00080510160BFF34F8FBFF36F8F06E000F0AA
:100F0000FE0085F82800296A28468847DBF800009B
:100F10004146002201F070F80028A3D00198002873
:100F2000F4D4039D686910B1281D00F025FC01F080
:100F30008FFAD9F80010064688420ED22068016860
:100F400031B1C0684FF0FF310068FFF71FFFF5E7D0
:100F5000DAF80010CAF8000021600198C9F80060B2
:100F600001380828D2D8DFE800F005051A2162050B
:100F7000051A210095F82800029AA96940F001039A
:100F800085F828308B182F4647F8043FB3422D616F
:100F900021D9964201D2934226D2206820E095F8CA
:100FA000280000F0FE0085F82800AFE795F828003B
:100FB00040F00101029885F828100028A86150D05F
:100FC0003044294641F8040FB0422D6137D92068DA
:100FD00000F0F4FB9AE7B21A8A4205D2DAF8000070
:100FE000394600F0EBFB91E742077FF588AF0298A6
:100FF000D946C346D046084407E000BF301A8842AD
:1010000022D3296A284688475046A9692D6101EBF9
:10101000000AB245C5F804A0F0D9864201D2824543
:10102000EFD22068394600F0C9FBC24612E095F8BD
:1010300028008107B5D4284600F032FC66E7DAF8CC
:10104000000000F0BBFB61E7D8F800003946C2465B
:1010500000F0B4FBD846CB4641F21809C2F20009B1
:1010600051E74FF0500080F31188BFF36F8FBFF34B
:101070004F8F00BFFEE70000F0B581B0044600F0DE
:10108000D3FB94F94560012E0FDB04F1240500BF6A
:10109000286850B1284601F0BFFA002818BF00F0B8
:1010A000CFFD70B2013E0128F2DCFF2684F84560D6
:1010B00000F0DEFB00F0B8FB94F94470012F0EDB6A
:1010C00004F11005286850B1284601F0A5FA00285F
:1010D00018BF00F0B5FD78B2013F0128F2DC84F8BA
:1010E000446001B0BDE8F04000F0C2BB70B50446FA
:1010F00000F052FE41F22801C2F20001086843F6F6
:10110000045EC2F2010E58B184B304F00700113836
:10111000A04226BF24F0070000F11003002326E0C0
:1011200041F29800C2F20000C21D430700F5963359
:1011300018BF22F0070043F67C52C2F201020026DB
:10114000C2E9000623F00702A2F108030B6042E99E
:1011500002661A1A0B68CEF80020C0E9003243F686
:101160000C50C2F201000260002CCED10023012BF2
:101170004FF000046CDBDEF80000834268D843F6D1
:101180007C52C2F2010215686C689C4207D200BF13
:10119000286820B144682A4605469C42F8D308686E
:1011A000854212D0D2F800C02E68E01A11281660CD
:1011B00031D3EC1862070AD04FF0500080F3118849
:1011C000BFF36F8FBFF34F8FFEE7002440E06060F6
:1011D0006B6043F67C53C2F2010300BF1A461B68E2
:1011E000A342FBD350681618A64203D1646820447A
:1011F000144650606668A019984201D0184606E06F
:101200000868834203D0D3E9000131446160A242FF
:10121000206018BF146043F60C506968DEF80020A7
:10122000C2F201000368511A9942CEF8001038BF8B
:10123000016043F618526868C2F20102136840F078
:10124000004000210CF10804C5E90010581C106092
:1012500001F056FA600708D04FF0500080F3118873
:10126000BFF36F8FBFF34F8FFEE7204670BD0000C6
:10127000034640F6096021F00101C0F600004FF07E
:10128000807C03E903106FF00201A3F1440043E9FD
:101290000912704710B543F60402C4F20202536803
:1012A0000146C3F3810342F20040022BC0F2F40076
:1012B00006D0012B1FD147F64000C0F27D101AE086
:1012C000D2F800C013680CF03F0CC3F3881E1368FB
:1012D0001468C3F30143640247F64004C0F27D146E
:1012E00058BF0446B4FBFCF4022000EB430004FBAF
:1012F0000EF3B3FBF0F0536811A4C3F30313E35CE4
:10130000546842F6241CC4F38224C0F6000C1CF876
:1013100004E05268032907D820FA03F3DFE801F05C
:101320000F020609184610BD002010BD23FA0EF06A
:1013300010BDC2F342301CF8000023FA00F010BDCB
:101340000000000000000000010203040607080975
:1013500043F6000300F01F018009C4F202034FF0BE
:10136000010CC2580CFA01F11143C1507047000042
:1013700043F6000300F01F018009C4F202034FF09E
:10138000010CC2580CFA01F122EA0101C150704768
:1013900043F6000300F01F018009C4F202034FF07E
:1013A000010CC2580CFA01F11143C1507047000002
:1013B00040F20400C2F20000006844F6D351C1F2CA
:1013C0006201A0FB01014FF0FF3000EB9110B0F182
:1013D000807F11D24EF21001CEF2000148604EF62D
:1013E0002350CEF20000F0220270002207238A6010
:1013F0000B600270704700BFFEE7000048F29C24BB
:10140000C4F24124012500264FF49670256000F0B7
:1014100015FB4FF49670266000F010FBF4E7000017
:1014200040F29424C4F2402401250026C8202560FF
:1014300000F004FBC820266000F000FBF6E7000087
:10144000C943016170470000C26800690A40084052
:1014500018BF0120002A18BF012210407047000069
:10146000B0B5044647F2FF70C4F200000D46844256
:101470004FF000000EDC44F6FF31C4F200018C4254
:1014800017DC44F20041C4F200018C421DD044F646
:10149000000116E040F6FF71C4F201018C422FDC1E
:1014A00047F60001C4F200018C420ED047F600411D
:1014B00007E044F60041C4F200018C4205D045F239
:1014C0000001C4F200018C4203D102210846FFF75B
:1014D000E1FEE168090406D400EB5500B0FBF5F02D
:1014E00080B2A060B0BD400000EB5500B0FBF5F04D
:1014F0004FF6F0710140C0F342000844A060B0BD57
:1015000041F20001C4F201018C424FF00301DDD031
:1015100041F20042C4F201029442D7D0D9E7000060
:1015200040686FF35F2070476FF35F214160704741
:1015300010B547F2FF71C4F20001884214DC44F692
:10154000FF31C4F20001884224DC44F20041C4F2BD
:10155000000188423CD044F60001C4F200018842F8
:1015600049D140F612043EE040F6FF71C4F2010199
:1015700088421EDC47F60001C4F2000188422AD0EE
:1015800047F60041C4F20001884218BF10BD40F682
:101590001F0428E044F60041C4F2000188421DD037
:1015A00045F20001C4F20001884224D140F614043F
:1015B00019E041F20001C4F20101884211D041F268
:1015C0000041C4F20101884215D140F605140AE039
:1015D00040F6110407E040F61E0404E040F6130450
:1015E00001E040F604142046FFF7D2FE2046BDE895
:1015F0001040FFF7BDBE10BD426901F0400122F06E
:10160000400242614269114341617047C16841F43F
:101610000051C160704700008A09105801F01F0195
:10162000C84000F00100704770B505464FF44060B7
:10163000FFF78EFE4FF44060FFF78AFE41F2041080
:10164000FFF786FE41F20004C4F2010404F570467F
:10165000304607214FF40072FFF794F93046072116
:101660004FF48062FFF78EF93046022101224FF4D9
:101670000073FFF7C7F93046022101224FF480635F
:10168000FFF7C0F93046002102224FF40073FFF744
:10169000E3F93046002102224FF48063FFF7DCF9C2
:1016A0002046FFF745FF20462946FFF7D9FE204692
:1016B000002100F03DF82046002100F055F82046BA
:1016C000002100F043F82046FFF7A0FF2046082144
:1016D00000F044F82046042100F032F825200221D1
:1016E0000222FFF719FA20464FF44171BDE870401D
:1016F000AFF3008001F01F0289094FF0010C0B5875
:101700000CFA02F21A430A5070470000C1F3891222
:1017100052F800C08A0D105801F01F03C1F30441B4
:10172000C8402CFA03F1084000F0010070470000A7
:10173000C26822F4C062C260C2681143C1607047CF
:10174000C26822F004021143C1607047026922F4AA
:10175000405202610269114301617047C26822F080
:1017600008021143C1607047C26822F48052C2600F
:10177000C2681143C1607047D0E9013201699A60C3
:10178000D1F804C082688445536008BF4A600022D3
:101790000261086801380860086870474FF0FF313F
:1017A000024642F8081F00214260C0E9032201609E
:1017B00070470000002101617047000080B5D1F83A
:1017C00000C01CF1010207D000F108039E465B68CF
:1017D0001A686245FAD901E0D0F810E0DEF804207A
:1017E00008614A609160C1F808E0CEF80410016811
:1017F0000131016080BD0000D0F800C0436808617D
:101800009A684B608A609A68996051600CF1010196
:1018100001607047DFF80C00016841F4700101605D
:101820007047000088ED00E04FF0500080F3118811
:10183000BFF36F8FBFF34F8F40F20800C2F200007A
:1018400001684A1C026001B170474EF60450CEF2A6
:1018500000000068000608BF70474FF0500080F39A
:101860001188BFF36F8FBFF34F8F00BFFEE70000FB
:1018700040F20800C2F20000016839B1013901608C
:1018800018BF7047002080F3118870474FF0500058
:1018900080F31188BFF36F8FBFF34F8FFEE7000017
:1018A000B0B5002808BFB0BD044650F8040C0028AD
:1018B00009D44FF0500080F31188BFF36F8FBFF34E
:1018C0004F8F00BFFEE7A4F10805296849B14FF02A
:1018D000500080F31188BFF36F8FBFF34F8F00BFAD
:1018E000FEE720F0004044F8040C00F055FA43F6FF
:1018F0000451C2F2010154F8040C0A681044086053
:1019000043F67C51C2F2010108460968A942FBD3A3
:1019100042688318AB4204D154F8043C05461A448B
:1019200042606B68EA188A4201D00A460AE041F236
:101930002802C2F200021268914203D0D1E90021CC
:1019400019446960A8422A6018BF056043F61C501C
:10195000C2F20100016801310160BDE8B04000F051
:10196000CFBE00004EF21000CEF200000021016058
:10197000816040F20401C2F20001096844F6D352CA
:10198000C1F26202A1FB02124FF0FF3101EB921192
:101990004160072101607047B0B5C8B14FF0000C3D
:1019A000F9B143F6385EC2F2010E0023002202E0D4
:1019B0000833402B18D00EEB03046568854212D023
:1019C000002AF5D12268002A18BF64462246EFE7B4
:1019D0004FF0500080F31188BFF36F8FBFF34F8F2C
:1019E000FEE7002200E02246002A18BFC2E90010EC
:1019F000B0BD000070B515460E460446FFF714FF53
:101A000094F84400FF2804BF002084F8440094F8B0
:101A10004500FF2804BF002084F84500FFF728FF99
:101A2000A06B28B904F1240031462A4600F02CF9B5
:101A30002046BDE87040FFF71FBB000070B50028CE
:101A400051D0044643F6A840C2F20100016841B1FA
:101A50004FF0500080F31188BFF36F8FBFF34F8FAB
:101A6000FEE7016841F21C050131016043F6AC500C
:101A7000C2F20100C2F20005066828680430FFF7D0
:101A80007BFE60B9286843F6B042C06AC2F2010228
:101A90000121136801FA00F023EA000010602868B1
:101AA000A419446009D341F22C00C2F2000000687E
:101AB00029680431FFF782FE10E041F22400C2F2EF
:101AC0000000006829680431FFF778FE43F61050E3
:101AD000C2F2010001688C4238BF046000F010FEC1
:101AE000002818BF70BD4EF60450CEF200004FF033
:101AF00080510160BFF34F8FBFF36F8F70BD000047
:101B000070B50446FFF790FE41F21C06002CC2F2AD
:101B1000000608BF3468251D2846FFF72DFEA0B932
:101B2000E06A41F2340200EB8001C2F2000252F896
:101B3000211051B943F6B042C2F2010201211368EB
:101B400001FA00F023EA00001060A06A18B104F165
:101B50001800FFF711FE43F6AC40C2F20100016825
:101B6000013101603068844216D043F6A040C2F2D1
:101B7000010001680139016041F22400C2F2000055
:101B800001680968B1B1006843F61051C068C2F23B
:101B900001010068086014E043F69850C2F20100A9
:101BA0002946FFF729FE43F6A440C2F2010001686E
:101BB000013105E043F61050C2F201004FF0FF3151
:101BC0000160FFF755FE3068844205D0206BFFF7B7
:101BD00067FE2046FFF764FE43F67850C2F201002C
:101BE0000068E8B13068844218BF70BD43F6A84071
:101BF000C2F20100006840B14FF0500080F311883C
:101C0000BFF36F8FBFF34F8FFEE74EF60450CEF257
:101C100000004FF080510160BFF34F8FBFF36F8F13
:101C200070BD000043F61451C2F201010968016061
:101C300043F6AC51C2F201010968416070470000EF
:101C400043F6B850C2F20100012101607047000064
:101C500078B110B50C4641F21C01C2F200010968CE
:101C60001831FFF7ABFD20460121BDE81040FEF71B
:101C7000A5BF4FF0500080F31188BFF36F8FBFF303
:101C80004F8F00BFFEE7000068B310B541F21C0C97
:101C9000C2F2000C0346D0F804E0DCF80000002A91
:101CA000C0F81CE0DEF80800DCF800402062DCF838
:101CB0000000DEF8084000F118006060DCF8000069
:101CC00000F11800CEF80800DCF800008362186804
:101CD00018BF4FF0FF31441C084611461C60BDE898
:101CE0001040FEF76BBF4FF0500080F31188BFF338
:101CF0006F8FBFF34F8F00BFFEE7000080B582B04B
:101D000043F6085C40F6ED40C2F2010C4FF0000EC5
:101D1000C0F600001EA182220023CDE900EC00F0F5
:101D200083FA012808BF00F0ABFD411C25D0012833
:101D30001CD14FF0500080F31188BFF36F8FBFF3B9
:101D40004F8F43F61050C2F201004FF0FF31016097
:101D500043F67850C2F201000121016043F6AC5015
:101D6000C2F201000021016000F062F842F6481062
:101D7000C0F60000006802B080BD4FF0500080F354
:101D80001188BFF36F8FBFF34F8F00BFFEE700BF17
:101D900049444C450000000043F6A840C2F201004F
:101DA000016801310160704743F6A840C2F20100AA
:101DB000006830B143F6B850C2F201000121016061
:101DC000704743F6B850C2F201000021016043F6AB
:101DD000B040C2F201000068B0FA80F0C0B2C0F1B9
:101DE0001F0041F2340100EB8000C2F2000151F803
:101DF000202092B101EB800050F8041F4968021DB9
:101E00009142016001D149680160006841F21C0102
:101E1000C068C2F20001086070474FF0500080F3C4
:101E20001188BFF36F8FBFF34F8F00BFFEE7000035
:101E3000B0B584B04EF20040CEF200004CF27021FA
:101E4000C4F20F11D0F800294B1C9A4209D14FF06F
:101E5000500080F31188BFF36F8FBFF34F8F00BF27
:101E6000FEE7D0F800298A4209D14FF0500080F3F4
:101E70001188BFF36F8FBFF34F8F00BFFEE701786C
:101E800043F698420291FF2101700178C2F20102EB
:101E90008DF807109DF8071001F05001117043F6FE
:101EA0009C41C2F2010107220A609DF90720B2F1AC
:101EB000FF3F0CDC062200BF0A609DF80730013AA4
:101EC0005B008DF807309DF90730002BF4D40A68C9
:101ED000032A3DD14FF4E06303EA02220A6002992B
:101EE0000170D0F8201941F47001C0F82019D0F821
:101EF000201941F07041C0F82019FFF733FD40F27E
:101F00000804C2F2000400252560FFF783FC4EF6AA
:101F10003470CEF20000016841F040410160FEF7EC
:101F200021FFFFF741FF039520684FF0500181F337
:101F30001188BFF36F8FBFF34F8F013002D000BF06
:101F4000FEE700BF03980028FCD0002004B0B0BD1D
:101F50004FF0500080F31188BFF36F8FBFF34F8FA6
:101F6000FEE700002DE9F041D8B306460F46A0FB7E
:101F70000101B1BB07FB06F010F1510F31D8503011
:101F80001446FFF7B3F84FF0000838B30546002FAA
:101F900018BF50302860C5E90F67FFF745FC286877
:101FA000D5E90F12C5F8388002FB0103013901FBA6
:101FB0000201C5E90103FF20E96085F8440085F8C6
:101FC000450005F11000FFF7E9FB05F12400FFF7DC
:101FD000E5FBFFF74DFCA84685F84C404046BDE8C0
:101FE000F0814FF0500080F31188BFF36F8FBFF383
:101FF0004F8F00BFFEE700002DE9F04F85B004923F
:1020000098B10C460546002900F0B78000F00CFAA4
:10201000A8B9049898B14FF0500080F31188BFF32D
:102020006F8FBFF34F8F00BFFEE74FF0500080F37C
:102030001188BFF36F8FBFF34F8F00BFFEE705F12D
:102040001000019005F1240000900DF108090DF138
:10205000100A4FF000080CE02846FFF70DF800F0DA
:102060004FFBFFF7E1FBAF6BFFF702FC002F00F027
:102070009280FFF7D9FBD5F838B0BBF1000F27D01D
:102080002A6C5AB1D5E902011144E960814224BFAA
:102090002868E860E9682046FEF7A4F8ABF1010083
:1020A000A863286970B1019800F0B6FA50B14EF6F5
:1020B0000450CEF200004FF080510160BFF34F8F0B
:1020C000BFF36F8FFFF7D4FB00200126A0B963E0B8
:1020D000049850B1B8F1000F02D14846FFF7A2FDB5
:1020E0004FF00108012038B956E0FFF7C1FB002688
:1020F0000020002850D000BFFFF7BAFBFFF74CFECE
:10210000FFF792FB95F84400FF2804BF002085F8F4
:10211000440095F84500FF2804BF002085F84500DD
:10212000FFF7A6FB4846514600F03AF800287FF436
:1021300093AFFFF779FBAF6BFFF79AFB2FB1284600
:10214000FEF79AFF00F0DCFA93E704990098FFF796
:102150007FFD2846FEF790FF00F0D2FA00287FF4BA
:1021600088AF4EF60450CEF200004FF0805101606F
:10217000BFF34F8FBFF36F8F7BE7286C00283FF4CE
:1021800045AF4FF0500080F31188BFF36F8FBFF35E
:102190004F8F00BFFEE70026304605B0BDE8F08F48
:1021A00070B530B30D4671B30446FFF73DFB43F6FF
:1021B000AC5EC2F2010EDEF8003029684A1C16D06F
:1021C00043F6145CC2F2010CD4E90002DCF80060B2
:1021D000864201D0934220D29A1A91421DD9881A80
:1021E0002860DCF800002060DEF800006060002459
:1021F00016E04FF0500080F31188BFF36F8FBFF3EC
:102200004F8F00BFFEE74FF0500080F31188BFF3FF
:102210006F8FBFF34F8F00BFFEE7002001242860BF
:10222000FFF726FB204670BD2DE9F04F81B09700E7
:1022300081463846984692460E46FEF757FF80B1D3
:1022400005465820FEF752FF40B158210446FDF7DD
:10225000E2FF256344B94FF0FF36E1E02846FFF77F
:102260001FFB0024002CF6D0206B0A9D3946A522C6
:10227000FDF7CAFF206B76B104F13401002200BFE4
:10228000B35C8B54B35C1BB1092A02F10102F7D194
:10229000002184F83D10052D09D34FF0500080F344
:1022A0001188BFF36F8FBFF34F8F00BFFEE700EBC6
:1022B0008A00043804F1040B20F007060B9F5846EF
:1022C000E562A564FFF776FA04F11800FFF772FAE9
:1022D000C5F10500A061304649464246246164626A
:1022E000FEF7C6FF002F206018BF3C60FFF79CFA86
:1022F00043F6A040C2F20100016841F21C0A01311C
:102300000160C2F2000ADAF8001043F6785941F28F
:102310003407C2F20109C2F2000761B1D9F8000026
:10232000002840D1DAF80000E16AC06A884298BF0C
:10233000CAF8004037E0CAF800400068012832D1EE
:10234000002500BF7819FFF729FA1435642DF9D15B
:1023500043F6DC48C2F201084046FFF71FFA43F695
:10236000F046C2F201063046FFF718FA43F6245051
:10237000C2F20100FFF712FA43F69850C2F20100D0
:10238000FFF70CFA43F68450C2F20100FFF706FA99
:1023900041F22400C2F20000C0F8008041F22C009B
:1023A000C2F20000066043F6AC40C2F201000168D0
:1023B000012601310160216443F6B041E06AC2F2B6
:1023C00001010A6806FA00F31A4300EB80000A6074
:1023D00007EB80014A6861619368A260E3609368DB
:1023E000C2F808B0C3F804B057F82010013147F81C
:1023F0002010FFF73DFAD9F8000088B1DAF80000A4
:10240000E16AC06A88420AD24EF60450CEF2000059
:102410004FF080510160BFF34F8FBFF36F8F0126E4
:10242000304601B0BDE8F08F43F67850C2F20100AB
:102430000068002804BF0120704743F6A840C2F29C
:1024400001000068B0FA80F04009400070470000C9
:1024500043F6AC50C2F20100006870472DE9F04F1E
:1024600043F6A840C2F20100006848B143F620508C
:10247000C2F201000168013101600020BDE8F08F67
:1024800043F6AC50C2F20100016811F1010EC0F830
:1024900000E02DD341F22400C2F20000026812686D
:1024A0004AB14FF0500080F31188BFF36F8FBFF334
:1024B0004F8F00BFFEE741F22C03C2F20003026817
:1024C0001F6807601A6043F61452C2F201021368D3
:1024D00001331360026812681AB10068C0680068AE
:1024E00001E04FF0FF3043F61052C2F201021060DB
:1024F00043F61051C2F20101086841F234088645E2
:10250000C2F2000801D200206EE041F2240AC2F2B9
:10251000000ADAF800004FF000090068002858D0DF
:1025200043F6B04BC2F2010B002025E0F96ADBF85C
:10253000002001238B401A43CBF8002001EB8102DD
:1025400008EB82035E687B61B468BE60FC60B468BF
:10255000B560656058F82230013348F8223041F206
:102560001C02C2F200021268D26ADAF8003091420C
:1025700088BF0120196881B3DAF80030DB68DF68B2
:102580003D4655F8044FA64529D3D7E902637C6937
:10259000B360D4F804C0FB68AC455E6008BF6360FC
:1025A000C7F814902368013B2360BC6A002CBDD09F
:1025B000D7E907636268B3603B6A07F118018A4292
:1025C0005E6008BF6360C7F8289021680139216008
:1025D000ACE74FF0FF34002005E04FF0FF3443F646
:1025E0001051C2F201010C6041F21C01C2F2000163
:1025F0000968C96A01EB810158F82110012943F6E5
:10260000B851C2F2010188BF01200968002918BF32
:102610000120BDE8F08F0000C068C06810B310B59D
:10262000D0E90713826A8B60036AD2F804E000F1F4
:10263000180C59600021E64508BF5360816211689B
:102640000139116043F6A841C2F20101096891B154
:1026500043F62452C2F20102516882628B68C16162
:10266000036231E04FF0500080F31188BFF36F8FA9
:10267000BFF34F8FFEE7D0E9021342698B60D2F8B7
:1026800004E0C36800F1040CE645596008BF5360DC
:10269000116843F6B04401391160C16AC2F2010405
:1026A0004FF0010E22680EFA01F31A43226041F244
:1026B000340201EB8101C2F2000202EB8102516897
:1026C00042618B688160C3608B68C1F808C0C3F841
:1026D00004C011680131116041F21C01C2F2000115
:1026E000C06A0968C96A8842BDE8104091BF0020ED
:1026F00043F6B851C2F20101012088BF086070475B
:102700002DE9F04F81B043F6A844C2F201042068DD
:1027100068B1FFF789F8206801382060206880B12F
:102720000024FFF7A5F8204601B0BDE8F08F4FF078
:10273000500080F31188BFF36F8FBFF34F8F00BF3E
:10274000FEE743F6A040C2F2010000680028E7D08F
:1027500043F6245AC2F2010ADAF8001043F6B858D8
:102760000029C2F2010868D043F6B04B41F23404AC
:1027700041F21C0E4FF0000C4FF00109C2F2010BA8
:10278000C2F20004C2F2000EDAF80C10CE68D6E9EC
:102790000721B76A91607868316A06F11805A84286
:1027A0004A6008BF7960C6F828C0386801383860C8
:1027B000D6E90202716982604A68F568371DBA423B
:1027C000686008BF4D60086801380860F06ADBF88F
:1027D000001009FA00F21143CBF8001000EB800161
:1027E00004EB810255687261AB68B560F360AB6859
:1027F000AF605F6054F82120013244F82120DEF8F8
:102800000010C96A884228BFC8F80090DAF80000B2
:102810000028B9D18EB141F22400C2F20000016853
:10282000096819B10068C068006801E04FF0FF3026
:1028300043F61051C2F20101086043F62054C2F27F
:102840000104256855B10126FFF708FE002818BFCE
:10285000C8F80060013DF7D100202060D8F80000E2
:1028600000283FF45DAF4EF60450CEF200004FF06A
:1028700080510160BFF34F8F0124BFF36F8F50E78A
:1028800080B582B0FEF7FAF943F6B050C2F201000B
:10289000006890B143F6B45C40F63D60C2F2010CB2
:1028A0004FF0020EC0F600000BA14FF4827200231D
:1028B000CDE900ECFFF7B8FC00E0002000281CBFC9
:1028C00002B080BD4FF0500080F31188BFF36F8FCE
:1028D000BFF34F8FFEE700BF546D72205376630045
:1028E00002E008C8121F08C1002AFAD170477047D9
:1028F000002001E001C1121F002AFBD17047000037
:1029000010B5044601E0FEF72BF814F8010B04495A
:102910000028F8D1BDE810400A20FEF721B80000D9
:102920000000002000000000010203046B65792014
:1029300072656C65617365210D006B65792070723D
:10294000657373210D000000040000007029000869
:102950000000002010000000E02800088029000886
:1029600010000020B0410100F02800080000000025
:1029700000000000001C4E0EAAAAAAAA0000000037
:04000005080001AD41
:00000001FF
